:020000040800F2
:10000000A0EC0020E101000883240008951F0008EF
:10001000812400080D050008193F000800000000B9
:10002000000000000000000000000000490100087E
:100030000F050008000000008D010008F93A0008D3
:10004000FB010008FB010008FB010008FB010008A0
:10005000FB010008FB010008FB010008FB01000890
:10006000FB010008FB010008FB010008FB01000880
:10007000FB010008FB010008FB010008FB01000870
:10008000FB010008FB010008FB010008FB01000860
:10009000FB010008FB010008FB010008FB01000850
:1000A000FB010008FB010008FB010008FB01000840
:1000B000FB010008FB010008FB010008FB01000830
:1000C000FB010008FB010008FB010008FB01000820
:1000D000FB0100088D3E0008FB010008FB01000841
:1000E00011050008FB010008FB010008FB010008E6
:1000F000FB010008FB010008FB010008FB010008F0
:10010000FB010008FB010008FB010008FB010008DF
:10011000FB010008FB010008FB010008A93B0008E7
:10012000FB010008FB010008FB010008FB010008BF
:10013000DFF810D000F03CF9004800471DE6000849
:10014000AFF30080A0EC0020224B19680868B0E8EB
:10015000F00F80F30988BFF36F8F4FF0000080F33A
:1001600011884EF00D0E7047000000000648006830
:10017000006880F3088862B661B6BFF34F8FBFF3A3
:100180006F8F00DF00BF00BF08ED00E0EFF30980D4
:10019000BFF36F8F0F4B1A6820E9F00F106008B59E
:1001A0004FF0500080F31188BFF34F8FBFF36F8F74
:1001B0000FF0A0FA4FF0000080F31188BDE808406E
:1001C00019680868B0E8F00F80F30988BFF36F8FF3
:1001D000704700BF30000020EFF30580704700003B
:1001E0000648804706480047FEE7FEE7FEE7FEE7D1
:1001F000FEE7FEE7FEE7FEE7FEE7FEE7A73B0008B7
:1002000031010008202A04DB203A21FA02F0002103
:10021000704721FA02F3D040C2F120029140084316
:100220001946704740EA01039B0703D009E008C95B
:10023000121F08C0042AFAD203E011F8013B00F8AB
:10024000013B521EF9D27047D2B201E000F8012BF7
:10025000491EFBD270470022F6E710B513460A4646
:1002600004461946FFF7F0FF204610BD421C10F867
:10027000011B0029FBD1801A704710B5002200E055
:10028000521C835C8C5CA34201D1002BF8D1D8B204
:10029000E1B2401A10BD30B504460020034600E02C
:1002A0005B1C934203D2E05CCD5C401BF8D030BDB8
:1002B000034611F8012B00F8012B002AF9D118464A
:1002C000704770B5064603F093FE046805460A229F
:1002D0000021304600F033F82C6070BD2DE9F05F4E
:1002E0000546002092469B468846064681464024A5
:1002F0001BE02846414647462246FFF783FF534608
:100300005A46C01A914110D311461846224600F0B1
:1003100061F82D1A67EB01084F46224601200021A3
:1003200000F058F817EB00094E41201EA4F101041B
:10033000DFDC484631462A464346BDE8F09F2DE9BA
:10034000F04791460F4680460446002614F8015BAC
:100350002DB100F04FF80068405DC007F6D12B2D9D
:1003600002D02D2D18D0641E4A463946204600F092
:1003700045F827B13968A14201D1C7F8008071055D
:100380004FF002040BD54042002803DD03F030FE9D
:100390000460A007BDE8F08746F48066E4E7002823
:1003A000F8DA03F025FE04606FF00040F2E7000089
:1003B000064C074D06E0E06840F0010394E80700B2
:1003C00098471034AC42F6D3FFF7B6FEE842010876
:1003D00008430108202A04DB203A00FA02F1002039
:1003E00070479140C2F1200320FA03F31943904073
:1003F0007047000000487047F84101082DE9F05FA0
:1004000082460078002715468B460AF10104B9465A
:10041000302801D09DB113E014F8010B0127782892
:1004200003D0582801D045B10AE00DB1102D07D1F5
:100430000027102514F8010B02E0082500E00A252A
:100440000026B0460EE005FB080005FB06F101277B
:1004500001EB10461FFA80F8B6F5803F00D3B9468D
:1004600014F8010B294600F018F80028EBDABBF16C
:10047000000F05D00FB1641E00E05446CBF80040D9
:10048000B9F1000F06D003F0B3FD02210160C81ED0
:10049000BDE8F09F48EA0640FAE73A2800D2303833
:1004A00020F02002412A01D3A2F13700884201D373
:1004B0004FF0FF30704770B58C1810F8015B15F0E5
:1004C000070301D110F8013B2A1106D110F8012BC6
:1004D00003E010F8016B01F8016B5B1EF9D12B07EB
:1004E00005D40023521E0DD401F8013BFAE710F8A1
:1004F000013BCB1A921C03E013F8015B01F8015B8E
:10050000521EF9D5A142D8D3002070BDFEE7704736
:1005100010B5054C2068400505D52021034800F0A2
:1005200098FB2015206010BD140401400018014004
:1005300072B6FEE730B5B3F5804F05D06FF070416D
:1005400040F82210002030BD8C690B688D68234371
:100550004C688989240144EA0524234343EA014184
:1005600050F82230014C23401943E9E70000F0CF56
:1005700010B50A6850F8223023F0010340F8223009
:100580008C68082C23D000234A682243CC681C4383
:100590000B6922431A434B690E4C1A43CB691A4329
:1005A0000B6A1A434B6A1A438B6A1A43CB6A1A4383
:1005B0000B6B1A438B6913434A6B09681A4350F853
:1005C0002130A343134340F82130002010BD4023C5
:1005D000DAE700007FFF0F0030B5D1E9003443EACD
:1005E00004138C688D89240244EA054423430C8A51
:1005F000094D00EB820005EB045423430C7D6D0193
:1006000005EB0464896923430B43416801F04041D1
:100610000B434360002030BD0000F0FF811C00F060
:1006200035B801F075BD00002DE9F041154C0026EC
:100630000127227814483546B90232B14FF002083A
:10064000012A06D0022A15D111E000F0FDFA60B1AE
:1006500010E000F0F9FA08B165600BE06068401C3A
:100660006060022801D9656008E0277003E000F0AF
:10067000EBFA18B125703046BDE8F08184F80080AF
:100680000126F8E7A0000020001C01402DE9FF41F1
:10069000074623A0234A00680E46039007CA8DE848
:1006A0000700BA2500240C226946284600F06EF89F
:1006B000010003D51CA003F07BFC2AE09DF802009A
:1006C000002827D001061AD500F00F04052C16D8F3
:1006D000ACB1214A214BBDF804001278BDF80610D8
:1006E00002EB420233F812C0844508DD03EB4202FC
:1006F00052888A4203DD3880C1F5F07030800322D1
:1007000003A9284600F072F8002806DA14A003F0C6
:100710004FFC002004B0BDE8F0812046FAE700005D
:10072000814E0000581301083C3C2D4754502D4584
:1007300052524F522D3E3E20493243207472616E18
:1007400073666572206572726F722E206572726EAA
:100750006F3A25640A200A00B400002058120108EC
:100760003C3C2D4754502D494E464F2D3E3E20498E
:10077000324320777269746520656E645F636D64CF
:10078000206572726F72210A00000000F0B587B018
:100790000D460221ADF8041000240121ADF80240FD
:1007A000ADF80E108DF800008DF80C00901EADF81D
:1007B0001000A81C1646029505900221684601F01B
:1007C000B1FC0746022803D0641C052CF5DB01E0D0
:1007D000052C06DB28883B4641BAB21E024803F0CE
:1007E000E7FB07B03846F0BD14420108FEB500240F
:1007F000ADF8024016460F468DF80000ADF8042013
:1008000002910121684601F08DFC0546012803D0C4
:10081000641C052CF5DB01E0052C06DB38882B4633
:1008200041BAB21E024803F0C3FB2846FEBD0000D9
:100830006442010810B590F821100022022905D069
:100840000421816380F82020012010BD01680B681D
:1008500023F00E030B6001680B6823F001030B60AB
:1008600090F84030C46B012101FA03F3636080F813
:10087000211080F82020104610BD00002DE9F05F07
:1008800090F821100024022903D00421816301245F
:1008900085E001680A6822F00E020A6001680A68B1
:1008A00022F001020A603F4E3E4FB215DFF8F4C05D
:1008B000DFF8F090DFF8ECA0DFF8E8B0DFF8E4E074
:1008C0000168783F13011502ACF1640CA9F15009DD
:1008D000AAF13C0AABF1280BAEF1140E4FF48018CC
:1008E000B14227D9B9420ED0614512D049451DD039
:1008F000514518D0594518D0714501D1424615E0EF
:10090000294EB14201D1012210E0274E1436B142E6
:1009100001D110220AE0244E2836B14206D0224AE4
:100920003C32914201D11A4600E02A461E49091F75
:100930000A602BE0B94213D0614517D0494522D057
:1009400051451DD059451DD0714501D142461AE08F
:10095000B14202D14FF0807215E0134EB14201D185
:10096000012210E0104E1436B14201D110220AE0EB
:100970000D4E2836B14206D00B4A3C32914201D18D
:100980001A4600E02A46074980394A60012180F86A
:100990002110002180F82010416B01B188472046CA
:1009A000BDE8F09F800002400804024070B5044694
:1009B00000F05CF90546601C02D00448007804444D
:1009C00000F054F9401BA042FAD370BD2000002073
:1009D00030B585B000200090019002900390174838
:1009E0000168002927D1012101601548416941F4BE
:1009F000807141614069022400F48070049041F2EA
:100A00000100CDE900040325694603950D4800F077
:100A10001FF84FF68070CDE90004694603950A4837
:100A200000F016F84CF23370CDE9000469460395E6
:100A3000064800F00DF805B030BD0000140000209D
:100A40000010024000200140001801400014014045
:100A50002DE9F84FDFF8C891002409F1040A0AF1E2
:100A6000040B23460F270BF1040ED1E00125A5400E
:100A700006EA0502AA4276D1DFF8A8C14E68A6EBC5
:100A80000C0866452BD00DDC032E34D005DC36B3C4
:100A9000012E19D0022E2FD11BE0112E16D0122EAE
:100AA0002AD119E0B8F5881F19D006DCB8F5803FC7
:100AB00015D0B8F5801F1FD111E0B8F5001F0ED07A
:100AC000B8F5041F18D10AE0CB6815E0CB681B1DF0
:100AD00012E0CB6808330FE0CB680C330CE08B6876
:100AE0002BB1012B4FF0080303D0456104E0042330
:100AF00002E0056100E00023FF2A01D8064601E07C
:100B000000F104064FEA840501D9A5F12005D6F8C5
:100B1000008007FA05FC28EA0C0803FA05F548EA04
:100B20000508C6F800804D68ED0070D53E4DAE69F1
:100B300046F00106AE61AD6924F0030605F001053B
:100B400000953A4D06EB050CDCF80850A607360F69
:100B500007FA06F825EA0805DFF8D480404503D1F6
:100B60004FF0000825E052E0DFF8C880404502D190
:100B70004FF001081DE0DFF8C080404502D14FF082
:100B8000020816E0DFF8B480404502D14FF00308B8
:100B90000FE0DFF8AC80404502D14FF0040808E0D8
:100BA000DFF8A080404502D14FF0050801E04FF08A
:100BB000060808FA06F848EA0508CCF808804D68E7
:100BC000D9F80060ED034D4601D5164300E0964389
:100BD0002E604D68DAF80060AD03554601D5164326
:100BE00000E096432E604D68DBF80060ED025D4644
:100BF00001D5164300E096432E604D68DEF8006094
:100C0000AD02754601D5164300E096432E60641C84
:100C10000A681646E2407FF429AFBDE8F88F00006D
:100C200000040140000011100010024000000140CB
:100C300000080140000C0140001001400014014078
:100C400000180140001C01408068084000D00120CD
:100C50007047C26821EA02030A4043EA0241016187
:100C600070470AB1016170470904FBE701488068D9
:100C7000704700002000002002488168027811447B
:100C80008160704720000020074810B5016841F0DE
:100C900010010160032000F0A5F80F2000F006F815
:100CA00000F03EF8002010BD0020024000B50146D3
:100CB00087B00022372000F075F8372000F065F883
:100CC0001348C16941F02001C161C06905A900F064
:100CD00020000690684600F01BFA00F039FA0D4932
:100CE0004000B0FBF1F10D480B4A491E0260416023
:100CF00040F2E7320021C0E90321816000F03AFEB2
:100D000010B1012007B000BD044800F061FEF9E712
:100D10000010024040420F00001400403006002046
:100D20000F4808B5816941F001018161816901F0D5
:100D300001010091C16941F08051C161C069002287
:100D400000F0805000900F21901E00F02BF8054815
:100D5000416821F0E06141F00071416008BD000090
:100D6000001002400000014000280DDB00F01F02CF
:100D7000012191404009800000F1E020C0F880117D
:100D8000BFF34F8FBFF36F8F7047002809DB00F070
:100D90001F02012191404009800000F1E020C0F8CD
:100DA00000117047F0B40E4B1B680C46C3F30223CE
:100DB000C3F10705042D00D90425191D072901D207
:100DC000002300E0DB1E012606FA05F1491E214042
:100DD00099409E40761E16403143F0BC03F0F8B8AF
:100DE0000CED00E0064900F0070208684FF6FF032B
:100DF000184040EA0220034A104308607047000090
:100E00000CED00E00000FA0501490120086270477E
:100E100000000E4210B52CA401461DCC86B08DE812
:100E20001D002DA02D4C00680490002004292FD017
:100E30000BDC01292FD0022928D100F099F9616833
:100E4000C1F38131491C49001EE0082920D0102936
:100E50001CD161682268D20118D5C1F38342C9034D
:100E60001DF8020009D5616804AAC1F34041515C34
:100E70001B4AB2FBF1F1484301E01A49484361685B
:100E8000490203D440000321B0FBF1F006B010BDCD
:100E900000F07EF9FAE7226AC2F30121012903D1A9
:100EA000920701D5C803F1E7022905D1626A9207CA
:100EB00002D549F64040E9E70329E7D121688903D3
:100EC000E4D54FF22440E1E70203040506070809D0
:100ED0000A0B0C0D0E0F1010010200000010024052
:100EE00000127A0000093D002DE9F843054600781C
:100EF000354CC00754D0E0690026C00008D4E06932
:100F000040F08050E061E069012600F080500090E0
:100F10002E480168C90512D40168804641F48071E9
:100F20000160FFF7A3FE074605E000BFFFF79EFE46
:100F3000C01B642823D8D8F80000C005F6D5206A65
:100F400010F4407021D0A98801F4407181421CD076
:100F5000206A1F49012220F440700A6000220A60C2
:100F60002062C00711D0FFF781FE074641F28838A2
:100F700008E000BFFFF77AFEC11B414502D90320FC
:100F8000BDE8F883206A8007F4D5206A696820F4F8
:100F90004070084320621EB1E06920F08050E0619B
:100FA0002878800705D56068A96820F44040084388
:100FB00060602878C00605D56068696920F4800003
:100FC000084360600020DBE7001002400070004032
:100FD00040044242704700002DE9F0470F460500EB
:100FE00061D0434E306800F00700B84209D2306843
:100FF00020F0070038433060306800F00700B84246
:1010000051D128683B4C810712D5400703D5606851
:1010100040F4E06060602878000703D5606840F421
:10102000605060606068A96820F0F000084360606C
:101030002878C00728D06868012810D021680228C5
:1010400010D0890700292EDA616821F003010143DD
:101050006160FFF70BFE804641F288390DE02168A0
:101060008903EFE78901EDE7FFF700FEA0EB080138
:10107000494502D90320BDE8F0876068696800F03F
:101080000C00B0EB810FEFD1306800F00700B842E0
:101090000BD9306820F0070038433060306800F02A
:1010A0000700B84201D00120E5E72878400705D5C0
:1010B0006068E96820F4E060084360602878000711
:1010C00006D56068296920F4605040EAC10060607C
:1010D00000F05EF86168084AC1F30311515CC84032
:1010E0000649086006480068FFF7E0FD0020C2E7F7
:1010F000002002400010024078FA00082C00002076
:101100002400002001490120C864704700004242C9
:101110000F2202600C4A536803F0030343605368D4
:1011200003F0F0038360536803F4E063C360526824
:101130004FF4E06303EAD20202610448006800F061
:1011400007000860704700000010024000200240C5
:101150000448054900684968044AC1F30221515C0A
:10116000C84070472C0000200010024088FA000898
:101170000448054900684968044AC1F3C221515C2A
:10118000C84070472C0000200010024088FA000878
:1011900012A185B00FC98DE80F0014A0144A006891
:1011A00004905168134801F00C03042B10D0082B55
:1011B0000ED1C1F38343C9031DF803000AD551685A
:1011C00004AAC1F34041515C0A4A5043B0FBF1F01C
:1011D00005B0704708494843FAE7000002030405D8
:1011E000060708090A0B0C0D0E0F10100102000073
:1011F0000010024000127A0000093D0010B5044CB6
:10120000A068000603D5FFF7E5FE8020A07210BDA0
:10121000001002402DE9F84F040070D02078C04D36
:10122000C00749D06868C0F38100012807D068680A
:10123000C0F38100022809D16868C00306D5286878
:10124000800339D560680028E7D035E06068B0F5E4
:10125000803F0BD010B1B0F5A02F11D0286820F43A
:1012600080302860286820F4802002E0286840F45C
:1012700080302860606890B1FFF7F8FC06460AE00D
:10128000286840F480202860F0E700BFFFF7EEFCFC
:10129000801B642873D828688003F7D50CE0FFF71B
:1012A000E5FC064605E000BFFFF7E0FC801B642874
:1012B000F0D828688003F7D420789A4E80074FF042
:1012C00001094FF0000839D5686810F00C0F07D0FD
:1012D0006868C0F38100022809D16868C00306D499
:1012E0002868800714D52069012808D110E02069FA
:1012F000B0B1C6F80090FFF7B9FC074605E00AE177
:10130000FFF7B4FCC01B0228C4D828688007F7D5B3
:101310002868616920F0F80040EAC10028600DE00B
:10132000C6F80080FFF7A2FC074604E0FFF79EFC2A
:10133000C01B022823D828688007F7D4207800072C
:101340002CD57948A169D9B1C0F80090FFF78EFC7F
:10135000074604E0FFF78AFCC01B02280FD8686A22
:101360008007F7D571484FF4FA510068B0FBF1F0EF
:10137000009000BF0098411E0091FAD20EE080E07C
:10138000C0F80080FFF772FC074604E0FFF76EFC30
:10139000C01B022875D8686A8007F7D420784007F8
:1013A00060D5E8690027C00008D4E86940F08050A3
:1013B000E861E869012700F0805000905C4801680E
:1013C000C90513D40168834641F480710160FFF7B9
:1013D0004DFC824606E000BFFFF748FCA0EB0A0088
:1013E00064284ED8DBF80000C005F5D5E068012878
:1013F0000AD008B1052813D0286A20F0010028621D
:10140000286A20F0040002E0286A40F00100286207
:10141000E06841F2883B98B1FFF728FC82460BE078
:10142000286A40F004002862EEE700BFFFF71EFCC8
:10143000A0EB0A0159455AD8286A8007F6D50CE076
:10144000FFF714FC824605E0FFF710FCA0EB0A0151
:1014500059454CD8286A8007F6D41FB1E86920F0B6
:101460008050E861E06988B36968C1F381010229AD
:1014700044D00228C6F8608004D0FFF7F7FB04468A
:1014800038E034E0FFF7F2FB074604E0FFF7EEFB3D
:10149000C01B02282BD828688001F7D4206AB0F539
:1014A000803F05D16868A16820F400300843686077
:1014B000D4E908010843696821F47411084368609D
:1014C000C6F86090FFF7D2FB044606E025E000BFB7
:1014D000FFF7CCFB001B022809D828688001F7D54C
:1014E0001BE000BFFFF7C2FB001B022802D903204C
:1014F000BDE8F88F28688001F4D40EE00128F7D009
:101500006868226A00F48031914204D1616A00F473
:101510007010884201D00120EAE70020E8E70000CF
:101520000010024000004242800442422C00002091
:1015300000700040024850F8210080B2704700005F
:10154000006C0040024800EB810091B201607047DE
:10155000006C004070B5040003D0607C002610B120
:1015600005E0012070BD2674204600F043F80220FB
:101570006074204600F010F9042578BB204602F084
:1015800012F958BB2068416821F007014160A0684A
:1015900020B11748016821F0010101601448001FC3
:1015A0000168A26821F46071114301606068411C08
:1015B00004D10120FFF72EFC80B1401E21688A680B
:1015C00022F00F0242EA10428A602168CA6860F382
:1015D0000F02CA60204602F001F908B16574C0E745
:1015E000E67301206073A0736074002070BD00007A
:1015F000306C004008B50068084988420DD1FFF7FB
:1016000003FC0748C16941F00061C161C069054937
:1016100000F0006000900120086008BD0028004034
:10162000001002403C0442422DE9F0410D46040006
:101630003BD0C5B3207C01283AD04FF0010884F894
:10164000108002206074E87872B302F0A3F8E073AF
:10165000687802F09FF86073A87802F09BF8A07396
:10166000C2B2617BE07B02F001F920732870204652
:1016700002F0D8F84FF46161B0FBF1F100251829B0
:101680002DD91822B1FBF2F1A1EB011101EB4101BF
:10169000C1EB011100EBC1163146204602F025F9DD
:1016A0000427C8B90BE000E004E00120BDE8F081A8
:1016B0000220FBE7E07368786073A878CFE72046E4
:1016C00002F0A9F8411C0AD0B04208D206490144F0
:1016D000204602F0F6F810B167742574E5E784F847
:1016E000118025740020E1E7805101002DE9F041CF
:1016F0000D46040024D01DB3207C012823D04FF0D8
:10170000010884F81080022060742878EAB102F0A1
:1017100041F84FF4616100FB01F6687802F03AF895
:10172000C0EB001006EB8006A87802F033F83518FD
:101730002946204602F0D9F80026042710BB0FE006
:101740000120BDE8F0810220FBE74FF461614843CE
:101750006978C1EB011100EB8100A9784518E7E732
:101760002068416821F005014160204602F053F8ED
:10177000411C0AD0A84208D206490144204602F082
:10178000A0F810B167742674DAE784F81180267423
:101790000020D6E78051010070B504000AD020680F
:1017A000416821F008014160FFF760FA05464FF4F7
:1017B0007A7608E0012070BDFFF758FA401BB0426E
:1017C00001D9032070BD206840680007F4D50020CF
:1017D00070BD70B5040009D0606A002540B1256174
:1017E0006561A56294F8510040B10CE0012070BD24
:1017F0006068B0F5827FF4D0E561F2E784F850507C
:10180000204600F03FF8022084F85100206801686B
:1018100021F040010160A088218900F4827001F468
:1018200004410843A18901F400610843217C01F0CF
:1018300002010843217D01F001010843218B01F4DD
:1018400000710843217F01F03801084394F820100B
:1018500001F080010843218D01F400510843216803
:101860000860A069042101EA1040216848602068EE
:10187000C16921F40061C1616565012084F85100EE
:10188000002070BD30B585B000240094019402940E
:1018900003940068194988422DD11948C16941F45F
:1018A0008041C161C16901F480410491816941F0C5
:1018B000080181618069134D00F0080004904FF425
:1018C00020400090022001900320039069462846A2
:1018D000FFF7BEF84FF48040CDE900046946284682
:1018E0000294FFF7B5F8A814009001200190694612
:1018F0002846FFF7ADF805B030BD000000380040C5
:1019000000100240000C014070B515460E46040060
:1019100007D0A069B0F5807F03D094F8410010B1E2
:1019200007E0012070BD002084F84000204600F050
:101930001DF804F108012068FEF71AFE3146A2687E
:101940002068FEF749FED4E901022946236BFEF721
:10195000F1FDA168206850F8212042F0010240F812
:101960002120012084F84100002070BDFFF730B82D
:101970007047704710B5040003D094F83D0010B1D3
:1019800007E0012010BD002084F83C00204600F054
:101990001EF8022084F83D00211D206802F00AF99B
:1019A000012084F8460084F83E0084F83F0084F863
:1019B000400084F8410084F8420084F8430084F831
:1019C000440084F8450084F83D00002010BD7047B5
:1019D00090F83D10012901D001207047022180F8C4
:1019E0003D100168CA6842F00102CA6000680E49F1
:1019F00088420ED00D4988420BD0B0F1804F08D0FC
:101A00000B49884205D00B49884202D00A498842D6
:101A100004D1816801F00701062903D0016841F073
:101A20000101016000207047002C0140003401409A
:101A30000004004000080040000C0040704770B5F2
:101A40000446006801694FF00005C943890715D4B1
:101A5000C168C943890711D4E91E016101202077BB
:101A6000206880698007204602D0FFF7E7FF04E086
:101A700000F098F8204600F096F825772068016974
:101A8000C943490717D4C168C943490713D46FF044
:101A900004010161022020772068806910F4407FF2
:101AA000204602D0FFF7CAFF04E000F07BF8204692
:101AB00000F079F8257720680169C943090716D431
:101AC000C168C943090712D46FF0080101610420FD
:101AD00020772068C0698007204602D0FFF7AEFF5C
:101AE00004E000F05FF8204600F05DF825772068FC
:101AF0000169C943C90617D4C168C943C90613D4CB
:101B00006FF010010161082020772068C06910F48F
:101B1000407F204602D0FFF791FF04E000F042F83A
:101B2000204600F040F8257720680169C943C907BD
:101B300008D1C168C943C90704D1891E0161204683
:101B400000F032F820680169C943090609D4C16868
:101B5000C943090605D46FF0800101612046FFF7F3
:101B600007FF20680169C943490609D4C168C94310
:101B7000490605D46FF040010161204600F01EF8CF
:101B800020680169C94389060BD4C168C943890625
:101B900007D46FF0200101612046BDE87040FFF7D7
:101BA000E8BE70BD7047704700680349884201D1A4
:101BB000FFF762B87047000000140040704770479C
:101BC00070470000F8B5026804461068D168536990
:101BD00010F00F0F4FF0000553D003F0010601F491
:101BE000907737435FD0C20705D0CA0503D5226C72
:101BF00042F001022264420705D5DA0703D0226CC5
:101C000042F002022264820705D5DA0703D0226C73
:101C100042F004022264020707D501F02002324399
:101C200003D0226C42F008022264226C002A34D0D5
:101C3000800604D5880602D5204602F021F82068E7
:101C40004069216CC0F38010090700D430B32046EE
:101C500001F0FEFF2068416949061BD5416921F06A
:101C600040014161A06BA8B158494163A06BFEF7E8
:101C700005FE002811D0A06B416B01B0BDE8F0401B
:101C8000084783060FD58B060DD52046BDE8F840E2
:101C900001F0F6BF2046FFF793FFF8BD2046FFF79F
:101CA0008FFF2564F8BD266B2023012E52D1C60676
:101CB00050D5CE064ED51068506800905069400649
:101CC0002AD5A16B086840680004000CEAD0A68DF4
:101CD0008642E7D9E0858869202818D0D06820F4AA
:101CE0008070D0602068416921F001014161206865
:101CF000416921F04001416184F83E30256320684C
:101D0000C16821F01001C160A06BFEF793FDA08DAA
:101D1000E18D401A81B219E0A08DE18D401A81B2A7
:101D2000E08D0028BED00029BCD0D06820F490708F
:101D3000D0602068426922F00102426184F83E309E
:101D400025632068C26822F01002C2602046FFF7B7
:101D500036FFF8BD05062BD50D0629D594F83D00B4
:101D60002128F6D1A068B0F5805F01D12069B0B11B
:101D7000206A411C2162216800784860E08C401E86
:101D80000004000CE084E4D12068C16821F08001E7
:101D9000C1602068C16841F04001C160F8BD206A9F
:101DA0000088C0F308005060206A801C2062E5E7CC
:101DB0004006F3D54806F1D5D168204621F0400110
:101DC000D16084F83D3000F0E4F8F8BD413C0008F3
:101DD00070B5040004D094F83D00002510B106E071
:101DE000012070BD84F83C50204600F023F82420E8
:101DF00084F83D002068C16821F40051C16020468C
:101E000001F09AFF2068016921F490410161206886
:101E1000416921F02A0141612068C16841F4005103
:101E2000C1602564202084F83D0084F83E00002035
:101E300070BD000030B585B0002400940194029478
:101E400003940068184988422CD11848816941F4EC
:101E500080418161816901F480410491816941F08F
:101E6000040181618069124D00F0040004904FF478
:101E700000700090022001900320039069462846DC
:101E8000FEF7E6FD2815CDE90004694628460294D0
:101E9000FEF7DEFD002205212520FEF783FF252029
:101EA000FEF773FF05B030BD00380140001002405E
:101EB0000008014090F83E30202B0ED159B152B1AC
:101EC00090F83C30012B08D0012380F83C300023EF
:101ED000036301F08DBF01207047022070477047F7
:101EE0002DE9F843044690F83D001F4616460D467E
:101EF00020284CD1C5B1BEB194F83C00012846D091
:101F0000012084F83C004FF00008C4F840802120F4
:101F100084F83D00FEF7AAFEA6848146E684A06808
:101F2000B0F5805F03D004E00120BDE8F8832069AC
:101F300028B12E465FF0000584F83C800EE00026B4
:101F4000FAE78021204601F06EFFA0B9AEB116F885
:101F5000010B21684860E08C401EE084E08C4B4619
:101F60004FF0000200970028EBD14FF040012046CF
:101F700001F059FF30B10320D7E735F8020BC0F369
:101F80000800E6E7202084F83D000020CDE702208D
:101F9000CBE77047FEE7000070B5234886B0816943
:101FA00041F008018161816901F0080104918169B2
:101FB00041F080018161816901F0800104918169B2
:101FC00041F080018161816901F0800104918169A2
:101FD00041F0800181618069032400F08000049059
:101FE0000220009011200190694603940F48FEF7EB
:101FF0002FFD4FF400700E4E009069463046FEF7FC
:1020000027FDF0140125CDE900056946039430460B
:10201000FEF71EFDA802CDE900056946039430468F
:10202000FEF716FD06B070BD00100240000C014026
:10203000001C01401FB54FF48060009007480190DC
:1020400069460748FEF704FD002211462820FEF7E6
:10205000A9FE2820FEF788FE1FBD00000000111019
:10206000001C014070B514460D46064602F066FE9F
:1020700046F0010002F02EFE02F0A0FE90B102F048
:1020800081FE012070BD00BF02F0F8FD2870012C18
:1020900003D102F0D5FD02F075FE641EA4B26D1CE2
:1020A00002F0A2FD002CEFD102F06CFE002070BD0A
:1020B0002DE9FF414FF480640120CDE90040134E2B
:1020C0000325694603953046FEF7C2FC00222146EF
:1020D0003046FEF7C6FD6700002239463046FEF75F
:1020E000C0FD0120FEF762FC012239463046FEF7B2
:1020F000B8FD3720FEF75AFC0020CDE900406946C4
:1021000003953046FEF7A4FCBDE8FF81001C0140AA
:1021100010B5FFF741FFFFF7CBFFBDE81040FFF719
:1021200089BF000070B50E460546002419E000BFC7
:1021300004EB440105EB81008278D20707D0828846
:10214000836815F821001946FFF78CFF06E0027935
:10215000836815F82100194600F007F8641C002870
:1021600002D1B442E4D1204670BD2DE9F0411646BB
:102170000D46804602F006FE00244FF47A7702F006
:10218000DDFD404602F0A6FD02F018FE18B1641C09
:10219000A4B2BC42F3D3BC4206D00BE0287802F0D4
:1021A00099FD02F00BFE20B102F0ECFD0120BDE82C
:1021B000F0816D1C761EF6B2F0D202F0E3FD002035
:1021C000F5E7000010B58EB01C220B496846FEF7FB
:1021D00029F8002168460CF09EFA084C06491C229A
:1021E00020601C3107A8FEF71DF8002107A80CF09D
:1021F00092FA60600EB010BD40FA00080C0000209A
:1022000010B58EB01C216846FEF725F81C2107A8E2
:10221000FEF721F81C484FF02041102201601B49B5
:102220004160062181600021C160C0E90412816122
:10223000C16113020162C0E909139302C0E90B13E3
:10224000416381630F20FF230090CDE901030DF16D
:102250000C0C11248CE81500CDE90803CDE906101B
:102260000AAB0D9183E8150007AA69460648FFF7F7
:102270004BFB08B1FEF75CF90548C16941F4806188
:10228000C1610EB010BD000038040020040100A0A0
:10229000000001402DE9F04186B000242E48009452
:1022A000019402940394816941F040018161816944
:1022B00001F040010491816941F01001816181695F
:1022C00001F010010491816941F008018161816987
:1022D00001F008010491816941F480718161816993
:1022E00001F480710491816941F02001816181696B
:1022F00001F020010491816941F00401816180694C
:10230000164F00F004000490012220213846FEF709
:10231000A8FCDFF84C80002201214046FEF7A1FC1A
:10232000012220214046FEF79CFC202001250226A8
:10233000CDE90005CDE9024669463846FEF788FB3F
:102340002120CDE90005CDE9024669464046FEF769
:102350007FFB06B0BDE8F08100100240001801408C
:10236000000C01401CB500241F4801941D49009435
:102370000160611EC0E90114FFF7ECF808B1FEF737
:10238000D7F801211848FFF7D5F845F250029042DE
:1023900026D001211448FFF7D5F814A001F008FE5B
:1023A0008DF804408DF805408DF80640002201A903
:1023B0000D48FFF79BF908B1FEF7BAF801208DF838
:1023C00000008DF801008DF802008DF80340002216
:1023D00069460548FFF728F9002801D0FEF7A8F85C
:1023E0001CBD0000002800408004002046495253D4
:1023F000542054494D450A000F4810B50D4901605D
:102400004FF48271416000218160C1604FF400721D
:102410000161C0E90512C1610162416281620A2164
:10242000C162FFF7D6F9002803D0BDE81040FEF7DF
:102430007FB810BD00380040940400200E4810B54D
:102440000C4901604FF4E1314160002181600C22B0
:10245000C160C0E904128161C161FFF7B9FC08B134
:10246000FEF766F8BDE81040012204490248FFF774
:1024700021BD000000380140EC0500201D000020B7
:10248000FEE7FEF7BBFEFEE7034908B1012001E0CD
:102490004FF4803008607047100C014070B51C4646
:1024A000154600F003F9044905FB04F00989BDE86D
:1024B000704000F01FB800009000002001B50098A7
:1024C00001E0401E00900028FBD108BD10B5084B6C
:1024D00014465A8890420AD29A88914207D201F053
:1024E00001F92146BDE81040012000F003B810BDFD
:1024F0009000002010B54FF0D8444FF43053002224
:102500002380034B01E01980521C8242FBD310BD93
:102510000008006C2A4810B5816986B041F020019E
:102520008161816901F020010491816941F04001DC
:102530008161816901F040010491816941F080016C
:102540008161816901F080010491816941F48071A8
:102550008161816901F480710491416941F4807164
:1025600041614069174C00F4807004900120019093
:102570000290032003904020009069462046FEF719
:1025800067FAE014009069462046FEF761FA0220DF
:1025900001904CF23370009069460B48FEF758FAF0
:1025A0004FF68470009069460848FEF751FAA0146F
:1025B000009069462046FEF74BFA06B010BD0000B9
:1025C00000100240002001400014014000180140AA
:1025D00010B5072842D8234AC4074FF4F071107091
:1025E0004FF448733BD05380A2F804104FF4585373
:1025F00059040B8043011C4803804FF428530B807F
:102600000023038042F601230B800023038042F65F
:1026100002230B8053885B1EC3F30724048042F619
:1026200003240C80DBB203804FF42C530B80002377
:10263000038042F601330B800023038042F602330D
:102640000B809288521EC2F30723038042F60333A5
:102650000B80D2B202804FF43050088010BD518000
:102660009380C3E7900000200008006C10B5FFF7CE
:1026700051FF0120FFF708FF01F01CF800F048F8B7
:10268000084C094861880180A18841802078FFF7C3
:102690009FFFA38862880021BDE810400846FFF72D
:1026A000FDBE0000900000206857002070B54FF07C
:1026B000D8444FF428552580144D060A2E8042F642
:1026C00001262680C6B22E8042F6022626801044BD
:1026D000401E020A2A80721C2280C0B228804FF459
:1026E0002C502080080A288042F601302080C8B291
:1026F000288042F602302080C818401E010A298036
:1027000042F603312180C0B2288070BD0008006C01
:1027100070B54FF0D8404FF470410180FE4955220A
:102720000A804FF201020280AA220A804FF20202BE
:10273000028052220A804FF20302028008220A809D
:102740004FF20402028001220A804FF430420280DC
:102750000D220A804BF2010202800D220A804BF208
:10276000020202800D220A804FF4314202800D22C3
:102770000A804BF2011202800D220A804BF20212F3
:1027800002800D220A804FF43242028000220A8029
:102790004BF20122028000220A804BF202220280C8
:1027A00000220A804FF43642028044220A804BF213
:1027B0000162028044220A804BF2026202804422BB
:1027C0000A804FF43742028034220A804BF20172B1
:1027D000028034220A804BF20272028034220A8084
:1027E0004FF43842028034220A804BF60102028004
:1027F00034220A804BF60202028034230B804FF40D
:102800003F43038001230B804FF4334303800F23A6
:102810000B804BF2013303800F230B804BF202330A
:1028200003800F230B804FF43943038034230B8044
:102830004BF60113038034230B804BF60213038005
:1028400034230B804FF43543038008230B804BF275
:102850000153038008230B804BF2025303800823AB
:102860000B804FF44243038003230B804FF43A4321
:10287000038034230B804BF60123038034230B8029
:102880004BF60223038034230B804FF43C43038038
:1028900000240C805C1C048078250D809D1C058024
:1028A00000250D804FF43D45058000250D804BF639
:1028B0000155058078250D804BF6025505800025D1
:1028C0000D804FF43E45058000250D804BF60165D7
:1028D000058064250D804FF45145058000250D804D
:1028E0004DF20115058033250D804DF2021505804E
:1028F00000250D804DF20315058034250D804DF225
:102900000415058000250D804DF2051505803A253A
:102910000D804DF20615058000250D804DF207153E
:1029200005804A250D804DF20815058000250D8093
:102930004DF2091505805C250D804DF20A150580C4
:1029400000250D804DF20B15058081250D804DF27F
:102950000C15058000250D804DF20D150580A6256E
:102960000D804DF20E15058000250D804DF20F15DE
:102970000580E5250D804DF21015058001250D809F
:102980004DF21115058013250D804DF212150580AD
:10299000012008804FF0D840691C01805E49542511
:1029A0000D804DF21415058001250D804DF2151591
:1029B000058082250D804DF21615058001250D80BC
:1029C0004DF217150580CA250D804DF218150580AA
:1029D00002250D804DF21915058000250D804DF260
:1029E0001A15058002250D804DF21B150580012565
:1029F0000D804DF21C15058002250D804DF21D1530
:102A0000058034250D804DF21E15058002250D80B0
:102A10004DF21F15058067250D804DF220150580AC
:102A200002250D804DF22115058084250D804DF283
:102A30002215058002250D804DF223150580A42561
:102A40000D804DF22415058002250D804DF22515CF
:102A50000580B7250D804DF22615058002250D80D5
:102A60004DF227150580CF250D804DF228150580E4
:102A700002250D804DF229150580DE250D804DF2D1
:102A80002A15058002250D804DF22B150580F225B3
:102A90000D804DF22C15058002250D804DF22D156F
:102AA0000580FE250D804DF22E15058003250D8035
:102AB0004DF22F15058010250D804DF23015058043
:102AC00003250D804DF23115058033250D804DF223
:102AD0003215058003250D804DF2331505806D25D7
:102AE0000D804FF45245058000250D804DF20125E3
:102AF000058033250D804DF20225058000250D80CF
:102B00004DF20325058034250D804DF20425058006
:102B100000250D8002E000000008006C4DF2052544
:102B200005803A250D804DF20625058000250D8093
:102B30004DF2072505804A250D804DF208250580B8
:102B400000250D804DF2092505805C250D804DF294
:102B50000A25058000250D804DF20B250580812575
:102B60000D804DF20C25058000250D804DF20D25C0
:102B70000580A6250D804DF20E25058000250D80CF
:102B80004DF20F250580E5250D804DF210250580BD
:102B900001250D804DF21125058013250D804DF284
:102BA0001225058001250D804DF213250580542541
:102BB0000D804DF21425058001250D804DF215255F
:102BC000058082250D804DF21625058001250D809A
:102BD0004DF217250580CA250D804DF21825058078
:102BE00002250D804DF21925058000250D804DF23E
:102BF0001A25058002250D804DF21B250580012533
:102C00000D804DF21C25058002250D804DF21D25FD
:102C1000058034250D804DF21E2505800220088098
:102C20004FF0D840691C0180FE4967250D804DF2A8
:102C30002025058002250D804DF221250580842563
:102C40000D804DF22225058002250D804DF22325B1
:102C50000580A4250D804DF22425058002250D80D8
:102C60004DF225250580B7250D804DF226250580DE
:102C700002250D804DF227250580CF250D804DF2D0
:102C80002825058002250D804DF229250580DE25A9
:102C90000D804DF22A25058002250D804DF22B2551
:102CA0000580F2250D804DF22C25058002250D8032
:102CB0004DF22D250580FE250D804DF22E25058037
:102CC00003250D804DF22F25058010250D804DF236
:102CD0003025058003250D804DF2312505803325F3
:102CE0000D804DF23225058003250D804DF23325F0
:102CF00005806D250D804FF45345058000250D801E
:102D00004DF20135058033250D804DF202350580E9
:102D100000250D804DF20335058034250D804DF2E0
:102D20000435058000250D804DF2053505803A25D6
:102D30000D804DF20635058000250D804DF20735DA
:102D400005804A250D804DF20835058000250D804F
:102D50004DF2093505805C250D804DF20A35058060
:102D600000250D804DF20B35058081250D804DF23B
:102D70000C35058000250D804DF20D350580A6250A
:102D80000D804DF20E35058000250D804DF20F357A
:102D90000580E5250D804DF21035058001250D805B
:102DA0004DF21135058013250D804DF21235058049
:102DB00001250D804DF21335058054250D804DF20F
:102DC0001435058001250D804DF2153505808225CD
:102DD0000D804DF21635058001250D804DF2173519
:102DE0000580CA250D804DF21835058002250D801D
:102DF0004DF21935058000250D804DF21A350580FC
:102E000002250D804DF21B35058001250D804DF208
:102E10001C35058002250D804DF21D3505803425B9
:102E20000D804DF21E35058002250D804DF21F35B7
:102E3000058067250D804DF22035058002250D8027
:102E40004DF22135058084250D804DF22235058017
:102E500002250D804DF223350580A4250D804DF20D
:102E60002435058002250D804DF225350580B725D6
:102E70000D804DF22635058002250D804DF2273557
:102E80000580CF250D804DF22835058002250D8067
:102E90004DF229350580DE250D804DF22A3505805D
:102EA000022008804FF0D840691C01805D49F2255E
:102EB0000D804DF22C35058002250D804DF22D350B
:102EC0000580FE250D804DF22E35058003250D80F1
:102ED0004DF22F35058010250D804DF230350580DF
:102EE00003250D804DF23135058033250D804DF2DF
:102EF0003235058003250D804DF2333505806D2573
:102F00000D804FF45445058000250D804DF201459C
:102F1000058033250D804DF20245058000250D808A
:102F20004DF20345058034250D804DF204450580A2
:102F300000250D804DF2054505803A250D804DF2A6
:102F40000645058000250D804DF2074505804A2580
:102F50000D804DF20845058000250D804DF2094594
:102F600005805C250D804DF20A45058000250D8009
:102F70004DF20B45058081250D804DF20C450580F5
:102F800000250D804DF20D450580A6250D804DF2E2
:102F90000E45058000250D804DF20F450580E52585
:102FA0000D804DF21045058001250D804DF2114533
:102FB000058013250D804DF21245058001250D80F9
:102FC0004DF21345058054250D804DF214450580C2
:102FD00001250D804DF21545058082250D804DF2AD
:102FE0001645058001250D804DF217450580CA253F
:102FF0000D804DF21845058002250D804DF21945D2
:10300000058000250D804DF21A45058002250D80B2
:103010004DF21B45058001250D804DF21C450580B4
:10302000022501E00008006C0D804DF21D45058071
:1030300034250D804DF21E45058002250D804DF290
:103040001F45058067250D804DF22045058002252E
:103050000D804DF22145058084250D804DF22245DD
:10306000058002250D804DF223450580A4250D80A5
:103070004DF22445058002250D804DF22545058041
:10308000B7250D804DF22645058002250D804DF2B5
:1030900027450580CF250D804DF228450580022566
:1030A0000D804DF229450580DE250D804DF22A4523
:1030B000058002250D804DF22B450580F2250D80FF
:1030C0004DF22C45058002250D804DF22D450580E1
:1030D000FE250D804DF22E45058003250D804DF215
:1030E0002F45058010250D804DF2304505800325C4
:1030F0000D804DF23145058033250D804DF232456E
:10310000058003250D804DF2334505806D250D802A
:103110004FF45545058000250D804DF20155058081
:1031200033250D804DF202550580002008804FF0B8
:10313000D840691C0180FF4934250D804DF20455AB
:10314000058000250D804DF2055505803A250D803E
:103150004DF20655058000250D804DF2075505807E
:103160004A250D804DF20855058000250D804DF251
:10317000095505805C250D804DF20A550580002516
:103180000D804DF20B55058081250D804DF20C55BB
:10319000058000250D804DF20D550580A6250D807A
:1031A0004DF20E55058000250D804DF20F5505801E
:1031B000E5250D804DF21055058001250D804DF25D
:1031C0001155058013250D804DF2125505800125FE
:1031D0000D804DF21355058054250D804DF2145588
:1031E000058001250D804DF21555058082250D8045
:1031F0004DF21655058001250D804DF217550580BD
:10320000CA250D804DF21855058002250D804DF21E
:103210001955058000250D804DF21A5505800225AF
:103220000D804DF21B55058001250D804DF21C557A
:10323000058002250D804DF21D55058034250D8039
:103240004DF21E55058002250D804DF21F5505805B
:1032500067250D804DF22055058002250D804DF229
:103260002155058084250D804DF2225505800225CB
:103270000D804DF223550580A4250D804DF2245577
:10328000058002250D804DF225550580B7250D805E
:103290004DF22655058002250D804DF227550580FB
:1032A000CF250D804DF22855058002250D804DF269
:1032B00029550580DE250D804DF22A550580022511
:1032C0000D804DF22B550580F2250D804DF22C55C9
:1032D000058002250D804DF22D550580FE250D80BF
:1032E0004DF22E55058003250D804DF22F5505809A
:1032F00010250D804DF23055058003250D804DF2CF
:103300003155058033250D804DF23255058003255A
:103310000D804DF2335505806D250D804FF45645D7
:10332000058000250D804DF20165058033250D8057
:103330004DF20265058000250D804DF20365058084
:1033400034250D804DF20465058000250D804DF279
:10335000056505803A250D804DF20665058000253E
:103360000D804DF2076505804A250D804DF20865F8
:10337000058000250D804DF2096505805C250D80D6
:103380004DF20A65058000250D804DF20B65058024
:1033900081250D804DF20C65058000250D804DF2D4
:1033A0000D650580A6250D804DF20E650580002077
:1033B00008804FF0D840691C01805E49E5250D80EA
:1033C0004DF21065058001250D804DF211650580D7
:1033D00013250D804DF21265058001250D804DF2FB
:1033E0001365058054250D804DF214650580012577
:1033F0000D804DF21565058082250D804DF2166514
:10340000058001250D804DF217650580CA250D80C8
:103410004DF21865058002250D804DF21965058075
:1034200000250D804DF21A65058002250D804DF2B4
:103430001B65058001250D804DF21C650580022568
:103440000D804DF21D65058034250D804DF21E6501
:10345000058002250D804DF21F65058067250D80D2
:103460004DF22065058002250D804DF22165058015
:1034700084250D804DF22265058002250D804DF2D8
:1034800023650580A4250D804DF224650580022565
:103490000D804DF225650580B7250D804DF226651E
:1034A000058002250D804DF227650580CF250D8012
:1034B0004DF22865058002250D804DF229650580B5
:1034C000DE250D804DF22A65058002250D804DF226
:1034D0002B650580F2250D804DF22C6505800225B7
:1034E0000D804DF22D650580FE250D804DF22E6577
:1034F000058003250D804DF22F65058010250D8078
:103500004DF23065058003250D804DF23165058053
:1035100033250D804DF23265058003250D804DF277
:10352000336505806D250D804FF470450580552568
:103530000D8001E00008006C4FF201050580AA250E
:103540000D804FF20205058052250D804FF20305D4
:10355000058008250D804FF20405058000250D80AB
:103560004FF43545058050250D804FF431450580D9
:10357000CC250D804BF20115058000250D804FF400
:103580003645058005250D804FF4374505807725A4
:103590000D804BF20175058077250D80951E058005
:1035A00001250D80551E058003250D8002800D80AC
:1035B000521C02800D80038002220A8004800022B7
:1035C0000A809A1C028000220A804FF43D42028049
:1035D00001220A804BF60152028084220A804BF6B7
:1035E000025202801C220A804BF6035202801C22E7
:1035F0000A804BF60452028000220A804FF44942AE
:103600000280D0220A804CF60112028002220A8037
:103610004CF60212028050220A804CF603120280FD
:10362000502008804FF0D844501C20802048502162
:10363000018041142180002101804FF454512180E8
:10364000002101804FF47F412180AA2101804FF6A3
:1036500001712180552101804FF6027121802521C1
:1036600001804FF603712180012101804FF47C41DC
:103670002180162101804FF601412180A221018085
:103680004FF602412180262101804FF468512180AC
:10369000062202802180552101804FF4885020802D
:1036A000A020FDF783F94FF42450208070BD000066
:1036B0000008006C70B50A4C4FF40065256140F6B7
:1036C000FF263046FEF7FAFE280420613046FEF75A
:1036D000F5FE25613046BDE87040FEF7EFBE000004
:1036E0000020014001231A46FEF7E0BF2DE9F04318
:1036F00089B090460F46040033D104221EA13846FB
:10370000FCF7C9FD38B121461DA000F051FC601E38
:1037100009B0BDE8F083042500262C460DF1080908
:1037200014E0385D2C281ED03B281CD02D281AD040
:103730003A2818D0202816D0A8F10100844204D1DC
:103740007819FCF7BEFD49F82600641C4445E8D30F
:10375000DDE9060102ACCDE9000194E80F0000F0BC
:1037600071F80020D4E77819FCF7ABFD49F8260082
:10377000651C761CE9E700005345543A0000000040
:10378000BDE2CEF6C4A3CABD2564C6A5C5E4CAA7DA
:10379000B0DC0A00010901EB810100F00F0000EB31
:1037A0004100C0B2704770B50446FDF75FFA0546A8
:1037B0004FF47A7606E0FDF759FA401BB04201D982
:1037C000032070BD206840688006F4D520684168F9
:1037D00041F010014160002070BD000070B504464A
:1037E0000068416821F010014160FDF73FFA05468D
:1037F0004FF47A7607E000BFFDF738FA401BB0427D
:1038000001D9032070BD206840688006F4D50020EF
:1038100070BD00F07FB80168086A496A89B241EA60
:1038200000407047006881698AB2C1698BB28169C2
:1038300089B28A4203D0C06961F31F40704743EAEE
:103840000240704770B5084CDDE904562080618065
:10385000A280E38025816681204600F073FBBDE8ED
:10386000704000F05BBB000000000020F0B5642455
:10387000C1EBC1030927A500072603EB01130329A8
:10388000B3FBF7F100F5FA60114401440AD2401E7F
:10389000B0FBF4F201EB9001B0FBF5F0891A08449B
:1038A000001D08E0B0FBF4F201EB9001B0FBF5F075
:1038B000891A0844801CB0FBF6F106FB1100C0B267
:1038C000F0BD70B50D4606460024FFF76CFF48B901
:1038D0003168280C08623168A8B248623046FFF7A8
:1038E0007DFF00B10124204670BD70B50D4606462F
:1038F0000024FFF758FF48B93168280C8861316807
:10390000A8B2C8613046FFF769FF00B10124204624
:1039100070BD0000034800680249091D096801EBF9
:1039200000407047182800402DE9F041114F06462D
:103930004FF0805014460D463860032000F042F8E6
:10394000C5F3074000F03EF8C5F3072000F03AF851
:10395000E8B200F037F804E0FF2000F033F806F892
:10396000010B641EA4B2F7D24FF480503860BDE85A
:10397000F0810000100C014010B5114C0F480121DE
:1039800020600820E06161610020A06002212161C7
:103990000721C4E90A01E0604FF400712062A161CF
:1039A00060624FF4827060602046FDF712FF20686D
:1039B000016841F04001016010BD00000038004086
:1039C000F857002070B512494FF480550D60114B27
:1039D0001C6805E00A68561E0E6001D200200CE04B
:1039E000A268D2439207F5D4E0600D601A6808E03F
:1039F0000868431E0B6004D2012000F00DF8C0B22D
:103A000070BD9068C043C007F2D1D068F7E70000EE
:103A1000A8000020F857002010B5014602A000F0D1
:103A2000C7FA002010BD00003C3C2D464C415348D5
:103A30002D4552524F522D3E3E2053504920B5C87D
:103A4000B4FDB3ACCAB1216572726F72436F646525
:103A5000203D2025640A00000AF02AFB05200AF018
:103A60004EFEF9E70EB5194D194C1A4F4FF4FA7680
:103A7000287801280DD1184918A000F099FA1648A5
:103A8000FCF7F4FB82B214490020FFF72FFE002060
:103A90002870FFF7BEFE01460D4800F0FDF9E088F2
:103AA000628921898DE80700A388628821880DA09A
:103AB00000F07EFA30460AF022FE20213846FDF75B
:103AC000C8F830460AF01BFED2E700001C000020B8
:103AD00000000020000C0140EC04002052783A2540
:103AE000730D0A0025642D25642D25642025643A74
:103AF00025643A25640D0A0010B5502080F3118822
:103B0000BFF34F8FBFF36F8F0BF0CEFE18B1044998
:103B10004FF080500860002080F3118810BD000035
:103B200004ED00E070B596B028216846FCF793FBE1
:103B300014210AA8FCF78FFB18210FA8FCF78BFBB8
:103B40000124052000250090CDE902544FF4803077
:103B5000019002260494CDE907604FF4E01009902B
:103B60006846FDF757FB08B172B6FEE70F20CDE9B6
:103B70000A064FF48060CDE90C5002210AA80E9588
:103B8000FDF72AFA08B172B6FEE74FF48070CDE96E
:103B90000F400FA8FDF7A8F908B172B6FEE7FDF7D0
:103BA000B1FA16B070BD70470148FDF748BF00007C
:103BB00030060020F0B502681C4B1D4D1D4E1E4FF7
:103BC0001E4C4FF0804C984209D0A04207D060456F
:103BD00005D0A84203D0B04201D0B84204D122F0AF
:103BE000700E4A6842EA0E02984209D0A04207D0FD
:103BF000604505D0A84203D0B04201D0B84203D1FD
:103C000022F44075CA682A434D6922F080022A4393
:103C100002608A68C2620A688262984201D0A04249
:103C200001D10969016301214161F0BD002C01400E
:103C30000004004000080040000C00400034014037
:103C400010B5406A0021C185C184FDF7B9FF10BDE0
:103C50000168CA6822F49072CA6001684A6922F059
:103C600001024A61016B012904D10168CA6822F08E
:103C70001002CA60202180F83E10002101637047C5
:103C800008B590F83E10222901D0022008BD8268B4
:103C90004FF480539A4201D1016921B1816A9A425D
:103CA0001BD04AB10AE00268816A5268C2F3080276
:103CB0000A80816A891C08E0026972B10268526850
:103CC00002F07F020A70816A491C8162C18D491E1F
:103CD0000904090CC18503D019E002685268F1E7B4
:103CE0000168CA6822F02002CA600168CA6822F42A
:103CF0008072CA6001684A6922F001024A6120218B
:103D000080F83E10016B012903D0FEF7E8F800208F
:103D100008BD002101630168CA6822F01002CA6070
:103D200001680A68D20602D50A6849680091818D47
:103D3000FDF745FFEBE7000070B504460068016938
:103D4000E26821F44051114301612169A0680843F0
:103D5000616908432168CA6841F20C639A430243CF
:103D6000CA6020684169A26921F440711143416130
:103D70001E492068884202D1FDF7FAF901E0FDF7FB
:103D8000E7F900EBC00101EB0012606864218000DC
:103D9000B2FBF0F3B3FBF1F36FF018067343B2FB21
:103DA000F0F5B2FBF0F605EB8305322303EB0515C6
:103DB000B5FBF1F5B6FBF1F605F0F00505EB0615E0
:103DC000B2FBF0F6B2FBF0F0B0FBF1F06FF01802CE
:103DD000504306EB800003EB0010B0FBF1F02168CC
:103DE00000F00F002844886070BD000000380140DA
:103DF00081628285C28500210164222280F83E20F2
:103E000080F83C100168CA6842F48072CA60016898
:103E10004A6942F001024A610068C16841F020012C
:103E2000C160002070472DE9F041984617460E46C4
:103E30000446069D1DE0681C1BD02DB1FCF716FF43
:103E4000A0EB0800A84214D92068C16821F4D07101
:103E5000C1602068416921F001014161202084F89E
:103E60003D0084F83E00002084F83C000320BDE8BB
:103E7000F0812068006836EA000004D00020B842D3
:103E8000D9D00020F3E70120F9E700000148FDF751
:103E900099BE0000EC0500202DE9F047DFF8749092
:103EA0008846B1FBF9F4074640F2B27608E0B0B2BA
:103EB00000F0C4FB00F26D10844203DB241A761C70
:103EC000002CF4DC0125B1B2E8B200F0CBFB844257
:103ED00003DB241A6D1C0C2DF5DBB8FBF9F209FB92
:103EE00012814FF4616291FBF2F091FBF2F302FB5D
:103EF00013113C2391FBF3F291FBF3FC3E80641C15
:103F00007D80BC80083003FB1C11F8803A817981E8
:103F1000BDE8F08780510100FEE7000008490A680B
:103F200042F010020A60064B020C14331A601A1D8C
:103F300080B21060086820F0100008607047000030
:103F40000428004070B504460088002540F2B2768F
:103F5000B04209D2002070BD304600F06FFB05442E
:103F6000761CB6B205F26D152088B042F4D8012651
:103F700006E02188F0B200F075FB761C0544B6B26D
:103F80006088B042F5D8A0886D1E2844618940F24F
:103F9000A322504301EBC011E0884FF4616208385E
:103FA00050432289C2EB021200EB8200084470BD2C
:103FB0000FB4054B10B503A9044A029800F02CF881
:103FC00010BC5DF814FB000061490008DC01002012
:103FD0000907090E002804DB00F1E02080F8001436
:103FE000704700F00F0000F1E02080F8141D7047CA
:103FF00000487047E001002002E008C8121F08C115
:10400000002AFAD170477047002001E001C1121F59
:10401000002AFBD1704700002DE9FF4F8DB00F46FD
:104020000546002606E025280BD0DDE90F12904753
:104030006D1C761C28780028F5D111B03046BDE8FB
:10404000F08F0024A246A1460122E94900E0044382
:1040500015F8013F203B02FA03F00842F7D1287817
:104060002A2810D06FF02F022878A0F130010929FA
:1040700014D80AEB8A0102EB410144F0020400EB80
:10408000010A6D1CF0E701CF5FEA000A03D544F492
:104090000054CAF1000A44F002046D1C28782E284E
:1040A00017D115F8010F44F004042A280ED06FF040
:1040B0002F022878A0F1300109290AD809EB8901DB
:1040C00002EB410100EB01096D1CF2E757F8049B7C
:1040D0006D1C28786C280FD006DC4C2817D0682877
:1040E0000DD06A2814D104E0742810D07A280FD19A
:1040F0000DE044F400140AE044F4801401E044F4B8
:1041000040146978814202D104F580146D1C6D1C45
:1041100028786E281ED00CDC632830D004DC002800
:104120008BD0582811D19FE0642867D069280CD122
:1041300064E073282DD004DC6F2872D0702804D17D
:1041400094E075286ED078286DD0DDE90F12904785
:10415000761C4BE1C4F30250022806D0032809D094
:10416000042801CF09D0066040E101CFF117C0E972
:1041700000613BE101CF068038E1067036E117F8B7
:10418000040B8DF8000000208DF80100EB460120A3
:1041900003E057F804BB4FF0FF3061074FF0000118
:1041A00002D40DE008F10101884649450FDA804547
:1041B000F8DB1BF808100029F4D108E008F1010130
:1041C00088468142FADB1BF808100029F6D1DDE9A8
:1041D0000F23AAEB08008146214600F031F9304454
:1041E00000EB080604E0DDE90F121BF8010B904715
:1041F000B8F10108F7D221464846F2E00A21C4F39B
:1042000002524FF0000B0891022A04D001CFC117CF
:10421000032A09D00AE0FF1D27F00707F7E802018B
:1042200008E02CE01EE01FE000B2C117042A01D113
:1042300040B2C117021E71F1000206DA0023D0EB72
:10424000030063EB01012D2202E0220504D52B229D
:104250008DF82420012203E0E20701D02022F7E7B5
:10426000904653E00A210BE0102109E010214FF0A5
:10427000000B44F004044FF00809089103E0082102
:104280004FF0000B0891C4F30252022A04D001CF70
:104290000021032A06D006E0FF1D27F00707F7E8F4
:1042A000020103E080B2042A00D1C0B24FF000083E
:1042B00022072BD52A78702A07D0DDF820C08CF091
:1042C000100C5CEA0B0C05D00EE040228DF8242087
:1042D000012208E050EA010306D030238DF8243093
:1042E0008DF8252002229046089B83F0080353EAAC
:1042F0000B030BD150EA010201D1620706D530222F
:104300008DF824204FF00108A9F101092A78582AD4
:1043100004D038A20B9208AA0A920BE03AA2F9E75D
:104320005B46089AFBF7DAFF0B9B9B5C0A9A521ECE
:104330000A92137050EA0102F2D10A98ADEB000024
:1043400000F1200B600702D524F4803401E04FF027
:104350000109D94502DDA9EB0B0000E0002000EBCC
:104360000B0141440890AAEB010AE00306D4DDE901
:104370000F232146504600F063F806444FF0000931
:1043800008E009A911F80900DDE90F12904709F1C9
:104390000109761CC145F4DBE0030CD5DDE90F23F0
:1043A0002146504600F04CF8064404E0DDE90F12C7
:1043B00030209047761C0899481E08900029F5DCAB
:1043C00008E00A980A990078491C0A91DDE90F1261
:1043D0009047761CBBF10001ABF1010BF1DC2146EB
:1043E0005046DDE90F2300F019F806446D1C21E664
:1043F00009280100303132333435363738396162BB
:10440000636465660000000030313233343536377E
:104410003839414243444546000000002DE9F0414F
:10442000044600251E461746880404D405E0394694
:104430002020B0476D1C641EF9D52846BDE8F081E8
:104440002DE9F041044600251E469046C80301D5DB
:10445000302700E02027880404D505E0414638468F
:10446000B0476D1C641EF9D52846BDE8F0810000F8
:104470002DE9F04100250E4607462C460AE000BF14
:1044800056F8240019A1FBF7F8FE08B16D1CADB277
:10449000641CA4B256F82400FBF7E8FE0028EFD114
:1044A000384607F0FFF804464068002610B106F0D1
:1044B0002DFD6660A06810B106F028FDA660E8003A
:1044C00006F0F6FC606038B1680006F0F1FCA06010
:1044D00018B1616811B102E0FEE7FEE7002569004E
:1044E000FBF7B9FE2584BDE8F08100000A0000005A
:1044F00030B5044690F82000194D89B0810717D4D3
:10450000C10701D0410713D5242221466846FBF795
:1045100089FE2146134806F090FC204606F0F6FC82
:10452000012028700398B8B101466846884713E017
:10453000E18B49426183C1070ED0410702D4A18BB0
:10454000494261838110491C61F3820084F8200094
:10455000D4E90410C4E90401287809B030BD000092
:1045600048010020A45B002070B5234806F097FBAB
:1045700006E0086A20F0080008621F4806F094FB75
:104580000100F6D11D4D686809F03AFE064624E0A8
:1045900000202870206A010723D440F00800206220
:1045A000608B304400B2608300281ADB218B884284
:1045B00000DD6183A1682046884762681AB12368DC
:1045C00001B218469047B4F91A00218B884202DBE9
:1045D0002046FFF78DFF287818B1074806F05FFBEB
:1045E00003E02146044806F05FFB0400D0D109F047
:1045F0000DFE686070BD0000A45B00204801002033
:1046000002280ED003280FD0042811D0C1EBC1011D
:10461000401EB1FBF0F00849C0B2085C5043000AEC
:1046200070470548093801E00348C01F405CF5E7C2
:104630000148001FFAE70000A71301084FF4C871F2
:10464000B0FBF1F201FB120149B16421B0FBF1F2C0
:1046500001FB120109B1800701D000207047012041
:104660007047000010B540B10C2806D8022804D0CD
:104670000549084410F8010C10BD0846FFF7DEFF9D
:104680001C30C0B210BD000034FA0008F8B500209C
:1046900002F096FF0746002002F0C2FF06462B49B3
:1046A0002B4808F053FD2B4D284602F066F9284CA4
:1046B0000090BDF800006080284602F05EF900908E
:1046C000BDF80000A0800025E5822583224904F181
:1046D0003C0008F03BFD04F13C0020490572858157
:1046E0003C3008F033FD04F178007F21C580017271
:1046F0001B490A680092BDF80020A4F87A204A6895
:104700000092BDF80020A4F87C2085818868009084
:1047100004F18000BDF800100183002002F077FF53
:10472000002109F0BDF804463246394607F0A4F9E5
:104730000CA1204608F09EFF0CA1204608F09AFF2D
:104740002046BDE8F8400BA108F094BF6459002052
:10475000ECDB0020B77F4800545A0020905A00201C
:104760006C41010857726974650000004C697374EC
:104770000000000043686172740000002DE9F04100
:1047800017460D468046B1F902600EE0B5F90040CB
:1047900006E03A88B1B2A0B2FDF798FE641CBF1CD7
:1047A000B5F90400A042F4DA761CB5F90600B0426F
:1047B000ECDA4046BDE8F04102F0E8BE70B50C46C8
:1047C000054606F06FFF04842846BDE8704006F0F9
:1047D000EDBF10B50446006806F064FF10F8281F0E
:1047E00021F01E0101702068BDE8104006F0DEBF18
:1047F0000749096850B1021D006801F5804102EBCC
:104800005000021D8A4200D30020704708467047BE
:104810005C01002010B58A0702D021F00301091DB8
:1048200002680B1DB3EB520F00D15108B1EB520FD0
:104830000CD0021D0A44136823F0010313600468BE
:10484000C1EB5404241F64F35F031360026861F337
:104850005F02026010BD2DE9F047054690F8580050
:1048600091468A46C00759D100260127EC68B84610
:104870007CB995F85800C0F30010401E30424DD16D
:10488000B8F1000F4AD02846514688470027044611
:10489000B8460EB9260041D037B1214628464A46CF
:1048A00090470446B04239D00127002CE1D020685F
:1048B00006F010FF0028DBD1E868A0422ED080B1BE
:1048C000006800221021C3699847E86800220D2182
:1048D000006805F06FFB012820D1E868006806F049
:1048E00065FFEC60206800220F21C3699847E868E3
:1048F00000220C21006805F05DFB01280ED1E8685C
:10490000006809F0E7FEE868006806F04FFFA96953
:10491000002903D02846BDE8F0470847BDE8F087E6
:1049200070B50024FFF728F80C4D4FF44006641CC6
:10493000E4B2212231460948FEF7F6FF2878AA287A
:1049400009D01420FCF732F80A2CF0D32878AA28D2
:1049500001D0012070BD002070BD00005058002023
:1049600013B54FF6FF73012269460248FDF7B8FA06
:1049700000981CBDEC05002070B588B00E460446BA
:1049800006F090FE054602A9204606F04DFE0024E2
:1049900025E0686800EBC400016800914068019060
:1049A000BDF80010BDF808000144ADF80010BDF8D6
:1049B0000220BDF80A100A44ADF80220BDF8042018
:1049C0001044ADF80400BDF806000844ADF8060038
:1049D0003146684601F01AFA20B9641CA4B2288C4A
:1049E000A042D6D8288CA04201D14FF6FF7408B05F
:1049F000204670BD10F0070000D101207047000074
:104A00002DE9FC470F0006D0C4686069B84204D1A4
:104A1000A069BDE8FC870020FBE7002104230EE02D
:104A2000A26801EB810052F8202003EB8000BA1A43
:104A30000192A568285A90420AD2491C89B2608A1C
:104A4000C0F309008842EBD80020C4E90570E2E712
:104A5000284601EB8105122101EB85010026425C0D
:104A60004FF00609910711D002F003084FF00C0A2D
:104A7000B8F1010F0FD0274B08214FF0100CB8F1FF
:104A8000020F12D0D243920725D03EE009EB8501F8
:104A9000405A019907E00AEB850109EB850241586C
:104AA000805A019A895C46182FE0009301EB850833
:104AB0000CEB8502825A50F80810022301A809F075
:104AC00087FD10B3A16851F80820801A09EB850210
:104AD0004008895A18E0009301EB85080CEB850229
:104AE000825A50F80810022301A809F071FD60B144
:104AF000A16809EB850351F80820801A42080AEBE7
:104B000085000858C95A805C0E18C4E905763046FD
:104B10007FE700009DF400087CB5C368C0680025ED
:104B20005B8AC4689B042CD4A36801EB022013F0B9
:104B3000407F04D0C3F30161012910D02DE0266825
:104B4000ADF80400164823F07F420090022331465E
:104B500001A809F03DFD00B3801B40080EE0266867
:104B6000019010480090A068042320F07F42314655
:104B700001A809F02DFD80B1801B000961680D5668
:104B80000BE06368585C995C38B131B1637B226893
:104B9000401E00FB0320491E455628467CBD0000F0
:104BA000F35B0008DF5B00080021A0F13002092A56
:104BB00001D8D1B216E0612801D32038C0B2413803
:104BC00006280FD2DFE800F0030507090B0D0A21C4
:104BD00008E00B2106E00C2104E00D2102E00E218B
:104BE00000E00F210846704770B5104D4FF4007477
:104BF000002221462846FCF734F800F01BF80C4E42
:104C0000012202213046FCF72CF800F013F80022B4
:104C100002213046FCF725F800F00CF82146284622
:104C2000BDE870400122FCF71CB80000001C0140E8
:104C3000000C01400020401CC0B23228FBD370475A
:104C400010B5012251020B48FCF70BF8FFF7F2FFF9
:104C5000094C012202212046FCF703F8FFF7EAFF86
:104C6000002202212046FBF7FCFFBDE81040FFF7C1
:104C7000E1BF0000001C0140000C01402DE9F041A3
:104C80000024DFF84880124E25464FF40077600676
:104C9000040E012202213046FBF7E3FFFFF7CAFFB3
:104CA00039464046FBF7D0FF08B1641CE4B200224D
:104CB00002213046FBF7D5FFFFF7BCFF6D1CEDB2BC
:104CC000082DE4D32046BDE8F0810000001C01401F
:104CD000000C01402DE9F041164E0024DFF8588009
:104CE00005467715280601D5012200E00022394645
:104CF0004046FBF7B6FFFFF79DFF01220221304639
:104D0000FBF7AFFFFFF796FF002202213046FBF7CB
:104D1000A8FF072C04D1012239464046FBF7A1FF2A
:104D20006806050EFFF786FF641CE4B2082CD9D391
:104D3000BDE8F081000C0140001C014070B501226B
:104D40000E4D540221462846FBF78BFF0C4E0122E4
:104D500002213046FBF785FFFFF76CFF002221465A
:104D60002846FBF77EFFFFF765FF00220221304651
:104D7000FBF777FFBDE87040FFF75CBF001C014008
:104D8000000C014070B50B4D4FF400740022214619
:104D90002846FBF766FF012202210748FBF761FF67
:104DA000FFF748FF21462846BDE870400122FBF787
:104DB00058BF0000001C0140000C014070B50122EA
:104DC000104E540221463046FBF74BFFFFF732FFEF
:104DD0000D4D012202212846FBF743FFFFF72AFF72
:104DE00021463046FBF730FF08B1012400E00024E3
:104DF000002202212846FBF734FFFFF71BFF204665
:104E000070BD0000001C0140000C01402DE9FE4F68
:104E100004464FF00009856903E0284606F06EFC61
:104E20000546284606F034FC18B1002DF5D1BDE842
:104E3000FE8F002DFBD0284606F020FC0028F6D07F
:104E4000284606F020FC0746208AB4F90CC0654AC3
:104E5000604401B22182608AB4F90E60304400B22D
:104E6000608294F824305FEAC3781CD15FEAC77887
:104E700008D0002900DC4942D2F8048098F8148058
:104E8000414508DAB907D2D5002800DC4042516814
:104E9000097D8842CBDB43F0010084F824004FF009
:104EA0000109C007C3D0BCF1000F01D1002EBED054
:104EB00050689046C06802F095FB0290B5F910006A
:104EC0000190B5F912A0284606F018FC06F04EFC39
:104ED0000090284606F012FC06F0E8FB83462846C0
:104EE00006F058FC0646284606F05AFC032F0ED062
:104EF000F9071FD0B9F1000F02D0208A304406B262
:104F0000A089304401B2284606F00CFE20E0B9F139
:104F1000000F05D0218A31440EB2618A084400B2E4
:104F2000E189084402B2A089304401B2284606F063
:104F300062FD0DE0B9070BD5B9F1000F02D0618A0F
:104F4000084400B2E189084401B2284606F0F6FDA3
:104F5000B5F910100198814225D1B5F912105145CB
:104F600021D1284606F0CAFB06F000FC044628467C
:104F700006F0C4FB06F09AFB0146009884427FF4D9
:104F800056AF5945FBD1D8F804004446C06802F03A
:104F900029FB0299401A81B26068C06803B0BDE87D
:104FA000F04F02F06BBB94F82400B9F1000F40F011
:104FB000020084F824003FF43AAFEB690D21284643
:104FC000D8F804209847204600F096FD0028D6D156
:104FD00000220821284604F0EDFF2046BDE8FE4FE0
:104FE00000F08ABDD40000202DE9FF41044690F86E
:104FF000240080070BD5E56903E0284606F07EFB18
:105000000546284606F044FB18B1002DF5D1BDE851
:10501000FF81002DFBD0284606F03FFB594FE8B139
:10502000284606F030FB7A680646B4F91410507D25
:10503000C0F164004143642091FBF0F109B2A18208
:1050400092F815C0B4F91630CCF1640C03FB0CF3E4
:1050500093FBF0F000B2E082F1B91CE094F8240078
:105060000E2120F0020084F82400EB6928467A68BB
:10507000984700220921284604F09CFF204600F0B2
:105080003BFD0028C3D104B02846BDE8F041002212
:10509000092104F08FBFE8B36946284606F0C4FA38
:1050A000284606F077FBA18A08440FFA80F82846C4
:1050B00006F076FBE18A032E084401B206D0F00721
:1050C0000AD04146284606F02DFD0AE00A46414630
:1050D000284606F090FC04E0B00702D5284606F00A
:1050E0002DFD02A9284606F09FFABDF90000BDF982
:1050F0000810884202D0A08A002888D1BDF9020099
:10510000BDF90A10884202D0E08A0028BAD194F88A
:10511000240000E01BE020F0020084F824000020BE
:10512000A081E081A082E082EB690E2128467A68A6
:105130009847204600F0E0FC0028A3D10022092176
:10514000284604F037FF204600F0D6FC5FE794F8CD
:1051500024000E2120F0020084F82400EB69284688
:105160009847204600F0C8FC0028EFD10022092112
:10517000284604F01FFF04B02046BDE8F04100F0CF
:10518000BBBC0000D40000202DE9F84F0D460446BA
:10519000897B90F84C004FF00008012922D00107CC
:1051A00009D520F0080121F00101C4F8448084F8F9
:1051B0004C1084F8208094F82070A87B84F820009C
:1051C00068686062D4F854905FEA09007ED005F008
:1051D00027F8DFF894A20028CAF8000076D0A87B50
:1051E00018B142E0000771D4E5E7484605F011F830
:1051F0000028B5F90C001ED000280FDA4FF0000689
:1052000006E000BF4FF01401484605F042F8761C56
:10521000B5F90C004042B042F4DC26E025DD002662
:1052200004E01321484605F034F8761CB5F90C006B
:10523000B042F6DC19E000280CDA4FF0000603E07B
:10524000484604F0D7FF761CB5F90C004042B04246
:10525000F6DC0AE009DD002603E0484604F074FFAE
:10526000761CB5F90C00B042F7DC484604F0D8FFD4
:105270005646CAF80000002828D0AA7B04F11C0A70
:10528000012A01D0EAB3EAE017B1012F27D0E6E006
:105290008DF80080C3696A461221984708F0B6FF6E
:1052A0006064484604F0B5FF9DF800108143EAD1E0
:1052B000306800220721C3699847504600F01CFC63
:1052C000002803D100221146306800E084E004F099
:1052D00071FE504600F010FC00287DD1BFE094F82C
:1052E0004C00C00737D1606C08F08AFFE18A884221
:1052F00031D98DF8008030686A461221C369984719
:1053000000E029E09DF8000060B1484605F05CFD32
:10531000E0B9484604F07DFF80F00101484604F002
:10532000CBFF13E0306800220B21C3699847504639
:1053300000F0E2FB00284FD100220421306804F085
:1053400039FE504600F0D8FB002845D114F84C0F28
:1053500040F00100207082E0012F74D18DF80080B0
:10536000C36945466A46122198479DF80000A0B3DC
:1053700099F85800800794F84C004FEAC07063D544
:1053800018B1484605F020FD40B3306800220A21DC
:10539000C3699847504600F0AFFB002861D1002256
:1053A0000321306804F006FE504600F0A5FB0028FB
:1053B00057D100220621306804F0FCFD504600F071
:1053C0009BFB00284DD100220721306804F0F2FD3C
:1053D000504600F091FB02E043E007E039E000288E
:1053E0003FD10A21484604F054FF32E030680022E1
:1053F0000A21C3699847504600F07EFB002830D14F
:1054000094F84C00C00704D100220321306804F056
:10541000D1FD504600F070FB002822D10022062169
:10542000306804F0C7FD504600F066FB002818D134
:1054300000220721306804F0BDFD504600F05CFBFF
:1054400000280ED105E00AE018B90121484604F011
:1054500033FF44F8445F207A20F001002072C6F840
:105460000080BDE8F88F0000D40000202DE9F0474F
:105470000E460446897B90F84C000027012926D06F
:10548000010706D520F00900676484F84C0084F811
:105490002070D4F854805FEA08007DD004F0C0FE8C
:1054A0006F4D0028286077D0626A7168616294F855
:1054B0002010B37B84F8203096F80EC004F11C094C
:1054C000BCF1010F06D0BCF1000F7DD0C5E0000794
:1054D00062D4DEE711B101293BD0BEE008F096FEB0
:1054E000606471680A2909D01B2918D0092920D0C5
:1054F0000B2926D0404604F0CCFEAEE00A214046FF
:1055000004F0C7FE286800220721C369984748466F
:1055100000F0F2FA00283FD10022114605E01B21DD
:10552000404604F0B6FE00221221286804F042FD35
:1055300048E00021404604F0BFFE404604F004FE6F
:1055400040E00021404604F0B7FE404604F052FE21
:1055500038E094F84C00C00721D1606C08F050FE90
:10556000E18A884294F84C0017D940F0010084F891
:105570004C0070680A2870D108F048FEA0642868C2
:1055800000220B21C3699847484600F0B5FA00286D
:1055900064D100220421C8E760E0C0075DD0A06CA0
:1055A00008F02EFE218B884257D908F02FFEA06408
:1055B00071680A290ED00929BBD00B29C1D04046F9
:1055C00004F067FE484600E011E000F095FA00287C
:1055D00044D142E0286800220C21C369984748461C
:1055E00000F08AFA002839D1002205219DE701291F
:1055F00033D172600A2A2AD10022C3690A2198474E
:10560000484600F079FA002828D194F84C00C007E9
:1056100009D100220321286804F0CCFC484600F0A0
:105620006BFA00281AD100220621286804F0C2FC77
:10563000484600F061FA002810D1002207212868AE
:1056400004F0B8FC484600F057FA002806D144F8A8
:10565000447F207A20F0010020722F60BDE8F0879F
:10566000D40000202DE9F0419A4D0446806928605D
:1056700094F8301009077DD469680026CF6838B1E6
:1056800094F82410890724D4102106F0EDF800BB0B
:10569000384601F0ACFF0146204600F039FA286098
:1056A00080B9384601F0ABFF0146204600F030FAE1
:1056B000286038B9384601F0AAFF0146204600F0BC
:1056C00027FA2860E06920B1A682E6822046FFF72B
:1056D0008BFCA7692868874256D0A0882081E08883
:1056E00060819FB1FB69092138466A689847204666
:1056F00000F002FA00283DD100220221384604F0D1
:1057000059FC204600F0F8F9002833D12868A06140
:10571000E06180B308F07AFDA06294F8300020F0D8
:10572000010084F8300094F8240020F0030084F88D
:10573000240026826682A681E6810026286806E08B
:1057400090F83010890600D5064605F0D7FF0028EE
:10575000F6D116B1304606F08DF8286807216A6840
:10576000C3699847204600F0C7F9002802D10022FB
:10577000114601E085E007E0286804F01BFC2046A4
:1057800000F0BAF900287CD1A0882189401A03B220
:10579000A381E0886189401A02B2E281B4F9140061
:1057A00000EB800040F3CF00A082B4F9161000286F
:1057B00001EB810141F3CF01E18202DA00F1010046
:1057C00002E002DDA0F10100A082002902DA01F16D
:1057D000010102E002DDA1F10101E182A08A00EBFA
:1057E0006300A082E08A00EB6200E0822868002863
:1057F0006DD0C3694FF008016A689847204600F0F1
:105800007BF9002863D100220121286804F0D2FB33
:10581000204600F071F9002859D12046FFF7F6FA2A
:10582000204600F069F9002851D194F8240080073F
:105830004DD494F83000C0072CD1A06A08F0E0FCE9
:105840006A68D18A88421BD928680B21C3699847A6
:10585000204600F051F9002839D10022042128689F
:1058600004F0A8FB204600F047F900282FD194F857
:10587000300040F0010084F8300008F0C7FCE0621E
:1058800000E024E094F82400800720D494F830004D
:10589000C0071CD0E06A08F0B3FC6A68118B88422C
:1058A00015D928680C21C3699847204600F024F9CF
:1058B00000280CD100220521286804F07BFB20463B
:1058C00000F01AF9002802D108F0A0FCE062BDE85F
:1058D000F0810000D40000202DE9F04790F830104E
:1058E000044608074FF000090BD5C4F81890C4F817
:1058F0001C90C4F8289021F00800C4F82C9084F87B
:1059000030006D4DA069286000287DD0102105F081
:10591000ABFF002828686A684FF00A01C36918D0F5
:105920009847204600F0E8F800286ED194F824004B
:10593000800734D494F83000C00726D10022032118
:10594000286804F037FB204600F0D6F800285CD128
:105950001BE09847204600F0CFF8002855D194F876
:105960003000C0070DD194F82400800717D400221E
:105970000321286804F01EFB204600F0BDF8002833
:1059800043D194F82400800709D400220621286816
:1059900004F010FB204600F0AFF8002835D10022BB
:1059A0000721286804F006FB204600F0A5F800282F
:1059B0007FD1204600F0A0F800287AD10026286880
:1059C00005F072FE80462021286805F04DFFC8B919
:1059D0002F680CE0384605F091FE070012D0202118
:1059E00005F042FF70B9384605F05EFE8046B8F11A
:1059F0000000EFD037B104F005FC18B1012638469D
:105A000004F0AAFB206A01E044E052E029688842E1
:105A100015D0A6B900220D2104F0CCFA204600F0E2
:105A20006BF8002845D100220C21A06904F0C2FACD
:105A3000204600F061F800283BD12868206220460B
:105A400000F05AF8002834D12D6803E0284605F00C
:105A500055FE0546284605F01BFE10B1002DF5D178
:105A600012E08DB1284605F018FE68B194F82400C4
:105A7000800709D500220A21284604F09BFA204617
:105A800000F03AF8002814D1C4F81890C4F828900F
:105A9000C4F82C90E06900280BD094F830008007FF
:105AA00007D42046FFF7A0FA2046BDE8F04700F0F3
:105AB00023B8BDE8F0870000D400002090F84C2007
:105AC000910715D5002141638163C16310F8403F00
:105AD00022F0030223F0030300F814398161C1614D
