:020000040800F2
:1000000078B20020E10100083D370008992E000871
:10001000393700080D0500082552000800000000CF
:10002000000000000000000000000000490100087E
:1000300011050008000000008D010008BD4C0008FB
:10004000FB010008FB010008FB010008FB010008A0
:10005000FB010008FB010008FB010008FB01000890
:10006000FB010008FB010008FB010008FB01000880
:10007000FB010008FB010008FB010008FB01000870
:10008000FB010008FB010008FB010008FB01000860
:10009000FB010008FB010008FB010008FB01000850
:1000A000FB010008FB010008FB010008FB01000840
:1000B000FB010008FB010008FB010008FB01000830
:1000C000FB010008FB010008FB010008FB01000820
:1000D000FB01000815520008FB010008FB010008A5
:1000E00025050008FB010008FB010008FB010008D2
:1000F000FB010008FB010008FB010008FB010008F0
:10010000FB010008FB010008FB010008FB010008DF
:10011000FB010008FB010008FB0100087D4D000801
:10012000FB010008FB010008FB010008FB010008BF
:10013000DFF810D000F03CF9004800470D530108EB
:10014000AFF3008078B20020224B19680868B0E84D
:10015000F00F80F30988BFF36F8F4FF0000080F33A
:1001600011884EF00D0E7047000000000648006830
:10017000006880F3088862B661B6BFF34F8FBFF3A3
:100180006F8F00DF00BF00BF08ED00E0EFF30980D4
:10019000BFF36F8F0F4B1A6820E9F00F106008B59E
:1001A0004FF0500080F31188BFF34F8FBFF36F8F74
:1001B00016F024FA4FF0000080F31188BDE80840E3
:1001C00019680868B0E8F00F80F30988BFF36F8FF3
:1001D000704700BF30000020EFF30580704700003B
:1001E0000648804706480047FEE7FEE7FEE7FEE7D1
:1001F000FEE7FEE7FEE7FEE7FEE7FEE77B4D0008D1
:1002000031010008202A04DB203A21FA02F0002103
:10021000704721FA02F3D040C2F120029140084316
:100220001946704740EA01039B0703D009E008C95B
:10023000121F08C0042AFAD203E011F8013B00F8AB
:10024000013B521EF9D27047D2B201E000F8012BF7
:10025000491EFBD270470022F6E710B513460A4646
:1002600004461946FFF7F0FF204610BD421C10F867
:10027000011B0029FBD1801A704710B5002200E055
:10028000521C835C8C5CA34201D1002BF8D1D8B204
:10029000E1B2401A10BD30B504460020034600E02C
:1002A0005B1C934203D2E05CCD5C401BF8D030BDB8
:1002B000034611F8012B00F8012B002AF9D118464A
:1002C000704770B5064605F02DF8046805460A2209
:1002D0000021304600F033F82C6070BD2DE9F05F4E
:1002E0000546002092469B468846064681464024A5
:1002F0001BE02846414647462246FFF783FF534608
:100300005A46C01A914110D311461846224600F0B1
:1003100061F82D1A67EB01084F46224601200021A3
:1003200000F058F817EB00094E41201EA4F101041B
:10033000DFDC484631462A464346BDE8F09F2DE9BA
:10034000F04791460F4680460446002614F8015BAC
:100350002DB100F04FF80068405DC007F6D12B2D9D
:1003600002D02D2D18D0641E4A463946204600F092
:1003700045F827B13968A14201D1C7F8008071055D
:100380004FF002040BD54042002803DD04F0CAFF01
:100390000460A007BDE8F08746F48066E4E7002823
:1003A000F8DA04F0BFFF04606FF00040F2E70000ED
:1003B000064C074D06E0E06840F0010394E80700B2
:1003C00098471034AC42F6D3FFF7B6FE88A0010878
:1003D000A8A00108202A04DB203A00FA02F100203C
:1003E00070479140C2F1200320FA03F31943904073
:1003F0007047000000487047FC9D01082DE9F05F40
:1004000082460078002715468B460AF10104B9465A
:10041000302801D09DB113E014F8010B0127782892
:1004200003D0582801D045B10AE00DB1102D07D1F5
:100430000027102514F8010B02E0082500E00A252A
:100440000026B0460EE005FB080005FB06F101277B
:1004500001EB10461FFA80F8B6F5803F00D3B9468D
:1004600014F8010B294600F018F80028EBDABBF16C
:10047000000F05D00FB1641E00E05446CBF80040D9
:10048000B9F1000F06D004F04DFF02210160C81E33
:10049000BDE8F09F48EA0640FAE73A2800D2303833
:1004A00020F02002412A01D3A2F13700884201D373
:1004B0004FF0FF30704770B58C1810F8015B15F0E5
:1004C000070301D110F8013B2A1106D110F8012BC6
:1004D00003E010F8016B01F8016B5B1EF9D12B07EB
:1004E00005D40023521E0DD401F8013BFAE710F8A1
:1004F000013BCB1A921C03E013F8015B01F8015B8E
:10050000521EF9D5A142D8D3002070BD00BFFEE72E
:10051000704701B502E00098401E00900098002846
:10052000F9D108BD10B50748006800F4806038B103
:100530002021054800F09CFF4FF4806001490860CD
:1005400010BD0000140401400018014072B600BF45
:10055000FEE7000070B50446B3F5804F13D1D1E932
:10056000000540EA05108D6840EA05208D692843A2
:100570008D8940EA054054F82250064E3540284304
:1005800044F8220003E06FF0704044F8220000209D
:1005900070BD00000000F0CF70B50246086852F848
:1005A000200020F001000E6842F826008868082824
:1005B00001D1402300E00023486818438E6830438F
:1005C000CE6830430E6930434E693043CE693043C4
:1005D0000E6A30434E6A30438E6A3043CE6A3043EF
:1005E0000E6B40EA060488690443486B0443074DD8
:1005F00045F4806545F4E025086852F82000A843DA
:1006000020430E6842F82600002070BD7FFB0800E2
:1006100010B50346D1E9000440EA04108C6840EAB2
:1006200004208C8940EA0444088A401E44EA0054AD
:10063000087D801E44EA00608C692043541C53F8F6
:10064000244004F040442043541C43F8240000207C
:1006500010BD00002DE9F04F99B007465EA000687C
:10066000189028210EA8FFF7F6FD5C4800680D9051
:100670000024A046BA200C9000264FF0000A4FF04C
:10068000000B00200B900A9000254FF0FF3900BFAF
:1006900000BF0C220DA90C9800F06CF98146B9F14D
:1006A000000F06DA49464EA004F010FE19B0BDE86E
:1006B000F08F9DF83680B8F1000F00D1F6E708F012
:1006C000800000B979E008F00F04052C00DD74E02B
:1006D000012C17DD242101A8FFF7BDFD3F48001DB7
:1006E00000680090601EC000821C69460C9800F0F3
:1006F00041F98146601EC2000DF1020110A8FFF70A
:1007000091FD00BF42480088A04221DD00251BE08A
:10071000002015E0032101EBC0010DAA8E183178ED
:1007200001F00F010A913B494A5D0A998A4200D1C2
:1007300008E0611E814201DC00213970411CC8B211
:10074000A042E7DB00BF6D1C314800888542DFDB3B
:1007500024B300251FE0032000EBC5000DA94618B7
:10076000307800F00F000A902A490A9848557078AE
:10077000B17840EA012AF078317940EA012B7079AA
:10078000B17940EA01200B9001203870A7F802A04F
:10079000A7F804B06D1CA542DDDB0BE01C48008807
:1007A00040B1002502E0002038706D1C1848008818
:1007B0008542F8DB1648048000BF032218A90C9874
:1007C00000F068F98146B9F1000F02DA12A004F0D6
:1007D0007DFD00BF6AE70000814E00004C6D0108FE
:1007E0003C3C2D4754502D4552524F522D3E3E20F9
:1007F000493243207472616E73666572206572724D
:100800006F722E206572726E6F3A25640A200A009C
:10081000B4000020B60000203C3C2D4754502D4928
:100820004E464F2D3E3E2049324320777269746513
:1008300020656E645F636D64206572726F72210A59
:1008400000000000FEB500200090019002900024FE
:100850003748007800EB4000364931F810503448F2
:10086000007800EB400001EB40004688002730484C
:10087000007800EB400001EB40008088401C000A3B
:100880008DF800002A48007800EB400001EB4000A2
:100890000079401CC0B28DF801000A226946BA20D6
:1008A00000F068F80446002C01DA0020FEBD9DF837
:1008B00002009DF8031000EB012085B29DF80400B2
:1008C0009DF8051000EB012086B200BF00BF00BFFD
:1008D000684600BF1648007800EB4000154901EB60
:1008E00040008088801D000A8DF8000010480078C4
:1008F00000EB400001EB40000079801DC0B28DF894
:10090000010003226946BA2000F034F80446002CA6
:1009100001DA0020CAE79DF8070000F003073B4614
:100920003246294604A004F0D1FC0120BEE70000B5
:1009300096000020346C01083C3C2D4754502D4952
:100940004E464F2D3E3E20585F4D4158203D2025BC
:10095000642C20595F4D4158203D2025642C2054A3
:10096000524947474552203D203078253032780A99
:10097000000000002DE9F04186B005460C46164601
:100980004FF0FF374FF0000800BF00BF0020ADF868
:1009900002008DF800500220ADF8040002940121FD
:1009A000ADF80E108DF80C50B01E81B2ADF81010DD
:1009B000A01C059009E00221684602F04FFB0746A3
:1009C000022F00D104E008F10108B8F1050FF2DBB5
:1009D00000BFB8F1050F08DB6078237840EA0321F7
:1009E000B21E3B46034804F071FC384606B0BDE831
:1009F000F0810000189E010838B5002000901748CB
:100A0000007800EB4000164901EB4000808800129E
:100A10008DF800001148007800EB400001EB400029
:100A200000798DF8010000256C1E00BF00BF0DE0AD
:100A300003226946BA20FFF79DFF44B2002C01DD76
:100A4000204638BD294607A004F040FC2846691C12
:100A5000CDB20528ECDB2046F3E70000960000202D
:100A6000346C01083C3C2D4754502D4552524F5296
:100A70002D3E3E20475450206932632074657374C4
:100A8000206661696C65642074696D652025642E3B
:100A90000A0000002DE9FE4380460C4615464FF043
:100AA000FF36002700BF00BF0020ADF802008DF820
:100AB0000080A8B2ADF80400029408E00121684665
:100AC00002F0CCFA0646012E00D102E07F1C052F71
:100AD000F4DB00BF052F08DB6078237840EA0321B0
:100AE000AA1E3346024804F0F1FB3046BDE8FE83FF
:100AF000689E010800BF00BF704700002DE9F04F5D
:100B0000CDB04FF0FF390027B846BB46002500BFE7
:100B100000BF02F09BFAFFF76FFF8146B9F1000FAB
:100B200006DA5DA004F0D2FB48464DB0BDE8F08F78
:100B300000F0F4F84FF4817014F028FC04462CB94E
:100B400060A004F0C3FB4FF0FF30EEE7654800788B
:100B500000EB4000644901EB4000808800122070E7
:100B60006048007800EB400001EB400000796070C5
:100B70005C48007818B95D484C904FF0EF0A4FF48C
:100B80008071A01CFFF767FB5246A01C4C99FFF731
:100B900049FB554600BF00BF00BF00BF00BF204655
:100BA00000BF2020E07003202071E0206071012050
:100BB000A071207A20F0080020724FF00008494808
:100BC0000078E0B9022708E0781C205CE15D00EBCA
:100BD000012040441FFA80F8BF1C681EB842F3DCB5
:100BE000C8F100001FFA80F800BF00BF4FEA1821CB
:100BF000681E215404F805800121681C21544FF01F
:100C0000000B0BE02A1D2146BA20FFF743FF814667
:100C1000B9F1000F00DD04E00BF1010BBBF1050F92
:100C2000F0DB00BF3248FFF774FC20788DF8040039
:100C300060788DF8050000BF00BF4FF4967201A9DF
:100C4000BA20FFF797FE814600BF00BF00BF01A892
:100C500000BF00BF00BF00BF204600BF03260AE060
:100C6000A05D01A9895D884203D0314621A004F02E
:100C70002DFB701C86B2681EB042F1DCB04201D17F
:100C800000BF00BF204605F0CFF9FFF733FFFFF7A5
:100C9000D9FD002049E700003C3C2D4754502D452C
:100CA00052524F522D3E3E2049324320636F6D6DAC
:100CB000756E69636174696F6E204552524F52219F
:100CC0000A0000003C3C2D4754502D4552524F52D3
:100CD0002D3E3E206D616C6C6F63206661696C20F7
:100CE00021200A0096000020346C0108446B0108A2
:100CF000FFFF0F003C3C2D4754502D4552524F52A0
:100D00002D3E3E20436F6E666967206661696C20E8
:100D1000212069203D202564200A000010B586B0FE
:100D20004FF0FF34284903C9CDE9040100BF00BFDB
:100D3000082204A9BA20FFF71DFE0446002C05DA9C
:100D400022A004F0C3FA204606B010BD9DF814009E
:100D5000342825D19DF816009DF817109DF8152010
:100D6000CDE9002102909DF814309DF813209DF8E4
:100D7000121021A004F0AAFA9DF81200392821D1FE
:100D80009DF8130031281DD19DF81400372819D182
:100D90009DF81500532815D100202349087011E053
:100DA0009DF816009DF817109DF81520CDE900213B
:100DB00002909DF814309DF813209DF812101BA08E
:100DC00004F084FA2046BFE7186D01083C3C2D472B
:100DD00054502D4552524F522D3E3E2047545020E4
:100DE000726561642076657273696F6E20666169F1
:100DF0006C65640A000000003C3C2D4754502D49AE
:100E00004E464F2D3E3E204943322056657273694F
:100E10006F6E3A2025632563256325635F25303295
:100E200078253032780A0000960000203C3C2D479F
:100E300054502D494E464F2D3E3E20556E6B6E6FE1
:100E4000776E2049432056657273696F6E3A20258C
:100E5000632563256325635F25303278253032783A
:100E60000A0000000146002291F82100022808D063
:100E70000420886300BF002081F8200000BF01200B
:100E800070470868006820F00E000B68186008685A
:100E9000006820F001000B68186091F840300120D4
:100EA0009840CB6B5860012081F8210000BF0020E2
:100EB00081F8200000BF1046E2E7000070B504464C
:100EC000002594F82100022803D00420A063012506
:100ED000C1E02068006820F00E00216808602068EA
:100EE000006820F00100216808605C4920688842A1
:100EF00052D95A4978392068884201D1012047E007
:100F0000564964392068884201D1102040E0534995
:100F100050392068884201D1801539E04F493C3969
:100F20002068884201D1801432E04C492839206879
:100F3000884202D14FF480302AE0484914392068B1
:100F4000884202D14FF4801022E044492068884250
:100F500001D140041CE042492068884201D10120AF
:100F600016E03F4914312068884201D110200FE07B
:100F70003B4928312068884201D1801508E0384972
:100F80003C312068884201D1801401E04FF4803068
:100F90003349091F086051E0304978392068884298
:100FA00001D1012047E02D4964392068884201D1F0
:100FB000102040E0294950392068884201D180152D
:100FC00039E026493C392068884201D1801432E05A
:100FD000224928392068884202D14FF480302AE023
:100FE0001E4914392068884202D14FF4801022E053
:100FF0001A492068884201D140041CE01849206841
:10100000884201D1012016E0154914312068884238
:1010100001D110200FE0124928312068884201D107
:10102000801508E00E493C312068884201D18014C7
:1010300001E04FF48030094980394860012084F88C
:10104000210000BF002084F8200000BF606B10B1B9
:101050002046616B8847284670BD00008000024032
:101060000804024070B5044600F012FA0646254610
:10107000681C10B104480078054400BF00F008FA6D
:10108000801BA842FAD370BD2800002000B585B0AF
:10109000002001900290039004901C48006808B161
:1010A00005B000BD01201949086000BF184840691B
:1010B00040F48070164948610846406900F4807029
:1010C000009000BF00BF41F2010001900220029099
:1010D0000320049001A90F4800F022F84FF6807019
:1010E0000190022002900320049001A90A4800F018
:1010F00017F84CF233700190022002900320049004
:1011000001A9064800F00CF800BFC9E71400002050
:10111000001002400020014000180140001401406E
:101120002DE9F847024600239C467BE14FF0010879
:1011300008FA03F4D1F8008008EA0400A0427DD147
:10114000DFF8F4A2D1F80480A8EB0A09D0453AD020
:1011500014DCB8F1030F50D009DCB8F1000F31D026
:10116000B8F1010F1CD0B8F1020F49D120E0B8F15D
:10117000110F18D0B8F1120F42D11EE0B9F5881F37
:1011800025D006DCB9F5803F20D0B9F5801F37D1D6
:101190001AE0B9F5001F18D0B9F5041F30D117E0D7
:1011A000D1F80CC02DE0D1F80C8008F1040C28E037
:1011B000D1F80C8008F1080C23E0D1F80C8008F17C
:1011C0000C0C1EE000BF00BF00BF00BF00BF00BF8F
:1011D000D1F80880B8F1000F02D14FF0040C0BE0F9
:1011E000D1F80880B8F1010F03D14FF0080C146159
:1011F00002E04FF0080C546103E04FF0000C00E0F7
:1012000000BF00BFFF2801D8904601E002F10408AA
:101210004646FF2802D84FEA830803E0A3F10808F6
:101220004FEA88084746D6F800804FF00F0909FAC0
:1012300007F928EA09080CFA07F900E07AE048EA19
:101240000908C6F80080D1F8048008F08058B8F189
:10125000805F6FD100BFDFF8E481D8F8188048F0D4
:101260000108DFF8D891C9F81880C846D8F8188066
:1012700008F00108CDF8008000BF00BF4FEAB93880
:101280004FEA930958F829504FEA83784FEA1879C2
:101290004FF00F0808FA09F825EA0805DFF8A081E1
:1012A000424502D14FF0000824E0DFF89881424522
:1012B00002D14FF001081DE0DFF88C81424502D1D8
:1012C0004FF0020816E0DFF88481424502D14FF06A
:1012D00003080FE0DFF87881424502D14FF004089F
:1012E00008E0DFF87081424502D14FF0050801E0C7
:1012F0004FF006084FEA83794FEA197908FA09F89E
:1013000048EA0505DFF850814FEA930948F829506B
:10131000D1F8048008F48038B8F5803F0BD1DFF8AD
:101320003C81D8F8008048EA0008DFF83091C9F81D
:1013300000800AE075E0DFF82481D8F8008028EA10
:101340000008DFF81891C9F80080D1F8048008F48B
:101350000038B8F5003F0ED1DFF8008108F104082D
:10136000D8F8008048EA0008DFF8F09009F1040995
:10137000C9F800800DE0DFF8E48008F10408D8F82F
:10138000008028EA0008DFF8D49009F10409C9F8C0
:101390000080D1F8048008F48018B8F5801F0ED1C1
:1013A000DFF8B88008F10808D8F8008048EA00089B
:1013B000DFF8A89009F10809C9F800800DE0DFF80E
:1013C0009C8008F10808D8F8008028EA0008DFF8B7
:1013D0008C9009F10809C9F80080D1F8048008F45C
:1013E0000018B8F5001F0ED1DFF8708008F10C0866
:1013F000D8F8008048EA0008DFF8609009F10C098D
:10140000C9F800800DE0DFF8548008F10C08D8F826
:10141000008028EA0008DFF8449009F10C09C9F8B7
:1014200000805B1CD1F8008028FA03F8B8F1000FA7
:101430007FF47CAEBDE8F887000011100010024078
:1014400000080140000C0140001001400014014060
:1014500000180140001C0140080001400004014048
:10146000024693680B400BB1012000E0002070475A
:1014700010B5C26821EA020302EA010443EA044308
:10148000036110BD0AB1016101E00B040361704703
:1014900001480068704700002000002003480068F1
:1014A000034909780844014908607047200000207A
:1014B0002800002010B50848006840F010000649D8
:1014C0000860032000F0EEF80F2000F007F800F0AD
:1014D00049F8002010BD00000020024070B588B01F
:1014E00004460025002600222146372000F09CF803
:1014F000372000F089F800BF1648C06940F020008E
:101500001449C8610846C06900F02000019000BF7E
:1015100000BF02A903A800F0DFFA00F005FB4500B8
:101520000D48B5FBF0F0461E0C480D49086040F22E
:10153000E7310B48C160466000210161816001F024
:101540007FF820B9064801F0C5F808B070BD012049
:10155000FBE700000010024040420F000014004072
:10156000A408002008B500BF1448806940F00100BD
:10157000124988610846806900F00100009000BFB0
:1015800000BF00BF0846C06940F08050C8610846EF
:10159000C06900F08050009000BF00BF00220F2102
:1015A000901E00F041F800BF0549486820F0E06057
:1015B00040F00070486000BF08BD0000001002400D
:1015C0000000014010B501460846002817DB00F076
:1015D0001F0301229A400B4B440943F8242000BF0B
:1015E00000BF00BFBFF34F8F00BF00BF00BF00BFF1
:1015F00000BF00BFBFF36F8F00BF00BF00BF00BFC1
:1016000010BD000080E100E001460846002809DB2B
:1016100000F01F0301229A4043099B0003F1E023DD
:10162000C3F8002100BF70472DE9F05F80460D46EA
:101630001646002703F05AFE074639462A46334627
:1016400001F00700C0F1070ABAF1040F02D94FF008
:10165000040A01E0C0F1070AD14600F1040ABAF118
:10166000070F02D24FF0000A01E0A0F1030AD446AE
:101670004FF0010A0AFA09FAAAF1010A0AEA020A73
:101680000AFA0CFA4FF0010B0BFA0CFBABF1010B51
:101690000BEA030B4AEA0B042146404603F02EFEF8
:1016A000BDE8F09F00BF00F00702064B19684FF637
:1016B000FF031940044B0B4343EA0221014B19601D
:1016C00000BF70470CED00E00000FA050120014961
:1016D0000862704700000E422DE9F04385B00646CF
:1016E00042A30FCB01AC0FC444A0006800904FF0A0
:1016F0000008002500270024A146042E36D004DC73
:10170000012E3BD0022E6BD15FE0082E32D0102E7E
:1017100066D13B484468006800F0807000B301A8BF
:10172000C4F38341475C04F4803070B134484068AE
:10173000C0F340401DF8008004F4803040B13148CF
:10174000B0FBF8F000FB07F502E02F4807FB00F5BF
:101750002B48406800F48000B0F5800F01D1A94605
:1017600003E068000321B0FBF1F93AE000F0FCF976
:10177000814636E000F0F8F9814632E02048046AFC
:1017800004F44070B0F5807F05D104F0020010B180
:101790004FF4004918E004F44070B0F5007F07D121
:1017A0001748406A00F0020010B149F640490BE0CA
:1017B00004F44070B0F5407F06D11148006800F491
:1017C000003008B14FF224490BE000F0BDF90C499C
:1017D0004968C1F38131491C4900B0FBF1F900E0CF
:1017E00000BF00BF484605B0BDE8F0830203040512
:1017F000060708090A0B0C0D0E0F1010010200005D
:101800000010024000127A0000093D00F8B50446BD
:1018100000260025207800F0010000286BD000276A
:101820004348C06900F0805070B900BF4048C069AB
:1018300040F080503E49C8610846C06900F08050C1
:10184000009000BF00BF01273A48006800F4807094
:10185000B0B93848006840F4807036490860FFF736
:1018600017FE064606E0FFF713FE801B642801D929
:101870000320F8BD2F48006800F480700028F2D0E3
:101880002B48006A00F440752DB3A08800F4407026
:10189000A84220D02648006A20F44075012026493D
:1018A0000860002008602248056205F0010090B140
:1018B000FFF7EEFD064608E0FFF7EAFD801B41F268
:1018C0008831884201D90320D3E71948006A00F023
:1018D00002000028F0D01648006A20F440706168C9
:1018E000084313490862012F04D10846C06920F05B
:1018F0008050C86100BF207800F00200022807D1A4
:101900000B48406820F44040A168084308494860FB
:10191000207800F01000102807D10548406820F416
:10192000800061690843024948600020A1E7000087
:101930000010024000700040400442427047000026
:1019400070B504460D460CB9012070BD5A480068B8
:1019500000F00700A8420ED25748006820F00700A8
:101960002843554908600846006800F00700A8426F
:1019700001D00120E9E7207800F0020002281DD103
:10198000207800F00400042805D14C48406840F459
:10199000E0604A494860207800F00800082805D136
:1019A0004648406840F460504449486043484068B5
:1019B00020F0F000A168084340494860207800F01A
:1019C000010078B36068012806D13C48006800F443
:1019D000003090B90120B8E76068022806D1374886
:1019E000006800F0007040B90120AEE7334800689D
:1019F00000F0020008B90120A7E73048406820F055
:101A00000300616808432D494860FFF741FD064621
:101A100009E0FFF73DFD801B41F28831884202D981
:101A2000032092E707E02548406800F00C00616859
:101A3000B0EB810FEDD12048006800F00700A8420C
:101A40000ED91D48006820F0070028431A49086095
:101A50000846006800F00700A84201D0012074E7A2
:101A6000207800F00400042807D11448406820F4CE
:101A7000E060E168084311494860207800F0080000
:101A8000082808D10D48406820F46050216940EAD8
:101A9000C1000A49486000F067F808494968C1F385
:101AA0000311074A515CC8400649086006480068AF
:101AB000FFF714FD002048E700200240001002401C
:101AC0002C6B01082C00002024000020012001497B
:101AD000C8647047000042420F2202600D4A5268FB
:101AE00002F0030242600B4A526802F0F002826088
:101AF000084A526802F4E062C260064A526802F480
:101B00006052D2080261044A126802F007020A60B9
:101B100070470000001002400020024001480068A9
:101B2000704700002C00002000B5FFF7F7FF0449C4
:101B30004968C1F30221034A515CC84000BD00005E
:101B4000001002403C6B010800B5FFF7E7FF0449B5
:101B50004968C1F3C221034A515CC84000BD00007E
:101B6000001002403C6B0108F0B585B00FF26C0C20
:101B70009CE8E01001A8A0E8E0101CA52D680095E5
:101B800000210022002300240020194D696801F083
:101B90000C05F5B1042D02D0082D19D101E015482E
:101BA00019E001ADC1F38346AC5D01F4803555B158
:101BB0000F4D6D68C5F340451DF805200D4D65437B
:101BC000B5FBF2F302E00C4D04FB05F3184602E00E
:101BD00000BF084800BF00BF05B0F0BD0203040508
:101BE000060708090A0B0C0D0E0F10100102000069
:101BF0000010024000127A0000093D0010B50648AE
:101C0000806800F08000802804D1FFF797FE8020D4
:101C10000149887210BD000000100240F8B504466A
:101C20000CB90120F8BD207800F00100002878D020
:101C3000F848406800F00C0004280CD0F5484068D3
:101C400000F00C00082811D1F248406800F4803000
:101C5000B0F5803F0AD1EF48006800F4003000285A
:101C60005FD0606800285CD10120DBE700BF6068BE
:101C7000B0F5803F06D1E748006840F48030E54980
:101C8000086028E0606858B9E248006820F48030B5
:101C9000E04908600846006820F4802008601AE0E7
:101CA0006068B0F5A02F0BD1DA48006840F48020BE
:101CB000D84908600846006840F4803008600AE0AF
:101CC000D448006820F48030D24908600846006893
:101CD00020F48020086000BF606888B1FFF7D8FB5F
:101CE000054606E0FFF7D4FB401B642801D903201A
:101CF00098E7C848006800F400300028F2D010E0EF
:101D0000FFF7C6FB054606E0FFF7C2FB401B642851
:101D100001D9032086E7BF48006800F4003000289E
:101D2000F2D1207800F00200022857D1B94840686B
:101D300000F00C0050B1B748406800F00C000828D3
:101D400018D1B448406800F4803098B9B1480068B0
:101D500000F0020020B12069012801D0012061E7D4
:101D6000AC48006820F0F800616940EAC100A94968
:101D7000086033E02069E8B10120A7490860FFF757
:101D800087FB054606E0FFF783FB401B022801D9CD
:101D9000032047E79F48006800F002000028F2D0C7
:101DA0009C48006820F0F800616940EAC100994948
:101DB000086013E0002098490860FFF769FB0546BA
:101DC00006E0FFF765FB401B022801D9032029E745
:101DD0009048006800F002000028F2D1207800F05E
:101DE000080008282DD1A069B8B101208B490860EE
:101DF000FFF74EFB054606E0FFF74AFB401B0228B3
:101E000001D903200EE78348406A00F00200002851
:101E1000F2D0012002F060FD13E000207F4908604D
:101E2000FFF736FB054606E0FFF732FB401B0228B2
:101E300001D90320F6E67748406A00F00200002846
:101E4000F2D1207800F00400042873D100277148F3
:101E5000C06900F0805070B900BF6E48C06940F0A2
:101E600080506C49C8610846C06900F080500090FD
:101E700000BF00BF01276A48006800F48070B0B955
:101E80006748006840F4807065490860FFF700FB10
:101E9000054606E0FFF7FCFA401B642801D9032041
:101EA000C0E65F48006800F480700028F2D000BFF0
:101EB000E068012806D15748006A40F00100554902
:101EC000086227E0E06858B95248006A20F0010033
:101ED000504908620846006A20F00400086219E0D0
:101EE000E06805280BD14B48006A40F004004949DE
:101EF00008620846006A40F0010008620AE04548AE
:101F0000006A20F00100434908620846006A20F098
:101F10000400086200BFE068A0B1FFF7B9FA054607
:101F200009E0FFF7B5FA401B41F28831884202D937
:101F3000032077E622E03748006A00F0020000281C
:101F4000EFD012E0FFF7A4FA054608E0FFF7A0FA89
:101F5000401B41F28831884201D9032062E62D48B6
:101F6000006A00F002000028F0D1012F05D12948B5
:101F7000C06920F080502749C86100BFE069C8B33C
:101F80002448406800F00C00082860D0E06902286E
:101F900048D1002020490866FFF77AFA054606E096
:101FA000FFF776FA401B022801D903203AE61948C8
:101FB000006800F000700028F2D1206AB0F5803F80
:101FC00007D11448406820F40030A1680843114943
:101FD0004860D4E9080108430E49496821F47411A6
:101FE00008430C49486001200B490866FFF750FA86
:101FF000054607E03DE0FFF74BFA401B022801D9F8
:1020000003200FE60348006800F000700028F2D0BB
:102010002FE00000001002400000424280044242D3
:1020200000700040002014490866FFF731FA0546A9
:1020300006E0FFF72DFA401B022801D90320F1E545
:102040000E48006800F000700028F2D111E0E0694D
:10205000012800D1E6E50948466806F48031206A87
:10206000814204D106F47011606A814201D00120DE
:10207000D8E50020D6E500000000424200100240F2
:1020800010B5034600220020024A02EB81021468C8
:10209000A0B210BD006C004010B5034600200348FC
:1020A00000EB810094B2046010BD0000006C0040A1
:1020B00070B5044600250CB9012070BD607C20B9C4
:1020C00000202074204600F05BF802206074204657
:1020D00000F060F918B1042060740120EDE720469B
:1020E00002F019FC18B1042060740120E5E72068B3
:1020F000406820F0070021684860A06828B11F48A8
:10210000006820F001001D4908601C48001F00689D
:1021100020F46070A16808431849091F08606068CE
:10212000401C08B1656809E00120FFF7D5FA0546B3
:102130001DB9042060740120BFE76D1E206880680F
:1021400020F00F0040EA1540216888602068C068D0
:1021500065F30F002168C860204602F0F9FB18B152
:10216000042060740120A8E70021E173012161735C
:10217000A1730120607400209FE70000306C0040D4
:1021800038B504460B492068884212D1FFF79EFA01
:1021900000BF0948C06940F000600749C8610846AF
:1021A000C06900F00060009000BF00BF012003493B
:1021B000086038BD00280040001002403C04424244
:1021C0002DE9F04704460D46904600260027B1460B
:1021D00004B115B90120BDE8F08700BF207C0128BB
:1021E00001D10220F7E70120207400BF02206074B3
:1021F000B8F1000F06D1E978E17369786173A978C5
:10220000A1730BE0E87802F07BFBE073687802F0E2
:1022100077FB6073A87802F073FBA073A27B617BED
:10222000E07B02F0F5FB2073207B2870204602F053
:10223000B8FB06464FF46160B6FBF0F9B9F1180F30
:102240002FD91820B9FBF0F000EB4000C000C0EB24
:102250004011C1EB0020A6EB00163146204602F0EB
:1022600030FC38B10420607400BF0020207400BF2F
:102270000120B0E7204602F088FB0746781C80B1B9
:10228000B7420ED20B4807443946204602F002FC02
:1022900038B10420607400BF0020207400BF01200A
:1022A00099E70120607400BF0020207400BF00BFC8
:1022B00091E70000805101002DE9F04704460D46EA
:1022C00090460026002704B115B90120BDE8F0872B
:1022D00000BF207C012801D10220F7E701202074F3
:1022E00000BF02206074B8F1000F0BD128784FF4C2
:1022F000616148436978C1EB011100EB8100A97865
:10230000461812E0287802F0FBFA4FF4616100FBF6
:1023100001F9687802F0F4FAC0EB001009EB8009CB
:10232000A87802F0EDFA09EB00063146204602F0EB
:10233000C8FB38B10420607400BF0020207400BFC7
:102340000120C3E72068406820F00500216848604C
:10235000204602F01AFB0746781C80B1B7420ED225
:102360000B4807443946204602F094FB38B104205C
:10237000607400BF0020207400BF0120A6E7012088
:10238000607400BF0020207400BF00BF9EE7000003
:102390008051010070B5044600250CB9012070BDC4
:1023A0002068406820F0080021684860FFF770F856
:1023B000054607E0FFF76CF8401BB0F57A7F01D9BE
:1023C0000320ECE72068406800F008000028F1D006
:1023D0000020E4E710B504460CB9012010BD606A86
:1023E00038B96068B0F5827F00D105E00021E16175
:1023F00002E00021216161610021A16294F8510095
:1024000028B9002084F85000204600F043F802204C
:1024100084F851002068006820F0400021680860BE
:10242000A08800F48270218901F404410843A18945
:1024300001F400610843217C01F002010843217D81
:1024400001F001010843218B01F400710843217F51
:1024500001F0380108432021095D01F080010843A3
:10246000218D01F400510843216808600421A0690E
:1024700001EA1040216848602068C06920F40060CB
:102480002168C86100206065012084F851000020A7
:10249000A4E7000010B586B0044600200290039027
:1024A000049005901F492068884238D100BF1E481B
:1024B000C06940F480401C49C8610846C06900F406
:1024C0008040019000BF00BF00BF0846806940F017
:1024D000080088610846806900F00800019000BF8C
:1024E00000BF4FF42040029002200390032005908B
:1024F00002A90E48FEF714FE4FF48040029000201F
:102500000390049002A90948FEF70AFE4FF4805098
:1025100002900120039002A90448FEF701FE06B0D4
:1025200010BD00000038004000100240000C0140C7
:1025300070B504460E4615461CB1A069B0F5807F03
:1025400001D1012070BD94F8410028B9002084F821
:102550004000204600F01FF804F108012068FEF753
:102560001BF83146A2682068FEF752F82946236B13
:10257000D4E90102FDF7EEFFA168206850F82100C0
:1025800040F00100A268216841F82200012084F88F
:1025900041000020D6E710B50446FEF777FD10BDD8
:1025A0007047704730B502460B4600BF92F83C00BA
:1025B000012801D1022030BD012082F83C0000BF7B
:1025C000022082F83D00106844681068816824F099
:1025D00070041868044310684460144D1068A842E1
:1025E00013D0134D1068A8420FD01068B0F1804F7F
:1025F0000BD0104D1068A84207D00F4D1068A842AC
:1026000003D00E4D1068A84205D121F08001586812
:10261000014310688160012082F83D0000BF002066
:1026200082F83C0000BF00BFC5E70000002C01405D
:10263000003401400004004000080040000C00404D
:1026400010B504460CB9012010BD94F83D0028B91E
:10265000002084F83C00204600F026F8022084F890
:102660003D00211D206802F091FB012084F8460006
:1026700000BF84F83E0001213F2001554020015554
:102680004120015500BF00BF012084F842004320D3
:102690000155442001554520015500BF012084F813
:1026A0003D000020D0E7000008B50168B1F1804F7F
:1026B0000DD100BF0649C96941F00101044AD16149
:1026C0001146C96901F00101009100BF00BF08BDBA
:1026D00000100240014691F83D00012801D0012080
:1026E0007047022081F83D000868C06840F0010092
:1026F0000B68D860164B0868984213D0154B0868D1
:1027000098420FD00868B0F1804F0BD0124B086888
:10271000984207D0114B0868984203D0104B0868C4
:1027200098420CD10868806800F00702062A0CD095
:102730000868006840F001000B68186005E0086850
:10274000006840F001000B6818600020C8E7000036
:10275000002C01400034014000040040000800400B
:10276000000C00402DE9F04104460D4600BF94F8EE
:102770003C00012802D10220BDE8F081012084F84C
:102780003C0000BF022084F83D002068866826F0E7
:10279000770626F47F46206886602868502833D064
:1027A0000CDC202850D004DC00284BD0102851D15C
:1027B00049E0302849D040284CD139E060282DD05C
:1027C000702807D0B0F5805F03D0B0F5005F41D12D
:1027D0000DE040E0D5E902136A68206802F024FBAE
:1027E0002068866846F077062068866033E0D5E981
:1027F00002136A68206802F017FB2068806840F4C2
:1028000080402168886026E0EA686968206802F0F4
:102810001FFB5021206802F012FB1CE0EA68696887
:10282000206802F028FB6021206802F008FB12E01B
:10283000EA686968206802F00BFB4021206802F01A
:10284000FEFA08E000BF00BF00BF2968206802F060
:10285000F6FA00E000BF00BF012084F83D0000BF91
:10286000002084F83C0000BF00BF85E7704710B52A
:10287000044620680069C0F34000D8B12068C068F1
:10288000C0F34000B0B16FF0020021680861012080
:1028900020772068806900F0030018B12046FFF718
:1028A000E5FF05E0204600F0ADF8204600F0ABF86B
:1028B0000020207720680069C0F38000D8B120682C
:1028C000C068C0F38000B0B16FF0040021680861F7
:1028D000022020772068806900F4407018B12046FB
:1028E000FFF7C4FF05E0204600F08CF8204600F01A
:1028F0008AF80020207720680069C0F3C000D8B1B2
:102900002068C068C0F3C000B0B16FF00800216853
:102910000861042020772068C06900F0030018B126
:102920002046FFF7A3FF05E0204600F06BF82046A5
:1029300000F069F80020207720680069C0F30010DB
:10294000D8B12068C068C0F30010B0B16FF01000BB
:1029500021680861082020772068C06900F4407071
:1029600018B12046FFF782FF05E0204600F04AF844
:10297000204600F048F8002020772068006900F029
:10298000010058B12068C06800F0010030B16FF05C
:10299000010021680861204600F036F820680069CF
:1029A000C0F3C01058B12068C068C0F3C01030B187
:1029B0006FF08000216808612046FFF7F1FD206874
:1029C0000069C0F3801058B12068C068C0F380105F
:1029D00030B16FF0400021680861204600F020F817
:1029E00020680069C0F3401058B12068C068C0F387
:1029F000401030B16FF02000216808612046FFF7D9
:102A0000D0FD10BD7047704710B5044603492068DB
:102A1000884201D1FEF742FD10BD000000140040C5
:102A200070477047704700002DE9F84F0446206852
:102A300005682068C668206847694FF00009CA46E3
:102A400005F00F09B9F1000F0AD105F0200038B1E7
:102A500006F0200020B1204602F061FABDE8F88FB0
:102A6000B9F1000F71D007F0010018B906F49070A9
:102A700000286AD005F0010030B106F4807018B16A
:102A8000206C40F00100206405F0040030B107F034
:102A9000010018B1206C40F00200206405F0020033
:102AA00030B107F0010018B1206C40F00400206440
:102AB00005F0080048B106F0200010B907F0010049
:102AC00018B1206C40F008002064206C68B305F059
:102AD000200028B106F0200010B1204602F01FFAB5
:102AE00020684069C0F3801A206C00F0080010B91B
:102AF000BAF1000F22D0204602F0E6F920684069C2
:102B000000F04000B0B12068406920F0400021682A
:102B10004861A06B50B15648A16B4863A06BFEF7AB
:102B2000CDF910B1A06B416B88470CE02046FFF750
:102B300079FF08E02046FFF775FF04E02046FFF725
:102B400071FF0020206489E7FFE7206B012878D11E
:102B500005F01000002874D006F01000002870D096
:102B600000BF002000902068006800902068406846
:102B7000009000BF00BF2068406900F04000C0B373
:102B8000A06B006840681FFA80F8B8F1000F2FD0E2
:102B9000A08D40452CDDA4F82E80A06B80692028F4
:102BA0001FD02068C06820F480702168C860206849
:102BB000406920F00100216848612068406920F0E8
:102BC000400021684861202084F83E0000202063F6
:102BD0002068C06820F010002168C860A06BFEF774
:102BE00041F9A08DE28D801A81B22046FFF719FFCE
:102BF00034E7FFE7A08DE18D401A1FFA80F8E08DE1
:102C0000E8B1B8F1000F1AD02068C06820F49070C5
:102C10002168C8602068406920F00100216848618F
:102C2000202084F83E00002020632068C06820F047
:102C300010002168C86041462046FFF7F2FE0DE70C
:102C4000FFE705F0800030B106F0800018B12046A3
:102C500002F079FA02E705F0400030B106F04000DA
:102C600018B1204602F04BF9F8E600BFF6E6000086
:102C7000B54E000810B504460CB9012010BDA0697E
:102C800000B100E000BF94F83D0028B9002084F8AE
:102C90003C00204600F028F8242084F83D002068FD
:102CA000C06820F400502168C860204602F0AAF9EC
:102CB0002068006920F4904021680861206840691C
:102CC00020F02A00216848612068C06840F4005064
:102CD0002168C86000202064202084F83D0084F82A
:102CE0003E000020CAE7000010B586B00446002070
:102CF00002900390049005901E492068884236D1C6
:102D000000BF1D48806940F480401B498861084627
:102D1000806900F48040019000BF00BF00BF0846FA
:102D2000806940F0040088610846806900F0040072
:102D3000019000BF00BF48150290022003900320BD
:102D4000059002A90D48FEF7EBF94FF48060029060
:102D500000200390049002A90848FEF7E1F9002240
:102D600005212520FEF760FC2520FEF74DFC06B06E
:102D700010BD000000380140001002400008014072
:102D800070B504460D46164694F83E00202816D12C
:102D900005B10EB9012070BD00BF94F83C000128B8
:102DA00001D10220F7E7012084F83C0000BF002099
:102DB000206332462946204602F0A2F9EBE70220C2
:102DC000E9E770472DE9F84F04460E461746994645
:102DD0004FF0000A94F83D0020285AD106B117B9E7
:102DE0000120BDE8F88F00BF94F83C00012801D114
:102DF0000220F6E7012084F83C0000BF0020206498
:102E0000212084F83D00FEF743FB8246A784E78437
:102E1000A068B0F5805F04D1206910B90025B046E4
:102E200002E035464FF0000800BF002084F83C0067
:102E300000BF1BE05346002280212046CDF80090C1
:102E400002F0B1F908B10320CBE745B9B8F80000AA
:102E5000C0F308002168486008F1020803E0287800
:102E6000216848606D1CE08C401EE084E08C0028E6
:102E7000E0D15346002240212046CDF8009002F0D8
:102E800092F908B10320ACE7202084F83D0000202F
:102E9000A7E70220A5E7704700BFFEE700B585B0B1
:102EA00000BF2E48806940F008002C498861084620
:102EB000806900F00800009000BF00BF00BF084616
:102EC000806940F0800088610846806900F08000D9
:102ED000009000BF00BF00BF0846806940F080003E
:102EE00088610846806900F08000009000BF00BF44
:102EF00000BF0846806940F080008861084680690C
:102F000000F08000009000BF00BF0220019011205F
:102F100002900320049001A91148FEF701F94FF433
:102F20000070019001A90F48FEF7FAF84FF4006015
:102F30000190012002900320049001A90948FEF7A6
:102F4000EFF84FF48060019001200290032004907C
:102F500001A90448FEF7E4F805B000BD00100240E6
:102F6000000C0140001C01401FB54FF48060009030
:102F70000748019069460748FEF7D2F8002211463B
:102F80002820FEF751FB2820FEF71CFB1FBD000088
:102F900000001110001C014070B506460D46144695
:102FA00003F0F8FA46F0010003F0BEFA03F02CFB40
:102FB00000B114E00DE003F091FA2870012C03D168
:102FC00003F070FA03F008FB6D1C601E84B203F07E
:102FD0003FFA002CEFD103F0FFFA002070BD03F0A0
:102FE000FBFA0120FAE700001FB54FF48060009063
:102FF000012001900320039069461348FEF790F8E2
:1030000000224FF480611048FEF73CFA00224FF492
:1030100000610D48FEF736FA0120FEF723F8012281
:10302000D1020948FEF72EFA3720FEF71BF84FF4BD
:1030300080600090002001900320039069460248C0
:10304000FEF76EF81FBD0000001C014010B5FFF731
:1030500025FFFFF7C9FFFFF787FF10BD2DE9F041FE
:1030600005460F460024002600BF00BF00BF2BE02E
:1030700004EB440005EB8000807800F0010088B18B
:1030800004EB440305EB83039A8804EB440305EB4C
:103090008303996804EB440315F82300FFF77CFFD2
:1030A000064610E004EB440305EB83031A7904EBB6
:1030B000440305EB8303996804EB440315F82300EC
:1030C00000F00BF80646641C0EB9BC42D0D116B114
:1030D0003046BDE8F0812046FBE72DE9F04104468B
:1030E0000D46174603F078FA00260AE003F052FA7C
:1030F000204603F019FA03F087FA00B904E0701CC7
:1031000086B2B6F57A7FF1DB00BFB6F57A7F00D1E3
:1031100012E007E0287803F007FA03F075FA00B12F
:103120000AE06D1C381EA7F10101CFB2F2D103F005
:1031300053FA0020BDE8F08103F04EFA0120F9E7D0
:1031400070B5044600261748058840884543154851
:10315000808846F60401884216D1124880790128F9
:1031600012D100200F4988712A2048812B208881A4
:103170000021084600F028F901200A4988712B2017
:1031800048812A20888103E00021084600F01CF9CC
:1031900000F04CF9002602E003480480761CAE42A1
:1031A000FAD370BD5C1600200008006C2DE9F84FC2
:1031B00007460D4690469946DDF828B0A8EB070073
:1031C000401C1FFA80FAA9EB0500401C80B2009059
:1031D000002414E0281981B2384600F0F5F800F018
:1031E00025F9002607E004FB0A603BF810000649B9
:1031F0000880701C86B25645F5DB601C84B20098CE
:103200008442E7DBBDE8F88F0008006C10B5044687
:1032100094B90020134988714FF4305008814FF45D
:10322000285048814FF42C5088814FF4F07008806A
:103230004FF44870488011E001200A4988714FF42A
:10324000305008814FF4285048814FF42C50888129
:103250004FF4487008804FF4F0704880002000F070
:1032600033F810BD5C16002010B500F031FB10BD26
:1032700008B5034800880090BDF8000008BD0000B4
:103280000008006C00B54FF45A4000F0C9F8FFF791
:10329000EFFF02464FF45B4000F0C2F8FFF7E8FF93
:1032A00002464FF6FF7000EA02224FF45C4000F045
:1032B000B7F8FFF7DDFF0243B2F5004F01D145F249
:1032C0001052104600BD000030B504460023002512
:1032D000082C1CD2DFE804F00406090C0F121518A4
:1032E00000BF14E043F0800311E043F040030EE020
:1032F00043F0C0030BE043F0200308E043F0600319
:1033000005E043F0A00302E043F0E00300BF00BF8C
:103310004FF458551946284600F092F82949488933
:1033200000F07EF8002000F075F826494989491C14
:1033300088B200F075F8002000F06CF82149498946
:10334000891C88B200F06CF81E490988491EC1F337
:103350000F2000F05FF81B494989C91C88B200F0B2
:103360005FF818490978491EC8B200F053F81549AA
:10337000888900F055F8002000F04CF8114989893F
:10338000491C88B200F04CF8002000F043F80D49C9
:103390008989891C88B200F043F80A494988491E86
:1033A000C1F30F2000F036F806498989C91C88B29C
:1033B00000F036F803498978491EC8B200F02AF8AF
:1033C00030BD00005C16002000B502460B461049D7
:1033D000488900F025F8101200F01CF80C494989C2
:1033E000491C88B200F01CF8D0B200F013F808496C
:1033F000888900F015F8181200F00CF80449898942
:10340000491C88B200F00CF8D8B200F003F800BDF7
:103410005C16002001490880704700000008006C1D
:103420000149088070470000FE07006C02480089CF
:1034300002490880704700005C160020FE07006CFF
:10344000024A1080921C118070470000FE07006C39
:1034500000B58FB01C220C4908A8FCF7E3FE002140
:1034600008A812F04FF8094908601C2206491C31CF
:1034700001A8FCF7D7FE002101A812F043F8044987
:1034800008600FB000BD0000F46A01080C000020C5
:103490001000002000B585B000200190029003903C
:1034A000049000BF3B48806940F040003949886182
:1034B0000846806900F04000009000BF00BF00BFD8
:1034C0000846806940F0100088610846806900F075
:1034D0001000009000BF00BF00BF0846806940F0A8
:1034E000080088610846806900F00800009000BF6D
:1034F00000BF00BF0846806940F4807088610846BC
:10350000806900F48070009000BF00BF00BF0846D3
:10351000806940F0200088610846806900F0200042
:10352000009000BF00BF00BF0846806940F0040063
:1035300088610846806900F00400009000BF00BF69
:10354000012220211448FDF79DFF0022012113488C
:10355000FDF798FF012220211048FDF793FF20205E
:10356000019001200290002003900220049001A904
:103570000948FDF7D5FD212001900120029000208F
:1035800003900220049001A90448FDF7C9FD05B08D
:1035900000BD00000010024000180140000C014076
:1035A0001CB50020019000902148224908604FF08E
:1035B000FF30486000211F488160FEF779FD08B1A7
:1035C000FCF7C4FF01211B48FEF75AFD45F25001EC
:1035D000884205D00A4601211648FEF75DFD00E04D
:1035E0001CBD15A001F072FE00208DF804008DF8BE
:1035F00005008DF80600002201A90E48FEF75CFECA
:1036000008B1FCF7A3FF01208DF800008DF8010040
:103610008DF8020000208DF803000022694605485D
:10362000FEF7CEFD08B1FCF791FF00BFD8E7000020
:1036300000280040AC06002046495253542054490B
:103640004D450A0010B50E480E4908604FF48270CF
:10365000486000210B488160C160016141614FF405
:10366000007181610021C1610162416281620A21B0
:10367000C162FEF7AFFE08B1FCF768FF10BD0000A5
:1036800000380040C006002000B587B0002003903D
:10369000049005900690019002904FF080401449EC
:1036A0000860472048600021114881604FF6FF7193
:1036B000C160002101618161FEF7C2FF08B1FCF722
:1036C00045FF4FF48050039003A90948FFF74AF8DB
:1036D00008B1FCF73BFF00200190029001A90448CB
:1036E000FEF760FF08B1FCF731FF07B000BD000036
:1036F0001807002010B50D480D4908604FF4E1305F
:10370000486000210A488160C16001610C2141616B
:1037100000218161C161FFF7ADFA08B1FCF716FF26
:10372000012204490248FFF72BFB10BD003801407D
:10373000600800201D00002000BFFEE7FEF75EFAD3
:1037400000BFFEE718B10121034A116003E04FF406
:103750008031014A11607047100C014010B54FF0E4
:1037600020401B4908601B48486001201A49086036
:10377000002048600F2088600020C8600861486110
:103780008861164908604860032088600020C8608E
:1037900008614861886106200D49886000210C4855
:1037A000C16001611021416100218161C1614162FB
:1037B0004FF4805181620021C1624FF48041016366
:1037C000002141638163054A0349FEF7B1FE10BD44
:1037D000DC150020040100A0241600204016002063
:1037E00000B585B000BF3648806940F020003449FC
:1037F00088610846806900F02000009000BF00BF8B
:1038000000BF0846806940F0400088610846806932
:1038100000F04000009000BF00BF00BF0846806974
:1038200040F0800088610846806900F080000090C8
:1038300000BF00BF00BF0846806940F48070886107
:103840000846806900F48070009000BF00BF00BF90
:103850000846406940F4807048610846406900F4B9
:103860008070009000BF00BF0120029003900320F1
:1038700004904020019001A91248FDF751FC4FF43B
:103880000060019001A90F48FDF74AFC0220029058
:103890004CF23370019001A90B48FDF741FC4FF643
:1038A0008470019001A90948FDF73AFC4FF480505B
:1038B000019001A90348FDF733FC05B000BD0000ED
:1038C0000010024000200140001401400018014097
:1038D00010B5FFF785FFFFF741FF3220FDF7C2FB70
:1038E000FFF7D0FC094988800846818808A001F0CC
:1038F000EDFC00F013F80020FFF788FC0120FFF733
:1039000021FF4FF6FF70FFF71BFC10BD5C16002077
:103910004C43442049443A25780D0A0010B55521FE
:103920004FF47040FFF78CFDAA214FF20100FFF722
:1039300087FD52214FF20200FFF782FD08214FF26E
:103940000300FFF77DFD01214FF20400FFF778FD32
:103950000D214FF43040FFF773FD0D214BF20100B4
:10396000FFF76EFD0D214BF20200FFF769FD3421D8
:103970004FF43640FFF764FD34214BF20160FFF74E
:103980005FFD34214BF20260FFF75AFD0D214FF429
:103990003140FFF755FD0D214BF20110FFF750FDAF
:1039A0000D214BF20210FFF74BFD34214FF437404D
:1039B000FFF746FD34214BF20170FFF741FD342142
:1039C0004BF20270FFF73CFD00214FF43240FFF74D
:1039D00037FD00214BF20120FFF732FD00214BF2B1
:1039E0000220FFF72DFD24214FF43840FFF728FD7A
:1039F00024214BF60100FFF723FD24214BF60200A2
:103A0000FFF71EFD01214FF43F40FFF719FD0F2185
:103A10004FF43340FFF714FD0F214BF20130FFF755
:103A20000FFD0F214BF20230FFF70AFD34214FF456
:103A30003940FFF705FD34214BF60110FFF700FD7B
:103A400034214BF60210FFF7FBFC08214FF4354000
:103A5000FFF7F6FC08214BF20150FFF7F1FC0821BB
:103A60004BF20250FFF7ECFC03214FF44240FFF70A
:103A7000E7FC24214FF43A40FFF7E2FC24214BF607
:103A80000120FFF7DDFC24214BF60220FFF7D8FCD4
:103A900000214FF43C40FFF7D3FC78214BF6014066
:103AA000FFF7CEFC00214BF60240FFF7C9FC0021D6
:103AB0004FF43D40FFF7C4FC78214BF60150FFF76F
:103AC000BFFC00214BF60250FFF7BAFC00214FF477
:103AD0003E40FFF7B5FC64214BF60160FFF7B0FCF8
:103AE00000214FF45140FFF7ABFC33214DF20110A0
:103AF000FFF7A6FC00214DF20210FFF7A1FC3421D4
:103B00004DF20310FFF79CFC00214DF20410FFF76B
:103B100097FC3A214DF20510FFF792FC00214DF27F
:103B20000610FFF78DFC4A214DF20710FFF788FCC5
:103B300000214DF20810FFF783FC5C214DF20910C3
:103B4000FFF77EFC00214DF20A10FFF779FC81217E
:103B50004DF20B10FFF774FC00214DF20C10FFF733
:103B60006FFCA6214DF20D10FFF76AFC00214DF20B
:103B70000E10FFF765FCE5214DF20F10FFF760FC1A
:103B800001214DF21010FFF75BFC13214DF21110D3
:103B9000FFF756FC01214DF21210FFF751FC5421A2
:103BA0004DF21310FFF74CFC01214DF21410FFF7FA
:103BB00047FC82214DF21510FFF742FC01214DF226
:103BC0001610FFF73DFCCA214DF21710FFF738FC25
:103BD00002214DF21810FFF733FC00214DF21910AD
:103BE000FFF72EFC02214DF21A10FFF729FC0121EC
:103BF0004DF21B10FFF724FC02214DF21C10FFF7C1
:103C00001FFC34214DF21D10FFF71AFC02214DF26A
:103C10001E10FFF715FC67214DF21F10FFF710FC77
:103C200002214DF22010FFF70BFC84214DF22110F0
:103C3000FFF706FC02214DF22210FFF701FCA42140
:103C40004DF22310FFF7FCFB02214DF22410FFF789
:103C5000F7FBB7214DF22510FFF7F2FB02214DF2E1
:103C60002610FFF7EDFBCF214DF22710FFF7E8FB01
:103C700002214DF22810FFF7E3FBDE214DF229105F
:103C8000FFF7DEFB02214DF22A10FFF7D9FBF221EC
:103C90004DF22B10FFF7D4FB02214DF22C10FFF751
:103CA000CFFBFE214DF22D10FFF7CAFB03214DF291
:103CB0002E10FFF7C5FB10214DF22F10FFF7C0FBB0
:103CC00003214DF23010FFF7BBFB33214DF23110D1
:103CD000FFF7B6FB03214DF23210FFF7B1FB6D2168
:103CE0004DF23310FFF7ACFB00214FF45240FFF7C9
:103CF000A7FB33214DF20120FFF7A2FB00214DF27B
:103D00000220FFF79DFB34214DF20320FFF798FBC3
:103D100000214DF20420FFF793FB3A214DF20520DC
:103D2000FFF78EFB00214DF20620FFF789FB4A21A9
:103D30004DF20720FFF784FB00214DF20820FFF72A
:103D40007FFB5C214DF20920FFF77AFB00214DF249
:103D50000A20FFF775FB81214DF20B20FFF770FB66
:103D600000214DF20C20FFF76BFBA6214DF20D2038
:103D7000FFF766FB00214DF20E20FFF761FBE52106
:103D80004DF20F20FFF75CFB01214DF21020FFF7F1
:103D900057FB13214DF21120FFF752FB01214DF289
:103DA0001220FFF74DFB54214DF21320FFF748FB83
:103DB00001214DF21420FFF743FB82214DF2152023
:103DC000FFF73EFB01214DF21620FFF739FBCA2118
:103DD0004DF21720FFF734FB02214DF21820FFF7B8
:103DE0002FFB00214DF21920FFF72AFB02214DF293
:103DF0001A20FFF725FB01214DF21B20FFF720FBC6
:103E000002214DF21C20FFF71BFB34214DF21D2037
:103E1000FFF716FB02214DF21E20FFF711FB672171
:103E20004DF21F20FFF70CFB02214DF22020FFF77F
:103E300007FB84214DF22120FFF702FB02214DF206
:103E40002220FFF7FDFAA4214DF22320FFF7F8FA14
:103E500002214DF22420FFF7F3FAB7214DF225207D
:103E6000FFF7EEFA02214DF22620FFF7E9FACF2103
:103E70004DF22720FFF7E4FA02214DF22820FFF748
:103E8000DFFADE214DF22920FFF7DAFA02214DF2A6
:103E90002A20FFF7D5FAF2214DF22B20FFF7D0FAB6
:103EA00002214DF22C20FFF7CBFAFE214DF22D20FE
:103EB000FFF7C6FA03214DF22E20FFF7C1FA1021B9
:103EC0004DF22F20FFF7BCFA03214DF23020FFF70F
:103ED000B7FA33214DF23120FFF7B2FA03214DF248
:103EE0003220FFF7ADFA6D214DF23320FFF7A8FA2B
:103EF00000214FF45340FFF7A3FA33214DF2013074
:103F0000FFF79EFA00214DF20230FFF799FA3421B3
:103F10004DF20330FFF794FA00214DF20430FFF721
:103F20008FFA3A214DF20530FFF78AFA00214DF25F
:103F30000630FFF785FA4A214DF20730FFF780FA85
:103F400000214DF20830FFF77BFA5C214DF2093079
:103F5000FFF776FA00214DF20A30FFF771FA81215E
:103F60004DF20B30FFF76CFA00214DF20C30FFF7E9
:103F700067FAA6214DF20D30FFF762FA00214DF2EB
:103F80000E30FFF75DFAE5214DF20F30FFF758FADA
:103F900001214DF21030FFF753FA13214DF2113089
:103FA000FFF74EFA01214DF21230FFF749FA542182
:103FB0004DF21330FFF744FA01214DF21430FFF7B0
:103FC0003FFA82214DF21530FFF73AFA01214DF206
:103FD0001630FFF735FACA214DF21730FFF730FAE5
:103FE00002214DF21830FFF72BFA00214DF2193063
:103FF000FFF726FA02214DF21A30FFF721FA0121CC
:104000004DF21B30FFF71CFA02214DF21C30FFF776
:1040100017FA34214DF21D30FFF712FA02214DF24A
:104020001E30FFF70DFA67214DF21F30FFF708FA37
:1040300002214DF22030FFF703FA84214DF22130A6
:10404000FFF7FEF902214DF22230FFF7F9F9A42122
:104050004DF22330FFF7F4F902214DF22430FFF73F
:10406000EFF9B7214DF22530FFF7EAF902214DF2C1
:104070002630FFF7E5F9CF214DF22730FFF7E0F9C1
:1040800002214DF22830FFF7DBF9DE214DF2293015
:10409000FFF7D6F902214DF22A30FFF7D1F9F221CC
:1040A0004DF22B30FFF7CCF902214DF22C30FFF707
:1040B000C7F9FE214DF22D30FFF7C2F903214DF271
:1040C0002E30FFF7BDF910214DF22F30FFF7B8F970
:1040D00003214DF23030FFF7B3F933214DF2313087
:1040E000FFF7AEF903214DF23230FFF7A9F96D2148
:1040F0004DF23330FFF7A4F900214FF45440FFF79D
:104100009FF933214DF20140FFF79AF900214DF25A
:104110000240FFF795F934214DF20340FFF790F983
:1041200000214DF20440FFF78BF93A214DF2054092
:10413000FFF786F900214DF20640FFF781F94A2189
:104140004DF20740FFF77CF900214DF20840FFF7E0
:1041500077F95C214DF20940FFF772F900214DF229
:104160000A40FFF76DF981214DF20B40FFF768F926
:1041700000214DF20C40FFF763F9A6214DF20D40EE
:10418000FFF75EF900214DF20E40FFF759F9E521E6
:104190004DF20F40FFF754F901214DF21040FFF7A7
:1041A0004FF913214DF21140FFF74AF901214DF269
:1041B0001240FFF745F954214DF21340FFF740F943
:1041C00001214DF21440FFF73BF982214DF21540D9
:1041D000FFF736F901214DF21640FFF731F9CA21F8
:1041E0004DF21740FFF72CF902214DF21840FFF76E
:1041F00027F900214DF21940FFF722F902214DF273
:104200001A40FFF71DF901214DF21B40FFF718F985
:1042100002214DF21C40FFF713F934214DF21D40ED
:10422000FFF70EF902214DF21E40FFF709F9672151
:104230004DF21F40FFF704F902214DF22040FFF735
:10424000FFF884214DF22140FFF7FAF802214DF2E8
:104250002240FFF7F5F8A4214DF22340FFF7F0F8D4
:1042600002214DF22440FFF7EBF8B7214DF2254033
:10427000FFF7E6F802214DF22640FFF7E1F8CF21E3
:104280004DF22740FFF7DCF802214DF22840FFF7FE
:10429000D7F8DE214DF22940FFF7D2F802214DF286
:1042A0002A40FFF7CDF8F2214DF22B40FFF7C8F876
:1042B00002214DF22C40FFF7C3F8FE214DF22D40B4
:1042C000FFF7BEF803214DF22E40FFF7B9F8102199
:1042D0004DF22F40FFF7B4F803214DF23040FFF7C5
:1042E000AFF833214DF23140FFF7AAF803214DF228
:1042F0003240FFF7A5F86D214DF23340FFF7A0F8EB
:1043000000214FF45540FFF79BF833214DF2015047
:10431000FFF796F800214DF20250FFF791F8342193
:104320004DF20350FFF78CF800214DF20450FFF7D7
:1043300087F83A214DF20550FFF782F800214DF23F
:104340000650FFF77DF84A214DF20750FFF778F845
:1043500000214DF20850FFF773F85C214DF209502F
:10436000FFF76EF800214DF20A50FFF769F881213E
:104370004DF20B50FFF764F800214DF20C50FFF79F
:104380005FF8A6214DF20D50FFF75AF800214DF2CB
:104390000E50FFF755F8E5214DF20F50FFF750F89A
:1043A00001214DF21050FFF74BF813214DF211503F
:1043B000FFF746F801214DF21250FFF741F8542162
:1043C0004DF21350FFF73CF801214DF21450FFF766
:1043D00037F882214DF21550FFF732F801214DF2E6
:1043E0001650FFF72DF8CA214DF21750FFF728F8A5
:1043F00002214DF21850FFF723F800214DF2195019
:10440000FFF71EF802214DF21A50FFF719F80121AB
:104410004DF21B50FFF714F802214DF21C50FFF72C
:104420000FF834214DF21D50FFF70AF802214DF22A
:104430001E50FFF705F867214DF21F50FFF700F8F7
:1044400002214DF22050FEF7FBFF84214DF2215056
:10445000FEF7F6FF02214DF22250FEF7F1FFA421F4
:104460004DF22350FEF7ECFF02214DF22450FEF7EF
:10447000E7FFB7214DF22550FEF7E2FF02214DF292
:104480002650FEF7DDFFCF214DF22750FEF7D8FF73
:1044900002214DF22850FEF7D3FFDE214DF22950C4
:1044A000FEF7CEFF02214DF22A50FEF7C9FFF2219E
:1044B0004DF22B50FEF7C4FF02214DF22C50FEF7B7
:1044C000BFFFFE214DF22D50FEF7BAFF03214DF242
:1044D0002E50FEF7B5FF10214DF22F50FEF7B0FF22
:1044E00003214DF23050FEF7ABFF33214DF2315036
:1044F000FEF7A6FF03214DF23250FEF7A1FF6D211A
:104500004DF23350FEF79CFF00214FF45640FEF76A
:1045100097FF33214DF20160FEF792FF00214DF22B
:104520000260FEF78DFF34214DF20360FEF788FF35
:1045300000214DF20460FEF783FF3A214DF2056041
:10454000FEF77EFF00214DF20660FEF779FF4A215B
:104550004DF20760FEF774FF00214DF20860FEF790
:104560006FFF5C214DF20960FEF76AFF00214DF2FA
:104570000A60FEF765FF81214DF20B60FEF760FFD8
:1045800000214DF20C60FEF75BFFA6214DF20D609D
:10459000FEF756FF00214DF20E60FEF751FFE521B8
:1045A0004DF20F60FEF74CFF01214DF21060FEF757
:1045B00047FF13214DF21160FEF742FF01214DF23A
:1045C0001260FEF73DFF54214DF21360FEF738FFF5
:1045D00001214DF21460FEF733FF82214DF2156088
:1045E000FEF72EFF01214DF21660FEF729FFCA21CA
:1045F0004DF21760FEF724FF02214DF21860FEF71E
:104600001FFF00214DF21960FEF71AFF02214DF243
:104610001A60FEF715FF01214DF21B60FEF710FF37
:1046200002214DF21C60FEF70BFF34214DF21D609C
:10463000FEF706FF02214DF21E60FEF701FF672123
:104640004DF21F60FEF7FCFE02214DF22060FEF7E6
:10465000F7FE84214DF22160FEF7F2FE02214DF2B9
:104660002260FEF7EDFEA4214DF22360FEF7E8FE86
:1046700002214DF22460FEF7E3FEB7214DF22560E2
:10468000FEF7DEFE02214DF22660FEF7D9FECF21B5
:104690004DF22760FEF7D4FE02214DF22860FEF7AE
:1046A000CFFEDE214DF22960FEF7CAFE02214DF257
:1046B0002A60FEF7C5FEF2214DF22B60FEF7C0FE28
:1046C00002214DF22C60FEF7BBFEFE214DF22D6063
:1046D000FEF7B6FE03214DF22E60FEF7B1FE10216B
:1046E0004DF22F60FEF7ACFE03214DF23060FEF775
:1046F000A7FE33214DF23160FEF7A2FE03214DF2F9
:104700003260FEF79DFE6D214DF23360FEF798FE9C
:1047100055214FF47040FEF793FEAA214FF201009D
:10472000FEF78EFE52214FF20200FEF789FE0821AD
:104730004FF20300FEF784FE00214FF20400FEF763
:104740007FFECC214FF43140FEF77AFE00214BF280
:104750000110FEF775FE05214FF43640FEF770FE9E
:1047600070214FF43740FEF76BFE70214BF2017061
:10477000FEF766FE01214FF43840FEF761FE03218B
:104780004BF60100FEF75CFE03214BF60200FEF73C
:1047900057FE03214BF60300FEF752FE02214FF4B1
:1047A0003C40FEF74DFE00214BF60140FEF748FE6F
:1047B00000214BF60240FEF743FED0214FF4494062
:1047C000FEF73EFE02214CF60110FEF739FE5021A5
:1047D0004CF60210FEF734FE50214CF60310FEF7A3
:1047E0002FFE50214CF60410FEF72AFE00214FF454
:1047F0005450FEF725FE55214FF46850FEF720FE79
:104800004FF48850FEF70CFE0120FCF72BFC4FF410
:104810002450FEF705FE10BD2DE9F04389B0064691
:104820000C461746002E47D1042224A12046FBF750
:1048300032FD002839D14FF004088146042526E0D6
:10484000605D2C280BD0605D3B2808D0605D2D2872
:1048500005D0605D3A2802D0605D20280CD104EBC1
:104860000800FBF72EFD494609F1010903AA42F8A9
:10487000210005F1010809E0781EA84206D104EBE9
:104880000800FBF71EFD03A941F829006D1CBD427D
:10489000D6D3DDE90701CDE9000103A80FC800F078
:1048A0009BF8002009B0BDE8F083314605A000F078
:1048B0000DFD4FF0FF30F5E70020F3E75345543A84
:1048C00000000000BDE2CEF6C4A3CABD2564C6A5A3
:1048D000C5E4CAA7B0DC0A0008B508490968C908D8
:1048E0004FF47A72B1FBF2F14143009100BF00BF77
:1048F00000994A1E00920029F9D108BD2C00002021
:10490000014600BF080900EB8000420001F00F00E3
:104910001044C0B2704770B504460025FCF7B8FDDE
:10492000054607E0FCF7B4FD401BB0F57A7F01D9DE
:10493000032070BD2068406800F020000028F1D0FE
:104940002068406840F01000216848600020F0E7CF
:1049500070B5044600252068406820F010002168EA
:104960004860FCF795FD054607E0FCF791FD401B0C
:10497000B0F57A7F01D9032070BD2068406800F04F
:1049800020000028F1D00020F6E701460022002395
:104990000868006A82B20868406A83B243EA02404B
:1049A000704730B5014600220023002400200D6826
:1049B000AD69AAB20D68ED69ACB20D68AD69ABB274
:1049C0009A4205D00D68ED6963F31F45284601E062
:1049D00044EA024030BD00002DE9F04704460D4690
:1049E00016461F46DDE9088908490C804D808E80F7
:1049F000CF80A1F80880A1F80A90084600F02AFCB0
:104A00008246504600F010FCBDE8F0870000002010
:104A1000F0B504460B460021002504F5FA61032B8E
:104A20001BD2C3EBC30000EB03100926B0FBF6F06A
:104A30001044001D4618481E06EB90066427B0FB84
:104A4000F7F0361A481EBF00B0FBF7F030440726D7
:104A5000B0FBF6F706FB17051AE0C3EBC30000EB4B
:104A600003100926B0FBF6F01044001D084400EBCB
:104A700091006426B1FBF6F6801B4FF4C876B1FBBB
:104A8000F6F63044801E0726B0FBF6F706FB170546
:104A9000E8B2F0BD70B504460D4600262046FFF78B
:104AA0003AFF08B101260AE0280C21680862A8B282
:104AB000216848622046FFF74BFF00B101263046CF
:104AC00070BD70B504460D4600262046FFF723FF53
:104AD00008B101260AE0280C21688861A8B2216883
:104AE000C8612046FFF734FF00B10126304670BD93
:104AF00070B505460C4616464FF080500F490860C9
:104B0000032000F04BF8C4F3074000F047F8C4F36B
:104B1000072000F043F8E0B200F040F804E0FF2086
:104B200000F03CF828706D1C301EA6F101018EB219
:104B3000F5D14FF480500149086070BD100C014060
:104B400010B514481449086008211348C1610021B8
:104B500081600121416102210161002181620721FF
:104B6000C1620021C16001624FF4007181610021C6
:104B700041624FF48270084948600846FDF72AFCFC
:104B800005480068006840F0400003490968086073
:104B900010BD0000003800406C16002010B504461F
:104BA0004FF48050194908600AE018490868411E0E
:104BB000164A116020B9002000F02CF8C0B210BDD8
:104BC000134800688068C0F340000028EDD010480A
:104BD0000068C4604FF480500C4908600AE00B493B
:104BE0000868411E094A116020B9012000F012F83E
:104BF000C0B2E4E706480068806800F001000028C1
:104C0000EDD003480068C068C0B2D8E7BC000020FF
:104C10006C16002010B50446214602A000F056FB99
:104C2000002010BD3C3C2D464C4153482D4552526E
:104C30004F522D3E3E2053504920B5C8B4FDB3AC71
:104C4000CAB1216572726F72436F6465203D202581
:104C5000640A000000BF0FF0C9FE012010F041FC03
:104C6000F9E7000000BF1048007801280FD10F4974
:104C70000FA000F02BFB0D48FBF7F8FA84B2224698
:104C80000A490020FFF7C8FD0020074908704FF4CB
:104C9000FA7010F026FC20210748FCF7E9FB4FF4DE
:104CA000FA7010F01EFCDEE71C00002060070020F8
:104CB00052783A25730D0A00000C014010B500BF70
:104CC000502080F31188BFF34F8FBFF36F8F00BF69
:104CD00011F0E4FD18B14FF080500449086000BFA6
:104CE000002080F3118800BF10BD000004ED00E03B
:104CF00000B595B028210BA8FBF7ADFA142106A842
:104D0000FBF7A9FA18216846FBF7A5FA05200B90D6
:104D10004FF480300C9000200D9001200E900F90E9
:104D200002201290C10313914FF4E01114910BA8CB
:104D3000FCF774FF08B1FBF709FC0F200690022076
:104D40000790002008904FF48060099000200A909E
:104D5000022106A8FCF7F4FD08B1FBF7F7FB0120E0
:104D60000090000201906846FCF750FD08B1FBF787
:104D7000EDFBFCF7ABFE15B000BD704710B5024867
:104D8000FDF775FD10BD0000A408002010B50268F5
:104D9000204B98420ED0204B98420BD0B0F1804F60
:104DA00008D01E4B984205D01D4B984202D01D4B97
:104DB000984203D122F070024B681A43154B984277
:104DC0000ED0154B98420BD0B0F1804F08D0134B4A
:104DD000984205D0124B984202D0124B984203D110
:104DE00022F44072CB681A4322F080034C6943EAF4
:104DF000040202608B68C3620B688362054B9842B1
:104E000002D0054B984201D10B6903630123436132
:104E100010BD0000002C014000340140000400409F
:104E200000080040000C004030B50C46816821F4B9
:104E30007F4142EA032525432943816030BD0A466C
:104E4000816821F0700142F00703194381607047C7
:104E500030B50B461446026A056A25F00105056265
:104E6000816921F0F00141EA041122F00A021A439B
:104E70008161026230BD30B50B461446056A25F0EB
:104E8000100505628169026A21F4704141EA04312A
:104E900022F0A00242EA03128161026230BD10B525
:104EA000FBF72CFE10BD10B504462046FBF7D2FBE5
:104EB000207810BD70B505466C6A0020E085E0845E
:104EC0002046FDF7AFFD70BD0168C96821F49071FF
:104ED0000268D1600168496921F0010102685161ED
:104EE000016B012905D10168C96821F01001026830
:104EF000D160202180F83E1000210163704710B579
:104F000004462068C06820F040002168C860202066
:104F100084F83D002046FDF7BEFF002010BDF8B527
:104F2000044694F83E00222869D1A068B0F5805F5D
:104F30000CD1206950B90025A66A20684068C0F3EA
:104F400008003080A06A801CA06215E0A56A0026D7
:104F5000A068B0F5805F03D0A06828B9206918B9AF
:104F600020684068287004E02068406800F07F00F6
:104F70002870A06A401CA062E08D401E80B2E085CF
:104F8000A8BB2068C06820F020002168C8602068A5
:104F9000C06820F480702168C8602068406920F0F3
:104FA000010021684861202084F83E00206B012820
:104FB0001ED1002020632068C06820F01000216806
:104FC000C8602068006800F0100010280AD100BFF7
:104FD00000200090206800680090206840680090E1
:104FE00000BF00BFA18D2046FDF71BFD03E004E0DC
:104FF0002046FDF7E6FE0020F8BD0020FCE7022079
:10500000FAE7000070B504462168096921F44051AF
:10501000E2681143226811612269A1681143626943
:1050200041EA02052168C96841F20C6291432943B3
:105030002268D1602168496921F44071A269114355
:10504000226851612D4A2168914202D1FCF77CFD12
:1050500001E0FCF769FD00EBC00101EB00116268A3
:105060009200B1FBF2F100EBC00202EB00126368A8
:105070009B00B2FBF3F26423B2FBF3F202EBC20338
:1050800003EB0212A1EB8201322202EB0111642236
:10509000B1FBF2F101F0F00100EBC00202EB0012F3
:1050A00063689B00B2FBF3F26423B2FBF3F201EB03
:1050B000021200EBC00101EB001163689B00B1FB21
:1050C000F3F100EBC00303EB00136668B600B3FB1B
:1050D000F6F36426B3FBF6F303EBC30606EB031308
:1050E000A1EB8301322303EB01116423B1FBF3F144
:1050F00001F00F0111442268916070BD0038014039
:1051000010B5034699629A85DA850020186422203A
:1051100083F83E0000BF002083F83C0000BF186801
:10512000C06840F480701C68E0601868406940F016
:1051300001001C6860611868C06840F020001C68AD
:10514000E060002010BD014691F83D00212828D1E3
:105150008868B0F5805F0BD1086948B90A6A108881
:10516000C0F308000B685860086A801C086205E0FC
:105170000B6A581C086218780B685860C88C401E6F
:1051800080B2C88458B90868C06820F080000B68F5
:10519000D8600868C06840F040000B68D860002004
:1051A00070470220FCE72DE9F04104460D46174602
:1051B0009846069E21E0701CF8B12EB1FCF768F904
:1051C000A0EB0800B04218D92068C06820F4D07065
:1051D0002168C8602068406920F0010021684861AA
:1051E000202084F83D0084F83E0000BF002084F8B1
:1051F0003C0000BF0320BDE8F08120680068284023
:10520000A84201D1012000E00020B842D3D0002004
:10521000F1E7000010B50248FDF706FC10BD0000E4
:105220006008002000BFFEE70949096841F010014D
:10523000074A1160010C064A1432116081B2121D36
:1052400011600349096821F01001014A116070479B
:10525000042800402DE9F04104460026208840F251
:10526000B271884202DA0020BDE8F08140F2B275E6
:1052700007E0284600F0CAFB00F26D100644681CE7
:1052800085B22088A842F4DC012506E02188E8B236
:1052900000F0DAFB0644681C85B26088A842F5DCA1
:1052A000A088401E0644E08808384FF461614843F6
:1052B0002189C1EB011100EB81006189014440F2B9
:1052C000A320704301EBC0173846CDE70FB4054B60
:1052D00010B503A9044A029800F038F810BC5DF834
:1052E00014FB00000D60000848040020024800681C
:1052F000C0F30220704700000CED00E010B500285C
:1053000004DB0A07130E054A135406E00A07140EBD
:10531000034A00F00F031B1FD45410BD00E400E04B
:1053200018ED00E0004870475404002002E008C86F
:10533000121F08C1002AFAD170477047002001E00F
:1053400001C1121F002AFBD1704700002DE9FF4F59
:105350008DB00F460546002606E025280BD0DDE976
:105360000F1290476D1C761C28780028F5D111B0DB
:105370003046BDE8F08F0024A246A1460122E9494B
:1053800000E0044315F8013F203B02FA03F0084215
:10539000F7D128782A2810D06FF02F022878A0F1B2
:1053A0003001092914D80AEB8A0102EB410144F0CB
:1053B000020400EB010A6D1CF0E701CF5FEA000A6E
:1053C00003D544F40054CAF1000A44F002046D1CF1
:1053D00028782E2817D115F8010F44F004042A2844
:1053E0000ED06FF02F022878A0F1300109290AD8D9
:1053F00009EB890102EB410100EB01096D1CF2E7A9
:1054000057F8049B6D1C28786C280FD006DC4C28BC
:1054100017D068280DD06A2814D104E0742810D061
:105420007A280FD10DE044F400140AE044F480140B
:1054300001E044F440146978814202D104F58014FB
:105440006D1C6D1C28786E281ED00CDC632830D0B3
:1054500004DC00288BD0582811D19FE0642867D045
:1054600069280CD164E073282DD004DC6F2872D039
:10547000702804D194E075286ED078286DD0DDE9CD
:105480000F129047761C4BE1C4F30250022806D05D
:10549000032809D0042801CF09D0066040E101CFDC
:1054A000F117C0E900613BE101CF068038E10670E9
:1054B00036E117F8040B8DF8000000208DF801008C
:1054C000EB46012003E057F804BB4FF0FF306107C3
:1054D0004FF0000102D40DE008F101018846494572
:1054E0000FDA8045F8DB1BF808100029F4D108E03A
:1054F00008F1010188468142FADB1BF808100029F7
:10550000F6D1DDE90F23AAEB08008146214600F021
:1055100031F9304400EB080604E0DDE90F121BF816
:10552000010B9047B8F10108F7D221464846F2E056
:105530000A21C4F302524FF0000B0891022A04D052
:1055400001CFC117032A09D00AE0FF1D27F0070782
:10555000F7E8020108E02CE01EE01FE000B2C117EE
:10556000042A01D140B2C117021E71F1000206DA0D
:105570000023D0EB030063EB01012D2202E02205A2
:1055800004D52B228DF82420012203E0E20701D06C
:105590002022F7E7904653E00A210BE0102109E0B2
:1055A00010214FF0000B44F004044FF0080908915B
:1055B00003E008214FF0000B0891C4F30252022AC5
:1055C00004D001CF0021032A06D006E0FF1D27F0FA
:1055D0000707F7E8020103E080B2042A00D1C0B255
:1055E0004FF0000822072BD52A78702A07D0DDF863
:1055F00020C08CF0100C5CEA0B0C05D00EE04022B1
:105600008DF82420012208E050EA010306D030235F
:105610008DF824308DF8252002229046089B83F0D7
:10562000080353EA0B030BD150EA010201D16207D0
:1056300006D530228DF824204FF00108A9F1010988
:105640002A78582A04D038A20B9208AA0A920BE0B2
:105650003AA2F9E75B46089AFAF740FE0B9B9B5C7F
:105660000A9A521E0A92137050EA0102F2D10A9865
:10567000ADEB000000F1200B600702D524F480346C
:1056800001E04FF00109D94502DDA9EB0B0000E074
:10569000002000EB0B0141440890AAEB010AE00353
:1056A00006D4DDE90F232146504600F063F8064496
:1056B0004FF0000908E009A911F80900DDE90F120F
:1056C000904709F10109761CC145F4DBE0030CD5D4
:1056D000DDE90F232146504600F04CF8064404E073
:1056E000DDE90F1230209047761C0899481E08907B
:1056F0000029F5DC08E00A980A990078491C0A910B
:10570000DDE90F129047761CBBF10001ABF1010BF4
:10571000F1DC21465046DDE90F2300F019F806447C
:105720006D1C21E60928010030313233343536371B
:1057300038396162636465660000000030313233DD
:10574000343536373839414243444546000000007D
:105750002DE9F041044600251E461746880404D46E
:1057600005E039462020B0476D1C641EF9D5284657
:10577000BDE8F0812DE9F041044600251E46904623
:10578000C80301D5302700E02027880404D505E0B0
:1057900041463846B0476D1C641EF9D52846BDE821
:1057A000F08100002DE9F04180460E4600250027DB
:1057B00009E056F827001EA1FAF75FFD08B1681C42
:1057C00085B2781C87B256F82700FAF74FFD0028FB
:1057D000EFD140460BF05AFA0446606820B1606889
:1057E0000AF094FB00206060A06820B1A0680AF075
:1057F0008DFB0020A060E8000AF062FB606060683A
:1058000008B900BFFEE768000AF05AFBA060A06874
:1058100008B900BFFEE7606808B1A06800B90025BC
:105820006900A068FAF717FD2584BDE8F081000043
:105830000A00000010B58AB0044694F82000C0F3B6
:10584000400020B994F8200000F0010070B194F8F5
:105850002000C0F34000F0B994F8200000F00100EF
:10586000C8B194F82000C0F38000A0B124222146E2
:1058700001A8FAF7D7FC214619480AF0DCFA2046BD
:105880000AF044FB012017490870049810B101A8E0
:10589000049988471FE0E08B404200B2608394F88F
:1058A000200000F00100B0B194F82010C1F3800195
:1058B00019B9A18B494209B261831034217C89084E
:1058C000C943227C61F382022274206861682160EE
:1058D0006060103C00BF034800780AB010BD0000B3
:1058E000301A0020380100202DE9F04107462F48EA
:1058F0000AF0BAF9044608E0206A20F008002062A5
:1059000021462A480AF0B5F90446002CF4D128486B
:1059100000680FF071F9064624480AF0A5F904461C
:105920003CE000202349087094F82000C0F3C00038
:1059300038BB206A20F0080008302062608B3044B9
:1059400000B26083B4F91A0000281ADBB4F91A0017
:10595000218B884202DD208B00B260832046A16843
:1059600088470546606818B129B2D4E9000290471B
:10597000B4F91A00218B884202DB2046FFF75AFF58
:1059800000BF0C48007820B108480AF06DF90446C1
:1059900004E0214605480AF06CF90446002CC0D109
:1059A0000FF037F902490860BDE8F081301A002095
:1059B000340100203801002030B50346022B04D109
:1059C0000E48405C5043001230BD032B04D10C48FC
:1059D000405C50430012F7E7042B04D10948405CB7
:1059E00050430012F0E7C1EBC105581EB5FBF0F0C3
:1059F000C4B20548005D5043000AE5E78E6D01081A
:105A0000906D0108936D0108976D010801464FF4F0
:105A1000C87091FBF0F200FB121008B9012070472A
:105A2000642091FBF0F200FB121008B90020F6E7A9
:105A3000CA1701EB92729210A1EB82020AB90120FF
:105A4000EDE70020EBE7000070B504460D460CB111
:105A50000C2C07DD2846FFF7D9FF0949497808448F
:105A6000C0B270BD022C03D0601E0549085CF8E787
:105A70002846FFF7CBFF024949780844C0B2F0E757
:105A8000E86A01080146C1F3C01070470146C1F33E
:105A9000002070470146C1F3C00070470146C1F3C2
:105AA000401070470146C1F3001070470146C1F332
:105AB00080107047F8B507460E4638460BF0E6F8FA
:105AC0000446E06B20B9B4F8400008B90120F8BDE5
:105AD000B4F8400000280CDD38460EF009F9054600
