:020000040800F2
:10000000D8EF0020E1010008513A0008E53000086F
:100010004D3A00080D050008495C0008000000008A
:10002000000000000000000000000000490100087E
:1000300011050008000000008D010008255500088A
:10004000FB010008FB010008FB010008FB010008A0
:10005000FB010008FB010008FB010008FB01000890
:10006000FB010008FB010008FB010008FB01000880
:10007000FB010008FB010008FB010008FB01000870
:10008000FB010008FB010008FB010008FB01000860
:10009000FB010008FB010008FB010008FB01000850
:1000A000FB010008FB010008FB010008FB01000840
:1000B000FB010008FB010008FB010008FB01000830
:1000C000FB010008FB010008FB010008FB01000820
:1000D000FB0100081D5B00082D5B0008FB01000808
:1000E00025050008FB010008FB010008FB010008D2
:1000F000FB010008FB010008FB010008FB010008F0
:10010000FB010008FB010008FB010008FB010008DF
:10011000FB010008FB010008FB010008E555000891
:10012000FB010008FB010008FB010008FB010008BF
:10013000DFF810D000F03CF900480047EDA80108B6
:10014000AFF30080D8EF0020224B19680868B0E8B0
:10015000F00F80F30988BFF36F8F4FF0000080F33A
:1001600011884EF00D0E7047000000000648006830
:10017000006880F3088862B661B6BFF34F8FBFF3A3
:100180006F8F00DF00BF00BF08ED00E0EFF30980D4
:10019000BFF36F8F0F4B1A6820E9F00F106008B59E
:1001A0004FF0500080F31188BFF34F8FBFF36F8F74
:1001B0001CF07AF84FF0000080F31188BDE8084089
:1001C00019680868B0E8F00F80F30988BFF36F8FF3
:1001D000704700BF40000020EFF30580704700002B
:1001E0000648804706480047FEE7FEE7FEE7FEE7D1
:1001F000FEE7FEE7FEE7FEE7FEE7FEE7E355000861
:1002000031010008202A04DB203A21FA02F0002103
:10021000704721FA02F3D040C2F120029140084316
:100220001946704740EA01039B0703D009E008C95B
:10023000121F08C0042AFAD203E011F8013B00F8AB
:10024000013B521EF9D27047D2B201E000F8012BF7
:10025000491EFBD270470022F6E710B513460A4646
:1002600004461946FFF7F0FF204610BD421C10F867
:10027000011B0029FBD1801A704710B5002200E055
:10028000521C835C8C5CA34201D1002BF8D1D8B204
:10029000E1B2401A10BD30B504460020034600E02C
:1002A0005B1C934203D2E05CCD5C401BF8D030BDB8
:1002B000034611F8012B00F8012B002AF9D118464A
:1002C000704770B5064605F051FD046805460A22E0
:1002D0000021304600F033F82C6070BD2DE9F05F4E
:1002E0000546002092469B468846064681464024A5
:1002F0001BE02846414647462246FFF783FF534608
:100300005A46C01A914110D311461846224600F0B1
:1003100061F82D1A67EB01084F46224601200021A3
:1003200000F058F817EB00094E41201EA4F101041B
:10033000DFDC484631462A464346BDE8F09F2DE9BA
:10034000F04791460F4680460446002614F8015BAC
:100350002DB100F04FF80068405DC007F6D12B2D9D
:1003600002D02D2D18D0641E4A463946204600F092
:1003700045F827B13968A14201D1C7F8008071055D
:100380004FF002040BD54042002803DD05F0EEFCDF
:100390000460A007BDE8F08746F48066E4E7002823
:1003A000F8DA05F0E3FC04606FF00040F2E70000CB
:1003B000064C074D06E0E06840F0010394E80700B2
:1003C00098471034AC42F6D3FFF7B6FE14BF0208CC
:1003D00034BF0208202A04DB203A00FA02F1002090
:1003E00070479140C2F1200320FA03F31943904073
:1003F00070470000004870475CBC02082DE9F05FC0
:1004000082460078002715468B460AF10104B9465A
:10041000302801D09DB113E014F8010B0127782892
:1004200003D0582801D045B10AE00DB1102D07D1F5
:100430000027102514F8010B02E0082500E00A252A
:100440000026B0460EE005FB080005FB06F101277B
:1004500001EB10461FFA80F8B6F5803F00D3B9468D
:1004600014F8010B294600F018F80028EBDABBF16C
:10047000000F05D00FB1641E00E05446CBF80040D9
:10048000B9F1000F06D005F071FC02210160C81E11
:10049000BDE8F09F48EA0640FAE73A2800D2303833
:1004A00020F02002412A01D3A2F13700884201D373
:1004B0004FF0FF30704770B58C1810F8015B15F0E5
:1004C000070301D110F8013B2A1106D110F8012BC6
:1004D00003E010F8016B01F8016B5B1EF9D12B07EB
:1004E00005D40023521E0DD401F8013BFAE710F8A1
:1004F000013BCB1A921C03E013F8015B01F8015B8E
:10050000521EF9D5A142D8D3002070BD00BFFEE72E
:10051000704701B502E00098401E00900098002846
:10052000F9D108BD10B50748006800F4806038B103
:100530002021054800F09CFF4FF4806001490860CD
:1005400010BD0000140401400018014072B600BF45
:10055000FEE7000070B50446B3F5804F13D1D1E932
:10056000000540EA05108D6840EA05208D692843A2
:100570008D8940EA054054F82250064E3540284304
:1005800044F8220003E06FF0704044F8220000209D
:1005900070BD00000000F0CF70B50246086852F848
:1005A000200020F001000E6842F826008868082824
:1005B00001D1402300E00023486818438E6830438F
:1005C000CE6830430E6930434E693043CE693043C4
:1005D0000E6A30434E6A30438E6A3043CE6A3043EF
:1005E0000E6B40EA060488690443486B0443074DD8
:1005F00045F4806545F4E025086852F82000A843DA
:1006000020430E6842F82600002070BD7FFB0800E2
:1006100010B50346D1E9000440EA04108C6840EAB2
:1006200004208C8940EA0444088A401E44EA0054AD
:10063000087D801E44EA00608C692043541C53F8F6
:10064000244004F040442043541C43F8240000207C
:1006500010BD00002DE9F04F99B007465EA000687C
:10066000189028210EA8FFF7F6FD5C4800680D9051
:100670000024A046BA200C9000264FF0000A4FF04C
:10068000000B00200B900A9000254FF0FF3900BFAF
:1006900000BF0C220DA90C9800F06CF98146B9F14D
:1006A000000F06DA49464EA005F034FB19B0BDE84C
:1006B000F08F9DF83680B8F1000F00D1F6E708F012
:1006C000800000B979E008F00F04052C00DD74E02B
:1006D000012C17DD242101A8FFF7BDFD3F48001DB7
:1006E00000680090601EC000821C69460C9800F0F3
:1006F00041F98146601EC2000DF1020110A8FFF70A
:1007000091FD00BF42480088A04221DD00251BE08A
:10071000002015E0032101EBC0010DAA8E183178ED
:1007200001F00F010A913B494A5D0A998A4200D1C2
:1007300008E0611E814201DC00213970411CC8B211
:10074000A042E7DB00BF6D1C314800888542DFDB3B
:1007500024B300251FE0032000EBC5000DA94618B7
:10076000307800F00F000A902A490A9848557078AE
:10077000B17840EA012AF078317940EA012B7079AA
:10078000B17940EA01200B9001203870A7F802A04F
:10079000A7F804B06D1CA542DDDB0BE01C48008807
:1007A00040B1002502E0002038706D1C1848008818
:1007B0008542F8DB1648048000BF032218A90C9874
:1007C00000F068F98146B9F1000F02DA12A005F0D5
:1007D000A1FA00BF6AE70000814E000010D30108B3
:1007E0003C3C2D4754502D4552524F522D3E3E20F9
:1007F000493243207472616E73666572206572724D
:100800006F722E206572726E6F3A25640A200A009C
:10081000C4000020C60000203C3C2D4754502D4908
:100820004E464F2D3E3E2049324320777269746513
:1008300020656E645F636D64206572726F72210A59
:1008400000000000FEB500200090019002900024FE
:100850003748007800EB4000364931F810503448F2
:10086000007800EB400001EB40004688002730484C
:10087000007800EB400001EB40008088401C000A3B
:100880008DF800002A48007800EB400001EB4000A2
:100890000079401CC0B28DF801000A226946BA20D6
:1008A00000F068F80446002C01DA0020FEBD9DF837
:1008B00002009DF8031000EB012085B29DF80400B2
:1008C0009DF8051000EB012086B200BF00BF00BFFD
:1008D000684600BF1648007800EB4000154901EB60
:1008E00040008088801D000A8DF8000010480078C4
:1008F00000EB400001EB40000079801DC0B28DF894
:10090000010003226946BA2000F034F80446002CA6
:1009100001DA0020CAE79DF8070000F003073B4614
:100920003246294604A005F0F5F90120BEE7000093
:10093000A6000020F8D101083C3C2D4754502D4919
:100940004E464F2D3E3E20585F4D4158203D2025BC
:10095000642C20595F4D4158203D2025642C2054A3
:10096000524947474552203D203078253032780A99
:10097000000000002DE9F04186B005460C46164601
:100980004FF0FF374FF0000800BF00BF0020ADF868
:1009900002008DF800500220ADF8040002940121FD
:1009A000ADF80E108DF80C50B01E81B2ADF81010DD
:1009B000A01C059009E00221684602F075FC07467C
:1009C000022F00D104E008F10108B8F1050FF2DBB5
:1009D00000BFB8F1050F08DB6078237840EA0321F7
:1009E000B21E3B46034805F095F9384606B0BDE80F
:1009F000F0810000ACBC020838B500200090174818
:100A0000007800EB4000164901EB4000808800129E
:100A10008DF800001148007800EB400001EB400029
:100A200000798DF8010000256C1E00BF00BF0DE0AD
:100A300003226946BA20FFF79DFF44B2002C01DD76
:100A4000204638BD294607A005F064F92846691CF0
:100A5000CDB20528ECDB2046F3E70000A60000201D
:100A6000F8D101083C3C2D4754502D4552524F526D
:100A70002D3E3E20475450206932632074657374C4
:100A8000206661696C65642074696D652025642E3B
:100A90000A0000002DE9FE4380460C4615464FF043
:100AA000FF36002700BF00BF0020ADF802008DF820
:100AB0000080A8B2ADF80400029408E00121684665
:100AC00002F0F2FB0646012E00D102E07F1C052F4A
:100AD000F4DB00BF052F08DB6078237840EA0321B0
:100AE000AA1E3346024805F015F93046BDE8FE83DC
:100AF000FCBC020800BF00BF704700002DE9F04FAA
:100B0000CDB04FF0FF390027B846BB46002500BFE7
:100B100000BF02F0C1FBFFF76FFF8146B9F1000F84
:100B200006DA5DA005F0F6F848464DB0BDE8F08F56
:100B300000F0F4F84FF4817019F01AFF04462CB954
:100B400060A005F0E7F84FF0FF30EEE76548007869
:100B500000EB4000644901EB4000808800122070E7
:100B60006048007800EB400001EB400000796070C5
:100B70005C48007818B95D484C904FF0EF0A4FF48C
:100B80008071A01CFFF767FB5246A01C4C99FFF731
:100B900049FB554600BF00BF00BF00BF00BF204655
:100BA00000BF2020E07003202071E0206071012050
:100BB000A071207A20F0080020724FF00008494808
:100BC0000078E0B9022708E0781C205CE15D00EBCA
:100BD000012040441FFA80F8BF1C681EB842F3DCB5
:100BE000C8F100001FFA80F800BF00BF4FEA1821CB
:100BF000681E215404F805800121681C21544FF01F
:100C0000000B0BE02A1D2146BA20FFF743FF814667
:100C1000B9F1000F00DD04E00BF1010BBBF1050F92
:100C2000F0DB00BF3248FFF774FC20788DF8040039
:100C300060788DF8050000BF00BF4FF4967201A9DF
:100C4000BA20FFF797FE814600BF00BF00BF01A892
:100C500000BF00BF00BF00BF204600BF03260AE060
:100C6000A05D01A9895D884203D0314621A005F02D
:100C700051F8701C86B2681EB042F1DCB04201D15E
:100C800000BF00BF204605F02FFFFFF733FFFFF73F
:100C9000D9FD002049E700003C3C2D4754502D452C
:100CA00052524F522D3E3E2049324320636F6D6DAC
:100CB000756E69636174696F6E204552524F52219F
:100CC0000A0000003C3C2D4754502D4552524F52D3
:100CD0002D3E3E206D616C6C6F63206661696C20F7
:100CE00021200A00A6000020F8D1010808D101083F
:100CF000FFFF0F003C3C2D4754502D4552524F52A0
:100D00002D3E3E20436F6E666967206661696C20E8
:100D1000212069203D202564200A000010B586B0FE
:100D20004FF0FF34284903C9CDE9040100BF00BFDB
:100D3000082204A9BA20FFF71DFE0446002C05DA9C
:100D400022A004F0E7FF204606B010BD9DF8140075
:100D5000342825D19DF816009DF817109DF8152010
:100D6000CDE9002102909DF814309DF813209DF8E4
:100D7000121021A004F0CEFF9DF81200392821D1D5
:100D80009DF8130031281DD19DF81400372819D182
:100D90009DF81500532815D100202349087011E053
:100DA0009DF816009DF817109DF81520CDE900213B
:100DB00002909DF814309DF813209DF812101BA08E
:100DC00004F0A8FF2046BFE7DCD201083C3C2D47D9
:100DD00054502D4552524F522D3E3E2047545020E4
:100DE000726561642076657273696F6E20666169F1
:100DF0006C65640A000000003C3C2D4754502D49AE
:100E00004E464F2D3E3E204943322056657273694F
:100E10006F6E3A2025632563256325635F25303295
:100E200078253032780A0000A60000203C3C2D478F
:100E300054502D494E464F2D3E3E20556E6B6E6FE1
:100E4000776E2049432056657273696F6E3A20258C
:100E5000632563256325635F25303278253032783A
:100E60000A0000000146002291F82100022808D063
:100E70000420886300BF002081F8200000BF01200B
:100E800070470868006820F00E000B68186008685A
:100E9000006820F001000B68186091F840300120D4
:100EA0009840CB6B5860012081F8210000BF0020E2
:100EB00081F8200000BF1046E2E7000070B504464C
:100EC000002594F82100022803D00420A063012506
:100ED000C1E02068006820F00E00216808602068EA
:100EE000006820F00100216808605C4920688842A1
:100EF00052D95A4978392068884201D1012047E007
:100F0000564964392068884201D1102040E0534995
:100F100050392068884201D1801539E04F493C3969
:100F20002068884201D1801432E04C492839206879
:100F3000884202D14FF480302AE0484914392068B1
:100F4000884202D14FF4801022E044492068884250
:100F500001D140041CE042492068884201D10120AF
:100F600016E03F4914312068884201D110200FE07B
:100F70003B4928312068884201D1801508E0384972
:100F80003C312068884201D1801401E04FF4803068
:100F90003349091F086051E0304978392068884298
:100FA00001D1012047E02D4964392068884201D1F0
:100FB000102040E0294950392068884201D180152D
:100FC00039E026493C392068884201D1801432E05A
:100FD000224928392068884202D14FF480302AE023
:100FE0001E4914392068884202D14FF4801022E053
:100FF0001A492068884201D140041CE01849206841
:10100000884201D1012016E0154914312068884238
:1010100001D110200FE0124928312068884201D107
:10102000801508E00E493C312068884201D18014C7
:1010300001E04FF48030094980394860012084F88C
:10104000210000BF002084F8200000BF606B10B1B9
:101050002046616B8847284670BD00008000024032
:101060000804024070B5044600F012FA0646254610
:10107000681C10B104480078054400BF00F008FA6D
:10108000801BA842FAD370BD3800002000B585B09F
:10109000002001900290039004901C48006808B161
:1010A00005B000BD01201949086000BF184840691B
:1010B00040F48070164948610846406900F4807029
:1010C000009000BF00BF41F2010001900220029099
:1010D0000320049001A90F4800F022F84FF6807019
:1010E0000190022002900320049001A90A4800F018
:1010F00017F84CF233700190022002900320049004
:1011000001A9064800F00CF800BFC9E72400002040
:10111000001002400020014000180140001401406E
:101120002DE9F847024600239C467BE14FF0010879
:1011300008FA03F4D1F8008008EA0400A0427DD147
:10114000DFF8F4A2D1F80480A8EB0A09D0453AD020
:1011500014DCB8F1030F50D009DCB8F1000F31D026
:10116000B8F1010F1CD0B8F1020F49D120E0B8F15D
:10117000110F18D0B8F1120F42D11EE0B9F5881F37
:1011800025D006DCB9F5803F20D0B9F5801F37D1D6
:101190001AE0B9F5001F18D0B9F5041F30D117E0D7
:1011A000D1F80CC02DE0D1F80C8008F1040C28E037
:1011B000D1F80C8008F1080C23E0D1F80C8008F17C
:1011C0000C0C1EE000BF00BF00BF00BF00BF00BF8F
:1011D000D1F80880B8F1000F02D14FF0040C0BE0F9
:1011E000D1F80880B8F1010F03D14FF0080C146159
:1011F00002E04FF0080C546103E04FF0000C00E0F7
:1012000000BF00BFFF2801D8904601E002F10408AA
:101210004646FF2802D84FEA830803E0A3F10808F6
:101220004FEA88084746D6F800804FF00F0909FAC0
:1012300007F928EA09080CFA07F900E07AE048EA19
:101240000908C6F80080D1F8048008F08058B8F189
:10125000805F6FD100BFDFF8E481D8F8188048F0D4
:101260000108DFF8D891C9F81880C846D8F8188066
:1012700008F00108CDF8008000BF00BF4FEAB93880
:101280004FEA930958F829504FEA83784FEA1879C2
:101290004FF00F0808FA09F825EA0805DFF8A081E1
:1012A000424502D14FF0000824E0DFF89881424522
:1012B00002D14FF001081DE0DFF88C81424502D1D8
:1012C0004FF0020816E0DFF88481424502D14FF06A
:1012D00003080FE0DFF87881424502D14FF004089F
:1012E00008E0DFF87081424502D14FF0050801E0C7
:1012F0004FF006084FEA83794FEA197908FA09F89E
:1013000048EA0505DFF850814FEA930948F829506B
:10131000D1F8048008F48038B8F5803F0BD1DFF8AD
:101320003C81D8F8008048EA0008DFF83091C9F81D
:1013300000800AE075E0DFF82481D8F8008028EA10
:101340000008DFF81891C9F80080D1F8048008F48B
:101350000038B8F5003F0ED1DFF8008108F104082D
:10136000D8F8008048EA0008DFF8F09009F1040995
:10137000C9F800800DE0DFF8E48008F10408D8F82F
:10138000008028EA0008DFF8D49009F10409C9F8C0
:101390000080D1F8048008F48018B8F5801F0ED1C1
:1013A000DFF8B88008F10808D8F8008048EA00089B
:1013B000DFF8A89009F10809C9F800800DE0DFF80E
:1013C0009C8008F10808D8F8008028EA0008DFF8B7
:1013D0008C9009F10809C9F80080D1F8048008F45C
:1013E0000018B8F5001F0ED1DFF8708008F10C0866
:1013F000D8F8008048EA0008DFF8609009F10C098D
:10140000C9F800800DE0DFF8548008F10C08D8F826
:10141000008028EA0008DFF8449009F10C09C9F8B7
:1014200000805B1CD1F8008028FA03F8B8F1000FA7
:101430007FF47CAEBDE8F887000011100010024078
:1014400000080140000C0140001001400014014060
:1014500000180140001C0140080001400004014048
:10146000024693680B400BB1012000E0002070475A
:1014700010B5C26821EA020302EA010443EA044308
:10148000036110BD0AB1016101E00B040361704703
:1014900001480068704700003000002003480068E1
:1014A000034909780844014908607047300000206A
:1014B0003800002010B50848006840F010000649C8
:1014C0000860032000F0EEF80F2000F007F800F0AD
:1014D00049F8002010BD00000020024070B588B01F
:1014E00004460025002600222146372000F09CF803
:1014F000372000F089F800BF1648C06940F020008E
:101500001449C8610846C06900F02000019000BF7E
:1015100000BF02A903A800F0DFFA00F005FB4500B8
:101520000D48B5FBF0F0461E0C480D49086040F22E
:10153000E7310B48C160466000210161816001F024
:101540007FF820B9064801F007F908B070BD012006
:10155000FBE700000010024040420F000014004072
:101560007C0B002008B500BF1448806940F00100E2
:10157000124988610846806900F00100009000BFB0
:1015800000BF00BF0846C06940F08050C8610846EF
:10159000C06900F08050009000BF00BF00220F2102
:1015A000901E00F041F800BF0549486820F0E06057
:1015B00040F00070486000BF08BD0000001002400D
:1015C0000000014010B501460846002817DB00F076
:1015D0001F0301229A400B4B440943F8242000BF0B
:1015E00000BF00BFBFF34F8F00BF00BF00BF00BFF1
:1015F00000BF00BFBFF36F8F00BF00BF00BF00BFC1
:1016000010BD000080E100E001460846002809DB2B
:1016100000F01F0301229A4043099B0003F1E023DD
:10162000C3F8002100BF70472DE9F05F80460D46EA
:101630001646002704F07EFB074639462A46334605
:1016400001F00700C0F1070ABAF1040F02D94FF008
:10165000040A01E0C0F1070AD14600F1040ABAF118
:10166000070F02D24FF0000A01E0A0F1030AD446AE
:101670004FF0010A0AFA09FAAAF1010A0AEA020A73
:101680000AFA0CFA4FF0010B0BFA0CFBABF1010B51
:101690000BEA030B4AEA0B042146404604F052FBD6
:1016A000BDE8F09F00BF00F00702064B19684FF637
:1016B000FF031940044B0B4343EA0221014B19601D
:1016C00000BF70470CED00E00000FA050120014961
:1016D0000862704700000E422DE9F04385B00646CF
:1016E00042A30FCB01AC0FC444A0006800904FF0A0
:1016F0000008002500270024A146042E36D004DC73
:10170000012E3BD0022E6BD15FE0082E32D0102E7E
:1017100066D13B484468006800F0807000B301A8BF
:10172000C4F38341475C04F4803070B134484068AE
:10173000C0F340401DF8008004F4803040B13148CF
:10174000B0FBF8F000FB07F502E02F4807FB00F5BF
:101750002B48406800F48000B0F5800F01D1A94605
:1017600003E068000321B0FBF1F93AE000F0FCF976
:10177000814636E000F0F8F9814632E02048046AFC
:1017800004F44070B0F5807F05D104F0020010B180
:101790004FF4004918E004F44070B0F5007F07D121
:1017A0001748406A00F0020010B149F640490BE0CA
:1017B00004F44070B0F5407F06D11148006800F491
:1017C000003008B14FF224490BE000F0BDF90C499C
:1017D0004968C1F38131491C4900B0FBF1F900E0CF
:1017E00000BF00BF484605B0BDE8F0830203040512
:1017F000060708090A0B0C0D0E0F1010010200005D
:101800000010024000127A0000093D00F8B50446BD
:1018100000260025207800F0010000286BD000276A
:101820004348C06900F0805070B900BF4048C069AB
:1018300040F080503E49C8610846C06900F08050C1
:10184000009000BF00BF01273A48006800F4807094
:10185000B0B93848006840F4807036490860FFF736
:1018600017FE064606E0FFF713FE801B642801D929
:101870000320F8BD2F48006800F480700028F2D0E3
:101880002B48006A00F440752DB3A08800F4407026
:10189000A84220D02648006A20F44075012026493D
:1018A0000860002008602248056205F0010090B140
:1018B000FFF7EEFD064608E0FFF7EAFD801B41F268
:1018C0008831884201D90320D3E71948006A00F023
:1018D00002000028F0D01648006A20F440706168C9
:1018E000084313490862012F04D10846C06920F05B
:1018F0008050C86100BF207800F00200022807D1A4
:101900000B48406820F44040A168084308494860FB
:10191000207800F01000102807D10548406820F416
:10192000800061690843024948600020A1E7000087
:101930000010024000700040400442427047000026
:1019400070B504460D460CB9012070BD5A480068B8
:1019500000F00700A8420ED25748006820F00700A8
:101960002843554908600846006800F00700A8426F
:1019700001D00120E9E7207800F0020002281DD103
:10198000207800F00400042805D14C48406840F459
:10199000E0604A494860207800F00800082805D136
:1019A0004648406840F460504449486043484068B5
:1019B00020F0F000A168084340494860207800F01A
:1019C000010078B36068012806D13C48006800F443
:1019D000003090B90120B8E76068022806D1374886
:1019E000006800F0007040B90120AEE7334800689D
:1019F00000F0020008B90120A7E73048406820F055
:101A00000300616808432D494860FFF741FD064621
:101A100009E0FFF73DFD801B41F28831884202D981
:101A2000032092E707E02548406800F00C00616859
:101A3000B0EB810FEDD12048006800F00700A8420C
:101A40000ED91D48006820F0070028431A49086095
:101A50000846006800F00700A84201D0012074E7A2
:101A6000207800F00400042807D11448406820F4CE
:101A7000E060E168084311494860207800F0080000
:101A8000082808D10D48406820F46050216940EAD8
:101A9000C1000A49486000F067F808494968C1F385
:101AA0000311074A515CC8400649086006480068AF
:101AB000FFF714FD002048E700200240001002401C
:101AC000F0D001083C000020340000200120014932
:101AD000C8647047000042420F2202600D4A5268FB
:101AE00002F0030242600B4A526802F0F002826088
:101AF000084A526802F4E062C260064A526802F480
:101B00006052D2080261044A126802F007020A60B9
:101B100070470000001002400020024001480068A9
:101B2000704700003C00002000B5FFF7F7FF0449B4
:101B30004968C1F30221034A515CC84000BD00005E
:101B40000010024000D1010800B5FFF7E7FF04498B
:101B50004968C1F3C221034A515CC84000BD00007E
:101B60000010024000D10108F0B585B00FF26C0CF6
:101B70009CE8E01001A8A0E8E0101CA52D680095E5
:101B800000210022002300240020194D696801F083
:101B90000C05F5B1042D02D0082D19D101E015482E
:101BA00019E001ADC1F38346AC5D01F4803555B158
:101BB0000F4D6D68C5F340451DF805200D4D65437B
:101BC000B5FBF2F302E00C4D04FB05F3184602E00E
:101BD00000BF084800BF00BF05B0F0BD0203040508
:101BE000060708090A0B0C0D0E0F10100102000069
:101BF0000010024000127A0000093D0010B50648AE
:101C0000806800F08000802804D1FFF797FE8020D4
:101C10000149887210BD000000100240F8B504466A
:101C20000CB90120F8BD207800F00100002878D020
:101C3000F848406800F00C0004280CD0F5484068D3
:101C400000F00C00082811D1F248406800F4803000
:101C5000B0F5803F0AD1EF48006800F4003000285A
:101C60005FD0606800285CD10120DBE700BF6068BE
:101C7000B0F5803F06D1E748006840F48030E54980
:101C8000086028E0606858B9E248006820F48030B5
:101C9000E04908600846006820F4802008601AE0E7
:101CA0006068B0F5A02F0BD1DA48006840F48020BE
:101CB000D84908600846006840F4803008600AE0AF
:101CC000D448006820F48030D24908600846006893
:101CD00020F48020086000BF606888B1FFF7D8FB5F
:101CE000054606E0FFF7D4FB401B642801D903201A
:101CF00098E7C848006800F400300028F2D010E0EF
:101D0000FFF7C6FB054606E0FFF7C2FB401B642851
:101D100001D9032086E7BF48006800F4003000289E
:101D2000F2D1207800F00200022857D1B94840686B
:101D300000F00C0050B1B748406800F00C000828D3
:101D400018D1B448406800F4803098B9B1480068B0
:101D500000F0020020B12069012801D0012061E7D4
:101D6000AC48006820F0F800616940EAC100A94968
:101D7000086033E02069E8B10120A7490860FFF757
:101D800087FB054606E0FFF783FB401B022801D9CD
:101D9000032047E79F48006800F002000028F2D0C7
:101DA0009C48006820F0F800616940EAC100994948
:101DB000086013E0002098490860FFF769FB0546BA
:101DC00006E0FFF765FB401B022801D9032029E745
:101DD0009048006800F002000028F2D1207800F05E
:101DE000080008282DD1A069B8B101208B490860EE
:101DF000FFF74EFB054606E0FFF74AFB401B0228B3
:101E000001D903200EE78348406A00F00200002851
:101E1000F2D0012002F0FEFE13E000207F490860AE
:101E2000FFF736FB054606E0FFF732FB401B0228B2
:101E300001D90320F6E67748406A00F00200002846
:101E4000F2D1207800F00400042873D100277148F3
:101E5000C06900F0805070B900BF6E48C06940F0A2
:101E600080506C49C8610846C06900F080500090FD
:101E700000BF00BF01276A48006800F48070B0B955
:101E80006748006840F4807065490860FFF700FB10
:101E9000054606E0FFF7FCFA401B642801D9032041
:101EA000C0E65F48006800F480700028F2D000BFF0
:101EB000E068012806D15748006A40F00100554902
:101EC000086227E0E06858B95248006A20F0010033
:101ED000504908620846006A20F00400086219E0D0
:101EE000E06805280BD14B48006A40F004004949DE
:101EF00008620846006A40F0010008620AE04548AE
:101F0000006A20F00100434908620846006A20F098
:101F10000400086200BFE068A0B1FFF7B9FA054607
:101F200009E0FFF7B5FA401B41F28831884202D937
:101F3000032077E622E03748006A00F0020000281C
:101F4000EFD012E0FFF7A4FA054608E0FFF7A0FA89
:101F5000401B41F28831884201D9032062E62D48B6
:101F6000006A00F002000028F0D1012F05D12948B5
:101F7000C06920F080502749C86100BFE069C8B33C
:101F80002448406800F00C00082860D0E06902286E
:101F900048D1002020490866FFF77AFA054606E096
:101FA000FFF776FA401B022801D903203AE61948C8
:101FB000006800F000700028F2D1206AB0F5803F80
:101FC00007D11448406820F40030A1680843114943
:101FD0004860D4E9080108430E49496821F47411A6
:101FE00008430C49486001200B490866FFF750FA86
:101FF000054607E03DE0FFF74BFA401B022801D9F8
:1020000003200FE60348006800F000700028F2D0BB
:102010002FE00000001002400000424280044242D3
:1020200000700040002014490866FFF731FA0546A9
:1020300006E0FFF72DFA401B022801D90320F1E545
:102040000E48006800F000700028F2D111E0E0694D
:10205000012800D1E6E50948466806F48031206A87
:10206000814204D106F47011606A814201D00120DE
:10207000D8E50020D6E500000000424200100240F2
:1020800010B5034600220020024A02EB81021468C8
:10209000A0B210BD006C004010B5034600200348FC
:1020A00000EB810094B2046010BD0000006C0040A1
:1020B00070B5044600250CB9012070BD607C20B9C4
:1020C00000202074204600F05BF802206074204657
:1020D00000F060F918B1042060740120EDE720469B
:1020E00002F00FFF18B1042060740120E5E72068BA
:1020F000406820F0070021684860A06828B11F48A8
:10210000006820F001001D4908601C48001F00689D
:1021100020F46070A16808431849091F08606068CE
:10212000401C08B1656809E00120FFF7D5FA0546B3
:102130001DB9042060740120BFE76D1E206880680F
:1021400020F00F0040EA1540216888602068C068D0
:1021500065F30F002168C860204602F0EFFE18B159
:10216000042060740120A8E70021E173012161735C
:10217000A1730120607400209FE70000306C0040D4
:1021800038B504460B492068884212D1FFF79EFA01
:1021900000BF0948C06940F000600749C8610846AF
:1021A000C06900F00060009000BF00BF012003493B
:1021B000086038BD00280040001002403C04424244
:1021C0002DE9F04704460D46904600260027B1460B
:1021D00004B115B90120BDE8F08700BF207C0128BB
:1021E00001D10220F7E70120207400BF02206074B3
:1021F000B8F1000F06D1E978E17369786173A978C5
:10220000A1730BE0E87802F071FEE073687802F0E9
:102210006DFE6073A87802F069FEA073A27B617BFB
:10222000E07B02F0EFFE2073207B2870204602F056
:10223000B2FE06464FF46160B6FBF0F9B9F1180F33
:102240002FD91820B9FBF0F000EB4000C000C0EB24
:102250004011C1EB0020A6EB00163146204602F0EB
:102260002AFF38B10420607400BF0020207400BF32
:102270000120B0E7204602F082FE0746781C80B1BC
:10228000B7420ED20B4807443946204602F0FCFE06
:1022900038B10420607400BF0020207400BF01200A
:1022A00099E70120607400BF0020207400BF00BFC8
:1022B00091E70000805101002DE9F04704460D46EA
:1022C00090460026002704B115B90120BDE8F0872B
:1022D00000BF207C012801D10220F7E701202074F3
:1022E00000BF02206074B8F1000F0BD128784FF4C2
:1022F000616148436978C1EB011100EB8100A97865
:10230000461812E0287802F0F1FD4FF4616100FBFD
:1023100001F9687802F0EAFDC0EB001009EB8009D2
:10232000A87802F0E3FD09EB00063146204602F0F2
:10233000C2FE38B10420607400BF0020207400BFCA
:102340000120C3E72068406820F00500216848604C
:10235000204602F014FE0746781C80B1B7420ED228
:102360000B4807443946204602F08EFE38B104205F
:10237000607400BF0020207400BF0120A6E7012088
:10238000607400BF0020207400BF00BF9EE7000003
:102390008051010070B5044600250CB9012070BDC4
:1023A0002068406820F0080021684860FFF770F856
:1023B000054607E0FFF76CF8401BB0F57A7F01D9BE
:1023C0000320ECE72068406800F008000028F1D006
:1023D0000020E4E710B504460CB9012010BD606A86
:1023E00038B96068B0F5827F00D105E00021E16175
:1023F00002E00021216161610021A16294F8510095
:1024000028B9002084F85000204600F043F802204C
:1024100084F851002068006820F0400021680860BE
:10242000A08800F48270218901F404410843A18945
:1024300001F400610843217C01F002010843217D81
:1024400001F001010843218B01F400710843217F51
:1024500001F0380108432021095D01F080010843A3
:10246000218D01F400510843216808600421A0690E
:1024700001EA1040216848602068C06920F40060CB
:102480002168C86100206065012084F851000020A7
:10249000A4E7000010B586B0044600200290039027
:1024A000049005901F492068884238D100BF1E481B
:1024B000C06940F480401C49C8610846C06900F406
:1024C0008040019000BF00BF00BF0846806940F017
:1024D000080088610846806900F00800019000BF8C
:1024E00000BF4FF42040029002200390032005908B
:1024F00002A90E48FEF714FE4FF48040029000201F
:102500000390049002A90948FEF70AFE4FF4805098
:1025100002900120039002A90448FEF701FE06B0D4
:1025200010BD00000038004000100240000C0140C7
:1025300070B504460E4615461CB1A069B0F5807F03
:1025400001D1012070BD94F8410028B9002084F821
:102550004000204600F01FF804F108012068FEF753
:102560001BF83146A2682068FEF752F82946236B13
:10257000D4E90102FDF7EEFFA168206850F82100C0
:1025800040F00100A268216841F82200012084F88F
:1025900041000020D6E710B50446FEF777FD10BDD8
:1025A0007047704730B502460B4600BF92F83C00BA
:1025B000012801D1022030BD012082F83C0000BF7B
:1025C000022082F83D00106844681068816824F099
:1025D00070041868044310684460144D1068A842E1
:1025E00013D0134D1068A8420FD01068B0F1804F7F
:1025F0000BD0104D1068A84207D00F4D1068A842AC
:1026000003D00E4D1068A84205D121F08001586812
:10261000014310688160012082F83D0000BF002066
:1026200082F83C0000BF00BFC5E70000002C01405D
:10263000003401400004004000080040000C00404D
:1026400010B504460CB9012010BD94F83D0028B91E
:10265000002084F83C00204600F026F8022084F890
:102660003D00211D206802F0C5FF012084F84600CE
:1026700000BF84F83E0001213F2001554020015554
:102680004120015500BF00BF012084F842004320D3
:102690000155442001554520015500BF012084F813
:1026A0003D000020D0E7000008B50168B1F1804F7F
:1026B0000DD100BF0649C96941F00101044AD16149
:1026C0001146C96901F00101009100BF00BF08BDBA
:1026D00000100240014691F83D00012801D0012080
:1026E0007047022081F83D00164B0868984213D0CD
:1026F000154B086898420FD00868B0F1804F0BD096
:10270000124B0868984207D0114B0868984203D0D2
:10271000104B086898420CD10868806800F00702E6
:10272000062A0CD00868006840F001000B681860A9
:1027300005E00868006840F001000B6818600020A0
:10274000CEE70000002C01400034014000040040AE
:1027500000080040000C0040014691F83D000128AF
:1027600001D001207047022081F83D000868C06850
:1027700040F001000B68D860164B0868984213D0EF
:10278000154B086898420FD00868B0F1804F0BD005
:10279000124B0868984207D0114B0868984203D042
:1027A000104B086898420CD10868806800F0070256
:1027B000062A0CD00868006840F001000B68186019
:1027C00005E00868006840F001000B681860002010
:1027D000C8E70000002C0140003401400004004024
:1027E00000080040000C0040014600BF0868006A75
:1027F00041F21112104050B90868006A921010405E
:1028000028B90868006820F001000A68106000BF5D
:10281000012081F83D00002070472DE9F041044679
:102820000D4600BF94F83C00012802D10220BDE80B
:10283000F081012084F83C0000BF022084F83D00B4
:102840002068866826F0770626F47F462068866032
:102850002868502833D00CDC202850D004DC002815
:102860004BD0102851D149E0302849D040284CD1D4
:1028700039E060282DD0702807D0B0F5805F03D0F4
:10288000B0F5005F41D10DE040E0D5E902136A6880
:10289000206802F0FDFE2068866846F07706206812
:1028A000866033E0D5E902136A68206802F0F0FE22
:1028B0002068806840F480402168886026E0EA68EB
:1028C0006968206802F0F8FE5021206802F0EBFEF3
:1028D0001CE0EA686968206802F001FF6021206856
:1028E00002F0E1FE12E0EA686968206802F0E4FEA6
:1028F0004021206802F0D7FE08E000BF00BF00BF03
:102900002968206802F0CFFE00E000BF00BF012070
:1029100084F83D0000BF002084F83C0000BF00BFE9
:1029200085E7704710B5044620680069C0F3400091
:10293000D8B12068C068C0F34000B0B16FF00200A9
:1029400021680861012020772068806900F0030079
:1029500018B12046FFF7E5FF05E0204600F0ADF88E
:10296000204600F0ABF80020207720680069C0F313
:102970008000D8B12068C068C0F38000B0B16FF0AB
:10298000040021680861022020772068806900F433
:10299000407018B12046FFF7C4FF05E0204600F064
:1029A0008CF8204600F08AF8002020772068006923
:1029B000C0F3C000D8B12068C068C0F3C000B0B197
:1029C0006FF0080021680861042020772068C06942
:1029D00000F0030018B12046FFF7A3FF05E02046F2
:1029E00000F06BF8204600F069F80020207720689E
:1029F0000069C0F30010D8B12068C068C0F30010AF
:102A0000B0B16FF0100021680861082020772068BD
:102A1000C06900F4407018B12046FFF782FF05E05E
:102A2000204600F04AF8204600F048F800202077C1
:102A30002068006900F0010058B12068C06800F00B
:102A4000010030B16FF0010021680861204600F0FC
:102A500037F820680069C0F3C01058B12068C0681A
:102A6000C0F3C01030B16FF08000216808612046CB
:102A7000FFF796FD20680069C0F3801058B1206808
:102A8000C068C0F3801030B16FF040002168086169
:102A9000204600F021F820680069C0F3401058B1CA
:102AA0002068C068C0F3401030B16FF0200021688A
:102AB00008612046FFF775FD10BD704770470000A4
:102AC00010B5044603492068884201D1FEF7E6FCB0
:102AD00010BD0000001400407047704770470000B0
:102AE0002DE9F84F0446206805682068C66820680C
:102AF00047694FF00009CA4605F00F09B9F1000F08
:102B00000AD105F0200038B106F0200020B120469F
:102B100002F08AFEBDE8F88FB9F1000F71D007F01E
:102B2000010018B906F4907000286AD005F0010081
:102B300030B106F4807018B1206C40F001002064C0
:102B400005F0040030B107F0010018B1206C40F02E
:102B50000200206405F0020030B107F0010018B156
:102B6000206C40F00400206405F0080048B106F035
:102B7000200010B907F0010018B1206C40F00800E7
:102B80002064206C68B305F0200028B106F0200016
:102B900010B1204602F048FE20684069C0F3801A58
:102BA000206C00F0080010B9BAF1000F22D02046C6
:102BB00002F00FFE2068406900F04000B0B12068CC
:102BC000406920F0400021684861A06B50B1564830
:102BD000A16B4863A06BFEF771F910B1A06B416B5C
:102BE00088470CE02046FFF779FF08E02046FFF712
:102BF00075FF04E02046FFF771FF0020206489E79D
:102C0000FFE7206B012878D105F01000002874D070
:102C100006F01000002870D000BF0020009020684F
:102C20000068009020684068009000BF00BF2068E6
:102C3000406900F04000C0B3A06B006840681FFA14
:102C400080F8B8F1000F2FD0A08D40452CDDA4F8FE
:102C50002E80A06B806920281FD02068C06820F4D7
:102C600080702168C8602068406920F001002168F8
:102C700048612068406920F04000216848612020B8
:102C800084F83E00002020632068C06820F0100017
:102C90002168C860A06BFEF7E5F8A08DE28D801A70
:102CA00081B22046FFF719FF34E7FFE7A08DE18DE1
:102CB000401A1FFA80F8E08DE8B1B8F1000F1AD081
:102CC0002068C06820F490702168C860206840695E
:102CD00020F0010021684861202084F83E00002097
:102CE00020632068C06820F010002168C860414659
:102CF0002046FFF7F2FE0DE7FFE705F0800030B158
:102D000006F0800018B1204602F0A1FE02E705F0AF
:102D1000400030B106F0400018B1204602F074FDCA
:102D2000F8E600BFF6E60000BF57000810B50446FD
:102D30000CB9012010BDA06900B100E000BF94F8FB
:102D40003D0028B9002084F83C00204600F028F817
:102D5000242084F83D002068C06820F400502168D9
:102D6000C860204602F0D2FD2068006920F490403F
:102D7000216808612068406920F02A0021684861C4
:102D80002068C06840F400502168C86000202064BA
:102D9000202084F83D0084F83E000020CAE70000AF
:102DA00010B586B004460020029003900490059070
:102DB0003B492068884237D100BF3A48806940F4D7
:102DC0008040384988610846806900F4804001905D
:102DD00000BF00BF00BF0846806940F00400886162
:102DE0000846806900F00400019000BF00BF48154C
:102DF0000290022003900320059002A92A48FEF7C2
:102E00008FF94FF48060029000200390049002A993
:102E10002548FEF785F9002205212520FEF704FC50
:102E20002520FEF7F1FB39E020492068884235D1A2
:102E300000BF1C48C06940F400301A49C861084608
:102E4000C06900F40030019000BF00BF00BF084619
:102E5000806940F0040088610846806900F0040041
:102E6000019000BF00BF04200290022003900320C5
:102E7000059002A90C48FEF753F9082002900020A3
:102E80000390049002A90848FEF74AF900220521A0
:102E90002620FEF7C9FB2620FEF7B6FB06B010BDC4
:102EA000003801400010024000080140004400408A
:102EB00070B504460D46164694F83E00202816D1FB
:102EC00005B10EB9012070BD00BF94F83C00012887
:102ED00001D10220F7E7012084F83C0000BF002068
:102EE000206332462946204602F08EFDEBE70220A1
:102EF000E9E7000010B504463849206888423ED111
:102F000037480078FF280FDB0020354908704FF460
:102F100080713448FDF79FF94FF6FF730A2232A102
:102F2000344800F075F825E03348007810BB33488A
:102F300001782B4802780078401C294B18702948EA
:102F4000815418460078801E2649085C0D2811D14E
:102F500018460078401E085C0A280BD1002118464C
:102F60000078801E1F4A1154002019460870012065
:102F700021490870012221491E48FFF799FF204985
:102F80002068884228D11F48007868B91B4800781B
:102F9000BB2809D1194800781B49087019480078E6
:102FA000401C1849087012E01648007800280EDD11
:102FB00014480078C8280ADA104801781248114AE3
:102FC000127881540F480078401C0E490870012285
:102FD0000A490E48FFF76CFF10BD000000380140A1
:102FE0002D0000202C090020CAFDBEDDD2E7B3F67B
:102FF00000000000F40A00202E0000202C00002019
:10300000004400402F0000202C0A0020380B002034
:103010002DE9F84F04460E46174699464FF0000A30
:1030200094F83D0020285AD106B117B90120BDE817
:10303000F88F00BF94F83C00012801D10220F6E788
:10304000012084F83C0000BF00202064212084F887
:103050003D00FEF71DFA8246A784E784A068B0F51C
:10306000805F04D1206910B90025B04602E03546E2
:103070004FF0000800BF002084F83C0000BF1BE0B8
:103080005346002280212046CDF8009002F00FFD2B
:1030900008B10320CBE745B9B8F80000C0F3080039
:1030A0002168486008F1020803E028782168486038
:1030B0006D1CE08C401EE084E08C0028E0D153467B
:1030C000002240212046CDF8009002F0F0FC08B12B
:1030D0000320ACE7202084F83D000020A7E7022071
:1030E000A5E7704700BFFEE700B585B000BF2E48DA
:1030F000806940F008002C4988610846806900F02A
:103100000800009000BF00BF00BF0846806940F083
:10311000800088610846806900F08000009000BF50
:1031200000BF00BF0846806940F080008861084603
:10313000806900F08000009000BF00BF00BF08461B
:10314000806940F0800088610846806900F0800056
:10315000009000BF00BF02200190112002900320C8
:10316000049001A91148FDF7DBFF4FF400700190B6
:1031700001A90F48FDF7D4FF4FF400600190012032
:1031800002900320049001A90948FDF7C9FF4FF4FC
:1031900080600190012002900320049001A904485E
:1031A000FDF7BEFF05B000BD00100240000C01405D
:1031B000001C01401FB54FF480600090074801904B
:1031C00069460748FDF7ACFF002211462820FEF7AC
:1031D0002BFA2820FEF7F6F91FBD000000001110A1
:1031E000001C014070B506460D46144603F0F0FF82
:1031F00046F0010003F0B6FF04F024F800B114E03B
:103200000DE003F089FF2870012C03D103F068FF63
:1032100004F000F86D1C601E84B203F037FF002C30
:10322000EFD103F0F7FF002070BD03F0F3FF0120A2
:10323000FAE700001FB54FF4806000900120019074
:103240000320039069461348FDF76AFF00224FF4FC
:1032500080611048FEF716F900224FF400610D4816
:10326000FEF710F90120FDF7FDFE0122D102094809
:10327000FEF708F93720FDF7F5FE4FF48060009067
:10328000002001900320039069460248FDF748FFA3
:103290001FBD0000001C014010B5FFF725FFFFF720
:1032A000C9FFFFF787FF10BD2DE9F04105460F4626
:1032B0000024002600BF00BF00BF2BE004EB440049
:1032C00005EB8000807800F0010088B104EB440336
:1032D00005EB83039A8804EB440305EB83039968A9
:1032E00004EB440315F82300FFF77CFF064610E0CB
:1032F00004EB440305EB83031A7904EB440305EB69
:103300008303996804EB440315F8230000F00BF8DD
:103310000646641C0EB9BC42D0D116B13046BDE899
:10332000F0812046FBE72DE9F04104460D461746A3
:1033300003F070FF00260AE003F04AFF204603F086
:1033400011FF03F07FFF00B904E0701C86B2B6F5F0
:103350007A7FF1DB00BFB6F57A7F00D112E007E09B
:10336000287803F0FFFE03F06DFF00B10AE06D1C4A
:10337000381EA7F10101CFB2F2D103F04BFF0020BC
:10338000BDE8F08103F046FF0120F9E770B504467F
:10339000002617480588408845431548808846F62A
:1033A0000401884216D112488079012812D10020E8
:1033B0000F4988712A2048812B20888100210846E6
:1033C00000F028F901200A4988712B2048812A2021
:1033D000888103E00021084600F01CF900F04CF958
:1033E000002602E003480480761CAE42FAD370BD8A
:1033F000343500200008006C2DE9F84F07460D46D3
:1034000090469946DDF828B0A8EB0700401C1FFA4B
:1034100080FAA9EB0500401C80B20090002414E063
:10342000281981B2384600F0F5F800F025F9002699
:1034300007E004FB0A603BF8100006490880701C96
:1034400086B25645F5DB601C84B200988442E7DB07
:10345000BDE8F88F0008006C10B5044694B9002050
:10346000134988714FF4305008814FF42850488137
:103470004FF42C5088814FF4F07008804FF448705E
:10348000488011E001200A4988714FF430500881CA
:103490004FF4285048814FF42C5088814FF44870E5
:1034A00008804FF4F0704880002000F033F810BD21
:1034B0003435002010B500F095FB10BD08B5034869
:1034C00000880090BDF8000008BD00000008006CF6
:1034D00000B54FF45A4000F0C9F8FFF7EFFF02467D
:1034E0004FF45B4000F0C2F8FFF7E8FF02464FF6EA
:1034F000FF7000EA02224FF45C4000F0B7F8FFF7DB
:10350000DDFF0243B2F5004F01D145F210521046E3
:1035100000BD000030B5044600230025082C1CD255
:10352000DFE804F00406090C0F12151800BF14E0C0
:1035300043F0800311E043F040030EE043F0C0038A
:103540000BE043F0200308E043F0600305E043F0A4
:10355000A00302E043F0E00300BF00BF4FF4585562
:103560001946284600F092F82949488900F07EF86B
:10357000002000F075F826494989491C88B200F0FE
:1035800075F8002000F06CF821494989891C88B23F
:1035900000F06CF81E490988491EC1F30F2000F0A5
:1035A0005FF81B494989C91C88B200F05FF81849C7
:1035B0000978491EC8B200F053F81549888900F00F
:1035C00055F8002000F04CF811498989491C88B24F
:1035D00000F04CF8002000F043F80D498989891C5F
:1035E00088B200F043F80A494988491EC1F30F2008
:1035F00000F036F806498989C91C88B200F036F80F
:1036000003498978491EC8B200F02AF830BD00008D
:103610003435002000B502460B461049488900F0B9
:1036200025F8101200F01CF80C494989491C88B291
:1036300000F01CF8D0B200F013F80849888900F0B7
:1036400015F8181200F00CF804498989491C88B251
:1036500000F00CF8D8B200F003F800BD34350020BB
:1036600001490880704700000008006C014908808B
:1036700070470000FE07006C02480089024908807C
:103680007047000034350020FE07006C024A1080AD
:10369000921C118070470000FE07006C00B5A7B0B7
:1036A000244B0FCBCDE92523CDE92301002123A80D
:1036B00017F01AFA204908601C221E4910311CA874
:1036C000FCF7B0FD00211CA817F0A0FA1B49086008
:1036D0001C2218492C3115A8FCF7A4FD002115A8BF
:1036E00017F094FA164908601C22124948310EA8B6
:1036F000FCF798FD00210EA817F088FA1149086020
:103700001C220C49643107A8FCF78CFD002107A896
:1037100017F07CFA0C4908601C2206498031684683
:10372000FCF780FD0021684617F070FA0749086031
:1037300027B000BD54D00108200000200C0000205C
:103740001000002014000020180000201C000020A1
:1037500000B585B00020019002900390049000BF56
:103760004048806940F040003E49886108468069D1
:1037700000F04000009000BF00BF00BF0846806915
:1037800040F0100088610846806900F01000009049
:1037900000BF00BF00BF0846806940F00800886194
:1037A0000846806900F00800009000BF00BF00BF1D
:1037B0000846806940F4807088610846806900F49A
:1037C0008070009000BF00BF00BF0846806940F0D5
:1037D000200088610846806900F02000009000BF4A
:1037E00000BF00BF0846806940F0040088610846B9
:1037F000806900F00400009000BF00BF012220217A
:103800001948FDF73FFE002201211848FDF73AFE56
:10381000012220211548FDF735FE102001900020DF
:1038200002900120039001A90F48FDF779FC2020A8
:10383000019001200290002003900220049001A931
:103840000948FDF76DFC2120019001200290002025
:1038500003900220049001A90448FDF761FC05B023
:1038600000BD00000010024000180140000C0140A3
:103870001CB50020019000902148224908604FF0BB
:10388000FF30486000211F488160FEF711FC08B13D
:10389000FCF75CFE01211B48FEF7F2FB45F25001EC
:1038A000884205D00A4601211648FEF7F5FB00E0E4
:1038B0001CBD15A002F02EFA00208DF804008DF832
:1038C00005008DF80600002201A90E48FEF7F4FC61
:1038D00008B1FCF73BFE01208DF800008DF80100D7
:1038E0008DF8020000208DF803000022694605488B
:1038F000FEF766FC08B1FCF729FE00BFD8E7000020
:10390000002800407808002046495253542054496A
:103910004D450A0010B50E480E4908604FF48270FC
:10392000486000210B488160C160016141614FF432
:10393000007181610021C1610162416281620A21DD
:10394000C162FEF747FD08B1FCF700FE10BD0000A4
:10395000003800408C08002000B587B0002003909C
:10396000049005900690019002904FF08040144919
:103970000860472048600021114881604FF6FF71C0
:10398000C160002101618161FEF75AFE08B1FCF7B8
:10399000DDFD4FF48050039003A90948FEF73DFF79
:1039A00008B1FCF7D3FD00200190029001A9044862
:1039B000FEF7F8FD08B1FCF7C9FD07B000BD000037
:1039C000E408002010B50D480D4908604FF4E130BF
:1039D000486000210A488160C16001610C21416199
:1039E00000218161C161FFF7A1F908B1FCF7AEFDCB
:1039F000012204490248FFF75BFA10BD003801407C
:103A0000F40A00202C00002010B50D480D49086074
:103A10004FF4E130486000210A488160C1600161D3
:103A20000C21416100218161C161FFF77FF908B17B
:103A3000FCF78CFD012204490248FFF739FA10BD5A
:103A400000440040380B00202C00002000BFFEE79F
:103A5000FEF7D4F800BFFEE718B10121034A116058
:103A600003E04FF48031014A11607047100C0140AF
:103A700010B54FF020401B4908601B4848600120EA
:103A80001A490860002048600F2088600020C86044
:103A900008614861886116490860486003208860B1
:103AA0000020C86008614861886106200D4988606F
:103AB00000210C48C1600161102141610021816138
:103AC000C16141624FF4805181620021C1624FF4B3
:103AD00080410163002141638163054A0349FEF788
:103AE00027FD10BDB4340020040100A0FC340020E8
:103AF0001835002000B585B000BF3648806940F019
:103B00002000344988610846806900F02000009058
:103B100000BF00BF00BF0846806940F040008861D8
:103B20000846806900F04000009000BF00BF00BF61
:103B30000846806940F0800088610846806900F08E
:103B40008000009000BF00BF00BF0846806940F4BD
:103B5000807088610846806900F48070009000BF22
:103B600000BF00BF0846406940F4807048610846C5
:103B7000406900F48070009000BF00BF01200290F7
:103B80000390032004904020019001A91248FDF702
:103B9000C7FA4FF40060019001A90F48FDF7C0FA81
:103BA000022002904CF23370019001A90B48FDF7FE
:103BB000B7FA4FF68470019001A90948FDF7B0FAF1
:103BC0004FF48050019001A90348FDF7A9FA05B010
:103BD00000BD000000100240002001400014014020
:103BE0000018014010B5FFF785FFFFF741FF3220B5
:103BF000FDF738FAFFF76CFC094988800846818890
:103C000008A002F087F800F013F80020FFF724FC6A
:103C10000120FFF721FF4FF6FF70FFF7B7FB10BD44
:103C2000343500204C43442049443A25780D0A009D
:103C300010B555214FF47040FFF728FDAA214FF22F
:103C40000100FFF723FD52214FF20200FFF71EFD96
:103C500008214FF20300FFF719FD01214FF2040084
:103C6000FFF714FD0D214FF43040FFF70FFD0D213C
:103C70004BF20100FFF70AFD0D214BF20200FFF7A6
:103C800005FD34214FF43640FFF700FD34214BF29F
:103C90000160FFF7FBFC34214BF20260FFF7F6FCFA
:103CA0000D214FF43140FFF7F1FC0D214BF20110D3
:103CB000FFF7ECFC0D214BF20210FFF7E7FC34217B
:103CC0004FF43740FFF7E2FC34214BF20170FFF76D
:103CD000DDFC34214BF20270FFF7D8FC00214FF4D9
:103CE0003240FFF7D3FC00214BF20120FFF7CEFC5E
:103CF00000214BF20220FFF7C9FC24214FF4384089
:103D0000FFF7C4FC24214BF60100FFF7BFFC242180
:103D10004BF60200FFF7BAFC01214FF43F40FFF7DA
:103D2000B5FC0F214FF43340FFF7B0FC0F214BF2ED
:103D30000130FFF7ABFC0F214BF20230FFF7A6FC7E
:103D400034214FF43940FFF7A1FC34214BF6011028
:103D5000FFF79CFC34214BF60210FFF797FC08217B
:103D60004FF43540FFF792FC08214BF20150FFF76A
:103D70008DFC08214BF20250FFF788FC03214FF421
:103D80004240FFF783FC24214FF43A40FFF77EFCCA
:103D900024214BF60120FFF779FC24214BF6022069
:103DA000FFF774FC00214FF43C40FFF76FFC7821D3
:103DB0004BF60140FFF76AFC00214BF60240FFF78B
:103DC00065FC00214FF43D40FFF760FC78214BF685
:103DD0000150FFF75BFC00214BF60250FFF756FC49
:103DE00000214FF43E40FFF751FC64214BF6016087
:103DF000FFF74CFC00214FF45140FFF747FC332103
:103E00004DF20110FFF742FC00214DF20210FFF7C6
:103E10003DFC34214DF20310FFF738FC00214DF238
:103E20000410FFF733FC3A214DF20510FFF72EFC8A
:103E300000214DF20610FFF729FC4A214DF2071030
:103E4000FFF724FC00214DF20810FFF71FFC5C2156
:103E50004DF20910FFF71AFC00214DF20A10FFF78E
:103E600015FC81214DF20B10FFF710FC00214DF2E3
:103E70000C10FFF70BFCA6214DF20D10FFF706FC0E
:103E800000214DF20E10FFF701FCE5214DF20F105D
:103E9000FFF7FCFB01214DF21010FFF7F7FB132198
:103EA0004DF21110FFF7F2FB01214DF21210FFF756
:103EB000EDFB54214DF21310FFF7E8FB01214DF209
:103EC0001410FFF7E3FB82214DF21510FFF7DEFB24
:103ED00001214DF21610FFF7D9FBCA214DF2171040
:103EE000FFF7D4FB02214DF21810FFF7CFFB0021A2
:103EF0004DF21910FFF7CAFB02214DF21A10FFF71D
:103F0000C5FB01214DF21B10FFF7C0FB02214DF252
:103F10001C10FFF7BBFB34214DF21D10FFF7B6FB61
:103F200002214DF21E10FFF7B1FB67214DF21F1069
:103F3000FFF7ACFB02214DF22010FFF7A7FB842115
:103F40004DF22110FFF7A2FB02214DF22210FFF7E4
:103F50009DFBA4214DF22310FFF798FB02214DF2A7
:103F60002410FFF793FBB7214DF22510FFF78EFBCE
:103F700002214DF22610FFF789FBCF214DF22710C9
:103F8000FFF784FB02214DF22810FFF77FFBDE21B3
:103F90004DF22910FFF77AFB02214DF22A10FFF7AC
:103FA00075FBF2214DF22B10FFF770FB02214DF251
:103FB0002C10FFF76BFBFE214DF22D10FFF766FB77
:103FC00003214DF22E10FFF761FB10214DF22F104F
:103FD000FFF75CFB03214DF23010FFF757FB332155
:103FE0004DF23110FFF752FB03214DF23210FFF773
:103FF0004DFB6D214DF23310FFF748FB00214FF4CC
:104000005240FFF743FB33214DF20120FFF73EFB07
:1040100000214DF20220FFF739FB34214DF203203D
:10402000FFF734FB00214DF20420FFF72FFB3A216C
:104030004DF20520FFF72AFB00214DF20620FFF785
:1040400025FB4A214DF20720FFF720FB00214DF20E
:104050000820FFF71BFB5C214DF20920FFF716FB40
:1040600000214DF20A20FFF711FB81214DF20B20B8
:10407000FFF70CFB00214DF20C20FFF707FBA621F8
:104080004DF20D20FFF702FB00214DF20E20FFF74D
:10409000FDFAE5214DF20F20FFF7F8FA01214DF26C
:1040A0001020FFF7F3FA13214DF21120FFF7EEFA7B
:1040B00001214DF21220FFF7E9FA54214DF21320AD
:1040C000FFF7E4FA01214DF21420FFF7DFFA822115
:1040D0004DF21520FFF7DAFA01214DF21620FFF715
:1040E000D5FACA214DF21720FFF7D0FA02214DF27E
:1040F0001820FFF7CBFA00214DF21920FFF7C6FA7E
:1041000002214DF21A20FFF7C1FA01214DF21B20C6
:10411000FFF7BCFA02214DF21C20FFF7B7FA342159
:104120004DF21D20FFF7B2FA02214DF21E20FFF7DB
:10413000ADFA67214DF21F20FFF7A8FA02214DF2D8
:104140002020FFF7A3FA84214DF22120FFF79EFAE9
:1041500002214DF22220FFF799FAA4214DF22320EB
:10416000FFF794FA02214DF22420FFF78FFAB721CE
:104170004DF22520FFF78AFA02214DF22620FFF7A3
:1041800085FACF214DF22720FFF780FA02214DF268
:104190002820FFF77BFADE214DF22920FFF776FA7F
:1041A00002214DF22A20FFF771FAF2214DF22B2065
:1041B000FFF76CFA02214DF22C20FFF767FAFE217F
:1041C0004DF22D20FFF762FA03214DF22E20FFF76A
:1041D0005DFA10214DF22F20FFF758FA03214DF21E
:1041E0003020FFF753FA33214DF23120FFF74EFA1A
:1041F00003214DF23220FFF749FA6D214DF23320B1
:10420000FFF744FA00214FF45340FFF73FFA332100
:104210004DF20130FFF73AFA00214DF20230FFF77C
:1042200035FA34214DF20330FFF730FA00214DF218
:104230000430FFF72BFA3A214DF20530FFF726FA4A
:1042400000214DF20630FFF721FA4A214DF20730E6
:10425000FFF71CFA00214DF20830FFF717FA5C2136
:104260004DF20930FFF712FA00214DF20A30FFF744
:104270000DFA81214DF20B30FFF708FA00214DF2C3
:104280000C30FFF703FAA6214DF20D30FFF7FEF9CF
:1042900000214DF20E30FFF7F9F9E5214DF20F3014
:1042A000FFF7F4F901214DF21030FFF7EFF9132178
:1042B0004DF21130FFF7EAF901214DF21230FFF70C
:1042C000E5F954214DF21330FFF7E0F901214DF2E9
:1042D0001430FFF7DBF982214DF21530FFF7D6F9E4
:1042E00001214DF21630FFF7D1F9CA214DF21730F6
:1042F000FFF7CCF902214DF21830FFF7C7F9002182
:104300004DF21930FFF7C2F902214DF21A30FFF7D2
:10431000BDF901214DF21B30FFF7B8F902214DF232
:104320001C30FFF7B3F934214DF21D30FFF7AEF921
:1043300002214DF21E30FFF7A9F967214DF21F301F
:10434000FFF7A4F902214DF22030FFF79FF98421F5
:104350004DF22130FFF79AF902214DF22230FFF79A
:1043600095F9A4214DF22330FFF790F902214DF287
:104370002430FFF78BF9B7214DF22530FFF786F98E
:1043800002214DF22630FFF781F9CF214DF227307F
:10439000FFF77CF902214DF22830FFF777F9DE2193
:1043A0004DF22930FFF772F902214DF22A30FFF762
:1043B0006DF9F2214DF22B30FFF768F902214DF231
:1043C0002C30FFF763F9FE214DF22D30FFF75EF937
:1043D00003214DF22E30FFF759F910214DF22F3005
:1043E000FFF754F903214DF23030FFF74FF9332135
:1043F0004DF23130FFF74AF903214DF23230FFF729
:1044000045F96D214DF23330FFF740F900214FF4AB
:104410005440FFF73BF933214DF20140FFF736F9E5
:1044200000214DF20240FFF731F934214DF20340F3
:10443000FFF72CF900214DF20440FFF727F93A214C
:104440004DF20540FFF722F900214DF20640FFF73B
:104450001DF94A214DF20740FFF718F900214DF2EE
:104460000840FFF713F95C214DF20940FFF70EF900
:1044700000214DF20A40FFF709F981214DF20B406E
:10448000FFF704F900214DF20C40FFF7FFF8A621D9
:104490004DF20D40FFF7FAF800214DF20E40FFF704
:1044A000F5F8E5214DF20F40FFF7F0F801214DF24C
:1044B0001040FFF7EBF813214DF21140FFF7E6F83B
:1044C00001214DF21240FFF7E1F854214DF2134063
:1044D000FFF7DCF801214DF21440FFF7D7F88221F5
:1044E0004DF21540FFF7D2F801214DF21640FFF7CB
:1044F000CDF8CA214DF21740FFF7C8F802214DF25E
:104500001840FFF7C3F800214DF21940FFF7BEF83D
:1045100002214DF21A40FFF7B9F801214DF21B407C
:10452000FFF7B4F802214DF21C40FFF7AFF8342139
:104530004DF21D40FFF7AAF802214DF21E40FFF791
:10454000A5F867214DF21F40FFF7A0F802214DF2B8
:104550002040FFF79BF884214DF22140FFF796F8A9
:1045600002214DF22240FFF791F8A4214DF22340A1
:10457000FFF78CF802214DF22440FFF787F8B721AE
:104580004DF22540FFF782F802214DF22640FFF759
:104590007DF8CF214DF22740FFF778F802214DF248
:1045A0002840FFF773F8DE214DF22940FFF76EF83F
:1045B00002214DF22A40FFF769F8F2214DF22B401B
:1045C000FFF764F802214DF22C40FFF75FF8FE215F
:1045D0004DF22D40FFF75AF803214DF22E40FFF720
:1045E00055F810214DF22F40FFF750F803214DF2FE
:1045F0003040FFF74BF833214DF23140FFF746F8DA
:1046000003214DF23240FFF741F86D214DF2334066
:10461000FFF73CF800214FF45540FFF737F83321FE
:104620004DF20150FFF732F800214DF20250FFF732
:104630002DF834214DF20350FFF728F800214DF2F8
:104640000450FFF723F83A214DF20550FFF71EF80A
:1046500000214DF20650FFF719F84A214DF207509C
:10466000FFF714F800214DF20850FFF70FF85C2116
:104670004DF20950FFF70AF800214DF20A50FFF7FA
:1046800005F881214DF20B50FFF700F800214DF2A3
:104690000C50FEF7FBFFA6214DF20D50FEF7F6FF82
:1046A00000214DF20E50FEF7F1FFE5214DF20F50C3
:1046B000FEF7ECFF01214DF21050FEF7E7FF13214A
:1046C0004DF21150FEF7E2FF01214DF21250FEF7BC
:1046D000DDFF54214DF21350FEF7D8FF01214DF2BA
:1046E0001450FEF7D3FF82214DF21550FEF7CEFF96
:1046F00001214DF21650FEF7C9FFCA214DF21750A5
:10470000FEF7C4FF02214DF21850FEF7BFFF002153
:104710004DF21950FEF7BAFF02214DF21A50FEF782
:10472000B5FF01214DF21B50FEF7B0FF02214DF203
:104730001C50FEF7ABFF34214DF21D50FEF7A6FFD3
:1047400002214DF21E50FEF7A1FF67214DF21F50CE
:10475000FEF79CFF02214DF22050FEF797FF8421C7
:104760004DF22150FEF792FF02214DF22250FEF74A
:104770008DFFA4214DF22350FEF788FF02214DF258
:104780002450FEF783FFB7214DF22550FEF77EFF40
:1047900002214DF22650FEF779FFCF214DF227502E
:1047A000FEF774FF02214DF22850FEF76FFFDE2165
:1047B0004DF22950FEF76AFF02214DF22A50FEF712
:1047C00065FFF2214DF22B50FEF760FF02214DF202
:1047D0002C50FEF75BFFFE214DF22D50FEF756FFE9
:1047E00003214DF22E50FEF751FF10214DF22F50B4
:1047F000FEF74CFF03214DF23050FEF747FF332107
:104800004DF23150FEF742FF03214DF23250FEF7D8
:104810003DFF6D214DF23350FEF738FF00214FF47C
:104820005640FEF733FF33214DF20160FEF72EFFB5
:1048300000214DF20260FEF729FF34214DF20360A2
:10484000FEF724FF00214DF20460FEF71FFF3A211E
:104850004DF20560FEF71AFF00214DF20660FEF7EB
:1048600015FF4A214DF20760FEF710FF00214DF2BF
:104870000860FEF70BFF5C214DF20960FEF706FFB2
:1048800000214DF20A60FEF701FF81214DF20B601D
:10489000FEF7FCFE00214DF20C60FEF7F7FEA621AC
:1048A0004DF20D60FEF7F2FE00214DF20E60FEF7B4
:1048B000EDFEE5214DF20F60FEF7E8FE01214DF21D
:1048C0001060FEF7E3FE13214DF21160FEF7DEFEED
:1048D00001214DF21260FEF7D9FE54214DF2136012
:1048E000FEF7D4FE01214DF21460FEF7CFFE8221C7
:1048F0004DF21560FEF7CAFE01214DF21660FEF77B
:10490000C5FECA214DF21760FEF7C0FE02214DF22E
:104910001860FEF7BBFE00214DF21960FEF7B6FEEF
:1049200002214DF21A60FEF7B1FE01214DF21B602B
:10493000FEF7ACFE02214DF21C60FEF7A7FE34210B
:104940004DF21D60FEF7A2FE02214DF21E60FEF741
:104950009DFE67214DF21F60FEF798FE02214DF289
:104960002060FEF793FE84214DF22160FEF78EFE5B
:1049700002214DF22260FEF789FEA4214DF2236050
:10498000FEF784FE02214DF22460FEF77FFEB72180
:104990004DF22560FEF77AFE02214DF22660FEF709
:1049A00075FECF214DF22760FEF770FE02214DF219
:1049B0002860FEF76BFEDE214DF22960FEF766FEF1
:1049C00002214DF22A60FEF761FEF2214DF22B60CA
:1049D000FEF75CFE02214DF22C60FEF757FEFE2131
:1049E0004DF22D60FEF752FE03214DF22E60FEF7D0
:1049F0004DFE10214DF22F60FEF748FE03214DF2CF
:104A00003060FEF743FE33214DF23160FEF73EFE8B
:104A100003214DF23260FEF739FE6D214DF2336015
:104A2000FEF734FE55214FF47040FEF72FFEAA2109
:104A30004FF20100FEF72AFE52214FF20200FEF76C
:104A400025FE08214FF20300FEF720FE00214FF261
:104A50000400FEF71BFECC214FF43140FEF716FE9A
:104A600000214BF20110FEF711FE05214FF43640F4
:104A7000FEF70CFE70214FF43740FEF707FE702161
:104A80004BF20170FEF702FE01214FF43840FEF7B1
:104A9000FDFD03214BF60100FEF7F8FD03214BF667
:104AA0000200FEF7F3FD03214BF60300FEF7EEFDD7
:104AB00002214FF43C40FEF7E9FD00214BF6014096
:104AC000FEF7E4FD00214BF60240FEF7DFFDD021AA
:104AD0004FF44940FEF7DAFD02214CF60110FEF7D3
:104AE000D5FD50214CF60210FEF7D0FD50214CF6BA
:104AF0000310FEF7CBFD50214CF60410FEF7C6FD67
:104B000000214FF45450FEF7C1FD55214FF4685079
:104B1000FEF7BCFD4FF48850FEF7A8FD0120FCF71E
:104B2000A1FA4FF42450FEF7A1FD10BD2DE9F0438A
:104B300089B006460C461746002E47D1042224A110
:104B40002046FBF7A8FB002839D14FF00408814626
:104B5000042526E0605D2C280BD0605D3B2808D042
:104B6000605D2D2805D0605D3A2802D0605D202868
:104B70000CD104EB0800FBF7A4FB494609F101093D
:104B800003AA42F8210005F1010809E0781EA842B5
:104B900006D104EB0800FBF794FB03A941F82900B8
:104BA0006D1CBD42D6D3DDE90701CDE9000103A8A4
:104BB0000FC800F00BFA002009B0BDE8F0833146C1
:104BC00005A001F0A7F84FF0FF30F5E70020F3E76C
:104BD0005345543A00000000BDE2CEF6C4A3CABD5E
:104BE0002564C6A5C5E4CAA7B0DC0A0070B50446B2
:104BF0000D46002608E02146641C4FF6FF73012293
:104C00000348FEF705FA761CAE42F4D370BD0000EF
:104C1000380B002008B508490968C9084FF47A72B2
:104C2000B1FBF2F14143009100BF00BF00994A1E61
:104C300000920029F9D108BD3C00002010B53D4884
:104C4000007818B900203C49086010BD39488078C8
:104C500001283AD10020384908603648C078392800
:104C600014D008DC07281DD00C2823D0122825D00A
:104C7000282828D106E0492810D0B62816D0FF28C9
:104C800021D11FE000202D4908701DE001202B4993
:104C900088702848401C00F067FB15E00120274978
:104CA000C87011E00120254908710DE00120234959
:104CB000487109E001202149C87105E001201F4920
:104CC000887101E000E000BF2FE01A488078FF28DB
:104CD00003D1002018490860B7E7164880780228F9
:104CE00023D10120144908601248C078222802D03C
:104CF000272818D10BE00F48401C00F0C7FA01200C
:104D00000E49487008468068401C88600CE00948DD
:104D1000401C00F0BBFA0120084948700846806832
:104D2000401C886000E000BF00BF002001490870FF
:104D300001208AE7D43A0020A0010020543B002043
:104D40002DE9F041B2B00646C8216846FBF783FA68
:104D500000203649087000243DE01DF80400D0B959
:104D6000324801780078401C304A107001EB810015
:104D700000EBC101501C00EB410004EB840101EB8E
:104D8000C4012B4A02EB41010A6802604A68426092
:104D90008968816000E01DE0254617E01DF80500E8
:104DA00098B905EB850202EBC502214B03EB4201EA
:104DB00004EB840202EBC40203EB42000C22FBF77B
:104DC0006AFA10B901200DF805006D1C3078A84270
:104DD000E4D800BF641C3078A042BED800271CE095
:104DE000394614A000F096FF4FF000080EE007EBE4
:104DF000870000EBC7020D48401C00EB420010F892
:104E000008100FA000F086FF08F10108B8F10C0FA0
:104E1000EDD30DA000F07EFF7F1C04480078B8425F
:104E2000DED80020307032B0BDE8F081BD35002002
:104E3000603B00205449445B25755D3A000000004A
:104E400025303258200000000D0A000010B521481E
:104E50008078E8B920480078C82819DA1F48007817
:104E60001F4908701D48407848701C488078887039
:104E70001A48C078C87002200871002048710620C6
:104E800088711848886008460EC8174800F03CFC36
:104E900000F054FEFFF7D2FE0E488078012818D1AA
:104EA00000200CE00F49095C0B4A127802EB8203E8
:104EB00003EBC2020C4B03EB42021154401C0C28C2
:104EC000F0D305480078401C0349087000200149D0
:104ED000887010BD543B0020E4000020D00000206A
:104EE000B04F0020C94F0020603B0020014600BFAA
:104EF000080900EB8000420001F00F001044C0B22E
:104F0000704770B504460025FCF7C2FA054607E075
:104F1000FCF7BEFA401BB0F57A7F01D9032070BDC3
:104F20002068406800F020000028F1D02068406828
:104F300040F01000216848600020F0E770B504469A
:104F400000252068406820F0100021684860FCF7C8
:104F50009FFA054607E0FCF79BFA401BB0F57A7F05
:104F600001D9032070BD2068406800F020000028AF
:104F7000F1D00020F6E700B500F0B4F800BD01461E
:104F8000002200230868006A82B20868406A83B27F
:104F900043EA0240704730B5014600220023002456
:104FA00000200D68AD69AAB20D68ED69ACB20D685C
:104FB000AD69ABB29A4205D00D68ED6963F31F4548
:104FC000284601E044EA024030BD00002DE9F047E8
:104FD00004460D4616461F46DDE9088908490C803F
:104FE0004D808E80CF80A1F80880A1F80A900846F5
:104FF00000F054FE8246504600F03AFEBDE8F087CD
:1050000000000020F0B504460B460021002504F501
:10501000FA61032B1BD2C3EBC30000EB031009267C
:10502000B0FBF6F01044001D4618481E06EB900633
:105030006427B0FBF7F0361A481EBF00B0FBF7F04C
:1050400030440726B0FBF6F706FB17051AE0C3EB62
:10505000C30000EB03100926B0FBF6F01044001D5E
:10506000084400EB91006426B1FBF6F6801B4FF478
:10507000C876B1FBF6F63044801E0726B0FBF6F783
:1050800006FB1705E8B2F0BD70B504460D460026D4
:105090002046FFF736FF08B101260AE0280C2168F8
:1050A0000862A8B2216848622046FFF747FF00B1B6
:1050B0000126304670BD70B504460D4600262046D8
:1050C000FFF71FFF08B101260AE0280C216888615C
:1050D000A8B22168C8612046FFF730FF00B1012661
:1050E000304670BD034908680004091D096808447A
:1050F000704700001828004030B501460C79487808
:105100008D7828440D792844C3B2002205E0501D53
:10511000085C1844C3B2501CC2B2A242F7DB601D47
:105120000B54002030BD000070B505460C461646F5
:105130004FF080500F490860032000F04BF8C4F393
:10514000074000F047F8C4F3072000F043F8E0B24E
:1051500000F040F804E0FF2000F03CF828706D1CDF
:10516000301EA6F101018EB2F5D14FF480500149F5
:10517000086070BD100C014010B514481449086057
:1051800008211348C1610021816001214161022190
:105190000161002181620721C1620021C1600162B9
:1051A0004FF400718161002141624FF4827008491F
:1051B00048600846FDF70EF905480068006840F0B1
:1051C000400003490968086010BD00000038004035
:1051D0004435002010B504464FF48050194908604A
:1051E0000AE018490868411E164A116020B90020DB
:1051F00000F02CF8C0B210BD134800688068C0F3FE
:1052000040000028EDD010480068C4604FF4805082
:105210000C4908600AE00B490868411E094A116000
:1052200020B9012000F012F8C0B2E4E70648006897
:10523000806800F001000028EDD003480068C068D5
:10524000C0B2D8E7CC0000204435002010B5044699
:10525000214602A000F05EFD002010BD3C3C2D4622
:105260004C4153482D4552524F522D3E3E205350F3
:105270004920B5C8B4FDB3ACCAB1216572726F7272
:10528000436F6465203D2025640A000070B5054623
:105290002CA000F03FFD00241DE004F10800295C73
:1052A0002A48006800EB800202EBC000284A02EBAB
:1052B00040000C3001552548006800EB800202EBED
:1052C000C000234A02EB40000C30015D21A000F039
:1052D00021FD601CC4B20C2CDFDB1FA000F01AFD06
:1052E0006879C0F1FF001949096801EB810202EBFE
:1052F000C101174A02EB410108761448006800EB2F
:10530000800202EBC000124A02EB4000017E13A0B3
:1053100000F000FD01200D49096801EB810202EB5C
:10532000C1010B4A02EB4101487608480068401C65
:105330000649086008460068C82801D300200860B4
:1053400070BD00004550433A00000000E800002016
:10535000603B0020257820000D0A0000525353497D
:105360003A25640A000000000146002006E000F132
:1053700008028A5C0C4B1A54421CD0B20C28F6DB93
:105380000A790F3A084B1A73002007E000F1140263
:105390008B5C054A0D321354421CD0B2024A127B78
:1053A0008242F3DC70470000BC4F002000BF102198
:1053B0000E48FCF755F8A0B94FF0FF3201210C4818
:1053C000006815F0F3FB00BF10210848FCF748F80F
:1053D0000028F9D04FF0FF3202210548006815F08F
:1053E000E5FB142015F06FFBE1E700000018014019
:1053F0002000002000BF14F0E9FD0A2015F063FB37
:10540000F9E7000000BF4FF4FA7015F05CFB2021B3
:105410000548FCF72DF84FF4FA7015F054FB012005
:1054200002490860EFE70000000C0140E0000020A6
:105430000EB500BF17480078012826D1164917A0DD
:1054400000F068FC1448FAF711FF84B222461249B2
:105450000020FFF76BFB00200E490870FFF78BFD63
:1054600004462146114800F087FB104840890F4947
:1054700009890E4AD288CDE9002102900B48838821
:10548000428801880AA000F045FC0A2015F01BFBA9
:10549000D0E700002E0000202C0900205561727416
:1054A000315F52783A25730D0A0000000000002099
:1054B00025642D25642D25642025643A25643A252C
:1054C000640D0A0086B0022400BF1422124801684D
:1054D000684615F01DFB9DE8070003AB07C3049861
:1054E000012801D101240BE00498022808D10224EC
:1054F0000A48FFF725FC012220210948FBF7C2FFDB
:10550000022C05D0FFF7A2FC20210548FBF7B0FFD5
:10551000012015F0D8FAD8E720000020E400002090
:105520000018014010B500BF502080F31188BFF370
:105530004F8FBFF36F8F00BF17F0B0FB18B14FF064
:1055400080500449086000BF002080F3118800BF2C
:1055500010BD000004ED00E000B595B028210BA8B7
:10556000FAF779FE142106A8FAF775FE18216846A5
:10557000FAF771FE05200B904FF480300C9000205C
:105580000D9001200E900F9002201290C1031391F4
:105590004FF4E01114910BA8FCF740FB08B1FAF7A7
:1055A000D5FF0F20069002200790002008904FF4AE
:1055B0008060099000200A90022106A8FCF7C0F93B
:1055C00008B1FAF7C3FF012000900002019068467D
:1055D000FCF71CF908B1FAF7B9FFFCF777FA15B038
:1055E00000BD704710B50248FDF79CF910BD0000E2
:1055F0007C0B002010B50268204B98420ED0204B47
:1056000098420BD0B0F1804F08D01E4B984205D085
:105610001D4B984202D01D4B984203D122F07002DC
:105620004B681A43154B98420ED0154B98420BD03D
:10563000B0F1804F08D0134B984205D0124B9842DE
:1056400002D0124B984203D122F44072CB681A4325
:1056500022F080034C6943EA040202608B68C36253
:105660000B688362054B984202D0054B984201D1EA
:105670000B6903630123436110BD0000002C01404E
:10568000003401400004004000080040000C0040CD
:1056900030B50C46816821F47F4142EA0325254359
:1056A0002943816030BD0A46816821F0700142F0D3
:1056B000070319438160704730B50B461446026AF0
:1056C000056A25F001050562816921F0F00141EAD2
:1056D000041122F00A021A438161026230BD30B522
:1056E0000B461446056A25F0100505628169026AB9
:1056F00021F4704141EA043122F0A00242EA03128F
:105700008161026230BD00007FB505469DF808004A
:10571000012820D1002406E0295D214A04F10C0073
:105720001154601CC4B20C2CF6DB1D48407900F00B
:10573000F0009DF808100844194948710846FFF721
:10574000DBFC17480079C01DC1B21548FFF74EFABF
:10575000142000F0EBFF9DF80400124948719DF8F9
:10576000050088719DF80600C8719DF80700087251
:105770009DF808004872002088729DF80900C872E0
:10578000002008739DF80A0048730846FFF7B4FC30
:1057900004480079C01DC1B20248FFF727FA7FBD57
:1057A0001C0100203601002010B5FBF7A7F910BD41
:1057B00010B504462046FAF74DFF207810BD70B5AD
:1057C00005466C6A0020E085E0842046FDF786F9F6
:1057D00070BD0168C96821F490710268D1600168E8
:1057E000496921F0010102685161016B012905D16C
:1057F0000168C96821F010010268D160202180F899
:105800003E1000210163704710B504462068C0684F
:1058100020F040002168C860202084F83D00204628
:10582000FDF75FFC002010BDF8B5044694F83E007B
:10583000222869D1A068B0F5805F0CD1206950B9E9
:105840000025A66A20684068C0F308003080A06A7E
:10585000801CA06215E0A56A0026A068B0F5805FF4
:1058600003D0A06828B9206918B92068406828705A
:1058700004E02068406800F07F002870A06A401CA7
:10588000A062E08D401E80B2E085A8BB2068C068A1
:1058900020F020002168C8602068C06820F4807073
:1058A0002168C8602068406920F0010021684861D3
:1058B000202084F83E00206B01281ED100202063A8
:1058C0002068C06820F010002168C8602068006867
:1058D00000F0100010280AD100BF002000902068BE
:1058E0000068009020684068009000BF00BFA18D54
:1058F0002046FDF7F2F803E004E02046FDF7FAFA4F
:105900000020F8BD0020FCE70220FAE770B504464D
:105910002168096921F44051E2681143226811614C
:105920002269A1681143626941EA02052168C968D8
:1059300041F20C62914329432268D1602168496990
:1059400021F44071A2691143226851612D4A2168F6
:10595000914202D1FCF7F8F801E0FCF7E5F800EB22
:10596000C00101EB001162689200B1FBF2F100EBA3
:10597000C00202EB001263689B00B2FBF3F26423E7
:10598000B2FBF3F202EBC20303EB0212A1EB8201C2
:10599000322202EB01116422B1FBF2F101F0F001BD
:1059A00000EBC00202EB001263689B00B2FBF3F253
:1059B0006423B2FBF3F201EB021200EBC00101EB36
:1059C000001163689B00B1FBF3F100EBC00303EB34
:1059D00000136668B600B3FBF6F36426B3FBF6F378
:1059E00003EBC30606EB0313A1EB8301322303EBA6
:1059F00001116423B1FBF3F101F00F01114422689E
:105A0000916070BD0038014010B5034699629A85D7
:105A1000DA8500201864222083F83E0000BF0020B1
:105A200083F83C0000BF1868C06840F480701C68B0
:105A3000E0601868406940F001001C686061186807
:105A4000C06840F020001C68E060002010BD0146E6
:105A500091F83D00212828D18868B0F5805F0BD1EE
:105A6000086948B90A6A1088C0F308000B685860D2
:105A7000086A801C086205E00B6A581C08621878E6
:105A80000B685860C88C401E80B2C88458B908683A
:105A9000C06820F080000B68D8600868C06840F0DB
:105AA00040000B68D860002070470220FCE72DE919
:105AB000F04104460D4617469846069E21E0701CAC
:105AC000F8B12EB1FBF7E4FCA0EB0800B04218D906
:105AD0002068C06820F4D0702168C86020684069E0
