:020000040800F2
:1000000050F90020E1010008B9400008053400085B
:10001000B540000825050008ED6300080000000059
:10002000000000000000000000000000490100087E
:1000300029050008000000008D010008C95C0008C7
:10004000FB010008FB010008FB010008FB010008A0
:10005000FB010008FB010008FB010008FB01000890
:10006000FB010008FB010008FB010008FB01000880
:10007000FB010008FB010008FB010008FB01000870
:10008000FB010008FB010008FB010008FB01000860
:10009000FB010008FB010008FB010008FB01000850
:1000A000FB010008FB010008FB010008FB01000840
:1000B000FB010008FB010008FB010008FB01000830
:1000C000FB010008FB010008FB010008FB01000820
:1000D000FB010008C1620008D1620008FB010008B2
:1000E0003D050008FB010008FB010008FB010008BA
:1000F000FB010008FB010008FB010008FB010008F0
:10010000FB010008FB010008FB010008FB010008DF
:10011000FB010008FB010008FB010008895D0008E5
:10012000FB010008FB010008FB010008FB010008BF
:10013000DFF810D000F048F900480047C5BB0108BF
:10014000AFF3008050F90020224B19680868B0E82E
:10015000F00F80F30988BFF36F8F4FF0000080F33A
:1001600011884EF00D0E7047000000000648006830
:10017000006880F3088862B661B6BFF34F8FBFF3A3
:100180006F8F00DF00BF00BF08ED00E0EFF30980D4
:10019000BFF36F8F0F4B1A6820E9F00F106008B59E
:1001A0004FF0500080F31188BFF34F8FBFF36F8F74
:1001B0001DF0C2FD4FF0000080F31188BDE808403B
:1001C00019680868B0E8F00F80F30988BFF36F8FF3
:1001D000704700BF48000020EFF305807047000023
:1001E0000648804706480047FEE7FEE7FEE7FEE7D1
:1001F000FEE7FEE7FEE7FEE7FEE7FEE7875D0008B5
:1002000031010008202A04DB203A21FA02F0002103
:10021000704721FA02F3D040C2F120029140084316
:100220001946704740EA01039B0703D009E008C95B
:10023000121F08C0042AFAD203E011F8013B00F8AB
:10024000013B521EF9D27047D2B201E000F8012BF7
:10025000491EFBD270470022F6E710B513460A4646
:1002600004461946FFF7F0FF204610BD421E12F863
:10027000013F002BFBD111F8013B02F8013B002BA1
:10028000F9D17047421C10F8011B0029FBD1801ADC
:10029000704710B5002200E0521C835C8C5CA342C6
:1002A00001D1002BF8D1D8B2E1B2401A10BD30B55F
:1002B00004460020034600E05B1C934203D2E05C4E
:1002C000CD5C401BF8D030BD034611F8012B00F87F
:1002D000012B002AF9D11846704770B5064606F082
:1002E0002BF9046805460A220021304600F033F855
:1002F0002C6070BD2DE9F05F0546002092469B46BC
:1003000088460646814640241BE02846414647462B
:100310002246FFF777FF53465A46C01A914110D341
:1003200011461846224600F061F82D1A67EB0108C5
:100330004F4622460120002100F058F817EB000933
:100340004E41201EA4F10104DFDC484631462A4616
:100350004346BDE8F09F2DE9F04791460F468046A1
:100360000446002614F8015B2DB100F04FF8006838
:10037000405DC007F6D12B2D02D02D2D18D0641E64
:100380004A463946204600F045F827B13968A1426F
:1003900001D1C7F8008071054FF002040BD540422F
:1003A000002803DD06F0C8F80460A007BDE8F08768
:1003B00046F48066E4E70028F8DA06F0BDF8046049
:1003C0006FF00040F2E70000064C074D06E0E068E1
:1003D00040F0010394E8070098471034AC42F6D38C
:1003E000FFF7AAFE344C0308544C0308202A04DB10
:1003F000203A00FA02F1002070479140C2F1200338
:1004000020FA03F3194390407047000000487047FA
:10041000704903082DE9F05F8246007800271546F1
:100420008B460AF10104B946302801D09DB113E092
:1004300014F8010B0127782803D0582801D045B1C2
:100440000AE00DB1102D07D10027102514F8010B7B
:1004500002E0082500E00A250026B0460EE005FB74
:10046000080005FB06F1012701EB10461FFA80F892
:10047000B6F5803F00D3B94614F8010B294600F0C9
:1004800018F80028EBDABBF1000F05D00FB1641E9D
:1004900000E05446CBF80040B9F1000F06D006F05A
:1004A0004BF802210160C81EBDE8F09F48EA0640F3
:1004B000FAE73A2800D2303820F02002412A01D34E
:1004C000A2F13700884201D34FF0FF30704770B57A
:1004D0008C1810F8015B15F0070301D110F8013BEF
:1004E0002A1106D110F8012B03E010F8016B01F876
:1004F000016B5B1EF9D12B0705D40023521E0DD4CE
:1005000001F8013BFAE710F8013BCB1A921C03E01B
:1005100013F8015B01F8015B521EF9D5A142D8D353
:10052000002070BD00BFFEE7704701B502E00098F3
:10053000401E009000980028F9D108BD10B507486A
:10054000006800F4806038B12021054801F020F9EE
:100550004FF480600149086010BD000014040140A0
:100560000018014072B600BFFEE700000021074AF4
:10057000D1610749096941F00401054A1161114639
:10058000096941F04001116170470000200C002012
:10059000002002400021074AD1610749096941F062
:1005A0000201054A116111464861096941F04001A3
:1005B00011617047200C0020002002400022054BF2
:1005C000DA61054A126942F00102034B1A610180A7
:1005D00070470000200C00200020024000201E492F
:1005E000C96801F0100139B11C49C96941F0020123
:1005F0001A4AD16140F010001749C96801F004019E
:1006000039B11649C96941F00101144AD16140F07C
:1006100004001149C96901F0010169B10F49C969B3
:1006200041F004010D4AD16100BF0B49C96921F0B5
:100630000101094AD16100BF00BF40F201118842A7
:1006400006D10549C96921F00101034AD16101E0E0
:100650000149C86000BF704700200240200C002004
:1006600070B5044601F0A4F8054609E0601C38B1F5
:1006700024B101F09DF8401BA04201D9032070BDB8
:100680001248C06800F001000028EFD10F48C06890
:1006900000F0200020B100BF20200C49C86000BF3E
:1006A0000A48C06800F0100048B90848C06900F066
:1006B000010020B90548C06800F0040018B1FFF738
:1006C0008DFF0120DBE70020D9E700000020024079
:1006D00070B50446B3F5804F13D1D1E9000540EA67
:1006E00005108D6840EA05208D6928438D8940EA10
:1006F000054054F82250064E3540284344F8220065
:1007000003E06FF0704044F82200002070BD00004C
:100710000000F0CF70B50246086852F8200020F0C3
:1007200001000E6842F826008868082801D140239D
:1007300000E00023486818438E683043CE68304399
:100740000E6930434E693043CE6930430E6A304300
:100750004E6A30438E6A3043CE6A30430E6B40EAB5
:10076000060488690443486B0443074D45F48065DB
:1007700045F4E025086852F82000A84320430E689D
:1007800042F82600002070BD7FFB080010B503462C
:10079000D1E9000440EA04108C6840EA04208C8906
:1007A00040EA0444088A401E44EA0054087D801E42
:1007B00044EA00608C692043541C53F8244004F040
:1007C00040442043541C43F82400002010BD000086
:1007D0002DE9F04F99B007465EA0006818902821D7
:1007E0000EA8FFF738FD5C4800680D900024A04675
:1007F000BA200C9000264FF0000A4FF0000B0020AA
:100800000B900A9000254FF0FF3900BF00BF0C226B
:100810000DA90C9800F06CF98146B9F1000F06DAC9
:1008200049464EA005F048FE19B0BDE8F08F9DF88E
:100830003680B8F1000F00D1F6E708F0800000B96B
:1008400079E008F00F04052C00DD74E0012C17DDC1
:10085000242101A8FFF7FFFC3F48001D006800901D
:10086000601EC000821C69460C9800F041F9814668
:10087000601EC2000DF1020110A8FFF7D3FC00BFFB
:1008800042480088A04221DD00251BE0002015E041
:10089000032101EBC0010DAA8E18317801F00F0180
:1008A0000A913B494A5D0A998A4200D108E0611EDB
:1008B000814201DC00213970411CC8B2A042E7DB53
:1008C00000BF6D1C314800888542DFDB24B3002562
:1008D0001FE0032000EBC5000DA94618307800F09A
:1008E0000F000A902A490A9848557078B17840EA72
:1008F000012AF078317940EA012B7079B17940EA28
:1009000001200B9001203870A7F802A0A7F804B0CE
:100910006D1CA542DDDB0BE01C48008840B10025C2
:1009200002E0002038706D1C184800888542F8DB12
:100930001648048000BF032218A90C9800F068F93B
:100940008146B9F1000F02DA12A005F0B5FD00BF33
:100950006AE70000814E0000B0ED01083C3C2D47E5
:1009600054502D4552524F522D3E3E204932432085
:100970007472616E73666572206572726F722E207A
:100980006572726E6F3A25640A200A00CC0000205E
:10099000CE0000203C3C2D4754502D494E464F2D53
:1009A0003E3E2049324320777269746520656E644B
:1009B0005F636D64206572726F72210A000000002F
:1009C000FEB5002000900190029000243748007886
:1009D00000EB4000364931F810503448007800EB05
:1009E000400001EB4000468800273048007800EBCB
:1009F000400001EB40008088401C000A8DF8000098
:100A00002A48007800EB400001EB40000079401CD0
:100A1000C0B28DF801000A226946BA2000F068F8D9
:100A20000446002C01DA0020FEBD9DF802009DF86E
:100A3000031000EB012085B29DF804009DF805101D
:100A400000EB012086B200BF00BF00BF684600BFB8
:100A50001648007800EB4000154901EB4000808803
:100A6000801D000A8DF800001048007800EB40005F
:100A700001EB40000079801DC0B28DF80100032217
:100A80006946BA2000F034F80446002C01DA002050
:100A9000CAE79DF8070000F003073B4632462946A7
:100AA00004A005F009FD0120BEE70000AE00002013
:100AB00098EC01083C3C2D4754502D494E464F2D93
:100AC0003E3E20585F4D4158203D2025642C205942
:100AD0005F4D4158203D2025642C20545249474702
:100AE0004552203D203078253032780A0000000041
:100AF0002DE9F04186B005460C4616464FF0FF370B
:100B00004FF0000800BF00BF0020ADF802008DF8D4
:100B100000500220ADF8040002940121ADF80E103F
:100B20008DF80C50B01E81B2ADF81010A01C0590CD
:100B300009E00221684602F047FD0746022F00D176
:100B400004E008F10108B8F1050FF2DB00BFB8F1CD
:100B5000050F08DB6078237840EA0321B21E3B468C
:100B6000034805F0A9FC384606B0BDE8F081000056
:100B7000C049030838B5002000901748007800EB02
:100B80004000164901EB4000808800128DF80000FB
:100B90001148007800EB400001EB400000798DF82F
:100BA000010000256C1E00BF00BF0DE00322694656
:100BB000BA20FFF79DFF44B2002C01DD204638BD6E
:100BC000294607A005F078FC2846691CCDB2052807
:100BD000ECDB2046F3E70000AE00002098EC0108B3
:100BE0003C3C2D4754502D4552524F522D3E3E20F5
:100BF00047545020693263207465737420666169BC
:100C00006C65642074696D652025642E0A000000FF
:100C10002DE9FE4380460C4615464FF0FF3600276F
:100C200000BF00BF0020ADF802008DF80080A8B220
:100C3000ADF80400029408E00121684602F0C4FC0B
:100C40000646012E00D102E07F1C052FF4DB00BF19
:100C5000052F08DB6078237840EA0321AA1E33467B
:100C6000024805F029FC3046BDE8FE83104A03081F
:100C700000BF00BF704700002DE9F04FCDB04FF02E
:100C8000FF390027B846BB46002500BF00BF02F071
:100C900093FCFFF76FFF8146B9F1000F06DA5DA004
:100CA00005F00AFC48464DB0BDE8F08F00F0F4F8BE
:100CB0004FF481701AF0D2FF04462CB960A005F001
:100CC000FBFB4FF0FF30EEE76548007800EB40009B
:100CD000644901EB40008088001220706048007871
:100CE00000EB400001EB4000007960705C48007848
:100CF00018B95D484C904FF0EF0A4FF48071A01C7A
:100D0000FFF7A9FA5246A01C4C99FFF78BFA5546FB
:100D100000BF00BF00BF00BF00BF204600BF2020B3
:100D2000E07003202071E02060710120A071207A22
:100D300020F0080020724FF0000849480078E0B920
:100D4000022708E0781C205CE15D00EB01204044B4
:100D50001FFA80F8BF1C681EB842F3DCC8F100001F
:100D60001FFA80F800BF00BF4FEA1821681E215407
:100D700004F805800121681C21544FF0000B0BE0A2
:100D80002A1D2146BA20FFF743FF8146B9F1000F23
:100D900000DD04E00BF1010BBBF1050FF0DB00BF40
:100DA0003248FFF7C2FB20788DF8040060788DF898
:100DB000050000BF00BF4FF4967201A9BA20FFF7EB
:100DC00097FE814600BF00BF00BF01A800BF00BF63
:100DD00000BF00BF204600BF03260AE0A05D01A9B6
:100DE000895D884203D0314621A005F065FB701C67
:100DF00086B2681EB042F1DCB04201D100BF00BF34
:100E0000204606F017FCFFF733FFFFF7D9FD00205F
:100E100049E700003C3C2D4754502D4552524F525B
:100E20002D3E3E2049324320636F6D6D756E6963C0
:100E30006174696F6E204552524F52210A000000C2
:100E40003C3C2D4754502D4552524F522D3E3E2092
:100E50006D616C6C6F63206661696C2021200A00F3
:100E6000AE00002098EC0108A8EB0108FFFF0F007E
:100E70003C3C2D4754502D4552524F522D3E3E2062
:100E8000436F6E666967206661696C202120692066
:100E90003D202564200A000010B586B04FF0FF34D5
:100EA000284903C9CDE9040100BF00BF082204A9F5
:100EB000BA20FFF71DFE0446002C05DA22A005F03B
:100EC000FBFA204606B010BD9DF81400342825D149
:100ED0009DF816009DF817109DF81520CDE900210A
:100EE00002909DF814309DF813209DF8121021A057
:100EF00005F0E2FA9DF81200392821D19DF813007F
:100F000031281DD19DF81400372819D19DF81500FE
:100F1000532815D100202349087011E09DF81600D0
:100F20009DF817109DF81520CDE9002102909DF83D
:100F300014309DF813209DF812101BA005F0BCFA88
:100F40002046BFE77CED01083C3C2D4754502D4521
:100F500052524F522D3E3E204754502072656164DC
:100F60002076657273696F6E206661696C65640ACC
:100F7000000000003C3C2D4754502D494E464F2D5B
:100F80003E3E204943322056657273696F6E3A20A7
:100F900025632563256325635F253032782530324C
:100FA000780A0000AE0000203C3C2D4754502D49EB
:100FB0004E464F2D3E3E20556E6B6E6F776E20492C
:100FC000432056657273696F6E3A20256325632549
:100FD0006325635F25303278253032780A000000BF
:100FE0000146002291F82100022808D004208863DD
:100FF00000BF002081F8200000BF01207047086872
:10100000006820F00E000B6818600868006820F087
:1010100001000B68186091F8403001209840CB6BBC
:101020005860012081F8210000BF002081F82000D5
:1010300000BF1046E2E7000070B50446002594F8B2
:101040002100022803D00420A0630125C1E020680C
:10105000006820F00E00216808602068006820F019
:101060000100216808605C492068884252D95A49C9
:1010700078392068884201D1012047E05649643917
:101080002068884201D1102040E05349503920683F
:10109000884201D1801539E04F493C3920688842A7
:1010A00001D1801432E04C4928392068884202D1AD
:1010B0004FF480302AE0484914392068884202D130
:1010C0004FF4801022E044492068884201D1400456
:1010D0001CE042492068884201D1012016E03F49C6
:1010E00014312068884201D110200FE03B4928319B
:1010F0002068884201D1801508E038493C312068D9
:10110000884201D1801401E04FF480303349091F37
:10111000086051E0304978392068884201D10120C7
:1011200047E02D4964392068884201D1102040E011
:10113000294950392068884201D1801539E0264973
:101140003C392068884201D1801432E02249283994
:101150002068884202D14FF480302AE01E491439B9
:101160002068884202D14FF4801022E01A4920689A
:10117000884201D140041CE018492068884201D10E
:10118000012016E0154914312068884201D1102051
:101190000FE0124928312068884201D1801508E00B
:1011A0000E493C312068884201D1801401E04FF49F
:1011B0008030094980394860012084F8210000BF4F
:1011C000002084F8200000BF606B10B12046616BE6
:1011D0008847284670BD0000800002400804024095
:1011E00070B5044600F0E4FA06462546681C10B1C6
:1011F00004480078054400BF00F0DAFA801BA842DA
:10120000FAD370BD400000202DE9F04104460E469F
:101210000127002500BF2648007E012802D10220B8
:10122000BDE8F08101202249087600BF206802282D
:1012300013D14CF25030FFF713FA90BB0120FFF7A7
:1012400095F94CF25030FFF70BFA07461948006940
:1012500020F004001749086123E04CF25030FFF7FA
:10126000FFF9F0B94FF0FF303060A56812E0284672
:10127000FFF790F94CF25030FFF7F2F907460D48AE
:10128000006920F002000B4908610FB1356007E0EA
:1012900005F50065D4E9021001EBC020A842E6D8AC
:1012A00000BF00BF00200249087600BF3846B7E7FC
:1012B000200C0020002002400348006940F080001C
:1012C0000149086100207047002002402DE9FE4FCF
:1012D00005468B46174698460126002400200290BA
:1012E00000BF2448007E012802D10220BDE8FE8F05
:1012F00001202049087600BF4CF25030FFF7B0F9CA
:10130000064686BB012D02D10120029006E0022D87
:1013100002D10220029001E00420029000241EE08D
:101320002201B946C24648465146FEF76BFF80B2DD
:101330000190022000FB04B000900199FFF73EF9F4
:101340004CF25030FFF78CF906460B48006920F04C
:1013500001000949086106B104E0601CC4B20298AA
:101360008442DDDB00BF00BF00200249087600BFD9
:101370003046BBE7200C0020002002400020084936
:10138000096901F0800151B10649054A51600649D9
:1013900051601146096901F0800101B101207047D7
:1013A0000020024023016745AB89EFCD00B585B031
:1013B000002001900290039004901C48006808B13E
:1013C00005B000BD01201949086000BF18484069F8
:1013D00040F48070164948610846406900F4807006
:1013E000009000BF00BF41F2010001900220029076
:1013F0000320049001A90F4800F022F84FF68070F6
:101400000190022002900320049001A90A4800F0F4
:1014100017F84CF2337001900220029003200490E0
:1014200001A9064800F00CF800BFC9E72C00002015
:10143000001002400020014000180140001401404B
:101440002DE9F847024600239C467BE14FF0010856
:1014500008FA03F4D1F8008008EA0400A0427DD124
:10146000DFF8F4A2D1F80480A8EB0A09D0453AD0FD
:1014700014DCB8F1030F50D009DCB8F1000F31D003
:10148000B8F1010F1CD0B8F1020F49D120E0B8F13A
:10149000110F18D0B8F1120F42D11EE0B9F5881F14
:1014A00025D006DCB9F5803F20D0B9F5801F37D1B3
:1014B0001AE0B9F5001F18D0B9F5041F30D117E0B4
:1014C000D1F80CC02DE0D1F80C8008F1040C28E014
:1014D000D1F80C8008F1080C23E0D1F80C8008F159
:1014E0000C0C1EE000BF00BF00BF00BF00BF00BF6C
:1014F000D1F80880B8F1000F02D14FF0040C0BE0D6
:10150000D1F80880B8F1010F03D14FF0080C146135
:1015100002E04FF0080C546103E04FF0000C00E0D3
:1015200000BF00BFFF2801D8904601E002F1040887
:101530004646FF2802D84FEA830803E0A3F10808D3
:101540004FEA88084746D6F800804FF00F0909FA9D
:1015500007F928EA09080CFA07F900E07AE048EAF6
:101560000908C6F80080D1F8048008F08058B8F166
:10157000805F6FD100BFDFF8E481D8F8188048F0B1
:101580000108DFF8D891C9F81880C846D8F8188043
:1015900008F00108CDF8008000BF00BF4FEAB9385D
:1015A0004FEA930958F829504FEA83784FEA18799F
:1015B0004FF00F0808FA09F825EA0805DFF8A081BE
:1015C000424502D14FF0000824E0DFF898814245FF
:1015D00002D14FF001081DE0DFF88C81424502D1B5
:1015E0004FF0020816E0DFF88481424502D14FF047
:1015F00003080FE0DFF87881424502D14FF004087C
:1016000008E0DFF87081424502D14FF0050801E0A3
:101610004FF006084FEA83794FEA197908FA09F87A
:1016200048EA0505DFF850814FEA930948F8295048
:10163000D1F8048008F48038B8F5803F0BD1DFF88A
:101640003C81D8F8008048EA0008DFF83091C9F8FA
:1016500000800AE075E0DFF82481D8F8008028EAED
:101660000008DFF81891C9F80080D1F8048008F468
:101670000038B8F5003F0ED1DFF8008108F104080A
:10168000D8F8008048EA0008DFF8F09009F1040972
:10169000C9F800800DE0DFF8E48008F10408D8F80C
:1016A000008028EA0008DFF8D49009F10409C9F89D
:1016B0000080D1F8048008F48018B8F5801F0ED19E
:1016C000DFF8B88008F10808D8F8008048EA000878
:1016D000DFF8A89009F10809C9F800800DE0DFF8EB
:1016E0009C8008F10808D8F8008028EA0008DFF894
:1016F0008C9009F10809C9F80080D1F8048008F439
:101700000018B8F5001F0ED1DFF8708008F10C0842
:10171000D8F8008048EA0008DFF8609009F10C0969
:10172000C9F800800DE0DFF8548008F10C08D8F803
:10173000008028EA0008DFF8449009F10C09C9F894
:1017400000805B1CD1F8008028FA03F8B8F1000F84
:101750007FF47CAEBDE8F887000011100010024055
:1017600000080140000C014000100140001401403D
:1017700000180140001C0140080001400004014025
:10178000024693680B400BB1012000E00020704737
:1017900010B5C26821EA020302EA010443EA0443E5
:1017A000036110BD0AB1016101E00B0403617047E0
:1017B00001480068704700003800002003480068B6
:1017C000034909780844014908607047380000203F
:1017D0004000002010B50848006840F0100006499D
:1017E0000860032000F0EEF80F2000F007F800F08A
:1017F00049F8002010BD00000020024070B588B0FC
:1018000004460025002600222146372000F09CF8DF
:10181000372000F089F800BF1648C06940F020006A
:101820001449C8610846C06900F02000019000BF5B
:1018300000BF02A903A800F0DFFA00F005FB450095
:101840000D48B5FBF0F0461E0C480D49086040F20B
:10185000E7310B48C160466000210161816001F001
:101860007FF820B9064801F007F908B070BD0120E3
:10187000FBE700000010024040420F00001400404F
:10188000D80B002008B500BF1448806940F0010063
:10189000124988610846806900F00100009000BF8D
:1018A00000BF00BF0846C06940F08050C8610846CC
:1018B000C06900F08050009000BF00BF00220F21DF
:1018C000901E00F041F800BF0549486820F0E06034
:1018D00040F00070486000BF08BD000000100240EA
:1018E0000000014010B501460846002817DB00F053
:1018F0001F0301229A400B4B440943F8242000BFE8
:1019000000BF00BFBFF34F8F00BF00BF00BF00BFCD
:1019100000BF00BFBFF36F8F00BF00BF00BF00BF9D
:1019200010BD000080E100E001460846002809DB08
:1019300000F01F0301229A4043099B0003F1E023BA
:10194000C3F8002100BF70472DE9F05F80460D46C7
:101950001646002704F0D4FD074639462A4633468A
:1019600001F00700C0F1070ABAF1040F02D94FF0E5
:10197000040A01E0C0F1070AD14600F1040ABAF1F5
:10198000070F02D24FF0000A01E0A0F1030AD4468B
:101990004FF0010A0AFA09FAAAF1010A0AEA020A50
:1019A0000AFA0CFA4FF0010B0BFA0CFBABF1010B2E
:1019B0000BEA030B4AEA0B042146404604F0A8FD5B
:1019C000BDE8F09F00BF00F00702064B19684FF614
:1019D000FF031940044B0B4343EA0221014B1960FA
:1019E00000BF70470CED00E00000FA05012001493E
:1019F0000862704700000E422DE9F04385B00646AC
:101A000042A30FCB01AC0FC444A0006800904FF07C
:101A10000008002500270024A146042E36D004DC4F
:101A2000012E3BD0022E6BD15FE0082E32D0102E5B
:101A300066D13B484468006800F0807000B301A89C
:101A4000C4F38341475C04F4803070B1344840688B
:101A5000C0F340401DF8008004F4803040B13148AC
:101A6000B0FBF8F000FB07F502E02F4807FB00F59C
:101A70002B48406800F48000B0F5800F01D1A946E2
:101A800003E068000321B0FBF1F93AE000F0FCF953
:101A9000814636E000F0F8F9814632E02048046AD9
:101AA00004F44070B0F5807F05D104F0020010B15D
:101AB0004FF4004918E004F44070B0F5007F07D1FE
:101AC0001748406A00F0020010B149F640490BE0A7
:101AD00004F44070B0F5407F06D11148006800F46E
:101AE000003008B14FF224490BE000F0BDF90C4979
:101AF0004968C1F38131491C4900B0FBF1F900E0AC
:101B000000BF00BF484605B0BDE8F08302030405EE
:101B1000060708090A0B0C0D0E0F10100102000039
:101B20000010024000127A0000093D00F8B504469A
:101B300000260025207800F0010000286BD0002747
:101B40004348C06900F0805070B900BF4048C06988
:101B500040F080503E49C8610846C06900F080509E
:101B6000009000BF00BF01273A48006800F4807071
:101B7000B0B93848006840F4807036490860FFF713
:101B800017FE064606E0FFF713FE801B642801D906
:101B90000320F8BD2F48006800F480700028F2D0C0
:101BA0002B48006A00F440752DB3A08800F4407003
:101BB000A84220D02648006A20F44075012026491A
:101BC0000860002008602248056205F0010090B11D
:101BD000FFF7EEFD064608E0FFF7EAFD801B41F245
:101BE0008831884201D90320D3E71948006A00F000
:101BF00002000028F0D01648006A20F440706168A6
:101C0000084313490862012F04D10846C06920F037
:101C10008050C86100BF207800F00200022807D180
:101C20000B48406820F44040A168084308494860D8
:101C3000207800F01000102807D10548406820F4F3
:101C4000800061690843024948600020A1E7000064
:101C50000010024000700040400442427047000003
:101C600070B504460D460CB9012070BD5A48006895
:101C700000F00700A8420ED25748006820F0070085
:101C80002843554908600846006800F00700A8424C
:101C900001D00120E9E7207800F0020002281DD1E0
:101CA000207800F00400042805D14C48406840F436
:101CB000E0604A494860207800F00800082805D113
:101CC0004648406840F46050444948604348406892
:101CD00020F0F000A168084340494860207800F0F7
:101CE000010078B36068012806D13C48006800F420
:101CF000003090B90120B8E76068022806D1374863
:101D0000006800F0007040B90120AEE73348006879
:101D100000F0020008B90120A7E73048406820F031
:101D20000300616808432D494860FFF741FD0646FE
:101D300009E0FFF73DFD801B41F28831884202D95E
:101D4000032092E707E02548406800F00C00616836
:101D5000B0EB810FEDD12048006800F00700A842E9
:101D60000ED91D48006820F0070028431A49086072
:101D70000846006800F00700A84201D0012074E77F
:101D8000207800F00400042807D11448406820F4AB
:101D9000E060E168084311494860207800F00800DD
:101DA000082808D10D48406820F46050216940EAB5
:101DB000C1000A49486000F067F808494968C1F362
:101DC0000311074A515CC84006490860064800688C
:101DD000FFF714FD002048E70020024000100240F9
:101DE00090EB0108440000203C0000200120014944
:101DF000C8647047000042420F2202600D4A5268D8
:101E000002F0030242600B4A526802F0F002826064
:101E1000084A526802F4E062C260064A526802F45C
:101E20006052D2080261044A126802F007020A6096
:101E30007047000000100240002002400148006886
:101E4000704700004400002000B5FFF7F7FF044989
:101E50004968C1F30221034A515CC84000BD00003B
:101E600000100240A0EB010800B5FFF7E7FF0449AE
:101E70004968C1F3C221034A515CC84000BD00005B
:101E800000100240A0EB0108F0B585B00FF26C0C19
:101E90009CE8E01001A8A0E8E0101CA52D680095C2
:101EA00000210022002300240020194D696801F060
:101EB0000C05F5B1042D02D0082D19D101E015480B
:101EC00019E001ADC1F38346AC5D01F4803555B135
:101ED0000F4D6D68C5F340451DF805200D4D654358
:101EE000B5FBF2F302E00C4D04FB05F3184602E0EB
:101EF00000BF084800BF00BF05B0F0BD02030405E5
:101F0000060708090A0B0C0D0E0F10100102000045
:101F10000010024000127A0000093D0010B506488A
:101F2000806800F08000802804D1FFF797FE8020B1
:101F30000149887210BD000000100240F8B5044647
:101F40000CB90120F8BD207800F00100002878D0FD
:101F5000F848406800F00C0004280CD0F5484068B0
:101F600000F00C00082811D1F248406800F48030DD
:101F7000B0F5803F0AD1EF48006800F40030002837
:101F80005FD0606800285CD10120DBE700BF60689B
:101F9000B0F5803F06D1E748006840F48030E5495D
:101FA000086028E0606858B9E248006820F4803092
:101FB000E04908600846006820F4802008601AE0C4
:101FC0006068B0F5A02F0BD1DA48006840F480209B
:101FD000D84908600846006840F4803008600AE08C
:101FE000D448006820F48030D24908600846006870
:101FF00020F48020086000BF606888B1FFF7D8FB3C
:10200000054606E0FFF7D4FB401B642801D90320F6
:1020100098E7C848006800F400300028F2D010E0CB
:10202000FFF7C6FB054606E0FFF7C2FB401B64282E
:1020300001D9032086E7BF48006800F4003000287B
:10204000F2D1207800F00200022857D1B948406848
:1020500000F00C0050B1B748406800F00C000828B0
:1020600018D1B448406800F4803098B9B14800688D
:1020700000F0020020B12069012801D0012061E7B1
:10208000AC48006820F0F800616940EAC100A94945
:10209000086033E02069E8B10120A7490860FFF734
:1020A00087FB054606E0FFF783FB401B022801D9AA
:1020B000032047E79F48006800F002000028F2D0A4
:1020C0009C48006820F0F800616940EAC100994925
:1020D000086013E0002098490860FFF769FB054697
:1020E00006E0FFF765FB401B022801D9032029E722
:1020F0009048006800F002000028F2D1207800F03B
:10210000080008282DD1A069B8B101208B490860CA
:10211000FFF74EFB054606E0FFF74AFB401B02288F
:1021200001D903200EE78348406A00F0020000282E
:10213000F2D0012003F0A2F813E000207F490860EC
:10214000FFF736FB054606E0FFF732FB401B02288F
:1021500001D90320F6E67748406A00F00200002823
:10216000F2D1207800F00400042873D100277148D0
:10217000C06900F0805070B900BF6E48C06940F07F
:1021800080506C49C8610846C06900F080500090DA
:1021900000BF00BF01276A48006800F48070B0B932
:1021A0006748006840F4807065490860FFF700FBED
:1021B000054606E0FFF7FCFA401B642801D903201E
:1021C000C0E65F48006800F480700028F2D000BFCD
:1021D000E068012806D15748006A40F001005549DF
:1021E000086227E0E06858B95248006A20F0010010
:1021F000504908620846006A20F00400086219E0AD
:10220000E06805280BD14B48006A40F004004949BA
:1022100008620846006A40F0010008620AE045488A
:10222000006A20F00100434908620846006A20F075
:102230000400086200BFE068A0B1FFF7B9FA0546E4
:1022400009E0FFF7B5FA401B41F28831884202D914
:10225000032077E622E03748006A00F002000028F9
:10226000EFD012E0FFF7A4FA054608E0FFF7A0FA66
:10227000401B41F28831884201D9032062E62D4893
:10228000006A00F002000028F0D1012F05D1294892
:10229000C06920F080502749C86100BFE069C8B319
:1022A0002448406800F00C00082860D0E06902284B
:1022B00048D1002020490866FFF77AFA054606E073
:1022C000FFF776FA401B022801D903203AE61948A5
:1022D000006800F000700028F2D1206AB0F5803F5D
:1022E00007D11448406820F40030A1680843114920
:1022F0004860D4E9080108430E49496821F4741183
:1023000008430C49486001200B490866FFF750FA62
:10231000054607E03DE0FFF74BFA401B022801D9D4
:1023200003200FE60348006800F000700028F2D098
:102330002FE00000001002400000424280044242B0
:1023400000700040002014490866FFF731FA054686
:1023500006E0FFF72DFA401B022801D90320F1E522
:102360000E48006800F000700028F2D111E0E0692A
:10237000012800D1E6E50948466806F48031206A64
:10238000814204D106F47011606A814201D00120BB
:10239000D8E50020D6E500000000424200100240CF
:1023A00010B5034600220020024A02EB81021468A5
:1023B000A0B210BD006C004010B5034600200348D9
:1023C00000EB810094B2046010BD0000006C00407E
:1023D00070B5044600250CB9012070BD607C20B9A1
:1023E00000202074204600F05BF802206074204634
:1023F00000F060F918B1042060740120EDE7204678
:1024000003F0B3F818B1042060740120E5E72068F8
:10241000406820F0070021684860A06828B11F4884
:10242000006820F001001D4908601C48001F00687A
:1024300020F46070A16808431849091F08606068AB
:10244000401C08B1656809E00120FFF7D5FA054690
:102450001DB9042060740120BFE76D1E20688068EC
:1024600020F00F0040EA1540216888602068C068AD
:1024700065F30F002168C860204603F093F818B197
:10248000042060740120A8E70021E1730121617339
:10249000A1730120607400209FE70000306C0040B1
:1024A00038B504460B492068884212D1FFF79EFADE
:1024B00000BF0948C06940F000600749C86108468C
:1024C000C06900F00060009000BF00BF0120034918
:1024D000086038BD00280040001002403C04424221
:1024E0002DE9F04704460D46904600260027B146E8
:1024F00004B115B90120BDE8F08700BF207C012898
:1025000001D10220F7E70120207400BF022060748F
:10251000B8F1000F06D1E978E17369786173A978A1
:10252000A1730BE0E87803F015F8E073687803F026
:1025300011F86073A87803F00DF8A073A27B617B9B
:10254000E07B03F093F82073207B2870204603F093
:1025500056F806464FF46160B6FBF0F9B9F1180F72
:102560002FD91820B9FBF0F000EB4000C000C0EB01
:102570004011C1EB0020A6EB00163146204603F0C7
:10258000CEF838B10420607400BF0020207400BF72
:102590000120B0E7204603F026F80746781C80B1FA
:1025A000B7420ED20B4807443946204603F0A0F844
:1025B00038B10420607400BF0020207400BF0120E7
:1025C00099E70120607400BF0020207400BF00BFA5
:1025D00091E70000805101002DE9F04704460D46C7
:1025E00090460026002704B115B90120BDE8F08708
:1025F00000BF207C012801D10220F7E701202074D0
:1026000000BF02206074B8F1000F0BD128784FF49E
:10261000616148436978C1EB011100EB8100A97841
:10262000461812E0287802F095FF4FF4616100FB34
:1026300001F9687802F08EFFC0EB001009EB800909
:10264000A87802F087FF09EB00063146204603F028
:1026500066F838B10420607400BF0020207400BF09
:102660000120C3E72068406820F005002168486029
:10267000204602F0B8FF0746781C80B1B7420ED260
:102680000B4807443946204603F032F838B104209D
:10269000607400BF0020207400BF0120A6E7012065
:1026A000607400BF0020207400BF00BF9EE70000E0
:1026B0008051010070B5044600250CB9012070BDA1
:1026C0002068406820F0080021684860FFF770F833
:1026D000054607E0FFF76CF8401BB0F57A7F01D99B
:1026E0000320ECE72068406800F008000028F1D0E3
:1026F0000020E4E710B504460CB9012010BD606A63
:1027000038B96068B0F5827F00D105E00021E16151
:1027100002E00021216161610021A16294F8510071
:1027200028B9002084F85000204600F043F8022029
:1027300084F851002068006820F04000216808609B
:10274000A08800F48270218901F404410843A18922
:1027500001F400610843217C01F002010843217D5E
:1027600001F001010843218B01F400710843217F2E
:1027700001F0380108432021095D01F08001084380
:10278000218D01F400510843216808600421A069EB
:1027900001EA1040216848602068C06920F40060A8
:1027A0002168C86100206065012084F85100002084
:1027B000A4E7000010B586B0044600200290039004
:1027C000049005901F492068884238D100BF1E48F8
:1027D000C06940F480401C49C8610846C06900F4E3
:1027E0008040019000BF00BF00BF0846806940F0F4
:1027F000080088610846806900F00800019000BF69
:1028000000BF4FF420400290022003900320059067
:1028100002A90E48FEF714FE4FF4804002900020FB
:102820000390049002A90948FEF70AFE4FF4805075
:1028300002900120039002A90448FEF701FE06B0B1
:1028400010BD00000038004000100240000C0140A4
:1028500070B504460E4615461CB1A069B0F5807FE0
:1028600001D1012070BD94F8410028B9002084F8FE
:102870004000204600F01FF804F108012068FDF731
:1028800049FF3146A2682068FDF780FF2946236B87
:10289000D4E90102FDF71CFFA168206850F821006F
:1028A00040F00100A268216841F82200012084F86C
:1028B00041000020D6E710B50446FEF777FD10BDB5
:1028C0007047704730B502460B4600BF92F83C0097
:1028D000012801D1022030BD012082F83C0000BF58
:1028E000022082F83D00106844681068816824F076
:1028F00070041868044310684460144D1068A842BE
:1029000013D0134D1068A8420FD01068B0F1804F5B
:102910000BD0104D1068A84207D00F4D1068A84288
:1029200003D00E4D1068A84205D121F080015868EF
:10293000014310688160012082F83D0000BF002043
:1029400082F83C0000BF00BFC5E70000002C01403A
:10295000003401400004004000080040000C00402A
:1029600010B504460CB9012010BD94F83D0028B9FB
:10297000002084F83C00204600F026F8022084F86D
:102980003D00211D206803F007FA012084F846006D
:1029900000BF84F83E0001213F2001554020015531
:1029A0004120015500BF00BF012084F842004320B0
:1029B0000155442001554520015500BF012084F8F0
:1029C0003D000020D0E7000008B50168B1F1804F5C
:1029D0000DD100BF0649C96941F00101044AD16126
:1029E0001146C96901F00101009100BF00BF08BD97
:1029F00000100240014691F83D00012801D001205D
:102A00007047022081F83D00164B0868984213D0A9
:102A1000154B086898420FD00868B0F1804F0BD072
:102A2000124B0868984207D0114B0868984203D0AF
:102A3000104B086898420CD10868806800F00702C3
:102A4000062A0CD00868006840F001000B68186086
:102A500005E00868006840F001000B68186000207D
:102A6000CEE70000002C014000340140000400408B
:102A700000080040000C0040014691F83D0001288C
:102A800001D001207047022081F83D000868C0682D
:102A900040F001000B68D860164B0868984213D0CC
:102AA000154B086898420FD00868B0F1804F0BD0E2
:102AB000124B0868984207D0114B0868984203D01F
:102AC000104B086898420CD10868806800F0070233
:102AD000062A0CD00868006840F001000B681860F6
:102AE00005E00868006840F001000B6818600020ED
:102AF000C8E70000002C0140003401400004004001
:102B000000080040000C0040014600BF0868006A51
:102B100041F21112104050B90868006A921010403A
:102B200028B90868006820F001000A68106000BF3A
:102B3000012081F83D00002070472DE9F041044656
:102B40000D4600BF94F83C00012802D10220BDE8E8
:102B5000F081012084F83C0000BF022084F83D0091
:102B60002068866826F0770626F47F46206886600F
:102B70002868502833D00CDC202850D004DC0028F2
:102B80004BD0102851D149E0302849D040284CD1B1
:102B900039E060282DD0702807D0B0F5805F03D0D1
:102BA000B0F5005F41D10DE040E0D5E902136A685D
:102BB000206803F03FF92068866846F077062068B1
:102BC000866033E0D5E902136A68206803F032F9C1
:102BD0002068806840F480402168886026E0EA68C8
:102BE0006968206803F03AF95021206803F02DF954
:102BF0001CE0EA686968206803F043F960212068F6
:102C000003F023F912E0EA686968206803F026F906
:102C10004021206803F019F908E000BF00BF00BFA1
:102C20002968206803F011F900E000BF00BF01200F
:102C300084F83D0000BF002084F83C0000BF00BFC6
:102C400085E7704710B5044620680069C0F340006E
:102C5000D8B12068C068C0F34000B0B16FF0020086
:102C600021680861012020772068806900F0030056
:102C700018B12046FFF7E5FF05E0204600F0ADF86B
:102C8000204600F0ABF80020207720680069C0F3F0
:102C90008000D8B12068C068C0F38000B0B16FF088
:102CA000040021680861022020772068806900F410
:102CB000407018B12046FFF7C4FF05E0204600F041
:102CC0008CF8204600F08AF8002020772068006900
:102CD000C0F3C000D8B12068C068C0F3C000B0B174
:102CE0006FF0080021680861042020772068C0691F
:102CF00000F0030018B12046FFF7A3FF05E02046CF
:102D000000F06BF8204600F069F80020207720687A
:102D10000069C0F30010D8B12068C068C0F300108B
:102D2000B0B16FF01000216808610820207720689A
:102D3000C06900F4407018B12046FFF782FF05E03B
:102D4000204600F04AF8204600F048F8002020779E
:102D50002068006900F0010058B12068C06800F0E8
:102D6000010030B16FF0010021680861204600F0D9
:102D700037F820680069C0F3C01058B12068C068F7
:102D8000C0F3C01030B16FF08000216808612046A8
:102D9000FFF796FD20680069C0F3801058B12068E5
:102DA000C068C0F3801030B16FF040002168086146
:102DB000204600F021F820680069C0F3401058B1A7
:102DC0002068C068C0F3401030B16FF02000216867
:102DD00008612046FFF775FD10BD70477047000081
:102DE00010B5044603492068884201D1FEF7E6FC8D
:102DF00010BD00000014004070477047704700008D
:102E00002DE9F84F0446206805682068C6682068E8
:102E100047694FF00009CA4605F00F09B9F1000FE4
:102E20000AD105F0200038B106F0200020B120467C
:102E300003F0CCF8BDE8F88FB9F1000F71D007F0BE
:102E4000010018B906F4907000286AD005F001005E
:102E500030B106F4807018B1206C40F0010020649D
:102E600005F0040030B107F0010018B1206C40F00B
:102E70000200206405F0020030B107F0010018B133
:102E8000206C40F00400206405F0080048B106F012
:102E9000200010B907F0010018B1206C40F00800C4
:102EA0002064206C68B305F0200028B106F02000F3
:102EB00010B1204603F08AF820684069C0F3801AF8
:102EC000206C00F0080010B9BAF1000F22D02046A3
:102ED00003F051F82068406900F04000B0B120686C
:102EE000406920F0400021684861A06B50B156480D
:102EF000A16B4863A06BFEF79FF810B1A06B416B0C
:102F000088470CE02046FFF779FF08E02046FFF7EE
:102F100075FF04E02046FFF771FF0020206489E779
:102F2000FFE7206B012878D105F01000002874D04D
:102F300006F01000002870D000BF0020009020682C
:102F40000068009020684068009000BF00BF2068C3
:102F5000406900F04000C0B3A06B006840681FFAF1
:102F600080F8B8F1000F2FD0A08D40452CDDA4F8DB
:102F70002E80A06B806920281FD02068C06820F4B4
:102F800080702168C8602068406920F001002168D5
:102F900048612068406920F0400021684861202095
:102FA00084F83E00002020632068C06820F01000F4
:102FB0002168C860A06BFEF713F8A08DE28D801A1F
:102FC00081B22046FFF719FF34E7FFE7A08DE18DBE
:102FD000401A1FFA80F8E08DE8B1B8F1000F1AD05E
:102FE0002068C06820F490702168C860206840693B
:102FF00020F0010021684861202084F83E00002074
:1030000020632068C06820F010002168C860414635
:103010002046FFF7F2FE0DE7FFE705F0800030B134
:1030200006F0800018B1204603F0E3F802E705F04F
:10303000400030B106F0400018B1204602F0B6FF63
:10304000F8E600BFF6E60000635F000810B504462E
:103050000CB9012010BDA06900B100E000BF94F8D8
:103060003D0028B9002084F83C00204600F028F8F4
:10307000242084F83D002068C06820F400502168B6
:10308000C860204603F014F82068006920F49040DE
:10309000216808612068406920F02A0021684861A1
:1030A0002068C06840F400502168C8600020206497
:1030B000202084F83D0084F83E000020CAE700008C
:1030C00010B586B00446002002900390049005904D
:1030D0003B492068884237D100BF3A48806940F4B4
:1030E0008040384988610846806900F4804001903A
:1030F00000BF00BF00BF0846806940F0040088613F
:103100000846806900F00400019000BF00BF481528
:103110000290022003900320059002A92A48FEF79E
:103120008FF94FF48060029000200390049002A970
:103130002548FEF785F9002205212520FEF704FC2D
:103140002520FEF7F1FB39E020492068884235D17F
:1031500000BF1C48C06940F400301A49C8610846E5
:10316000C06900F40030019000BF00BF00BF0846F6
:10317000806940F0040088610846806900F004001E
:10318000019000BF00BF04200290022003900320A2
:10319000059002A90C48FEF753F908200290002080
:1031A0000390049002A90848FEF74AF9002205217D
:1031B0002620FEF7C9FB2620FEF7B6FB06B010BDA1
:1031C0000038014000100240000801400044004067
:1031D00070B504460D46164694F83E00202816D1D8
:1031E00005B10EB9012070BD00BF94F83C00012864
:1031F00001D10220F7E7012084F83C0000BF002045
:10320000206332462946204602F0D0FFEBE7022039
:10321000E9E7000010B504463849206888423ED1ED
:1032200037480078FF280FDB0020354908704FF43D
:1032300080713448FDF70FF84FF6FF730A2232A170
:10324000344800F075F825E03348007810BB334867
:1032500001782B4802780078401C294B18702948C7
:10326000815418460078801E2649085C0D2811D12B
:1032700018460078401E085C0A280BD10021184629
:103280000078801E1F4A1154002019460870012042
:1032900021490870012221491E48FFF799FF204962
:1032A0002068884228D11F48007868B91B480078F8
:1032B000BB2809D1194800781B49087019480078C3
:1032C000401C1849087012E01648007800280EDDEE
:1032D00014480078C8280ADA104801781248114AC0
:1032E000127881540F480078401C0E490870012262
:1032F0000A490E48FFF76CFF10BD0000003801407E
:103300003500002088090020CAFDBEDDD2E7B3F6F3
:1033100000000000500B0020360000203400002088
:103320000044004037000020880A0020940B002051
:103330002DE9F84F04460E46174699464FF0000A0D
:1033400094F83D0020285AD106B117B90120BDE8F4
:10335000F88F00BF94F83C00012801D10220F6E765
:10336000012084F83C0000BF00202064212084F864
:103370003D00FEF71DFA8246A784E784A068B0F5F9
:10338000805F04D1206910B90025B04602E03546BF
:103390004FF0000800BF002084F83C0000BF1BE095
:1033A0005346002280212046CDF8009002F051FFC4
:1033B00008B10320CBE745B9B8F80000C0F3080016
:1033C0002168486008F1020803E028782168486015
:1033D0006D1CE08C401EE084E08C0028E0D1534658
:1033E000002240212046CDF8009002F032FF08B1C3
:1033F0000320ACE7202084F83D000020A7E702204E
:10340000A5E7704700BFFEE700B585B000BF2E48B6
:10341000806940F008002C4988610846806900F006
:103420000800009000BF00BF00BF0846806940F060
:10343000800088610846806900F08000009000BF2D
:1034400000BF00BF0846806940F0800088610846E0
:10345000806900F08000009000BF00BF00BF0846F8
:10346000806940F0800088610846806900F0800033
:10347000009000BF00BF02200190112002900320A5
:10348000049001A91148FDF7DBFF4FF40070019093
:1034900001A90F48FDF7D4FF4FF40060019001200F
:1034A00002900320049001A90948FDF7C9FF4FF4D9
:1034B00080600190012002900320049001A904483B
:1034C000FDF7BEFF05B000BD00100240000C01403A
:1034D000001C01401FB54FF4806000900748019028
:1034E00069460748FDF7ACFF002211462820FEF789
:1034F0002BFA2820FEF7F6F91FBD0000000011107E
:10350000001C014070B506460D46144604F006FC4A
:1035100046F0010004F0CCFB04F03AFC00B114E0EA
:103520000DE004F09FFB2870012C03D104F07EFB1A
:1035300004F016FC6D1C601E84B204F04DFB002CE0
:10354000EFD104F00DFC002070BD04F009FC012057
:10355000FAE700001FB54FF4806000900120019051
:103560000320039069461348FDF76AFF00224FF4D9
:1035700080611048FEF716F900224FF400610D48F3
:10358000FEF710F90120FDF72BFE0122D1020948B8
:10359000FEF708F93720FDF723FE4FF48060009016
:1035A000002001900320039069460248FDF748FF80
:1035B0001FBD0000001C014010B5FFF725FFFFF7FD
:1035C000C9FFFFF787FF10BD2DE9F04105460F4603
:1035D0000024002600BF00BF00BF2BE004EB440026
:1035E00005EB8000807800F0010088B104EB440313
:1035F00005EB83039A8804EB440305EB8303996886
:1036000004EB440315F82300FFF77CFF064610E0A7
:1036100004EB440305EB83031A7904EB440305EB45
:103620008303996804EB440315F8230000F00BF8BA
:103630000646641C0EB9BC42D0D116B13046BDE876
:10364000F0812046FBE72DE9F04104460D46174680
:1036500004F086FB00260AE004F060FB204604F03C
:1036600027FB04F095FB00B904E0701C86B2B6F5A8
:103670007A7FF1DB00BFB6F57A7F00D112E007E078
:10368000287804F015FB04F083FB00B10AE06D1C00
:10369000381EA7F10101CFB2F2D104F061FB002086
:1036A000BDE8F08104F05CFB0120F9E778B5044641
:1036B0000D4600200090002600BF06FB05400122B9
:1036C000694600F085F808B9002078BD761C9DF8A1
:1036D0000000FF28F1D1701E064600FB0540F4E70C
:1036E0002DE9F0410446242018F0B8FA0546A84612
:1036F000002700BF114907FB04102246294600F0AD
:1037000067F820B9284603F095FFBDE8F0812878D6
:10371000FF280DD0002605E018F8061008A002F0DA
:10372000CBFE761CA642F7D307A002F0C5FE03E04D
:10373000284603F07FFFE8E77F1CDBE70000060870
:1037400025303258200000000D0A000070B50446F4
:103750000D46281BC60A3146204600F01BF870BDF6
:103760002DE9F04106460C463568002721460848F9
:10377000FFF79CFF804607E0620807FB04802946AC
:1037800000F050F82D6A7F1C002DF5D1BDE8F081C6
:103790000000060830B585B004460D4600200490B0
:1037A000FDF7ECFD002000900294012001900395AC
:1037B00004A96846FDF728FD28B1FDF77DFD4FF00F
:1037C000FF3005B030BDFDF777FD0020F9E70000C0
:1037D00070B504460D46164632462B4621462DB19D
:1037E000B4F1006F02D30E48844201D9002070BDAD
:1037F00004E0086818601B1D091D121F042A03D36A
:103800000748001F8142F4D904E011F8010B03F8C6
:10381000010B521E12B102488142F6D3B01AE6E7FC
:10382000000008082DE9F74F8AB0074690464FF090
:1038300000090025002009900024089046460B98B6
:1038400007904FF4006018F009FA8246B7F1006F54
:1038500007D34D48874204D8B8F1000F01D00B9828
:1038600018B900200DB0BDE8F08FFDF787FDA7F176
:10387000006008900898C50A0898C0F349000990AC
:103880000998C0F58064A64200D834466FE0FF2D49
:1038900000D96EE04FF0006101EBC5200A145146DB
:1038A000FFF796FF4FF000090BE009980AEB400084
:1038B00030F819004FF6FF71884200D003E009F19B
:1038C0000109A145F1D300BFA14532D200200690E5
:1038D0008346059001904FF0006000EBC5200390F7
:1038E00001200290049005A901A8FDF78DFC00B10C
:1038F0003FE04FF0000B09E0079830F81B100998E3
:103900000AEB400020F81B100BF1010BA345F3D389
:103910004FF0006101EBC5204A14514600F036F823
:1039200006900698B0F5806F02D00698361A20E00F
:103930000BE022463846079900F028F88346A34555
:1039400002D0A6EB0B0614E000BF079800EB440082
:10395000079007EB4407361B6D1C00200990B6F555
:10396000806F02D34FF4806000E030460446002EA2
:103970008DD100BFFDF7A0FC504603F05BFEA8EB25
:10398000060040006EE70000FEFF07082DE9F04149
:1039900004460D4616463746DFF8348012E04445AB
:1039A00000D911E0B5F800C062460023214601208D
:1039B000FDF78CFC20882988884200D004E07F1E17
:1039C000AD1CA41C002FEAD100BFF01BBDE8F081A4
:1039D000FEFF070870B50446002617480588408892
:1039E00045431548808846F60401884216D112489E
:1039F0008079012812D100200F4988712A2048813E
:103A00002B2088810021084600F028F901200A496E
:103A100088712B2048812A20888103E000210846F4
:103A200000F01CF900F04CF9002602E00348048085
:103A3000761CAE42FAD370BDB03500200008006C91
:103A40002DE9F84F07460D4690469946DDF828B017
:103A5000A8EB0700401C1FFA80FAA9EB0500401CE8
:103A600080B20090002414E0281981B2384600F09A
:103A7000F5F800F025F9002607E004FB0A603BF8A2
:103A8000100006490880701C86B25645F5DB601CA4
:103A900084B200988442E7DBBDE8F88F0008006C30
:103AA00010B5044694B90020134988714FF4305082
:103AB00008814FF4285048814FF42C5088814FF4EE
:103AC000F07008804FF44870488011E001200A49E6
:103AD00088714FF4305008814FF4285048814FF4DA
:103AE0002C5088814FF4487008804FF4F070488063
:103AF000002000F033F810BDB035002010B500F004
:103B0000A5FB10BD08B5034800880090BDF8000073
:103B100008BD00000008006C00B54FF45A4000F0EA
:103B2000C9F8FFF7EFFF02464FF45B4000F0C2F820
:103B3000FFF7E8FF02464FF6FF7000EA02224FF45B
:103B40005C4000F0B7F8FFF7DDFF0243B2F5004F2D
:103B500001D145F21052104600BD000030B50446B8
:103B600000230025082C1CD2DFE804F00406090C11
:103B70000F12151800BF14E043F0800311E043F06A
:103B800040030EE043F0C0030BE043F0200308E0E5
:103B900043F0600305E043F0A00302E043F0E003DC
:103BA00000BF00BF4FF458551946284600F092F860
:103BB0002949488900F07EF8002000F075F8264970
:103BC0004989491C88B200F075F8002000F06CF8B3
:103BD00021494989891C88B200F06CF81E4909887E
:103BE000491EC1F30F2000F05FF81B494989C91C29
:103BF00088B200F05FF818490978491EC8B200F091
:103C000053F81549888900F055F8002000F04CF869
:103C100011498989491C88B200F04CF8002000F055
:103C200043F80D498989891C88B200F043F80A4994
:103C30004988491EC1F30F2000F036F806498989EA
:103C4000C91C88B200F036F803498978491EC8B209
:103C500000F02AF830BD0000B035002000B5024663
:103C60000B461049488900F025F8101200F01CF8A6
:103C70000C494989491C88B200F01CF8D0B200F008
:103C800013F80849888900F015F8181200F00CF8AC
:103C900004498989491C88B200F00CF8D8B200F0B8
:103CA00003F800BDB03500200149088070470000CE
:103CB0000008006C0149088070470000FE07006C96
:103CC000024800890249088070470000B035002092
:103CD000FE07006C024A1080921C118070470000A1
:103CE000FE07006C00B5ABB02B4B0FCBCDE9292301
:103CF000CDE92701002127A818F07BFA27490860A1
:103D0000254B10330FCBCDE92523CDE9230100212D
:103D100023A818F06EFA224908601C221E4920319F
:103D20001CA8FCF77FFA00211CA818F0F5FA1D4921
:103D300008601C2218493C3115A8FCF773FA0021D1
:103D400015A818F0E9FA184908601C2212495831E0
:103D50000EA8FCF767FA00210EA818F0DDFA134947
:103D600008601C220C49743107A8FCF75BFA00219B
:103D700007A818F0D1FA0E4908601C2206499031B4
:103D80006846FCF74FFA0021684618F0C5FA094961
:103D900008602BB000BD0000E4EA01082400002008
:103DA000280000201000002014000020180000202F
:103DB0001C0000202000002000B585B000200190EC
:103DC00002900390049000BF4048806940F040009A
:103DD0003E4988610846806900F04000009000BFBD
:103DE00000BF00BF0846806940F0100088610846A7
:103DF000806900F01000009000BF00BF00BF0846BF
:103E0000806940F0080088610846806900F0080079
:103E1000009000BF00BF00BF0846806940F480707A
:103E200088610846806900F48070009000BF00BF80
:103E300000BF0846806940F020008861084680691C
:103E400000F02000009000BF00BF00BF084680695E
:103E500040F0040088610846806900F0040000908A
:103E600000BF00BF012220211948FDF79BFC002262
:103E700001211848FDF796FC012220211548FDF785
:103E800091FC10200190002002900120039001A9D4
:103E90000F48FDF7D5FA2020019001200290002064
:103EA00003900220049001A90948FDF7C9FA2120D6
:103EB000019001200290002003900220049001A9AB
:103EC0000448FDF7BDFA05B000BD00000010024037
:103ED00000180140000C01401CB50020019000902A
:103EE0002148224908604FF0FF30486000211F48F8
:103EF0008160FEF76DFA08B1FCF734FB01211B4825
:103F0000FEF74EFA45F25001884205D00A460121DB
:103F10001648FEF751FA00E01CBD15A002F0CCFADD
:103F200000208DF804008DF805008DF806000022B1
:103F300001A90E48FEF750FB08B1FCF713FB012066
:103F40008DF800008DF801008DF8020000208DF83A
:103F50000300002269460548FEF7C2FA08B1FCF7E3
:103F600001FB00BFD8E7000000280040D408002073
:103F700046495253542054494D450A0010B50E4845
:103F80000E4908604FF48270486000210B48816040
:103F9000C160016141614FF4007181610021C16123
:103FA0000162416281620A21C162FEF7A3FB08B18E
:103FB000FCF7D8FA10BD000000380040E8080020E7
:103FC00000B587B000200390049005900690019002
:103FD00002904FF08040144908604720486000215B
:103FE000114881604FF6FF71C1600021016181615C
:103FF000FEF7B6FC08B1FCF7B5FA4FF48050039019
:1040000003A90948FEF799FD08B1FCF7ABFA0020B7
:104010000190029001A90448FEF754FC08B1FCF796
:10402000A1FA07B000BD00004009002010B50D48FE
:104030000D4908604FF4E130486000210A48816072
:10404000C16001610C21416100218161C161FEF704
:10405000FDFF08B1FCF786FA012204490248FFF788
:10406000B7F810BD00380140500B0020340000208C
:1040700010B50D480D4908604FF4E130486000214B
:104080000A488160C16001610C21416100218161A8
:10409000C161FEF7DBFF08B1FCF764FA01220449B5
:1040A0000248FFF795F810BD00440040940B002033
:1040B0003400002000BFFEE7FDF730FF00BFFEE741
:1040C00018B10121034A116003E04FF48031014A25
:1040D00011607047100C014010B54FF020401B4993
:1040E00008601B48486001201A49086000204860A9
:1040F0000F2088600020C860086148618861164907
:1041000008604860032088600020C860086148613A
:10411000886106200D49886000210C48C16001615A
:104120001021416100218161C16141624FF48051E0
:1041300081620021C1624FF480410163002141632B
:104140008163054A0349FEF783FB10BD303500202B
:10415000040100A0783500209435002000B585B01A
:1041600000BF3648806940F0200034498861084625
:10417000806900F02000009000BF00BF00BF08462B
:10418000806940F0400088610846806900F0400086
:10419000009000BF00BF00BF0846806940F080006B
:1041A00088610846806900F08000009000BF00BF71
:1041B00000BF0846806940F48070886108468069C5
:1041C00000F48070009000BF00BF00BF0846406947
:1041D00040F4807048610846406900F480700090A7
:1041E00000BF00BF012002900390032004904020F4
:1041F000019001A91248FDF723F94FF400600190E6
:1042000001A90F48FDF71CF9022002904CF233700F
:10421000019001A90B48FDF713F94FF68470019046
:1042200001A90948FDF70CF94FF48050019001A94C
:104230000348FDF705F905B000BD0000001002407D
:1042400000200140001401400018014010B5FFF7A4
:1042500085FFFFF741FF3220FCF7C2FFFFF75CFC50
:10426000094988800846818808A002F025F900F0F5
:1042700013F80020FFF714FC0120FFF721FF4FF691
:10428000FF70FFF7A7FB10BDB03500204C43442062
:1042900049443A25780D0A0010B555214FF4704075
:1042A000FFF718FDAA214FF20100FFF713FD52217D
:1042B0004FF20200FFF70EFD08214FF20300FFF757
:1042C00009FD01214FF20400FFF704FD0D214FF419
:1042D0003040FFF7FFFC0D214BF20100FFF7FAFC25
:1042E0000D214BF20200FFF7F5FC34214FF436406C
:1042F000FFF7F0FC34214BF20160FFF7EBFC3421B7
:104300004BF20260FFF7E6FC0D214FF43140FFF75E
:10431000E1FC0D214BF20110FFF7DCFC0D214BF20B
:104320000210FFF7D7FC34214FF43740FFF7D2FCDF
:1043300034214BF20170FFF7CDFC34214BF20270B7
:10434000FFF7C8FC00214FF43240FFF7C3FC002107
:104350004BF20120FFF7BEFC00214BF20220FFF7D9
:10436000B9FC24214FF43840FFF7B4FC24214BF66C
:104370000100FFF7AFFC24214BF60200FFF7AAFC77
:1043800001214FF43F40FFF7A5FC0F214FF43340CC
:10439000FFF7A0FC0F214BF20130FFF79BFC0F2130
:1043A0004BF20230FFF796FC34214FF43940FFF70F
:1043B00091FC34214BF60110FFF78CFC34214BF6B5
:1043C0000210FFF787FC08214FF43540FFF782FC0D
:1043D00008214BF20150FFF77DFC08214BF20250FF
:1043E000FFF778FC03214FF44240FFF773FC2421D0
:1043F0004FF43A40FFF76EFC24214BF60120FFF703
:1044000069FC24214BF60220FFF764FC00214FF4E5
:104410003C40FFF75FFC78214BF60140FFF75AFC68
:1044200000214BF60240FFF755FC00214FF43D40C0
:10443000FFF750FC78214BF60150FFF74BFC0021B1
:104440004BF60250FFF746FC00214FF43E40FFF7C9
:1044500041FC64214BF60160FFF73CFC00214FF466
:104460005140FFF737FC33214DF20110FFF732FCCA
:1044700000214DF20210FFF72DFC34214DF2031004
:10448000FFF728FC00214DF20410FFF723FC3A212E
:104490004DF20510FFF71EFC00214DF20610FFF74C
:1044A00019FC4A214DF20710FFF714FC00214DF2D0
:1044B0000810FFF70FFC5C214DF20910FFF70AFC12
:1044C00000214DF20A10FFF705FC81214DF20B107F
:1044D000FFF700FC00214DF20C10FFF7FBFBA621BB
:1044E0004DF20D10FFF7F6FB00214DF20E10FFF715
:1044F000F1FBE5214DF20F10FFF7ECFB01214DF22E
:104500001010FFF7E7FB13214DF21110FFF7E2FB4C
:1045100001214DF21210FFF7DDFB54214DF2131073
:10452000FFF7D8FB01214DF21410FFF7D3FB8221D6
:104530004DF21510FFF7CEFB01214DF21610FFF7DB
:10454000C9FBCA214DF21710FFF7C4FB02214DF23F
:104550001810FFF7BFFB00214DF21910FFF7BAFB4F
:1045600002214DF21A10FFF7B5FB01214DF21B108D
:10457000FFF7B0FB02214DF21C10FFF7ABFB34211B
:104580004DF21D10FFF7A6FB02214DF21E10FFF7A2
:10459000A1FB67214DF21F10FFF79CFB02214DF29A
:1045A0002010FFF797FB84214DF22110FFF792FBBB
:1045B00002214DF22210FFF78DFBA4214DF22310B2
:1045C000FFF788FB02214DF22410FFF783FBB72190
:1045D0004DF22510FFF77EFB02214DF22610FFF76A
:1045E00079FBCF214DF22710FFF774FB02214DF22A
:1045F0002810FFF76FFBDE214DF22910FFF76AFB51
:1046000002214DF22A10FFF765FBF2214DF22B102B
:10461000FFF760FB02214DF22C10FFF75BFBFE2140
:104620004DF22D10FFF756FB03214DF22E10FFF730
:1046300051FB10214DF22F10FFF74CFB03214DF2DF
:104640003010FFF747FB33214DF23110FFF742FBEB
:1046500003214DF23210FFF73DFB6D214DF2331077
:10466000FFF738FB00214FF45240FFF733FB3321B3
:104670004DF20120FFF72EFB00214DF20220FFF743
:1046800029FB34214DF20320FFF724FB00214DF2DA
:104690000420FFF71FFB3A214DF20520FFF71AFB1C
:1046A00000214DF20620FFF715FB4A214DF20720AD
:1046B000FFF710FB00214DF20820FFF70BFB5C21F8
:1046C0004DF20920FFF706FB00214DF20A20FFF70B
:1046D00001FB81214DF20B20FFF7FCFA00214DF286
:1046E0000C20FFF7F7FAA6214DF20D20FFF7F2FAA2
:1046F00000214DF20E20FFF7EDFAE5214DF20F20DB
:10470000FFF7E8FA01214DF21020FFF7E3FA132139
:104710004DF21120FFF7DEFA01214DF21220FFF7D2
:10472000D9FA54214DF21320FFF7D4FA01214DF2AA
:104730001420FFF7CFFA82214DF21520FFF7CAFAB5
:1047400001214DF21620FFF7C5FACA214DF21720BC
:10475000FFF7C0FA02214DF21820FFF7BBFA002143
:104760004DF21920FFF7B6FA02214DF21A20FFF799
:10477000B1FA01214DF21B20FFF7ACFA02214DF2F4
:104780001C20FFF7A7FA34214DF21D20FFF7A2FAF3
:1047900002214DF21E20FFF79DFA67214DF21F20E6
:1047A000FFF798FA02214DF22020FFF793FA8421B7
:1047B0004DF22120FFF78EFA02214DF22220FFF761
:1047C00089FAA4214DF22320FFF784FA02214DF249
:1047D0002420FFF77FFAB7214DF22520FFF77AFA60
:1047E00002214DF22620FFF775FACF214DF2272046
:1047F000FFF770FA02214DF22820FFF76BFADE2155
:104800004DF22920FFF766FA02214DF22A20FFF728
:1048100061FAF2214DF22B20FFF75CFA02214DF2F2
:104820002C20FFF757FAFE214DF22D20FFF752FA08
:1048300003214DF22E20FFF74DFA10214DF22F20CB
:10484000FFF748FA03214DF23020FFF743FA3321F6
:104850004DF23120FFF73EFA03214DF23220FFF7EF
:1048600039FA6D214DF23320FFF734FA00214FF46D
:104870005340FFF72FFA33214DF20130FFF72AFAA8
:1048800000214DF20230FFF725FA34214DF20330BA
:10489000FFF720FA00214DF20430FFF71BFA3A210E
:1048A0004DF20530FFF716FA00214DF20630FFF702
:1048B00011FA4A214DF20730FFF70CFA00214DF2B0
:1048C0000830FFF707FA5C214DF20930FFF702FAD2
:1048D00000214DF20A30FFF7FDF981214DF20B3036
:1048E000FFF7F8F900214DF20C30FFF7F3F9A6219C
:1048F0004DF20D30FFF7EEF900214DF20E30FFF7CB
:10490000E9F9E5214DF20F30FFF7E4F901214DF20D
:104910001030FFF7DFF913214DF21130FFF7DAF90C
:1049200001214DF21230FFF7D5F954214DF2133029
:10493000FFF7D0F901214DF21430FFF7CBF98221B6
:104940004DF21530FFF7C6F901214DF21630FFF791
:10495000C1F9CA214DF21730FFF7BCF902214DF21F
:104960001830FFF7B7F900214DF21930FFF7B2F90F
:1049700002214DF21A30FFF7ADF901214DF21B3043
:10498000FFF7A8F902214DF21C30FFF7A3F93421FB
:104990004DF21D30FFF79EF902214DF21E30FFF758
:1049A00099F967214DF21F30FFF794F902214DF27A
:1049B0002030FFF78FF984214DF22130FFF78AF97B
:1049C00002214DF22230FFF785F9A4214DF2233068
:1049D000FFF780F902214DF22430FFF77BF9B72170
:1049E0004DF22530FFF776F902214DF22630FFF720
:1049F00071F9CF214DF22730FFF76CF902214DF20A
:104A00002830FFF767F9DE214DF22930FFF762F910
:104A100002214DF22A30FFF75DF9F2214DF22B30E1
:104A2000FFF758F902214DF22C30FFF753F9FE2120
:104A30004DF22D30FFF74EF903214DF22E30FFF7E6
:104A400049F910214DF22F30FFF744F903214DF2BF
:104A50003030FFF73FF933214DF23130FFF73AF9AB
:104A600003214DF23230FFF735F96D214DF233302D
:104A7000FFF730F900214FF45440FFF72BF93321B1
:104A80004DF20140FFF726F900214DF20240FFF7F9
:104A900021F934214DF20340FFF71CF900214DF2BA
:104AA0000440FFF717F93A214DF20540FFF712F9DC
:104AB00000214DF20640FFF70DF94A214DF2074063
:104AC000FFF708F900214DF20840FFF703F95C21D8
:104AD0004DF20940FFF7FEF800214DF20A40FFF7C2
:104AE000F9F881214DF20B40FFF7F4F800214DF267
:104AF0000C40FFF7EFF8A6214DF20D40FFF7EAF862
:104B000000214DF20E40FFF7E5F8E5214DF20F4090
:104B1000FFF7E0F801214DF21040FFF7DBF8132119
:104B20004DF21140FFF7D6F801214DF21240FFF788
:104B3000D1F854214DF21340FFF7CCF801214DF28A
:104B40001440FFF7C7F882214DF21540FFF7C2F875
:104B500001214DF21640FFF7BDF8CA214DF2174072
:104B6000FFF7B8F802214DF21840FFF7B3F8002123
:104B70004DF21940FFF7AEF802214DF21A40FFF74F
:104B8000A9F801214DF21B40FFF7A4F802214DF2D4
:104B90001C40FFF79FF834214DF21D40FFF79AF8B3
:104BA00002214DF21E40FFF795F867214DF21F409C
:104BB000FFF790F802214DF22040FFF78BF8842197
:104BC0004DF22140FFF786F802214DF22240FFF717
:104BD00081F8A4214DF22340FFF77CF802214DF229
:104BE0002440FFF777F8B7214DF22540FFF772F820
:104BF00002214DF22640FFF76DF8CF214DF22740FC
:104C0000FFF768F802214DF22840FFF763F8DE2134
:104C10004DF22940FFF75EF802214DF22A40FFF7DE
:104C200059F8F2214DF22B40FFF754F802214DF2D2
:104C30002C40FFF74FF8FE214DF22D40FFF74AF8C8
:104C400003214DF22E40FFF745F810214DF22F4081
:104C5000FFF740F803214DF23040FFF73BF83321D6
:104C60004DF23140FFF736F803214DF23240FFF7A5
:104C700031F86D214DF23340FFF72CF800214FF44D
:104C80005540FFF727F833214DF20150FFF722F886
:104C900000214DF20250FFF71DF834214DF2035070
:104CA000FFF718F800214DF20450FFF713F83A21EE
:104CB0004DF20550FFF70EF800214DF20650FFF7B8
:104CC00009F84A214DF20750FFF704F800214DF290
:104CD0000850FEF7FFFF5C214DF20950FEF7FAFF86
:104CE00000214DF20A50FEF7F5FF81214DF20B50E5
:104CF000FEF7F0FF00214DF20C50FEF7EBFFA6216E
:104D00004DF20D50FEF7E6FF00214DF20E50FEF77A
:104D1000E1FFE5214DF20F50FEF7DCFF01214DF2DE
:104D20001050FEF7D7FF13214DF21150FEF7D2FFBE
:104D300001214DF21250FEF7CDFF54214DF21350D8
:104D4000FEF7C8FF01214DF21450FEF7C3FF822188
:104D50004DF21550FEF7BEFF01214DF21650FEF741
:104D6000B9FFCA214DF21750FEF7B4FF02214DF2F0
:104D70001850FEF7AFFF00214DF21950FEF7AAFFC1
:104D800002214DF21A50FEF7A5FF01214DF21B50F2
:104D9000FEF7A0FF02214DF21C50FEF79BFF3421CD
:104DA0004DF21D50FEF796FF02214DF21E50FEF708
:104DB00091FF67214DF21F50FEF78CFF02214DF24B
:104DC0002050FEF787FF84214DF22150FEF782FF2D
:104DD00002214DF22250FEF77DFFA4214DF2235017
:104DE000FEF778FF02214DF22450FEF773FFB72142
:104DF0004DF22550FEF76EFF02214DF22650FEF7D0
:104E000069FFCF214DF22750FEF764FF02214DF2DA
:104E10002850FEF75FFFDE214DF22950FEF75AFFC2
:104E200002214DF22A50FEF755FFF2214DF22B5090
:104E3000FEF750FF02214DF22C50FEF74BFFFE21F2
:104E40004DF22D50FEF746FF03214DF22E50FEF796
:104E500041FF10214DF22F50FEF73CFF03214DF290
:104E60003050FEF737FF33214DF23150FEF732FF5D
:104E700003214DF23250FEF72DFF6D214DF23350DC
:104E8000FEF728FF00214FF45640FEF723FF3321A1
:104E90004DF20160FEF71EFF00214DF20260FEF7A9
:104EA00019FF34214DF20360FEF714FF00214DF28B
:104EB0000460FEF70FFF3A214DF20560FEF70AFF8E
:104EC00000214DF20660FEF705FF4A214DF2076012
:104ED000FEF700FF00214DF20860FEF7FBFE5C21AB
:104EE0004DF20960FEF7F6FE00214DF20A60FEF772
:104EF000F1FE81214DF20B60FEF7ECFE00214DF238
:104F00000C60FEF7E7FEA6214DF20D60FEF7E2FE13
:104F100000214DF20E60FEF7DDFEE5214DF20F603F
:104F2000FEF7D8FE01214DF21060FEF7D3FE1321EB
:104F30004DF21160FEF7CEFE01214DF21260FEF738
:104F4000C9FE54214DF21360FEF7C4FE01214DF25B
:104F50001460FEF7BFFE82214DF21560FEF7BAFE27
:104F600001214DF21660FEF7B5FECA214DF2176021
:104F7000FEF7B0FE02214DF21860FEF7ABFE0021F5
:104F80004DF21960FEF7A6FE02214DF21A60FEF7FF
:104F9000A1FE01214DF21B60FEF79CFE02214DF2A5
:104FA0001C60FEF797FE34214DF21D60FEF792FE65
:104FB00002214DF21E60FEF78DFE67214DF21F604B
:104FC000FEF788FE02214DF22060FEF783FE842169
:104FD0004DF22160FEF77EFE02214DF22260FEF7C7
:104FE00079FEA4214DF22360FEF774FE02214DF2FA
:104FF0002460FEF76FFEB7214DF22560FEF76AFED2
:1050000002214DF22660FEF765FECF214DF22760AA
:10501000FEF760FE02214DF22860FEF75BFEDE2106
:105020004DF22960FEF756FE02214DF22A60FEF78E
:1050300051FEF2214DF22B60FEF74CFE02214DF2A3
:105040002C60FEF747FEFE214DF22D60FEF742FE7A
:1050500003214DF22E60FEF73DFE10214DF22F6030
:10506000FEF738FE03214DF23060FEF733FE3321A8
:105070004DF23160FEF72EFE03214DF23260FEF755
:1050800029FE6D214DF23360FEF724FE55214FF4C9
:105090007040FEF71FFEAA214FF20100FEF71AFE34
:1050A00052214FF20200FEF715FE08214FF20300D5
:1050B000FEF710FE00214FF20400FEF70BFECC219C
:1050C0004FF43140FEF706FE00214BF20110FEF7CF
:1050D00001FE05214FF43640FEF7FCFD70214FF430
:1050E0003740FEF7F7FD70214BF20170FEF7F2FD3D
:1050F00001214FF43840FEF7EDFD03214BF601008E
:10510000FEF7E8FD03214BF60200FEF7E3FD032165
:105110004BF60300FEF7DEFD02214FF43C40FEF7A4
:10512000D9FD00214BF60140FEF7D4FD00214BF6DE
:105130000240FEF7CFFDD0214FF44940FEF7CAFDF3
:1051400002214CF60110FEF7C5FD50214CF602106D
:10515000FEF7C0FD50214CF60310FEF7BBFD5021B9
:105160004CF60410FEF7B6FD00214FF45450FEF744
:10517000B1FD55214FF46850FEF7ACFD4FF4885057
:10518000FEF798FD0120FCF72BF84FF42450FEF7B2
:1051900091FD10BD2DE9F04389B006460C46174637
:1051A000002E47D1042224A12046FBF780F80028D6
:1051B00039D14FF004088146042526E0605D2C2893
:1051C0000BD0605D3B2808D0605D2D2805D0605D68
:1051D0003A2802D0605D20280CD104EB0800FBF7D0
:1051E0007CF8494609F1010903AA42F8210005F1BA
:1051F000010809E0781EA84206D104EB0800FBF77D
:105200006CF803A941F829006D1CBD42D6D3DDE935
:105210000701CDE9000103A80FC800F00BFA002038
:1052200009B0BDE8F083314605A001F045F94FF023
:10523000FF30F5E70020F3E75345543A0000000043
:10524000BDE2CEF6C4A3CABD2564C6A5C5E4CAA7FF
:10525000B0DC0A0070B504460D46002608E0214681
:10526000641C4FF6FF7301220348FEF761F8761CB9
:10527000AE42F4D370BD0000940B002008B508497D
:105280000968C9084FF47A72B1FBF2F14143009109
:1052900000BF00BF00994A1E00920029F9D108BD45
:1052A0004400002010B53D48007818B900203C4962
:1052B000086010BD3948807801283AD1002038496B
:1052C00008603648C078392814D008DC07281DD07B
:1052D0000C2823D0122825D0282828D106E04928D8
:1052E00010D0B62816D0FF2821D11FE000202D496C
:1052F00008701DE001202B4988702848401C00F0F0
:1053000067FB15E001202749C87011E001202549FD
:1053100008710DE001202349487109E0012021496D
:10532000C87105E001201F49887101E000E000BF5D
:105330002FE01A488078FF2803D100201849086020
:10534000B7E716488078022823D101201449086065
:105350001248C078222802D0272818D10BE00F4825
:10536000401C00F0C7FA01200E49487008468068CA
:10537000401C88600CE00948401C00F0BBFA01208A
:105380000849487008468068401C886000E000BFFB
:1053900000BF00200149087001208AE7503B00202F
:1053A000A0010020D03B00202DE9F041B2B006461C
:1053B000C8216846FAF74FFF0020364908700024DC
:1053C0003DE01DF80400D0B9324801780078401C57
:1053D000304A107001EB810000EBC101501C00EB62
:1053E000410004EB840101EBC4012B4A02EB4101B3
:1053F0000A6802604A6842608968816000E01DE0D6
:10540000254617E01DF8050098B905EB850202EB6B
:10541000C502214B03EB420104EB840202EBC40200
:1054200003EB42000C22FAF742FF10B901200DF8FD
:1054300005006D1C3078A842E4D800BF641C3078A9
:10544000A042BED800271CE0394614A001F034F871
:105450004FF000080EE007EB870000EBC7020D4895
:10546000401C00EB420010F808100FA001F024F8D7
:1054700008F10108B8F10C0FEDD30DA001F01CF8F4
:105480007F1C04480078B842DED80020307032B06B
:10549000BDE8F08139360020DC3B00205449445BF4
:1054A00025755D3A000000002530325820000000CC
:1054B0000D0A000010B521488078E8B9204800782E
:1054C000C82819DA1F4800781F4908701D4840781D
:1054D00048701C48807888701A48C078C8700220CC
:1054E00008710020487106208871184888600846B5
:1054F0000EC8174800F0DAFC00F0F2FEFFF7D2FE0B
:105500000E488078012818D100200CE00F49095C72
:105510000B4A127802EB820303EBC2020C4B03EB43
:1055200042021154401C0C28F0D305480078401C5E
:105530000349087000200149887010BDD03B00204D
:10554000E4000020D80000202C500020455000200E
:10555000DC3B0020014600BF080900EB8000420050
:1055600001F00F001044C0B2704770B5044600252A
:10557000FCF71EF9054607E0FCF71AF9401BB0F5E9
:105580007A7F01D9032070BD2068406800F02000B8
:105590000028F1D02068406840F010002168486081
:1055A0000020F0E770B5044600252068406820F030
:1055B000100021684860FCF7FBF8054607E0FCF79F
:1055C000F7F8401BB0F57A7F01D9032070BD206841
:1055D000406800F020000028F1D00020F6E700B578
:1055E00000F0B4F800BD0146002200230868006AFC
:1055F00082B20868406A83B243EA0240704730B51D
:10560000014600220023002400200D68AD69AAB2E3
:105610000D68ED69ACB20D68AD69ABB29A4205D0C8
:105620000D68ED6963F31F45284601E044EA024036
:1056300030BD00002DE9F04704460D4616461F46D2
:10564000DDE9088908490C804D808E80CF80A1F863
:105650000880A1F80A90084600F0F2FE8246504603
:1056600000F0D8FEBDE8F08700000020F0B5044649
:105670000B460021002504F5FA61032B1BD2C3EB76
:10568000C30000EB03100926B0FBF6F01044001D28
:105690004618481E06EB90066427B0FBF7F0361A52
:1056A000481EBF00B0FBF7F030440726B0FBF6F70A
:1056B00006FB17051AE0C3EBC30000EB0310092635
:1056C000B0FBF6F01044001D084400EB9100642686
:1056D000B1FBF6F6801B4FF4C876B1FBF6F630440A
:1056E000801E0726B0FBF6F706FB1705E8B2F0BDF3
:1056F00070B504460D4600262046FFF736FF08B178
:1057000001260AE0280C21680862A8B221684862D4
:105710002046FFF747FF00B10126304670BD70B547
:1057200004460D4600262046FFF71FFF08B101265C
:105730000AE0280C21688861A8B22168C861204667
:10574000FFF730FF00B10126304670BD03490868FD
:105750000004091D0968084470470000182800402B
:1057600030B501460C7948788D7828440D79284465
:10577000C3B2002205E0501D085C1844C3B2501C9F
:10578000C2B2A242F7DB601D0B54002030BD000006
:1057900070B505460C4616464FF080500F4908601C
:1057A000032000F04BF8C4F3074000F047F8C4F3BF
:1057B000072000F043F8E0B200F040F804E0FF20DA
:1057C00000F03CF828706D1C301EA6F101018EB26D
:1057D000F5D14FF480500149086070BD100C0140B4
:1057E00010B514481449086008211348C16100210C
:1057F0008160012141610221016100218162072153
:10580000C1620021C16001624FF400718161002119
:1058100041624FF48270084948600846FCF76AFF0D
:1058200005480068006840F04000034909680860C6
:1058300010BD000000380040C035002010B50446FF
:105840004FF48050194908600AE018490868411E61
:10585000164A116020B9002000F02CF8C0B210BD2B
:10586000134800688068C0F340000028EDD010485D
:105870000068C4604FF480500C4908600AE00B498E
:105880000868411E094A116020B9012000F012F891
:10589000C0B2E4E706480068806800F00100002814
:1058A000EDD003480068C068C0B2D8E7D40000203B
:1058B000C035002010B50446214602A000F0FCFDD2
:1058C000002010BD3C3C2D464C4153482D455252C2
:1058D0004F522D3E3E2053504920B5C8B4FDB3ACC5
:1058E000CAB1216572726F72436F6465203D2025D5
:1058F000640A000070B505462CA000F0DDFD002410
:105900001DE004F10800295C2A48006800EB8002D1
:1059100002EBC000284A02EB40000C30015525483C
:10592000006800EB800202EBC000234A02EB40005B
:105930000C30015D21A000F0BFFD601CC4B20C2C36
:10594000DFDB1FA000F0B8FD6879C0F1FF00194946
:10595000096801EB810202EBC101174A02EB410128
:1059600008761448006800EB800202EBC000124A7F
:1059700002EB4000017E13A000F09EFD01200D49C6
:10598000096801EB810202EBC1010B4A02EB410104
:10599000487608480068401C0649086008460068C8
:1059A000C82801D30020086070BD00004550433A6C
:1059B00000000000E8000020DC3B002025782000EB
:1059C0000D0A0000525353493A25640A00000000B2
:1059D0000146002006E000F108028A5C0C4B1A54D4
:1059E000421CD0B20C28F6DB0A790F3A084B1A7326
:1059F000002007E000F114028B5C054A0D321354BD
:105A0000421CD0B2024A127B8242F3DC7047000093
:105A10003850002000BF10210E48FBF7B1FEA0B99E
:105A20004FF0FF3201210C48006816F045FC00BF22
:105A300010210848FBF7A4FE0028F9D04FF0FF32F0
:105A400002210548006816F037FC142016F0C0FB50
:105A5000E1E70000001801402400002086B000BFEC
:105A60000A2224480168684616F0D8FB9DE8070022
:105A700003AB07C30498062833D2DFE800F03203F3
:105A8000060A1C2017F040FE2CE01B4817F0C6FB4E
:105A900028E0002409E004EB840101EBC40217496B
:105AA00001EB420017F0BAFB641C1448401E00785A
:105AB000A042F0D816E0104817F070FC12E0002465
:105AC00009E004EB840101EBC4020C4901EB420044
:105AD00017F064FC641C0948401E0078A042F0D80E
