:020000040800F2
:10000000285F0020E1010008832E00083526000843
:10001000812E0008870400084550000800000000F9
:10002000000000000000000000000000490100087E
:1000300089040008000000008D0100087D4B0008C5
:10004000FB010008FB010008FB010008FB010008A0
:10005000FB010008FB010008FB010008FB01000890
:10006000FB010008FB010008FB010008FB01000880
:10007000FB010008FB010008FB010008FB01000870
:10008000FB010008FB010008FB010008FB01000860
:10009000FB010008FB010008FB010008FB01000850
:1000A000FB010008FB010008FB010008FB01000840
:1000B000FB010008FB010008FB010008FB01000830
:1000C000FB010008FB010008FB010008FB01000820
:1000D000FB010008B94F0008FB010008FB01000804
:1000E000B1050008FB010008FB010008FB01000846
:1000F000FB010008FB010008FB010008FB010008F0
:10010000FB010008FB010008FB010008FB010008DF
:10011000FB010008FB010008FB0100082D4C000852
:10012000FB010008FB010008FB010008FB010008BF
:10013000DFF810D000F024F900480047E958000823
:10014000AFF30080285F0020224B19680868B0E8F0
:10015000F00F80F30988BFF36F8F4FF0000080F33A
:1001600011884EF00D0E7047000000000648006830
:10017000006880F3088862B661B6BFF34F8FBFF3A3
:100180006F8F00DF00BF00BF08ED00E0EFF30980D4
:10019000BFF36F8F0F4B1A6820E9F00F106008B59E
:1001A0004FF0500080F31188BFF34F8FBFF36F8F74
:1001B00005F070FF4FF0000080F31188BDE80840A3
:1001C00019680868B0E8F00F80F30988BFF36F8FF3
:1001D000704700BF30000020EFF30580704700003B
:1001E0000648804706480047FEE7FEE7FEE7FEE7D1
:1001F000FEE7FEE7FEE7FEE7FEE7FEE72B4C000822
:1002000031010008202A04DB203A21FA02F0002103
:10021000704721FA02F3D040C2F120029140084316
:100220001946704740EA01039B0703D009E008C95B
:10023000121F08C0042AFAD203E011F8013B00F8AB
:10024000013B521EF9D27047D2B201E000F8012BF7
:10025000491EFBD270470022F6E710B513460A4646
:1002600004461946FFF7F0FF204610BD421C10F867
:10027000011B0029FBD1801A704730B504460020CD
:10028000034600E05B1C934203D2E05CCD5C401B64
:10029000F8D030BD70B5064604F054FF046805463A
:1002A0000A220021304600F033F82C6070BD2DE9A1
:1002B000F05F0546002092469B46884606468146EA
:1002C00040241BE02846414647462246FFF79AFF56
:1002D00053465A46C01A914110D311461846224639
:1002E00000F060F82D1A67EB01084F462246012006
:1002F000002100F057F817EB00094E41201EA4F131
:100300000104DFDC484631462A464346BDE8F09FFB
:100310002DE9F04791460F4680460446002614F822
:10032000015B2DB100F04EF80068405DC007F6D1CA
:100330002B2D02D02D2D18D0641E4A46394620465A
:1003400000F044F827B13968A14201D1C7F8008014
:1003500071054FF002040BD54042002803DD04F084
:10036000F1FE0460A007BDE8F08746F48066E4E78C
:100370000028F8DA04F0E6FE04606FF00040F2E7CF
:10038000064C074D06E0E06840F0010394E80700E2
:1003900098471034AC42F6D3FFF7CEFE88C500086C
:1003A000A8C50008202A04DB203A00FA02F1002048
:1003B00070479140C2F1200320FA03F319439040A3
:1003C0007047000000487047C8C400082DE9F05F7E
:1003D00082460078002715468B460AF10104B9468B
:1003E000302801D09DB113E014F8010B01277828C3
:1003F00003D0582801D045B10AE00DB1102D07D126
:100400000027102514F8010B02E0082500E00A255A
:100410000026B0460EE005FB080005FB06F10127AB
:1004200001EB10461FFA80F8B6F5803F00D3B946BD
:1004300014F8010B294600F018F80028EBDABBF19C
:10044000000F05D00FB1641E00E05446CBF8004009
:10045000B9F1000F06D004F075FE02210160C81E3C
:10046000BDE8F09F48EA0640FAE73A2800D2303863
:1004700020F02002412A01D3A2F13700884201D3A3
:100480004FF0FF307047FEE770470000F8B51446A4
:10049000069A1D46B52C2FDDB5282DDD17790126CE
:1004A000E21EC31E092F27D2DFE807F00510182728
:1004B0002D353F4A5F0000291EDB01B0ABB2A2B26E
:1004C000BDE8F04089B280B202F096BE621EB52A45
:1004D00012DB421EB52A0FDB009607E0A21EB52AEA
:1004E0000ADB821EB52A07DB022227E0ABB2A2B2EA
:1004F00089B280B202F0CEFEF8BDB52AFCDBB52B86
:10050000FADB03221AE0221FB52AF5DB021FB52A07
:10051000F2DB042212E0A4F10802B52AECDBA0F120
:100520000802B52AE8DB082208E0A4F10A02B52A8D
:10053000E2DBA0F10A02B52ADEDB0A220092D5E74F
:10054000B52AD9DBB52BD7DB0029D5DBABB2A2B2FC
:1005500089B280B202F050FE01B0A9B2A0B2BDE8EB
:10056000F0400123032202F0A3BDA4F11407B52F2C
:10057000C2DB0D48143400888442BDDC0B4905F110
:10058000140009888842B7DC142DB5D44FF6FF70EB
:10059000014602F07FF9143D2823A9B2B8B21A46E9
:1005A000009602F00BFFF8BD92000020940000209E
:1005B00010B5064C2068400507D52021044800F0FE
:1005C0005AFE00F065FB2015206010BD14040140A8
:1005D0000018014072B6FEE730B5B3F5804F05D084
:1005E0006FF0704140F82210002030BD8C690B681C
:1005F0008D6823434C688989240144EA05242343F8
:1006000043EA014150F82230014C23401943E9E705
:100610000000F0CF10B50A6850F8223023F0010333
:1006200040F822308C68082C23D000234A682243EB
:10063000CC681C430B6922431A434B690E4C1A4386
:10064000CB691A430B6A1A434B6A1A438B6A1A43E3
:10065000CB6A1A430B6B1A438B6913434A6B0968C5
:100660001A4350F82130A343134340F821300020AF
:1006700010BD4023DAE700007FFF0F0030B5D1E95D
:10068000003443EA04138C688D89240244EA05444B
:1006900023430C8A094D00EB820005EB04542343ED
:1006A0000C7D6D0105EB0464896923430B434168AC
:1006B00001F040410B434360002030BD0000F0FFDB
:1006C000FEB50020224C0090019002902078214D30
:1006D00000EB400005EB40000A228088401C010A24
:1006E0008DF800108DF801006946BA2000F052F82C
:1006F000002820DB9DF802009DF80310032200EB88
:10070000012087B29DF804009DF8051000EB012040
:1007100086B2207800EB400005EB40008088801D09
:10072000010A8DF800108DF801006946BA2000F02A
:1007300031F8002801DA0020FEBD9DF8070032469E
:1007400000F00303394604A004F0C8FC0120FEBDFC
:10075000AE00002038C300083C3C2D4754502D49C2
:100760004E464F2D3E3E20585F4D4158203D20259E
:10077000642C20595F4D4158203D2025642C205485
:10078000524947474552203D203078253032780A7B
:1007900000000000F0B587B00D460221ADF804104E
:1007A00000240121ADF80240ADF80E108DF80000D4
:1007B0008DF80C00901EADF81000A81C164602958E
:1007C00005900221684602F015F80746022803D07A
:1007D000641C052CF5DB01E0052C06DB28883B4674
:1007E00041BAB21E024804F079FC07B03846F0BDA9
:1007F000E4C4000838B500200090114800250078B6
:1008000000EB40010F4800EB41008088010A8DF8A1
:1008100000108DF801006C1E0BE003226946BA201F
:10082000FFF7B8FF44B2002C08DC294606A004F00C
:1008300055FC28466D1CEDB20528EED3204638BD88
:10084000AE00002038C300083C3C2D4754502D45D5
:1008500052524F522D3E3E20475450206932632061
:1008600074657374206661696C65642074696D6574
:100870002025642E0A000000FEB50024ADF80240D9
:1008800016460F468DF80000ADF8042002910121B4
:10089000684601F0AFFF0546012803D0641C052C13
:1008A000F5DB01E0052C06DB38882B4641BAB21E89
:1008B000024804F013FC2846FEBD000034C50008C1
:1008C0002DE9F041CCB04FF0FF37002601F088FF52
:1008D000FFF790FF040006D546A004F0FFFB20467A
:1008E0004CB0BDE8F08100F0C5F84FF4817005F020
:1008F0001DF8040012D04A4F4A49387800EB4000F6
:1009000001EB40008088000A2070387800EB40023C
:1009100001EB42010979617028B109E042A004F0BD
:10092000DDFB3846DCE7DFF8FC80EF2508F1100836
:100930004FF48071A01CFFF78EFC2A464146A01C94
:10094000FFF770FC2020E07003202071E020607130
:100950000122A271207A20F008002072387898B91C
:100960000220691E07E02318275C5B7806EB072648
:1009700033449EB2801C8842F5DB7042030A611941
:1009800001F8013C60554A7000262A1D2146BA2014
:10099000FFF772FF002802DC761C052EF5DB2A48E3
:1009A0000090401E0090FCD120788DF80000607807
:1009B0008DF801004FF496726946BA20FFF7EAFEFF
:1009C00003266F466D1E09E0A05DB95D884203D025
:1009D00031461EA004F082FB761CB6B2AE42F3DBB9
:1009E000204604F047FE01F08DFEFFF769FE00206F
:1009F00076E700003C3C2D4754502D4552524F5253
:100A00002D3E3E2049324320636F6D6D756E6963E4
:100A10006174696F6E204552524F52210A000000E6
:100A2000AE00002038C300083C3C2D4754502D45F3
:100A300052524F522D3E3E206D616C6C6F632066AA
:100A400061696C2021200A00FFFF0F003C3C2D470C
:100A500054502D4552524F522D3E3E20436F6E66EC
:100A60006967206661696C20212069203D2025642A
:100A7000200A000010B51F4986B00822D1E9040100
:100A8000CDE9030103A9BA20FFF784FE040003D5D2
:100A900019A004F023FB12E09DF811009DF810301E
:100AA0009DF812209DF813108DE807009DF80F2087
:100AB0009DF80E10342B05D01AA004F00FFB06B0E1
:100AC000204610BD25A004F009FB9DF80E00392832
:100AD000F5D19DF80F003128F1D19DF8100037288D
:100AE000EDD19DF811005328E9D128490020087064
:100AF000E5E7000030C300083C3C2D4754502D452D
:100B000052524F522D3E3E20475450207265616430
:100B10002076657273696F6E206661696C65640A20
:100B2000000000003C3C2D4754502D494E464F2DAF
:100B30003E3E20556E6B6E6F776E204943205665A2
:100B40007273696F6E3A2025632563256325635FA1
:100B500025303278253032780A0000003C3C2D47A1
:100B600054502D494E464F2D3E3E2049433220568B
:100B7000657273696F6E3A2025632563256325636B
:100B80005F25303278253032780A0000AE00002030
:100B900070B5084D0446A5F10A0635F8141036F86C
:100BA000140004F0B9F84FF0FF3026F8140025F8CF
:100BB000140070BDC200002070B5104E05460C46F2
:100BC000307818B903F082FE01203070210AA13973
:100BD000C1EB011202EB4111E0B200EB41008102D6
:100BE000A1F52131C81701EB5070C11080222846B1
:100BF00001F5001103F042FE002070BDAC000020A2
:100C000030B403460C46500700D0012000EBD20060
:100C10005043C1B218785B78812809D3402B07D3A1
:100C2000FF2B05D0FF2803D07F2B0DD2403B0CE0DB
:100C30000020024604E000BF401C04F8012BC0B2B3
:100C40008842F9D330BC7047413B8138C0B2C0EB19
:100C50004015DBB205EB801003EB400048430B4B23
:100C60000C2A0CD0102A0DD0182AEBD1D3F8192059
:100C700010440A460146204630BC03F0FFBDD3F8BD
:100C80000920F5E7D3F81120F2E7000050570020C3
:100C90002DE9F04F55A099B00068179028210DF16B
:100CA000040B02A8FFF7D7FA514F00260C22386830
:100CB0000190BA2001A90C90FFF76CFD010005D549
:100CC0004CA004F00BFA19B0BDE8F08F9DF80600B7
:100CD0000028F8D001067CD500F00F04052C78D848
:100CE000012C14D90DAD2421281DFFF7B4FA786822
:100CF0000D906FF0050000EBC4020DA90C98FFF7F2
:100D000049FDE200A91C04A8083AFFF78BFADFF8B6
:100D1000149109F1040AB9F80200A0421BD9A4F108
:100D200001084F4614E000250FE000BF0BEBC500A3
:100D3000C07800F00F011AF80600884207D0454538
:100D400001DBFFF725FF6D1CEDB2A542EED3761C4B
:100D500078888642E7DB5CB3002726E00BEBC70010
:100D6000C17801F00F050AF80750B0F80480C68872
:100D70004046314603F0A6FF2B480090294833B285
:100D800014300FFA88F230F915100A38164630F987
:100D900015000D93FFF77AFB22480A3020F8156002
:100DA0000A300D9B20F815307F1CA742D6DB0EE0E1
:100DB000B9F802004E4650B10025574604E008E05D
:100DC000785DFFF7E5FE6D1C70888542F8DBA9F8B9
:100DD0000240032217A90C98FFF74EFD0028BFF62A
:100DE00072AF12A004F07AF96DE70000814E0000A6
:100DF00030C300083C3C2D4754502D4552524F52B1
:100E00002D3E3E20493243207472616E73666572D6
:100E1000206572726F722E206572726E6F3A256451
:100E20000A200A00AE000020CC0000203C3C2D47E8
:100E300054502D494E464F2D3E3E20493243207797
:100E40007269746520656E645F636D64206572729B
:100E50006F72210A0000000010B590F821100022E6
:100E6000022905D00421816380F82020012010BDD3
:100E700001680B6823F00E030B6001680B6823F018
:100E800001030B6090F84030C46B012101FA03F3B9
:100E9000636080F8211080F82020104610BD00000B
:100EA0002DE9F05F90F821100024022903D00421DD
:100EB0008163012485E001680A6822F00E020A605D
:100EC00001680A6822F001020A603F4E3E4FB215E7
:100ED000DFF8F4C0DFF8F090DFF8ECA0DFF8E8B05E
:100EE000DFF8E4E00168783F13011502ACF1640C0F
:100EF000A9F15009AAF13C0AABF1280BAEF1140E8E
:100F00004FF48018B14227D9B9420ED0614512D0B2
:100F100049451DD0514518D0594518D0714501D1CA
:100F2000424615E0294EB14201D1012210E0274E80
:100F30001436B14201D110220AE0244E2836B142C3
:100F400006D0224A3C32914201D11A4600E02A469C
:100F50001E49091F0A602BE0B94213D0614517D022
:100F6000494522D051451DD059451DD0714501D16B
:100F700042461AE0B14202D14FF0807215E0134EA2
:100F8000B14201D1012210E0104E1436B14201D11C
:100F900010220AE00D4E2836B14206D00B4A3C32F0
:100FA000914201D11A4600E02A46074980394A6039
:100FB000012180F82110002180F82010416B01B13F
:100FC00088472046BDE8F09F8000024008040240A8
:100FD00070B5044600F05CF90546601C02D0044878
:100FE0000078044400F054F9401BA042FAD370BDCD
:100FF0002000002030B585B00020009001900290C4
:10100000039017480168002927D101210160154884
:10101000416941F4807141614069022400F48070AB
:10102000049041F20100CDE90004032569460395CF
:101030000D4800F01FF84FF68070CDE900046946B6
:1010400003950A4800F016F84CF23370CDE900041D
:1010500069460395064800F00DF805B030BD000064
:101060001400002000100240002001400018014040
:10107000001401402DE9F84FDFF8C891002409F170
:10108000040A0AF1040B23460F270BF1040ED1E0EA
:101090000125A54006EA0502AA4276D1DFF8A8C1DB
:1010A0004E68A6EB0C0866452BD00DDC032E34D021
:1010B00005DC36B3012E19D0022E2FD11BE0112EE4
:1010C00016D0122E2AD119E0B8F5881F19D006DCE7
:1010D000B8F5803F15D0B8F5801F1FD111E0B8F5E5
:1010E000001F0ED0B8F5041F18D10AE0CB6815E038
:1010F000CB681B1D12E0CB6808330FE0CB680C33C4
:101100000CE08B682BB1012B4FF0080303D0456135
:1011100004E0042302E0056100E00023FF2A01D877
:10112000064601E000F104064FEA840501D9A5F165
:101130002005D6F8008007FA05FC28EA0C0803FA17
:1011400005F548EA0508C6F800804D68ED0070D541
:101150003E4DAE6946F00106AE61AD6924F003066E
:1011600005F0010500953A4D06EB050CDCF808503A
:10117000A607360F07FA06F825EA0805DFF8D48037
:10118000404503D14FF0000825E052E0DFF8C88069
:10119000404502D14FF001081DE0DFF8C080404516
:1011A00002D14FF0020816E0DFF8B480404502D1CA
:1011B0004FF003080FE0DFF8AC80404502D14FF05C
:1011C000040808E0DFF8A080404502D14FF0050890
:1011D00001E04FF0060808FA06F848EA0508CCF8DE
:1011E00008804D68D9F80060ED034D4601D51643DF
:1011F00000E096432E604D68DAF80060AD03554676
:1012000001D5164300E096432E604D68DBF8006080
:10121000ED025D4601D5164300E096432E604D6811
:10122000DEF80060AD02754601D5164300E0964336
:101230002E60641C0A681646E2407FF429AFBDE8C0
:10124000F88F00000004014000001110001002405F
:101250000000014000080140000C01400010014066
:101260000014014000180140001C01408068084043
:1012700000D001207047C26821EA02030A4043EA15
:101280000241016170470AB1016170470904FBE73F
:1012900001488068704700002000002002488168F3
:1012A000027811448160704720000020074810B583
:1012B000016841F010010160032000F0A5F80F2043
:1012C00000F006F800F03EF8002010BD00200240BB
:1012D00000B5014687B00022372000F075F83720AE
:1012E00000F065F81348C16941F02001C161C0698F
:1012F00005A900F020000690684600F01BFA00F0F7
:1013000039FA0D494000B0FBF1F10D480B4A491E76
:101310000260416040F2E7320021C0E903218160B0
:1013200000F03AFE10B1012007B000BD044800F003
:1013300061FEF9E70010024040420F000014004037
:10134000300500200F4808B5816941F00101816135
:10135000816901F001010091C16941F08051C161D1
:10136000C069002200F0805000900F21901E00F014
:101370002BF80548416821F0E06141F000714160BF
:1013800008BD0000001002400000014000280DDBF5
:1013900000F01F02012191404009800000F1E0208F
:1013A000C0F88011BFF34F8FBFF36F8F70470028D5
:1013B00009DB00F01F02012191404009800000F18B
:1013C000E020C0F800117047F0B40E4B1B680C46CB
:1013D000C3F30223C3F10705042D00D90425191D09
:1013E000072901D2002300E0DB1E012606FA05F1E1
:1013F000491E214099409E40761E16403143F0BC64
:1014000003F090BE0CED00E0064900F0070208680A
:101410004FF6FF03184040EA0220034A10430860D9
:10142000704700000CED00E00000FA0501490120C2
:101430000862704700000E4210B52CA401461DCC76
:1014400086B08DE81D002DA02D4C00680490002072
:1014500004292FD00BDC01292FD0022928D100F03C
:1014600099F96168C1F38131491C49001EE00829DE
:1014700020D010291CD161682268D20118D5C1F38F
:101480008342C9031DF8020009D5616804AAC1F3AB
:101490004041515C1B4AB2FBF1F1484301E01A495B
:1014A00048436168490203D440000321B0FBF1F0D6
:1014B00006B010BD00F07EF9FAE7226AC2F30121FE
:1014C000012903D1920701D5C803F1E7022905D10B
:1014D000626A920702D549F64040E9E70329E7D15D
:1014E00021688903E4D54FF22440E1E702030405B3
:1014F000060708090A0B0C0D0E0F10100102000060
:101500000010024000127A0000093D002DE9F84366
:1015100005460078354CC00754D0E0690026C0006D
:1015200008D4E06940F08050E061E069012600F0F5
:10153000805000902E480168C90512D40168804689
:1015400041F480710160FFF7A3FE074605E000BF8C
:10155000FFF79EFEC01B642823D8D8F80000C00502
:10156000F6D5206A10F4407021D0A98801F44071AA
:1015700081421CD0206A1F49012220F440700A6079
:1015800000220A602062C00711D0FFF781FE0746E3
:1015900041F2883808E000BFFFF77AFEC11B4145E1
:1015A00002D90320BDE8F883206A8007F4D5206AB9
:1015B000696820F44070084320621EB1E06920F0A1
:1015C0008050E0612878800705D56068A96820F41C
:1015D0004040084360602878C00605D560686969A6
:1015E00020F48000084360600020DBE70010024028
:1015F0000070004040044242704700002DE9F0476F
:101600000F46050061D0434E306800F00700B84235
:1016100009D2306820F0070038433060306800F0AD
:101620000700B84251D128683B4C810712D54007CA
:1016300003D5606840F4E06060602878000703D557
:10164000606840F4605060606068A96820F0F00055
:10165000084360602878C00728D06868012810D047
:101660002168022810D0890700292EDA616821F04C
:10167000030101436160FFF70BFE804641F28839A8
:101680000DE021688903EFE78901EDE7FFF700FE30
:10169000A0EB0801494502D90320BDE8F087606846
:1016A000696800F00C00B0EB810FEFD1306800F0FA
:1016B0000700B8420BD9306820F00700384330608B
:1016C000306800F00700B84201D00120E5E7287833
:1016D000400705D56068E96820F4E0600843606071
:1016E0002878000706D56068296920F4605040EA30
:1016F000C100606000F05EF86168084AC1F3031140
:10170000515CC8400649086006480068FFF7E0FDE4
:101710000020C2E7002002400010024018640008C8
:101720002C0000202400002001490120C8647047DB
:10173000000042420F2202600C4A536803F0030388
:101740004360536803F0F0038360536803F4E0637D
:10175000C36052684FF4E06303EAD20202610448B6
:10176000006800F0070008607047000000100240A9
:10177000002002400448054900684968044AC1F352
:101780000221515CC84070472C000020001002402C
:10179000286400080448054900684968044AC1F300
:1017A000C221515CC84070472C000020001002404C
:1017B0002864000812A185B00FC98DE80F0014A09D
:1017C000144A006804905168134801F00C03042B7C
:1017D00010D0082B0ED1C1F38343C9031DF80300B9
:1017E0000AD5516804AAC1F34041515C0A4A5043EA
:1017F000B0FBF1F005B0704708494843FAE7000034
:1018000002030405060708090A0B0C0D0E0F101041
:10181000010200000010024000127A0000093D00A1
:1018200010B5044CA068000603D5FFF7E5FE802044
:10183000A07210BD001002402DE9F84F040070D0D6
:101840002078C04DC00749D06868C0F381000128E6
:1018500007D06868C0F38100022809D16868C00316
:1018600006D52868800339D560680028E7D035E0C0
:101870006068B0F5803F0BD010B1B0F5A02F11D04B
:10188000286820F480302860286820F4802002E056
:10189000286840F480302860606890B1FFF7F8FC59
:1018A00006460AE0286840F480202860F0E700BF80
:1018B000FFF7EEFC801B642873D828688003F7D5F7
:1018C0000CE0FFF7E5FC064605E000BFFFF7E0FC93
:1018D000801B6428F0D828688003F7D420789A4EBB
:1018E00080074FF001094FF0000839D5686810F003
:1018F0000C0F07D06868C0F38100022809D168681E
:10190000C00306D42868800714D52069012808D1AF
:1019100010E02069B0B1C6F80090FFF7B9FC0746A7
:1019200005E00AE1FFF7B4FCC01B0228C4D8286810
:101930008007F7D52868616920F0F80040EAC10007
:1019400028600DE0C6F80080FFF7A2FC074604E01F
:10195000FFF79EFCC01B022823D828688007F7D415
:10196000207800072CD57948A169D9B1C0F800903A
:10197000FFF78EFC074604E0FFF78AFCC01B022835
:101980000FD8686A8007F7D571484FF4FA5100689C
:10199000B0FBF1F0009000BF0098411E0091FAD218
:1019A0000EE080E0C0F80080FFF772FC074604E01C
:1019B000FFF76EFCC01B022875D8686A8007F7D451
:1019C0002078400760D5E8690027C00008D4E8699E
:1019D00040F08050E861E869012700F080500090F5
:1019E0005C480168C90513D40168834641F48071DD
:1019F0000160FFF74DFC824606E000BFFFF748FCA0
:101A0000A0EB0A0064284ED8DBF80000C005F5D52D
:101A1000E06801280AD008B1052813D0286A20F010
:101A200001002862286A20F0040002E0286A40F0E1
:101A300001002862E06841F2883B98B1FFF728FC7A
:101A400082460BE0286A40F004002862EEE700BFFF
:101A5000FFF71EFCA0EB0A0159455AD8286A8007F7
:101A6000F6D50CE0FFF714FC824605E0FFF710FC0A
:101A7000A0EB0A0159454CD8286A8007F6D41FB15B
:101A8000E86920F08050E861E06988B36968C1F3D3
:101A90008101022944D00228C6F8608004D0FFF7F3
:101AA000F7FB044638E034E0FFF7F2FB074604E0BA
:101AB000FFF7EEFBC01B02282BD828688001F7D463
:101AC000206AB0F5803F05D16868A16820F4003035
:101AD00008436860D4E908010843696821F4741177
:101AE00008436860C6F86090FFF7D2FB044606E042
:101AF00025E000BFFFF7CCFB001B022809D82868AF
:101B00008001F7D51BE000BFFFF7C2FB001B0228D6
:101B100002D90320BDE8F88F28688001F4D40EE0D4
:101B20000128F7D06868226A00F48031914204D11C
:101B3000616A00F47010884201D00120EAE70020B9
:101B4000E8E70000001002400000424280044242E8
:101B50002C00002000700040024850F8210080B2A4
:101B600070470000006C0040024800EB810091B219
:101B700001607047006C004070B5040003D0607CC9
:101B8000002610B105E0012070BD2674204600F04B
:101B900043F802206074204600F010F9042578BB59
:101BA000204602F0AAFD58BB2068416821F00701D9
:101BB0004160A06820B11748016821F0010101606F
:101BC0001448001F0168A26821F46071114301608C
:101BD0006068411C04D10120FFF72EFC80B1401E3B
:101BE00021688A6822F00F0242EA10428A60216866
:101BF000CA6860F30F02CA60204602F099FD08B17E
:101C00006574C0E7E67301206073A0736074002000
:101C100070BD0000306C004008B50068084988427B
:101C20000DD1FFF703FC0748C16941F00061C161B4
:101C3000C069054900F0006000900120086008BDFF
:101C400000280040001002403C0442422DE9F041CF
:101C50000D4604003BD0C5B3207C01283AD04FF09C
:101C6000010884F8108002206074E87872B302F0F2
:101C70003BFDE073687802F037FD6073A87802F0EE
:101C800033FDA073C2B2617BE07B02F099FD20734B
:101C90002870204602F070FD4FF46161B0FBF1F155
:101CA000002518292DD91822B1FBF2F1A1EB011161
:101CB00001EB4101C1EB011100EBC1163146204699
:101CC00002F0BDFD0427C8B90BE000E004E00120EC
:101CD000BDE8F0810220FBE7E07368786073A878C4
:101CE000CFE7204602F041FD411C0AD0B04208D2A5
:101CF00006490144204602F08EFD10B16774257438
:101D0000E5E784F8118025740020E1E780510100A7
:101D10002DE9F0410D46040024D01DB3207C01289C
:101D200023D04FF0010884F81080022060742878D6
:101D3000EAB102F0D9FC4FF4616100FB01F668786A
:101D400002F0D2FCC0EB001006EB8006A87802F08F
:101D5000CBFC35182946204602F071FD00260427E9
:101D600010BB0FE00120BDE8F0810220FBE74FF43B
:101D7000616148436978C1EB011100EB8100A978EA
:101D80004518E7E72068416821F0050141602046D9
:101D900002F0EBFC411C0AD0A84208D206490144DB
:101DA000204602F038FD10B167742674DAE784F833
:101DB000118026740020D6E78051010070B5040020
:101DC0000AD02068416821F008014160FFF760FAFD
:101DD00005464FF47A7608E0012070BDFFF758FA07
:101DE000401BB04201D9032070BD20684068000745
:101DF000F4D5002070BD70B5040009D0606A0025DC
:101E000040B125616561A56294F8510040B10CE0D4
:101E1000012070BD6068B0F5827FF4D0E561F2E723
:101E200084F85050204600F03FF8022084F851001A
:101E30002068016821F040010160A088218900F438
:101E4000827001F404410843A18901F40061084350
:101E5000217C01F002010843217D01F001010843CA
:101E6000218B01F400710843217F01F03801084300
:101E700094F8201001F080010843218D01F40051F5
:101E8000084321680860A069042101EA1040216824
:101E900048602068C16921F40061C1616565012065
:101EA00084F85100002070BD30B585B00024009446
:101EB0000194029403940068194988422DD119486D
:101EC000C16941F48041C161C16901F4804104915B
:101ED000816941F0080181618069134D00F00800BB
:101EE00004904FF4204000900220019003200390C2
:101EF00069462846FFF7BEF84FF48040CDE900045C
:101F0000694628460294FFF7B5F8A814009001200E
:101F1000019069462846FFF7ADF805B030BD0000D6
:101F20000038004000100240000C014070B515461A
:101F30000E46040007D0A069B0F5807F03D094F866
:101F4000410010B107E0012070BD002084F840007E
:101F5000204600F01DF804F108012068FEF75AFB46
:101F60003146A2682068FEF789FBD4E901022946C0
:101F7000236BFEF731FBA168206850F8212042F066
:101F8000010240F82120012084F84100002070BDAA
:101F9000FFF730B87047704710B5040003D094F8CD
:101FA0003D0010B107E0012010BD002084F83C0086
:101FB000204600F01EF8022084F83D00211D206814
:101FC00002F03AFE012084F8460084F83E0084F8CE
:101FD0003F0084F8400084F8410084F8420084F80F
:101FE000430084F8440084F8450084F83D00002054
:101FF00010BD704790F83D10012901D001207047B5
:10200000022180F83D100168CA6842F00102CA60EE
:1020100000680E4988420ED00D4988420BD0B0F1BD
:10202000804F08D00B49884205D00B49884202D026
:102030000A49884204D1816801F00701062903D0CA
:10204000016841F00101016000207047002C01404F
:10205000003401400004004000080040000C004033
:10206000704770B50446006801694FF00005C94328
:10207000890715D4C168C943890711D4E91E0161D4
:1020800001202077206880698007204602D0FFF772
:10209000E7FF04E000F098F8204600F096F8257776
:1020A00020680169C943490717D4C168C943490772
:1020B00013D46FF004010161022020772068806949
:1020C00010F4407F204602D0FFF7CAFF04E000F082
:1020D0007BF8204600F079F8257720680169C9432C
:1020E000090716D4C168C943090712D46FF0080163
:1020F0000161042020772068C0698007204602D053
:10210000FFF7AEFF04E000F05FF8204600F05DF856
:10211000257720680169C943C90617D4C168C94336
:10212000C90613D46FF010010161082020772068E0
:10213000C06910F4407F204602D0FFF791FF04E011
:1021400000F042F8204600F040F825772068016949
:10215000C943C90708D1C168C943C90704D1891E49
:102160000161204600F032F820680169C943090680
:1021700009D4C168C943090605D46FF08001016123
:102180002046FFF707FF20680169C943490609D4C3
:10219000C168C943490605D46FF04001016120467A
:1021A00000F01EF820680169C94389060BD4C16894
:1021B000C943890607D46FF0200101612046BDE8BC
:1021C0007040FFF7E8BE70BD704770470068034974
:1021D000884201D1FFF762B8704700000014004048
:1021E0007047704770470000F8B5026804461068F1
:1021F000D168536910F00F0F4FF0000553D003F072
:10220000010601F4907737435FD0C20705D0CA05B5
:1022100003D5226C42F001022264420705D5DA0799
:1022200003D0226C42F002022264820705D5DA074D
:1022300003D0226C42F004022264020707D501F0A9
:102240002002324303D0226C42F008022264226C46
:10225000002A34D0800604D5880602D5204602F034
:10226000A5FD20684069216CC0F38010090700D4E7
:1022700030B3204602F082FD2068416949061BD533
:10228000416921F040014161A06BA8B15849416307
:10229000A06BFEF705FE002811D0A06B416B01B0CA
:1022A000BDE8F040084783060FD58B060DD52046C4
:1022B000BDE8F84002F07ABD2046FFF793FFF8BD75
:1022C0002046FFF78FFF2564F8BD266B2023012EE3
:1022D00052D1C60650D5CE064ED510685068009033
:1022E000506940062AD5A16B086840680004000CBC
:1022F000EAD0A68D8642E7D9E0858869202818D0E3
:10230000D06820F48070D0602068416921F001011C
:1023100041612068416921F04001416184F83E300B
:1023200025632068C16821F01001C160A06BFEF731
:1023300093FDA08DE18D401A81B219E0A08DE18D51
:10234000401A81B2E08D0028BED00029BCD0D068F0
:1023500020F49070D0602068426922F0010242614E
:1023600084F83E3025632068C26822F01002C26003
:102370002046FFF736FFF8BD05062BD50D0629D5FB
:1023800094F83D002128F6D1A068B0F5805F01D116
:102390002069B0B1206A411C216221680078486040
:1023A000E08C401E0004000CE084E4D12068C16889
:1023B00021F08001C1602068C16841F04001C16026
:1023C000F8BD206A0088C0F308005060206A801CB5
:1023D0002062E5E74006F3D54806F1D5D1682046EE
:1023E00021F04001D16084F83D3000F022F9F8BDC1
:1023F0006D4D000870B5040004D094F83D00002530
:1024000010B106E0012070BD84F83C50204600F079
:1024100023F8242084F83D002068C16821F400518D
:10242000C160204602F01EFD2068016921F4904140
:1024300001612068416921F02A0141612068C16879
:1024400041F40051C1602564202084F83D0084F8E7
:102450003E00002070BD000030B585B0002400941F
:102460000194029403940068184988422CD11848BA
:10247000816941F480418161816901F48041049165
:10248000816941F0040181618069124D00F004000E
:1024900004904FF4007000900220019003200390FC
:1024A00069462846FEF7E6FD2815CDE90004694691
:1024B00028460294FEF7DEFD002205212520FEF7C6
:1024C00083FF2520FEF773FF05B030BD00380140C3
:1024D000001002400008014090F83E30202B0ED141
:1024E00059B152B190F83C30012B08D0012380F84B
:1024F0003C300023036302F011BD0120704702202D
:1025000070470000184810B542780021FF2A0DD30B
:1025100041704FF480711548FDF79DFE4FF6FF7333
:102520000A2213A1154800F02BF815E003789BB997
:102530000E4B84789C54521CD2B242701A4412F84A
:10254000023C0D2B08D112F8013C0A2B04D102F8F1
:10255000021C01220270417003490122BDE81040B3
:10256000891C0648FFF7B8BF1C000020EC030020C0
:10257000CAFDBEDDD2E7B3F600000000EC04002087
:102580002DE9F843044690F83D001F4616460D46D7
:1025900020284CD1C5B1BEB194F83C00012846D0EA
:1025A000012084F83C004FF00008C4F8408021204E
:1025B00084F83D00FEF76CFEA6848146E684A068A0
:1025C000B0F5805F03D004E00120BDE8F883206906
:1025D00028B12E465FF0000584F83C800EE000260E
:1025E000FAE78021204602F0B4FCA0B9AEB116F89B
:1025F000010B21684860E08C401EE084E08C4B4673
:102600004FF0000200970028EBD14FF04001204628
:1026100002F09FFC30B10320D7E735F8020BC0F37E
:102620000800E6E7202084F83D000020CDE70220E6
:10263000CBE77047FEE7000070B5234886B081699C
:1026400041F008018161816901F00801049181690B
:1026500041F080018161816901F08001049181690B
:1026600041F080018161816901F0800104918169FB
:1026700041F0800181618069032400F080000490B2
:102680000220009011200190694603940F48FEF744
:10269000F1FC4FF400700E4E009069463046FEF794
:1026A000E9FCF0140125CDE90005694603943046A4
:1026B000FEF7E0FCA802CDE9000569460394304628
:1026C000FEF7D8FC06B070BD00100240000C0140BF
:1026D000001C01401FB54FF4806000900748019036
:1026E00069460748FEF7C6FC002211462820FEF77F
:1026F0006BFE2820FEF74AFE1FBD000000001110EF
:10270000001C01401FB54FF4806000900748019005
:1027100069460748FEF7AEFC002211462820FEF766
:1027200053FE2820FEF743FE1FBD000000001110DD
:10273000001C014070B514460D46064603F06CF8C7
:1027400046F0010003F034F803F0A6F890B103F06E
:1027500087F8012070BD00BF02F0FEFF2870012C39
:1027600003D102F0DBFF03F07BF8641EA4B26D1C02
:1027700002F0A8FF002CEFD103F072F8002070BD2A
:102780002DE9FF414FF480640120CDE90040134E54
:102790000325694603953046FEF76CFC002221466E
:1027A0003046FEF770FD6700002239463046FEF7DE
:1027B0006AFD0120FEF70CFC012239463046FEF787
:1027C00062FD3720FEF704FC0020CDE90040694699
:1027D00003953046FEF74EFCBDE8FF81001C01402A
:1027E00010B5FFF729FFFFF7CBFFBDE81040FFF75B
:1027F00071BF000070B50E460546002419E000BF09
:1028000004EB440105EB81008278D20707D082886F
:10281000836815F821001946FFF78CFF06E002795E
:10282000836815F82100194600F007F8641C002899
:1028300002D1B442E4D1204670BD2DE9F0411646E4
:102840000D46804603F00CF800244FF47A7702F02E
:10285000E3FF404602F0ACFF03F01EF818B1641C21
:10286000A4B2BC42F3D3BC4206D00BE0287802F0FD
:102870009FFF03F011F820B102F0F2FF0120BDE844
:10288000F0816D1C761EF6B2F0D202F0E9FF002056
:10289000F5E70000014AD0801181704790000020C8
:1028A0002DE9FF5F1D460C468A46580700D00120DF
:1028B00000EBD50069084843203A00F0FF09D0B288
:1028C0000026DFF8A8B002904BE00C2D11D0102D9F
:1028D00014D0182D17D0202D45D12549029801EB91
:1028E000C0104FF00008875D380613D52148C28814
:1028F00014E00298204900EB400008E01F490298CC
:1029000001EB0010EDE702981D4900EBC00001EB60
:102910008000E6E70E9828B91648028921460098FB
:1029200000F038FD7806070E641CBBF80200A4B264
:10293000A04218D9A4EB0A00A84209D10098544635
:10294000401C80B20090BBF8001081420BD906E019
:1029500008F1010000F0FF08B8F1080FC4D3761C9D
:10296000F6B24E45B1D3BDE8FF9F00006856002087
:10297000B093000890000020F07B000864800008FD
:10298000548600082DE9F04F7C4C9DB04FF47846FA
:1029900060780021401C60707948E0603046FFF7A5
:1029A00079FF0021A3886288084600F077FA182191
:1029B00074A2CDE900214FF000080B46CDF8088045
:1029C000FA2232211E2002F03FF84FF4FC65E58028
:1029D000627871A103A802F091FBE068C088C0EBA7
:1029E000C00080B200F06AFAE06803A9C088C0EBBA
:1029F000C00080B200F0F0FAE068C088C0EBC00010
:102A000080B200F05BFA1F20E080E06867A1C08818
:102A1000C0EBC00080B200F005FB40F213134FF48E
:102A2000D277E6803A46591F322000F0E5FB4FF49A
:102A3000967A40F277133A465146322000F0DCFB9A
:102A400040F2DB19E5804B463A464FF4B97132202B
:102A500000F0D2FB4FF4C87B4B463A465946322031
:102A600000F0CAFB1F20E0803A4640F245131146B1
:102A7000322000F0C1FB40F28B133A464FF4E17173
:102A8000322000F0B9FB4FF4FA794846FEF7A0FA7D
:102A9000A0886288E03883B2E021002000F0FEF9CF
:102AA000E068C088C0EBC00080B200F007FA1F20C9
:102AB000E080E0683FA1C088C0EBC00080B200F0B9
:102AC000B1FAE68001276423C822514632200097DC
:102AD00000F074FCE5807823C82251466420CDF8CC
:102AE000008000F06BFC1F20E0809623C822514636
:102AF000FA20009700F062FC4846FEF769FAA088C9
:102B00006288E03883B2E021002000F0C7F9E06875
:102B1000C088C0EBC00080B200F0D0F91F20E08078
:102B2000E06826A1C088C0EBC00080B200F07AFA4D
:102B3000E68001233C225946962000F0B9FAE58050
:102B400000233C225946FA2000F0B2FA1F20E08010
:102B500001233C2259464FF4AF7000F0A9FA4846D1
:102B6000FEF736FAA0886288E03883B2E0210020C0
:102B700000F094F91DB0BDE8F08F00009000002037
:102B8000A4000020B6D4D3A6BABAD7D6CEAA28328B
:102B9000342A3234293A0000CFD4CABEB1E4C1BFCE
:102BA000BCC6CAFD203A202564200000BBADD6B1CA
:102BB000CFDF3A00BBADBED8D0CE3A00BBADD4B269
:102BC0003A00000010B58EB01C220B496846FDF794
:102BD00029FB0021684602F0EBFE084C06491C2246
:102BE00020601C3107A8FDF71DFB002107A802F09B
:102BF000DFFE60600EB010BDE06300080C00002036
:102C000010B58EB01C216846FDF725FB1C2107A8D6
:102C1000FDF721FB1C484FF02041102201601B49A9
:102C20004160062181600021C160C0E90412816118
:102C3000C16113020162C0E909139302C0E90B13D9
:102C4000416381630F20FF230090CDE901030DF163
:102C50000C0C11248CE81500CDE90803CDE9061011
:102C60000AAB0D9183E8150007AA69460648FFF7ED
:102C70005DF908B1FDF7AEFC0548C16941F480611A
:102C8000C1610EB010BD000038030020040100A097
:102C9000000001402DE9F04186B000242E48009448
:102CA000019402940394816941F04001816181693A
:102CB00001F040010491816941F010018161816955
:102CC00001F010010491816941F00801816181697D
:102CD00001F008010491816941F480718161816989
:102CE00001F480710491816941F020018161816961
:102CF00001F020010491816941F004018161806942
:102D0000164F00F004000490012220213846FEF7FF
:102D1000BAFADFF84C80002201214046FEF7B3FAF0
:102D2000012220214046FEF7AEFA2020012502268E
:102D3000CDE90005CDE9024669463846FEF79AF925
:102D40002120CDE90005CDE9024669464046FEF75F
:102D500091F906B0BDE8F081001002400018014072
:102D6000000C01401CB500241F4801941D4900942B
:102D70000160611EC0E90114FEF7FEFE08B1FDF717
:102D800029FC01211848FEF7E7FE45F25002904267
:102D900026D001211448FEF7E7FE14A002F09EF9A8
:102DA0008DF804408DF805408DF80640002201A9F9
:102DB0000D48FEF7ADFF08B1FDF70CFC01208DF8C2
:102DC00000008DF801008DF802008DF8034000220C
:102DD00069460548FEF73AFF002801D0FDF7FAFBE7
:102DE0001CBD0000002800408003002046495253CB
:102DF000542054494D450A000F4810B50D49016053
:102E00004FF48271416000218160C1604FF4007213
:102E10000161C0E90512C1610162416281620A215A
:102E2000C162FEF7E8FF002803D0BDE81040FDF7BF
:102E3000D1BB10BD00380040940300200E4810B5EF
:102E40000C4901604FF4E1314160002181600C22A6
:102E5000C160C0E904128161C161FFF7CBFA08B11A
:102E6000FDF7B8FBBDE81040012204490248FFF716
:102E700033BB000000380140EC0400201E0000209D
:102E8000FEE7FEF7CDFCFEE7034908B1012001E0B3
:102E90004FF4803008607047100C014070B51C463C
:102EA000154600F099FB044905FB04F00989BDE8CB
:102EB000704000F0B5BA0000900000200349CA68D5
:102EC000D3884A8801460020FFF7E8BF9000002021
:102ED00001B5009801E0401E00900028FBD108BD1C
:102EE0002DE9F041144620231A4600F075FB4FF0FF
:102EF000D8414FF43050088021461848FDF75CFE59
:102F00001749164F174E0B89CA8800204FF000450D
:102F100017F820104FEA012C07EB80014C7844EAA7
:102F20000C044FEA042C8C7844EA0C0491F803C09A
:102F30005FF000014CEA042C25FA01F414EA0C0FAE
:102F400001D0328000E03380491CC9B22029F3D37C
:102F5000401CC0B22028DBD3BDE8F08176560020AB
:102F6000900000200008006CF0B5194E203A1FFABE
:102F700082FCF568AA88EB882D6802FB03F7FC1732
:102F800007EB5474C4F3C7040CFB045500F024FB96
:102F90004FF0D8414FF43050088000213289F38837
:102FA0000C4E802710E0002015F801C027FA00FE23
:102FB0001CEA0E0F01D0338000E03280401CC0B20A
:102FC0000828F1D3491CC9B2A142ECD3F0BD0000DE
:102FD000900000200008006CF0B50F460646002562
:102FE0000F4C19E0E068638881882944994203D92D
:102FF000C188002531448EB2C088A18830448842FF
:1030000001D900252E4631462846FFF7ADFFE0687E
:103010007F1C8088284485B23A78002AE2D1F0BD2E
:10302000900000202DE9F0410F46054600241F4E78
:1030300037E07E2A1AD8F068738881882144994243
:1030400003D9C188002429448DB2C088B18828449E
:10305000884201D90024254629462046FFF784FFEF
:10306000F0687F1C8088204484B21AE0718804F1E3
:103070002000884202D900242035ADB2B18805F184
:103080002000884201D9002425463888010201EB3E
:10309000102082B229462046FFF722FF2034A4B236
:1030A000BF1C3A78002AC4D1BDE8F081900000200E
:1030B0002DE9FF4F80460024032083B00F4615B250
:1030C000A0EB42000FFA80F990E00698F0B3264694
:1030D00043E000BF08EB040007EB060A02901FFA6A
:1030E0008AF180B201F098FAA8EB040001901FFA6F
:1030F0008AF180B201F090FA381981B2A8EB060A81
:1031000000901FFA8AF001F087FAA7EB040B1FFA70
:103110008BF11FFA8AF001F07FFA0198A7EB060AFB
:103120001FFA8AF180B201F077FA02981FFA8AF149
:1031300080B201F071FA08EB060A1FFA8BF11FFA50
:103140008AF001F069FA009881B200E008E01FFA05
:103150008AF001F061FA761C36B2AE42BADD34E094
:1031600008EB04007E190190B1B280B201F054FA6C
:10317000A8EB040BB1B21FFA8BF001F04DFA38192D
:1031800081B2A8EB05060090B0B201F045FAA7EBBA
:10319000040A1FFA8AF1B0B201F03EFA7E1BB1B206
:1031A0001FFA8BF001F038FA0198B1B280B201F049
:1031B00033FA08EB05061FFA8AF1B0B201F02CFAD7
:1031C000009881B2B0B201F027FA641C24B2B9F1C0
:1031D000000F03DA09EB8400801D73E7611B09EB24
:1031E00081000A306D1E0FFA80F92DB2AC427FF7D4
:1031F0006CAF07B0BDE8F08F2DE9FE4F161ACDE990
:1032000000104FF000085D1A47464FF0FF30002EC7
:1032100002DD4FF0010102E003D14FF000018B46C7
:1032200002E08346C6F10006002D02DD4FF00100EA
:1032300002E003D14FF00000824602E08246C5F171
:103240000005AE4201DD344600E02C46601C4FF024
:103250000009029019E000BFDDE9001001F0DCF97F
:10326000B0442F44A04505DD0198A8EB040858445C
:1032700080B20190A74204DD00983F1B504480B209
:10328000009009F101001FFA80F902998945E3DDF8
:10329000BDE8FE8F2DE9FE4F1C460027131A002BB8
:1032A00000DC831A0FFA83FC631A002B00DC0B1B73
:1032B0000DB201951BB20FFA80FA4FF0FF35824232
:1032C00003D34FF001094E4601E0A9464E468C4219
:1032D00003D34FF00108454600E0A8469C4509DBB2
:1032E0004FF000090CEBDC704D4664464FEA600B72
:1032F000029346E0002603EBD370B0461C464FEA2B
:10330000600BCDF808C03CE00C990AEB01001F49A6
:103310000988884233DC0C99BAEB01002FD401985C
:1033200008441B490988884229DC0C990198401AF5
:1033300025D4012000904A000198134681B21FFA5B
:103340008AF000F03BF802990BEB01000FFA80FBCA
:10335000A3450CDBABEB04000FFA80FB0AEB090082
:1033600001990FFA80FA01EB080000B201900AEB14
:1033700006000FFA80FA0198284400B201907F1CE1
:103380003FB2A742C0DDBDE8FE8F000092000020E2
:103390009400002010B5084B14465A8890420AD277
:1033A0009A88914207D201F033F92146BDE81040D6
:1033B000012000F035B810BD900000202DE9F0414B
:1033C000064606981F4614460D4650B1304600F09A
:1033D00003F9124904FB07F0C988BDE8F04100F089
:1033E0001FB8B418641EA2B20B463046FFF704FFA4
:1033F0002F447F1EBBB2A2B2B9B23046FFF7FCFE2B
:103400003246BBB229461046FFF7F6FEBBB2A2B267
:10341000A0B22946BDE8F041FFF7EEBE90000020C3
:1034200010B54FF0D8444FF4305300222380034BA3
:1034300001E01980521C8242FBD310BD0008006CD1
:103440002A4810B5816986B041F020018161816907
:1034500001F020010491816941F04001816181699D
:1034600001F040010491816941F08001816181692D
:1034700001F080010491816941F480718161816969
:1034800001F480710491416941F4807141614069A6
:10349000174C00F4807004900120019002900320EA
:1034A00003904020009069462046FDF7E3FDE014BC
:1034B000009069462046FDF7DDFD022001904CF2A8
:1034C0003370009069460B48FDF7D4FD4FF68470C9
:1034D000009069460848FDF7CDFDA01400906946AC
:1034E0002046FDF7C7FD06B010BD000000100240E9
:1034F00000200140001401400018014010B50728C9
:1035000042D8234AC4074FF4F07110704FF4487347
:103510003BD05380A2F804104FF4585359040B8049
:1035200043011C4803804FF428530B800023038081
:1035300042F601230B800023038042F602230B8016
:1035400053885B1EC3F30724048042F603240C80D7
:10355000DBB203804FF42C530B800023038042F630
:1035600001330B800023038042F602330B809288E4
:10357000521EC2F30723038042F603330B80D2B2FC
:1035800002804FF43050088010BD51809380C3E713
:10359000900000200008006C10B5FFF751FF0120DB
:1035A000FFF772FC01F01CF800F048F8084C0948DD
:1035B00061880180A18841802078FFF79FFFA38860
:1035C00062880021BDE810400846FFF767BC000094
:1035D000900000206856002070B54FF0D8444FF49A
:1035E00028552580144D060A2E8042F60126268095
:1035F000C6B22E8042F6022626801044401E020AE1
:103600002A80721C2280C0B228804FF42C50208067
:10361000080A288042F601302080C8B2288042F68D
:1036200002302080C818401E010A298042F603316A
:103630002180C0B2288070BD0008006C70B54FF0CA
:10364000D8404FF470410180FE4955220A804FF264
:1036500001020280AA220A804FF202020280522254
:103660000A804FF20302028008220A804FF204020D
:10367000028001220A804FF4304202800D220A802B
:103680004BF2010202800D220A804BF202020280FC
:103690000D220A804FF4314202800D220A804BF243
:1036A000011202800D220A804BF2021202800D22CA
:1036B0000A804FF43242028000220A804BF201223B
:1036C000028000220A804BF20222028000220A803D
:1036D0004FF43642028044220A804BF2016202809B
:1036E00044220A804BF20262028044220A804FF494
:1036F0003742028034220A804BF201720280342267
:103700000A804BF20272028034220A804FF438425F
:10371000028034220A804BF60102028034220A80A1
:103720004BF60202028034230B804FF43F430380A8
:1037300001230B804FF4334303800F230B804BF2A4
:10374000013303800F230B804BF2023303800F23DE
:103750000B804FF43943038034230B804BF6011365
:10376000038034230B804BF60213038034230B8039
:103770004FF43543038008230B804BF20153038041
:1037800008230B804BF20253038008230B804FF475
:103790004243038003230B804FF43A4303803423D6
:1037A0000B804BF60123038034230B804BF602235E
:1037B000038034230B804FF43C43038000240C80AF
:1037C0005C1C048078250D809D1C058000250D80E3
:1037D0004FF43D45058000250D804BF601550580D1
:1037E00078250D804BF60255058000250D804FF49D
:1037F0003E45058000250D804BF60165058064255A
:103800000D804FF45145058000250D804DF20115C6
:10381000058033250D804DF20215058000250D80B1
:103820004DF20315058034250D804DF204150580F9
:1038300000250D804DF2051505803A250D804DF2CD
:103840000615058000250D804DF2071505804A25D7
:103850000D804DF20815058000250D804DF20915EB
:1038600005805C250D804DF20A15058000250D8030
:103870004DF20B15058081250D804DF20C1505804C
:1038800000250D804DF20D150580A6250D804DF209
:103890000E15058000250D804DF20F150580E525DC
:1038A0000D804DF21015058001250D804DF211158A
:1038B000058013250D804DF212150580012008802A
:1038C0004FF0D840691C01805E4954250D804DF2AF
:1038D0001415058001250D804DF2151505808225F2
:1038E0000D804DF21615058001250D804DF217153E
:1038F0000580CA250D804DF21815058002250D8022
:103900004DF21915058000250D804DF21A15058020
:1039100002250D804DF21B15058001250D804DF20D
:103920001C15058002250D804DF21D1505803425DE
:103930000D804DF21E15058002250D804DF21F15DC
:10394000058067250D804DF22015058002250D802C
:103950004DF22115058084250D804DF2221505803C
:1039600002250D804DF223150580A4250D804DF212
:103970002415058002250D804DF225150580B725FB
:103980000D804DF22615058002250D804DF227157C
:103990000580CF250D804DF22815058002250D806C
:1039A0004DF229150580DE250D804DF22A15058082
:1039B00002250D804DF22B150580F2250D804DF26C
:1039C0002C15058002250D804DF22D150580FE2554
:1039D0000D804DF22E15058003250D804DF22F151B
:1039E000058010250D804DF23015058003250D80D2
:1039F0004DF23115058033250D804DF232150580CD
:103A000003250D804DF2331505806D250D804FF493
:103A10005245058000250D804DF201250580332596
:103A20000D804DF20225058000250D804DF2032505
:103A3000058034250D804DF20425058000250D807C
:103A400002E000000008006C4DF2052505803A25D3
:103A50000D804DF20625058000250D804DF20725CD
:103A600005804A250D804DF20825058000250D8032
:103A70004DF2092505805C250D804DF20A25058053
:103A800000250D804DF20B25058081250D804DF21E
:103A90000C25058000250D804DF20D250580A625FD
:103AA0000D804DF20E25058000250D804DF20F256D
:103AB0000580E5250D804DF21025058001250D803E
:103AC0004DF21125058013250D804DF2122505803C
:103AD00001250D804DF21325058054250D804DF2F2
:103AE0001425058001250D804DF2152505808225C0
:103AF0000D804DF21625058001250D804DF217250C
:103B00000580CA250D804DF21825058002250D80FF
:103B10004DF21925058000250D804DF21A250580EE
:103B200002250D804DF21B25058001250D804DF2EB
:103B30001C25058002250D804DF21D2505803425AC
:103B40000D804DF21E250580022008804FF0D840E0
:103B5000691C0180FE4967250D804DF220250580F6
:103B600002250D804DF22125058084250D804DF222
:103B70002225058002250D804DF223250580A425F0
:103B80000D804DF22425058002250D804DF225255E
:103B90000580B7250D804DF22625058002250D8074
:103BA0004DF227250580CF250D804DF22825058073
:103BB00002250D804DF229250580DE250D804DF270
:103BC0002A25058002250D804DF22B250580F22542
:103BD0000D804DF22C25058002250D804DF22D25FE
:103BE0000580FE250D804DF22E25058003250D80D4
:103BF0004DF22F25058010250D804DF230250580D2
:103C000003250D804DF23125058033250D804DF2C1
:103C10003225058003250D804DF2332505806D2565
:103C20000D804FF45345058000250D804DF2013580
:103C3000058033250D804DF20235058000250D806D
:103C40004DF20335058034250D804DF20435058095
:103C500000250D804DF2053505803A250D804DF289
:103C60000635058000250D804DF2073505804A2573
:103C70000D804DF20835058000250D804DF2093587
:103C800005805C250D804DF20A35058000250D80EC
:103C90004DF20B35058081250D804DF20C350580E8
:103CA00000250D804DF20D350580A6250D804DF2C5
:103CB0000E35058000250D804DF20F350580E52578
:103CC0000D804DF21035058001250D804DF2113526
:103CD000058013250D804DF21235058001250D80DC
:103CE0004DF21335058054250D804DF214350580B5
:103CF00001250D804DF21535058082250D804DF290
:103D00001635058001250D804DF217350580CA2531
:103D10000D804DF21835058002250D804DF21935C4
:103D2000058000250D804DF21A35058002250D8095
:103D30004DF21B35058001250D804DF21C350580A7
:103D400002250D804DF21D35058034250D804DF284
:103D50001E35058002250D804DF21F350580672533
:103D60000D804DF22035058002250D804DF2213564
:103D7000058084250D804DF22235058002250D80B9
:103D80004DF223350580A4250D804DF224350580A4
:103D900002250D804DF225350580B7250D804DF2A9
:103DA0002635058002250D804DF227350580CF256B
:103DB0000D804DF22835058002250D804DF2293504
:103DC0000580DE250D804DF22A3505800220088011
:103DD0004FF0D840691C01805D49F2250D804DF2FD
:103DE0002C35058002250D804DF22D350580FE25F0
:103DF0000D804DF22E35058003250D804DF22F35B7
:103E0000058010250D804DF23035058003250D808D
:103E10004DF23135058033250D804DF23235058068
:103E200003250D804DF2333505806D250D804FF44F
:103E30005445058000250D804DF201450580332550
:103E40000D804DF20245058000250D804DF20345A1
:103E5000058034250D804DF20445058000250D8038
:103E60004DF2054505803A250D804DF20645058049
:103E700000250D804DF2074505804A250D804DF245
:103E80000845058000250D804DF2094505805C251B
:103E90000D804DF20A45058000250D804DF20B4541
:103EA000058081250D804DF20C45058000250D8093
:103EB0004DF20D450580A6250D804DF20E4505807D
:103EC00000250D804DF20F450580E5250D804DF252
:103ED0001045058001250D804DF211450580132503
:103EE0000D804DF21245058001250D804DF21345E0
:103EF000058054250D804DF21445058001250D8067
:103F00004DF21545058082250D804DF21645058040
:103F100001250D804DF217450580CA250D804DF213
:103F20001845058002250D804DF2194505800025B4
:103F30000D804DF21A45058002250D804DF21B457E
:103F4000058001250D804DF21C450580022501E00C
:103F50000008006C0D804DF21D45058034250D8054
:103F60004DF21E45058002250D804DF21F4505804E
:103F700067250D804DF22045058002250D804DF20C
:103F80002145058084250D804DF2224505800225BE
:103F90000D804DF223450580A4250D804DF224456A
:103FA000058002250D804DF225450580B7250D8041
:103FB0004DF22645058002250D804DF227450580EE
:103FC000CF250D804DF22845058002250D804DF24C
:103FD00029450580DE250D804DF22A450580022504
:103FE0000D804DF22B450580F2250D804DF22C45BC
:103FF000058002250D804DF22D450580FE250D80A2
:104000004DF22E45058003250D804DF22F4505808C
:1040100010250D804DF23045058003250D804DF2B1
:104020003145058033250D804DF23245058003254D
:104030000D804DF2334505806D250D804FF45545BB
:10404000058000250D804DF20155058033250D803A
:104050004DF202550580002008804FF0D840691CC1
:104060000180FF4934250D804DF20455058000255F
:104070000D804DF2055505803A250D804DF206550F
:10408000058000250D804DF2075505804A250D80DD
:104090004DF20855058000250D804DF2095505802B
:1040A0005C250D804DF20A55058000250D804DF2EE
:1040B0000B55058081250D804DF20C55058000259E
:1040C0000D804DF20D550580A6250D804DF20E5543
:1040D000058000250D804DF20F550580E5250D80EA
:1040E0004DF21055058001250D804DF211550580CA
:1040F00013250D804DF21255058001250D804DF2DE
:104100001355058054250D804DF214550580012569
:104110000D804DF21555058082250D804DF2165506
:10412000058001250D804DF217550580CA250D80AB
:104130004DF21855058002250D804DF21955058068
:1041400000250D804DF21A55058002250D804DF297
:104150001B55058001250D804DF21C55058002255B
:104160000D804DF21D55058034250D804DF21E55F4
:10417000058002250D804DF21F55058067250D80B5
:104180004DF22055058002250D804DF22155058008
:1041900084250D804DF22255058002250D804DF2BB
:1041A00023550580A4250D804DF224550580022558
:1041B0000D804DF225550580B7250D804DF2265511
:1041C000058002250D804DF227550580CF250D80F5
:1041D0004DF22855058002250D804DF229550580A8
:1041E000DE250D804DF22A55058002250D804DF209
:1041F0002B550580F2250D804DF22C5505800225AA
:104200000D804DF22D550580FE250D804DF22E5569
:10421000058003250D804DF22F55058010250D805A
:104220004DF23055058003250D804DF23155058046
:1042300033250D804DF23255058003250D804DF25A
:10424000335505806D250D804FF4564505800025BA
:104250000D804DF20165058033250D804DF202651C
:10426000058000250D804DF20365058034250D8005
:104270004DF20465058000250D804DF20565058031
:104280003A250D804DF20665058000250D804DF222
:10429000076505804A250D804DF2086505800025DB
:1042A0000D804DF2096505805C250D804DF20A6593
:1042B000058000250D804DF20B65058081250D8060
:1042C0004DF20C65058000250D804DF20D650580D1
:1042D000A6250D804DF20E650580002008804FF068
:1042E000D840691C01805E49E5250D804DF21065BE
:1042F000058001250D804DF21165058013250D8087
:104300004DF21265058001250D804DF21365058083
:1043100054250D804DF21465058001250D804DF268
:104320001565058082250D804DF2166505800125F5
:104330000D804DF217650580CA250D804DF2186578
:10434000058002250D804DF21965058000250D8040
:104350004DF21A65058002250D804DF21B65058022
:1043600001250D804DF21C65058002250D804DF262
:104370001D65058034250D804DF21E6505800225E2
:104380000D804DF21F65058067250D804DF220657B
:10439000058002250D804DF22165058084250D8064
:1043A0004DF22265058002250D804DF223650580C2
:1043B000A4250D804DF22465058002250D804DF267
:1043C00025650580B7250D804DF2266505800225FF
:1043D0000D804DF227650580CF250D804DF22865B3
:1043E000058002250D804DF229650580DE250D80B2
:1043F0004DF22A65058002250D804DF22B65058062
:10440000F2250D804DF22C65058002250D804DF2C0
:104410002D650580FE250D804DF22E650580032556
:104420000D804DF22F65058010250D804DF2306511
:10443000058003250D804DF23165058033250D8003
:104440004DF23265058003250D804DF23365058000
:104450006D250D804FF47045058055250D8001E0D8
:104460000008006C4FF201050580AA250D804FF26F
:104470000205058052250D804FF2030505800825B1
:104480000D804FF20405058000250D804FF4354561
:10449000058050250D804FF431450580CC250D80D9
:1044A0004BF20115058000250D804FF4364505803F
:1044B00005250D804FF43745058077250D804BF29B
:1044C0000175058077250D80951E058001250D80DD
:1044D000551E058003250D8002800D80521C028030
:1044E0000D80038002220A80048000220A809A1C28
:1044F000028000220A804FF43D42028001220A809D
:104500004BF60152028084220A804BF6025202804E
:104510001C220A804BF6035202801C220A804BF6B2
:104520000452028000220A804FF449420280D022C5
:104530000A804CF60112028002220A804CF6021216
:10454000028050220A804CF603120280502008801C
:104550004FF0D844501C2080204850210180411445
:104560002180002101804FF45451218000210180DD
:104570004FF47F412180AA2101804FF601712180F3
:10458000552101804FF602712180252101804FF6CF
:1045900003712180012101804FF47C41218016218B
:1045A00001804FF601412180A22101804FF6024196
:1045B0002180262101804FF468512180062202804B
:1045C0002180552101804FF488502080A020FCF7E5
:1045D000FFFC4FF42450208070BD00000008006CE8
:1045E00070B50A4C4FF40065256140F6FF26304651
:1045F000FEF76EFC280420613046FEF769FC256159
:104600003046BDE87040FEF763BC0000002001406A
:1046100001231A46FEF7E0BF10B5084C62889042AD
:104620000AD2A288914207D2FFF7F2FFE188BDE8E3
:1046300010400120FEF7F4BE10BD000090000020E5
:104640002DE9F04389B090460F46040033D104228F
:104650001EA13846FBF711FE38B121461DA000F01F
:104660003DFD601E09B0BDE8F083042500262C4600
:104670000DF1080914E0385D2C281ED03B281CD011
:104680002D281AD03A2818D0202816D0A8F10100D9
:10469000844204D17819FBF7FDFD49F82600641C1B
:1046A0004445E8D3DDE9060102ACCDE9000194E818
:1046B0000F0000F071F80020D4E77819FBF7EAFD4D
:1046C00049F82600651C761CE9E700005345543A7A
:1046D00000000000BDE2CEF6C4A3CABD2564C6A595
:1046E000C5E4CAA7B0DC0A00010901EB810100F0B2
:1046F0000F0000EB4100C0B2704770B50446FCF7F4
:10470000C7FD05464FF47A7606E0FCF7C1FD401B75
:10471000B04201D9032070BD206840688006F4D5FE
:104720002068416841F010014160002070BD000028
:1047300070B504460068416821F010014160FCF743
:10474000A7FD05464FF47A7607E000BFFCF7A0FD11
:10475000401BB04201D9032070BD2068406880062C
:10476000F4D5002070BD00F07FB80168086A496A7E
:1047700089B241EA00407047006881698AB2C16924
:104780008BB2816989B28A4203D0C06961F31F404C
:10479000704743EA0240704770B5084CDDE90456A3
:1047A00020806180A280E38025816681204600F020
:1047B0005FFCBDE8704000F047BC00000000002036
:1047C000F0B56424C1EBC1030927A500072603EB5C
:1047D00001130329B3FBF7F100F5FA60114401441A
:1047E0000AD2401EB0FBF4F201EB9001B0FBF5F0F1
:1047F000891A0844001D08E0B0FBF4F201EB9001B7
:10480000B0FBF5F0891A0844801CB0FBF6F106FBFA
:104810001100C0B2F0BD70B50D4606460024FFF78A
:104820006CFF48B93168280C08623168A8B2486248
:104830003046FFF77DFF00B10124204670BD70B502
:104840000D4606460024FFF758FF48B93168280C8A
:1048500088613168A8B2C8613046FFF769FF00B1CE
:104860000124204670BD0000034800680249091D6C
:10487000096801EB00407047182800402DE9F0411D
:10488000114F06464FF0805014460D463860032005
:1048900000F042F8C5F3074000F03EF8C5F30720EA
:1048A00000F03AF8E8B200F037F804E0FF2000F03A
:1048B00033F806F8010B641EA4B2F7D24FF480500F
:1048C0003860BDE8F0810000100C014010B5114CBB
:1048D0000F48012120600820E06161610020A06094
:1048E000022121610721C4E90A01E0604FF400714F
:1048F0002062A16160624FF4827060602046FDF723
:104900007AFA2068016841F04001016010BD0000A2
:1049100000380040F856002070B512494FF4805519
:104920000D60114B1C6805E00A68561E0E6001D22E
:1049300000200CE0A268D2439207F5D4E0600D603D
:104940001A6808E00868431E0B6004D2012000F0DA
:104950000DF8C0B270BD9068C043C007F2D1D068F6
:10496000F7E70000A0000020F856002010B501462F
:1049700002A000F0B3FB002010BD00003C3C2D461F
:104980004C4153482D4552524F522D3E3E205350DC
:104990004920B5C8B4FDB3ACCAB1216572726F725B
:1049A000436F6465203D2025640A00002DE9FF4F18
:1049B0001C4693B013460D468946600700D001207F
:1049C00000EBD401614301F0FF0A0C2C03D0102C42
:1049D00001D0182C32D1224669461846FCF710F94E
:1049E0000026DFF860B027E01DF806704FF00008E1
:1049F000380602D5BBF8062003E0209828B9BBF89A
:104A0000082029461398FEF7C5FC78066D1C070E92
:104A1000ADB2A5EB0900A04205D113984D46401C4C
:104A200080B2139006E008F1010000F0FF08B8F131
:104A3000080FDDD3761CF6B25645D5D317B0BDE8C6
:104A4000F08F0000900000202DE9F84F0D460AA9D4
:104A5000044691E8C0088046307800281ED0E81847
:104A600008EB020AA0EB07093278802A18D9AAEBD2
:104A70000700A04202DAE81985B24446A9450DDBD9
:104A80003B46324629462046CDF800B0FFF78EFF60
:104A9000E01984B216F8020F0028E5D1BDE8F88FBE
:104AA000AAEB5700A04202DAE81985B24446A945AC
:104AB000F4DB0D2A0CD03B4629462046CDF800B049
:104AC000FDF7EEFE04EB570084B216F8010FE3E7A2
:104AD000E81985B24446761CF4E7FDF753FF0A2037
:104AE00000F05AFFF9E700000EB5194D194C1A4FA6
:104AF0004FF4FA76287801280DD1184918A000F053
:104B0000EDFA1648FBF7B2FB82B214490020FFF71A
:104B100097FD00202870FFF726FE01460D4800F0A3
:104B200051FAE088628921898DE80700A3886288AC
:104B300021880DA000F0D2FA304600F02DFF202190
:104B40003846FCF798FB304600F026FFD2E700001D
:104B50001C00002000000020000C0140EC0300209D
:104B600052783A25730D0A0025642D25642D25649D
:104B70002025643A25643A25640D0A0010B55020BA
:104B800080F31188BFF34F8FBFF36F8F01F05CFB91
:104B900018B104494FF080500860002080F311885C
:104BA00010BD000004ED00E070B596B02821684605
:104BB000FBF751FB14210AA8FBF74DFB18210FA8A6
:104BC000FBF749FB0124052000250090CDE90254A4
:104BD0004FF48030019002260494CDE907604FF431
:104BE000E01009906846FCF727FE08B172B6FEE7B0
:104BF0000F20CDE90A064FF48060CDE90C50022168
:104C00000AA80E95FCF7FAFC08B172B6FEE74FF45D
:104C10008070CDE90F400FA8FCF778FC08B172B6A0
:104C2000FEE7FCF781FD16B070BD70470148FDF747
:104C300018BA000030050020F0B502681C4B1D4D6D
:104C40001D4E1E4F1E4C4FF0804C984209D0A04282
:104C500007D0604505D0A84203D0B04201D0B84289
:104C600004D122F0700E4A6842EA0E02984209D03E
:104C7000A04207D0604505D0A84203D0B04201D081
:104C8000B84203D122F44075CA682A434D6922F024
:104C900080022A4302608A68C2620A68826298427D
:104CA00001D0A04201D10969016301214161F0BD38
:104CB000002C01400004004000080040000C0040AF
:104CC000003401402DE9F041124D0F460646002404
:104CD00004EB440105EBC1008288B2420DD3C288C7
:104CE000BA420AD34288BA4207D835F83110B142E5
:104CF00003D8017B41B9012103E0017B012903D1E4
:104D00000021017301698847641CE4B2122CDFD3CF
:104D1000BDE8F0817457002070B5134B002200BF2E
:104D200002EB420503EBC504A688864217D933F887
:104D30003550854213D2E5888D4210D965888D4261
:104D40000DD202EB420103EBC1010020087321697F
:104D50002046884720466169BDE870400847521CDC
:104D6000D2B2122ADCD370BD7457002010B5406A4D
:104D70000021C185C184FDF735FA10BD0168CA68FC
:104D800022F49072CA6001684A6922F001024A6105
:104D9000016B012904D10168CA6822F01002CA60BF
:104DA000202180F83E1000210163704708B590F87B
:104DB0003E10222901D0022008BD82684FF48053A2
:104DC0009A4201D1016921B1816A9A421BD04AB14C
:104DD0000AE00268816A5268C2F308020A80816AA6
:104DE000891C08E0026972B10268526802F07F0211
:104DF0000A70816A491C8162C18D491E0904090C2F
:104E0000C18503D019E002685268F1E70168CA68F9
:104E100022F02002CA600168CA6822F48072CA6067
:104E200001684A6922F001024A61202180F83E109F
:104E3000016B012903D0FDF765FB002008BD0021AF
:104E400001630168CA6822F01002CA6001680A683A
:104E5000D20602D50A6849680091818DFDF7C1F933
:104E6000EBE7000070B5044600680169E26821F4D0
:104E70004051114301612169A068084361690843F9
:104E80002168CA6841F20C639A430243CA602068F1
:104E90004169A26921F44071114341611E492068B2
:104EA000884202D1FCF776FC01E0FCF763FC00EBE2
:104EB000C00101EB0012606864218000B2FBF0F3D6
:104EC000B3FBF1F36FF018067343B2FBF0F5B2FBDE
:104ED000F0F605EB8305322303EB0515B5FBF1F581
:104EE000B6FBF1F605F0F00505EB0615B2FBF0F6A2
:104EF000B2FBF0F0B0FBF1F06FF01802504306EB9C
:104F0000800003EB0010B0FBF1F0216800F00F000F
:104F10002844886070BD00000038014081628285AD
:104F2000C28500210164222280F83E2080F83C10D6
:104F30000168CA6842F48072CA6001684A6942F036
:104F400001024A610068C16841F02001C16000208F
:104F500070472DE9F041984617460E460446069DD7
:104F60001DE0681C1BD02DB1FCF792F9A0EB0800E6
:104F7000A84214D92068C16821F4D071C1602068AA
:104F8000416921F001014161202084F83D0084F84D
:104F90003E00002084F83C000320BDE8F08120683A
:104FA000006836EA000004D00020B842D9D00020C2
:104FB000F3E70120F9E700000148FDF715B900000B
:104FC000EC0400202DE9F047DFF874908846B1FB2F
:104FD000F9F4074640F2B27608E0B0B200F0F6FA13
:104FE00000F26D10844203DB241A761C002CF4DCE2
:104FF0000125B1B2E8B200F0FDFA844203DB241AC5
:105000006D1C0C2DF5DBB8FBF9F209FB12814FF496
:10501000616291FBF2F091FBF2F302FB13113C236E
:1050200091FBF3F291FBF3FC3E80641C7D80BC801D
:10503000083003FB1C11F8803A817981BDE8F087C4
:1050400080510100FEE7000008490A6842F01002A2
:105050000A60064B020C14331A601A1D80B21060ED
:10506000086820F010000860704700000428004025
:1050700070B504460088002540F2B276B04209D2ED
:10508000002070BD304600F0A1FA0544761CB6B28F
:1050900005F26D152088B042F4D8012606E021887B
:1050A000F0B200F0A7FA761C0544B6B26088B042B0
:1050B000F5D8A0886D1E2844618940F2A322504390
:1050C00001EBC011E0884FF4616208385043228937
:1050D000C2EB021200EB8200084470BD0FB4054B16
:1050E00010B503A9044A029800F040F810BC5DF81E
:1050F00014FB00005D560008D40000200FB4084BDC
:1051000010B504A902AA039800F030F8044602A9D9
:10511000002000F056FA204610BC5DF814FB000099
:10512000C35500080907090E002804DB00F1E02040
:1051300080F80014704700F00F0000F1E02080F8C4
:10514000141D704700487047E000002002E008C8C6
:10515000121F08C1002AFAD170477047002001E0F1
:1051600001C1121F002AFBD1704700002DE9FF4F3B
:105170008DB00F460546002606E025280BD0DDE958
:105180000F1290476D1C761C28780028F5D111B0BD
:105190003046BDE8F08F0024A246A1460122E9492D
:1051A00000E0044315F8013F203B02FA03F00842F7
:1051B000F7D128782A2810D06FF02F022878A0F194
:1051C0003001092914D80AEB8A0102EB410144F0AD
:1051D000020400EB010A6D1CF0E701CF5FEA000A50
:1051E00003D544F40054CAF1000A44F002046D1CD3
:1051F00028782E2817D115F8010F44F004042A2826
:105200000ED06FF02F022878A0F1300109290AD8BA
:1052100009EB890102EB410100EB01096D1CF2E78A
:1052200057F8049B6D1C28786C280FD006DC4C289E
:1052300017D068280DD06A2814D104E0742810D043
:105240007A280FD10DE044F400140AE044F48014ED
:1052500001E044F440146978814202D104F58014DD
:105260006D1C6D1C28786E281ED00CDC632830D095
:1052700004DC00288BD0582811D19FE0642867D027
:1052800069280CD164E073282DD004DC6F2872D01B
:10529000702804D194E075286ED078286DD0DDE9AF
:1052A0000F129047761C4BE1C4F30250022806D03F
:1052B000032809D0042801CF09D0066040E101CFBE
:1052C000F117C0E900613BE101CF068038E10670CB
:1052D00036E117F8040B8DF8000000208DF801006E
:1052E000EB46012003E057F804BB4FF0FF306107A5
:1052F0004FF0000102D40DE008F101018846494554
:105300000FDA8045F8DB1BF808100029F4D108E01B
:1053100008F1010188468142FADB1BF808100029D8
:10532000F6D1DDE90F23AAEB08008146214600F003
:1053300031F9304400EB080604E0DDE90F121BF8F8
:10534000010B9047B8F10108F7D221464846F2E038
:105350000A21C4F302524FF0000B0891022A04D034
:1053600001CFC117032A09D00AE0FF1D27F0070764
:10537000F7E8020108E02CE01EE01FE000B2C117D0
:10538000042A01D140B2C117021E71F1000206DAEF
:105390000023D0EB030063EB01012D2202E0220584
:1053A00004D52B228DF82420012203E0E20701D04E
:1053B0002022F7E7904653E00A210BE0102109E094
:1053C00010214FF0000B44F004044FF0080908913D
:1053D00003E008214FF0000B0891C4F30252022AA7
:1053E00004D001CF0021032A06D006E0FF1D27F0DC
:1053F0000707F7E8020103E080B2042A00D1C0B237
:105400004FF0000822072BD52A78702A07D0DDF844
:1054100020C08CF0100C5CEA0B0C05D00EE0402292
:105420008DF82420012208E050EA010306D0302341
:105430008DF824308DF8252002229046089B83F0B9
:10544000080353EA0B030BD150EA010201D16207B2
:1054500006D530228DF824204FF00108A9F101096A
:105460002A78582A04D038A20B9208AA0A920BE094
:105470003AA2F9E75B46089AFAF719FF0B9B9B5C87
:105480000A9A521E0A92137050EA0102F2D10A9847
:10549000ADEB000000F1200B600702D524F480344E
:1054A00001E04FF00109D94502DDA9EB0B0000E056
:1054B000002000EB0B0141440890AAEB010AE00335
:1054C00006D4DDE90F232146504600F063F8064478
:1054D0004FF0000908E009A911F80900DDE90F12F1
:1054E000904709F10109761CC145F4DBE0030CD5B6
:1054F000DDE90F232146504600F04CF8064404E055
:10550000DDE90F1230209047761C0899481E08905C
:105510000029F5DC08E00A980A990078491C0A91EC
:10552000DDE90F129047761CBBF10001ABF1010BD6
:10553000F1DC21465046DDE90F2300F019F806445E
:105540006D1C21E6092801003031323334353637FD
:1055500038396162636465660000000030313233BF
:10556000343536373839414243444546000000005F
:105570002DE9F041044600251E461746880404D450
:1055800005E039462020B0476D1C641EF9D5284639
:10559000BDE8F0812DE9F041044600251E46904605
:1055A000C80301D5302700E02027880404D505E092
:1055B00041463846B0476D1C641EF9D52846BDE803
:1055C000F0810A68531C0B60107070474FF4C8716B
:1055D000B0FBF1F201FB120149B16421B0FBF1F221
:1055E00001FB120109B1800701D0002070470120A2
:1055F0007047000010B540B10C2806D8022804D02E
:105600000549084410F8010C10BD0846FFF7DEFFFD
:105610001C30C0B210BD0000D463000870B5002477
:10562000FFF754F90C4D4FF44006641CE4B22122FC
:1056300031460948FFF722F92878AA2809D0142012
:10564000FBF7C6FC0A2CF0D32878AA2801D0012049
:1056500070BD002070BD00005057002013B54FF6FC
:10566000FF73012269460248FCF78AFF00981CBDBF
:10567000EC04002010B5002821D0114B0022001F9F
:10568000196803E0814203D80A4649680029F9D124
:1056900052B11368841A9C4204D100681844106007
:1056A000104602E0506000E0186039B102680B1A41
:1056B000934203D10B681A4402604968416010BDEF
:1056C000D800002070B5104D4FF400740022214620
:1056D0002846FBF7D8FD00F01BF80C4E01220221F2
:1056E0003046FBF7D0FD00F013F8002202213046CF
:1056F000FBF7C9FD00F00CF821462846BDE87040D4
:105700000122FBF7C0BD0000001C0140000C01405D
:105710000020401CC0B23228FBD3704710B50122D4
:1057200051020B48FBF7AFFDFFF7F2FF094C0122D6
:1057300002212046FBF7A7FDFFF7EAFF0022022126
:105740002046FBF7A0FDBDE81040FFF7E1BF0000D9
:10575000001C0140000C01402DE9F0410024DFF85D
:105760004880124E25464FF400776006040E012251
:1057700002213046FBF787FDFFF7CAFF3946404656
:10578000FBF774FD08B1641CE4B20022022130462C
:10579000FBF779FDFFF7BCFF6D1CEDB2082DE4D3DC
:1057A0002046BDE8F0810000001C0140000C0140D3
:1057B0002DE9F041164E0024DFF858800546771594
:1057C000280601D5012200E0002239464046FBF7B9
:1057D0005AFDFFF79DFF012202213046FBF753FDE2
:1057E000FFF796FF002202213046FBF74CFD072C05
:1057F00004D1012239464046FBF745FD6806050EF7
:10580000FFF786FF641CE4B2082CD9D3BDE8F08111
:10581000000C0140001C014070B501220E4D5402E5
:1058200021462846FBF72FFD0C4E0122022130466F
:10583000FBF729FDFFF76CFF002221462846FBF706
:1058400022FDFFF765FF002202213046FBF71BFD1A
:10585000BDE87040FFF75CBF001C0140000C014038
:1058600070B50B4D4FF40074002221462846FBF71B
:105870000AFD012202210748FBF705FDFFF748FF5B
:1058800021462846BDE870400122FBF7FCBC000021
:10589000001C0140000C014070B50122104E540262
:1058A00021463046FBF7EFFCFFF732FF0D4D01229A
:1058B00002212846FBF7E7FCFFF72AFF2146304686
:1058C000FBF7D4FC08B1012400E0002400220221EF
:1058D0002846FBF7D8FCFFF71BFF204670BD0000F1
:1058E000001C0140000C0140FBF7E0FCFFF75CF9F5
:1058F000FDF7D0F9FDF736FAFDF7A0FAFDF780F9CC
:10590000FDF77AFAFEF7E2FFFFF788FEFDF744FEA7
:10591000FAF7D6FFFDF756F900F045F8FEE7014625
:105920000020842900D0C81C70470000F0B50B305F
:10593000154D20F007010024144A0FE003688B4244
:105940000BD38B4205D95E1A43184768C3E9006739
:1059500000E04368136002C004E0021D10680028E4
:10596000ECD12046002802D1286808B10020F0BD03
:10597000064A07481060074A121A22F00702C0E9D7
:10598000002401202860D7E7DC000020D800002098
:105990002C590020285B002010B500B9012000F030
:1059A00015FB002010BD10B500F036FB002010BD27
:1059B0007FB50D4604464169B0F9080081B1A1697F
:1059C00071B1FFF7ACFFD4E905128DE80700D4E907
:1059D00000102B46226900F00CFC039004B070BD4F
:1059E000FFF79DFF03A9CDE90001208A2B4682B273
:1059F000D4E9001000F0D0FB012801D00020EDE731
:105A00000398EBE72DE9F041184C0F46054666690F
:105A10002068001D00F016FA38B9206890F82C10A4
:105A200001208840A1698143A161681C07D137B179
:105A30002168BDE8F0410E48091D00F047BA206812
:105A40003544B5424560216805D2A068BDE8F04103
:105A5000091D00F023BA6068091D00F01FFA206BD1
:105A6000854200D22563BDE8F081000030000020AF
:105A7000540600202DE9F041054600F033FA2E4C83
:105A80002069401C206120682C4F10B1E06940B3B0
:105A90002DE025602069012829D1002606EB86002B
:105AA00007EB800000F0ECF9761C072EF6D32348B4
:105AB0008C3000F0E5F92148A03000F0E1F91F48F2
:105AC000B43000F0DDF91D48C83000F0D9F91B48AA
:105AD000DC3000F0D5F919488C3060601430A060DB
